:020000040000fa
:08000000007e04000100000075
:020000040000fa
:04000800a80100004b
:020000040000fa
:04000c00a801000047
:020000040000fa
:04001000a801000043
:020000040000fa
:04001400a80100003f
:020000040000fa
:04001800a80100003b
:020000040000fa
:04001c00a801000037
:020000040000fa
:04002000a801000033
:020000040000fa
:04002400a80100002f
:020000040000fa
:04002800a80100002b
:020000040000fa
:04002c00a801000027
:020000040000fa
:04003000a801000023
:020000040000fa
:04003400aac8000056
:020000040000fa
:04003800a80100001b
:020000040000fa
:04003c00a801000017
:020000040000fa
:04004000a801000013
:020000040000fa
:040044002816010079
:020000040000fa
:04004800a80100000b
:020000040000fa
:04004c00a801000007
:020000040000fa
:04005000a801000003
:020000040000fa
:04005400a8010000ff
:020000040000fa
:04005800a8010000fb
:020000040000fa
:04005c00a8010000f7
:020000040000fa
:04006000a8010000f3
:020000040000fa
:04006400a8010000ef
:020000040000fa
:040068009c160100e1
:020000040000fa
:04006c00a8010000e7
:020000040000fa
:04007000a8010000e3
:020000040000fa
:04007400a8010000df
:020000040000fa
:04007800a8010000db
:020000040000fa
:04007c006adf000037
:020000040000fa
:040080006cce000042
:020000040000fa
:04008400b6160100ab
:020000040000fa
:04008800a8010000cb
:020000040000fa
:04008c00a8010000c7
:020000040000fa
:04009000a8010000c3
:020000040000fa
:0400940010b80000a0
:020000040000fa
:04009800a8010000bb
:020000040000fa
:04009c00a8010000b7
:020000040000fa
:0400a000a8010000b3
:020000040000fa
:0400a400a8010000af
:020000040000fa
:0400a800a8010000ab
:020000040000fa
:0400ac00a8010000a7
:020000040000fa
:0400b000a8010000a3
:020000040000fa
:0400b400a80100009f
:020000040000fa
:0400b800a80100009b
:020000040000fa
:0400bc00a801000097
:020000040000fa
:0400c000febf00007f
:020000040000fa
:0400c400a80100008f
:020000040000fa
:0400c800a80100008b
:020000040000fa
:0400cc00a801000087
:020000040000fa
:0400d000a801000083
:020000040000fa
:0400d400a80100007f
:020000040000fa
:0400d800a80100007b
:020000040000fa
:04010800a80100004a
:020000040000fa
:04010c00a801000046
:020000040000fa
:04011000a801000042
:020000040000fa
:04011400a80100003e
:020000040000fa
:04011800a80100003a
:020000040000fa
:04011c00a801000036
:020000040000fa
:04012000a801000032
:020000040000fa
:04012400a80100002e
:020000040000fa
:04012800a80100002a
:020000040000fa
:04012c00a801000026
:020000040000fa
:04013000a801000022
:020000040000fa
:04013400a80100001e
:020000040000fa
:04013800a80100001a
:020000040000fa
:04013c00a801000016
:020000040000fa
:04014000a801000012
:020000040000fa
:04014400a80100000e
:020000040000fa
:04014800a80100000a
:020000040000fa
:04014c00a801000006
:020000040000fa
:04015000a801000002
:020000040000fa
:04015400a8010000fe
:020000040000fa
:04015800a8010000fa
:020000040000fa
:04015c00a8010000f6
:020000040000fa
:04016000a8010000f2
:020000040000fa
:04016400a8010000ee
:020000040000fa
:04016800a8010000ea
:020000040000fa
:04016c00a8010000e6
:020000040000fa
:04017000a8010000e2
:020000040000fa
:04017400a8010000de
:020000040000fa
:04017800a8010000da
:020000040000fa
:04017c00a8010000d6
:020000040000fa
:04018000a8010000d2
:020000040000fa
:04018400a8010000ce
:020000040000fa
:04018800a8010000ca
:020000040000fa
:04018c00a8010000c6
:020000040000fa
:04019000a8010000c2
:020000040000fa
:04019400a8010000be
:020000040000fa
:04019800a8010000ba
:020000040000fa
:04019c00a8010000b6
:020000040000fa
:0401a000a8010000b2
:020000040000fa
:0401a400a8010000ae
:020000040000fa
:0401a800a8010000aa
:020000040000fa
:0401ac00a8010000a6
:020000040000fa
:0401b000a8010000a2
:020000040000fa
:0401b400a80100009e
:020000040000fa
:0401b800a80100009a
:020000040000fa
:0401bc00a801000096
:020000040000fa
:0401c000a801000092
:020000040000fa
:0401c400a80100008e
:020000040000fa
:0401c800a80100008a
:020000040000fa
:0401cc00a801000086
:020000040000fa
:0401d000a801000082
:020000040000fa
:0401d400a80100007e
:020000040000fa
:0401d800a80100007a
:020000040000fa
:100200004f7021000e7f22000e01880000000000c8
:10021000000020000000e000020032000001200089
:10022000200288000c000700e0142e0001002000ce
:1002300011000700000020000000e0000200320072
:10024000000002000000000052ee0200000000006a
:100250000040da000000fe004440a90040202000d9
:100260000000e0000300320000002000a001880030
:100270004440a8000000060091018800800078003a
:100280000000eb0015003700e280400032a0b4000f
:100290009101ba00e280400032a0b4009102ba009d
:1002a000e280400032a0b4000002eb00472bde00e9
:1002b000f507b200602ce10004003a000059eb00a1
:1002c0008301e900fdff3e00040037006128e100e2
:1002d000010032000082eb000b00070011c3ba00de
:1002e0001101ba000604e00003003a000200e00039
:1002f000e5ff3a0000000600f607b200960188000c
:1003000082007800f5ff37003159ba008301e90017
:100310000c0032002159ba008301e90008003200c4
:100320000400e00003003a00e280400032a0b40084
:10033000f5ff370011d9ba008301e900faff3a004e
:100340008100e800e180400032a0b4000000060017
:100350000040da000000fe0003f0a200889fbe000b
:100360008a9fbe008c1f7800f8000700ff00330052
:100370006450e1004f0032006420e100520032007e
:1003800003826c0007003b000905d0000306d00083
:10039000820f54000c065d0002003900020032009a
:1003a00089017800030678008582550004003d002d
:1003b0000003fd008103fd008502ea008b854200f9
:1003c000840f720002003b0060001000e080180003
:1003d0006011b8000005eb007a28e1000a0039003e
:1003e00006007800c75ddd00f707b2008780750062
:1003f0002d003700828171000a01780061056000dc
:100400008180d1000080d3008502e900f9ff3b0024
:10041000060440008784480002003b00600414008a
:10042000e0841c000988a300070032008a81710063
:1004300082817100610164008904d1000884d300c5
:100440008b05e800170037000978a30013003a0075
:100450000b00e000130034008b05e90008044400a1
:1004600089844c000a4474000978a3000d003a0006
:100470000b00e000070034008b05e900080444008d
:1004800089844c0001003a000b0020000978a30089
:10049000f7ff32000001eb0002003700828171009b
:1004a0000a0178006e0007000cf0a70001f0a00020
:1004b000b70037006420e10002003a00838f6c002f
:1004c000b70033000801be000200be00b0003700d4
:1004d000889fbe008a9fbe008c1f78009b0007008b
:1004e000a200330003866c006450e1002e0032004d
:1004f0006420e100330032006150e1002f0032003f
:100500006120e1003100320085855500eb07b00025
:1005100009002000080420000500370008044400fa
:1005200089844c000a0031000603430087834b0096
:100530000001530081815b00f8ff33000203be001d
:100540000800a0000804440089844c00f6ff39002c
:10055000c639dd0083017300010032001300200062
:100560008904d1000884d3000998a3000500320053
:100570000800a7000300a0008904d1000884d3006c
:100580008b05e8008904d1000884d3000001eb004a
:100590000281d2003200070001f0a1000cf0a70098
:1005a00001f0a0007a0037006420e1007c003200f6
:1005b0000801be000200be00f7ff37006120e10025
:1005c000770032006000b800f3ff37000000200021
:1005d00001f82700f0ff3700f4ff2f00ba003700c2
:1005e0000001be00440007000470a70003f0a10052
:1005f00003f8a30013003a006509b10010003200af
:10060000090035006928e1000200350001002800da
:100610000000050000004000818048008502e900dc
:10062000fcff3a0000000600f88f4200050035008c
:100630008100d1000080d3008502e800fcff3a0071
:10064000000006008000eb00000005004f89de007e
:1006500082017800b70037006011b800c50037008c
:1006600081002000618055000b003d000b00200040
:1006700061fe2f000100e1001d0034008281710045
:10068000610164008904d1000884d3000000e800ff
:10069000faff3a007100200061006400030070005e
:1006a000020060000900320061044400e0844c0054
:1006b0000988a500050032008b05e8006808e10004
:1006c00002003a008904d1000884d300f20f200010
:1006d0000258e10005003d00c75ddd00f907b200ea
:1006e0008980750008007800000006000bf82700dc
:1006f0008b00780000000500c70ade00f107b20099
:10070000f50fb20008003200e1cf420002003200d3
:100710000170a00024000500810f7000010032006c
:100720000408050044000500810f700002003a0033
:10073000140005008502e9000000400081c0480067
:10074000fcff3b000170a000240005000004be0077
:10075000e9ff07000003be000405be000200be0062
:10076000e5ff0700844f7500000006000200be0090
:100770006450e100050036006420e100020036000c
:100780000968a30001003a000800be000160a00053
:100790004f0678004f05be004f04be000000060063
:1007a000f0ff2f00f1ff2700f9ff3700889fbe0000
:1007b0008a9fbe008c1f7800e4ff0700ebff330028
:1007c00003866c006450e100240032006420e100e4
:1007d000270032006150e100220032006120e10078
:1007e000210032008b854200eb07b1000134b800d4
:1007f000003ab8000804420089844a00013ab8006f
:100800000030b8008880400009014a00040033002d
:100810000000400081804800020149008b05e9008a
:10082000c909dd00830170000100320013002000bf
:10083000c814de004814dd004709de001200b200d3
:10084000c808de000884700085ff070001f0a100e1
:100850000cf0a70001f0a000cdff37006120e100ff
:10086000cfff32000801be000200be00f7ff3700d4
:100870006150e100fcff3a00c9ff37006022b80078
:10088000060220000000d0008180d2000482d20045
:100890008582d2000000a0000202520083825a002a
:1008a000030031000202420083824a000000a100de
:1008b0000603e900f3ff3a0000000600efff07001f
:1008c0000400be0000000600889fbe008a9fbe0094
:1008d000841f78009dff07004f007800110033004f
:1008e000f0ff2f00838f6c0006003b0004056500bd
:1008f0000a00a7000800370009f0a6001000200039
:1009000008003700820f5400838f5c000300390019
:100910001000200001003e000000200009f0a700a8
:100920000000ea004f05be004f04be000000e000da
:1009300000000600881f7800030478000300e00030
:1009400007003d0060001000e08018006001190001
:10095000e081190002003b0001f02d000300370088
:100960000400070008f0a70001f0a0004f04780081
:1009700000000600889fbe008a9fbe0000827000b3
:100980000402710004827100260032000004be00df
:100990000200be006011b8006b0920009502200023
:1009a0000182cf000a0039000541b1000082cf006a
:1009b000070039000541b1000982cf000400390069
:1009c0000541b1000882cf00010039000541b100a6
:1009d00005425200120032000a003b008281710081
:1009e000610164008100d1000080d3008984d300bc
:1009f0000884d3008b05e8000442e800f7ff3a00c2
:100a0000070037000804440089844c0000004800b7
:100a1000818048008b05e9000442e900f9ff3a00b3
:100a20000fff07004f05be004f04be000000060088
:020000040000fa
:100a30002000000012000000210000001300000050
:100a40002200000014000000230000001500000038
:100a50002400000016000000250000001700000020
:100a600026000000180000002700000029000000f8
:100a70001100000019000000280000001a0000000a
:100a80000100000009000000020000000a00000050
:100a9000030000000b000000040000000c00000038
:100aa000050000000d000000060000000e00000020
:100ab000070000002a0000000800000011000000ec
:100ac000100000001f0000000000000000000000f7
:100ad00020000000120000002100000013000000b0
:100ae0002200000014000000230000001500000098
:100af0002400000016000000250000001700000080
:100b00002600000018000000270000002900000057
:100b10001100000019000000280000001a00000069
:100b20000100000009000000020000000a000000af
:100b3000030000000b000000040000000c00000097
:100b4000050000000d000000060000000e0000007f
:100b5000070000002a00000008000000110000004b
:100b6000100000001f000000000000000000000056
:100b7000200000001200000021000000130000000f
:100b800022000000140000002300000015000000f7
:100b900024000000160000002500000017000000df
:100ba00026000000180000002700000029000000b7
:100bb0001100000019000000280000001a000000c9
:100bc0000100000009000000020000000a0000000f
:100bd000030000000b000000040000000c000000f7
:100be000050000000d000000060000000e000000df
:100bf000070000002a0000000800000011000000ab
:100c0000100000001f0000000000000000000000b5
:100c100001020000030400000506000007080000b0
:100c2000090f000010110000120000000000000079
:100c3000110000001200000013000000140000006a
:100c40001c0000001b0000001a000000190000003a
:100c5000200000001f0000001e0000001d0000001a
:100c60000a00000009000000080000000700000062
:100c700006000000010000000b0000000c00000056
:100c8000a0000000000000000000000000000000c4
:100c9000d0000000880000008800000088000000ec
:100ca00000000000d0000000740200007402000088
:100cb0000000000000000000000000000000000034
:100cc00000000000440200001c020000300200008e
:100cd000040000000300000002000000010000000a
:100ce00005000000060000000700000008000000ea
:100cf000090000000a0000000b0000000c000000ca
:100d00000d0000000e0000000f00000010000000a9
:100d10001500000016000000170000001800000079
:100d20009a000000000000000000000088000000a1
:100d30009a00000078000000880000008800000091
:100d400088000000880000005402000054020000e7
:100d50001c020000440200004402000044020000a3
:100d60000000000000000000000000002c02000055
:100d70004d5500004943000000480000464d00006a
:100d80005a4b00004a0000004a7500006c20000029
:100d90003231000020320000303100003700000006
:100da000313500003a330000373a0000303400009b
:100db00000500000696e0000677300006865000065
:100dc0006e670000204d0000616f000000560000bb
:100dd000312e0000302e0000300000006d70000049
:100de000737a00006d40000031320000362e0000a2
:100df000636f00006d0000000c0a00000605000093
:100e000005050000050800000805000008050000b1
:100e100008060000080000000605000006050000a6
:100e2000050500000505000005050000050500009a
:080e30000605000005000000aa
:020000040000fa
:100e38001800fa00889fbe008a9fbe008c1f7800a9
:100e48006007980071079800020f9800130f980028
:100e580044579800555798006657980010c0b3003b
:100e6800104798000040eb00204798000040eb0036
:100e7800204798001a0037004e5090008080fb00f1
:100e88002e4090000080fb00008050000006e90022
:100e98000e0890009e089000a20020000300200089
:100ea8005e04020000000000804078000c0047004b
:100eb800314098000e0890009e089000a200200083
:100ec800030020003e04020000000000000f98000c
:100ed800110f98002e4090000040e800204798002d
:100ee800ae4090004e50900080cf5000e2ff390095
:100ef8000040eb0020479800120037004e50900049
:100f08008080fb002e4090000080fb000080500095
:100f1800ce5090008180fb000101e900ae409000b6
:100f28008180fb008100510081004700b1409000a2
:100f380000004700314098002e4090000040e80033
:100f480020479800ae4090005e50900080cf50003f
:100f5800eaff39004e5090008080fb005e50900000
:100f68000080fb00008050000000470001c1b30072
:100f7800314098005e5090000004e00040003200cc
:100f88000040eb0020479800380037001e409000d2
:100f98000004e000150032002e4090000080fb00a5
:100fa80000004700304090000004e0000f003a00c5
:100fb8002e4090008080fb004e5090000080fb0087
:100fc8000001e9005e5090000080fb000000510025
:100fd800808f500005003d0010c0b30010479800f6
:100fe8000040eb00004f7800040037000040eb00a1
:100ff80010479800ee509000014f7800aa95200005
:101008001b0020000a01be002e4090000080fb005b
:1010180000004700304090000080fb004400dd00e5
:101028008000eb0000004100818049002e419000c3
:101038000281fb004311dd00820178006e019000ff
:10104800028341008042eb001e4278000001be008e
:10105800fe00900006007800e2ea020000000000ae
:101068002e4090000040e80020479800ae409000d5
:101078004e50900080cf5000c4ff36003c0037002f
:101088000040eb0020479800350037001e409000d4
:101098000004e000120032002e4090000080fb00a7
:1010a80000004700304090000004e0000c003a00c7
:1010b8002e4090008080fb004e5090000080fb0086
:1010c8000000e900808f500005003d0010c0b3000b
:1010d800104798000040eb00004f780004003700ec
:1010e8000040eb0010479800ee509000014f780048
:1010f800a8952000190020000801be002e4090008d
:101108000080fb0000004700304090000080fb009a
:101118004400dd008000eb000000410081804900b0
:101128002e4190000281fb004311dd00820178000e
:101138006e019000028341008042eb001e4278005d
:101148000001be00fe00900006007800e2ea0200fe
:10115800000000002e4090000040e8002047980062
:10116800ae4090004e50900080cf5000c7ff39002d
:101178004f0678004f05be004f04be000080fa00fd
:10118800000006001800fa00889fbe008a9fbe0073
:101198008c1f78006007980071079800020f98006c
:1011a800130f9800445798005557980066579800b1
:1011b80010c0b300104798000040eb00204798008b
:1011c8000040eb00204798001a0037004e5090006e
:1011d8008080fb002e4090000080fb0000805000c3
:1011e8000006e9000e0890009e089000a20020006a
:1011f800030020005e040200000000008040780028
:101208000c004700314098000e0890009e0890009e
:10121800a2002000030020003e040200000000009d
:10122800000f9800110f98002e4090000040e80031
:1012380020479800ae4090004e50900080cf50005c
:10124800e2ff39000040eb00204798001200370009
:101258004e5090008080fb002e4090000080fb00e4
:1012680000805000ce5090008180fb000101e90011
:10127800ae4090008180fb00810051008100470052
:10128800b140900000004700314098002e40900087
:101298000040e80020479800ae4090005e50900063
:1012a80080cf5000eaff39004e5090008080fb004c
:1012b8005e5090000080fb00008050000000470056
:1012c800a1c0b300314098005e5090000004e000d7
:1012d800420032000040eb00204798003a003700f7
:1012e8001e4090000004e000150032002e409000df
:1012f8000080fb0000004700304090000004e00040
:101308000f003a002e4090008080fb004e50900065
:101318000080fb000001e9005e5090000080fb00a7
:1013280000005100808f500005003d0010c0b30040
:10133800104798000040eb00004f78000400370089
:101348000040eb0010479800ee509000014f7800e5
:101358002afa2f000b0020000a01be002e40900040
:101368000080fb0000004700304090008080fb00b8
:10137800600220000088b900000078008000eb00bf
:1013880000004100818049002e4190000281fb004d
:101398004411dd00820178006e0190000283410053
:1013a8008042eb001e4278000001be00fe00900063
:1013b80006007800e2ea0200000000002e409000db
:1013c8000040e80020479800ae4090004e50900042
:1013d80080cf5000c2ff36003e0037000040eb00cf
:1013e80020479800370037001e4090000004e000b6
:1013f800120032002e4090000080fb0000004700e1
:10140800304090000004e0000c003a002e409000ac
:101418008080fb004e5090000080fb000000e90037
:10142800808f500005003d0010c0b30010479800a1
:101438000040eb00004f7800040037000040eb004c
:1014480010479800ee509000014f780028fa2f00be
:10145800090020000801be002e4090000080fb001b
:1014680000004700304090008080fb0060022000b0
:101478000088b900000078008000eb0000004100ff
:10148800818049002e4190000281fb004411dd005b
:10149800820178006e019000028341008042eb00d7
:1014a8001e4278000001be00fe0090000600780091
:1014b800e2ea0200000000002e4090000040e80030
:1014c80020479800ae4090004e50900080cf5000ca
:1014d800c5ff39004f0678004f05be004f04be0017
:1014e8000080fa00000006000c00fa00000f7800e7
:1014f80011079800220798003307980044079800be
:10150800254f98002e0090004300dd002e4a9000e1
:10151800ce019000000178009e0090001e00780027
:101528001cee0200000000002e009000c300dd0049
:101538001e0190003e009000000041002e4a9000dd
:10154800ce01900001017800800078001e0078002c
:101558001cee0200000000002e4a9000be01900020
:101568004e0190009e0090001e0078001cee0200c4
:10157800000000002e0090004300dd001e00400027
:101588000080e9002e4a9000be0190004e019000b4
:101598009e0090001cee0200000000000080fa008f
:1015a800000006001800fa00889fbe005007980047
:1015b8006107980072079800030f9800140f9800ad
:1015c800455798000040eb00004f78000040eb00c2
:1015d8001047980064004700020009000018eb005b
:1015e8000000eb00100798000000eb0010079800bf
:1015f800150037001e00900065001000300f98009d
:101608007e019000a10020008101780011000900ee
:101618000381d800814078003e099000020047000d
:1016280041409800fe009000a00020008001780052
:10163800110009008380d800700798001e009000f0
:101648000000e800100798009e0090000e08900027
:10165800808f5000e7ff39000040eb00004f780012
:101668000e08900066001000100798000a00370066
:10167800e40047001e009000008040001040780001
:101688000004e00008003a001e4fe8001e00900029
:101698000000e800100798001e009000e40f5000ba
:1016a800f3ff360001003700000000009e80fb00b9
:1016b8000e089000808f500004003a001e08900029
:1016c80000407800004f9800080037009e80fb001b
:1016d8000e08900000805000650040009e089000b1
:1016e8008140780000004700414098000000eb006e
:1016f800100798002d0037009e0090000e089000fb
:1017080000805000e50040001e81fb000e0890009c
:101718000000510065004000808f50000300310038
:101728000040eb0010479800020037004e50900030
:101738001047980028fa2f00090020000801be0071
:101748009e0090000e089000008050006500400048
:1017580000004700404090008080fb0060022000ad
:101768000088b900000078008000eb00000041000c
:10177800818049001e019000c411dd005e019000c7
:10178800028341008042eb001e4290000001be002f
:10179800ee00900006007800e2ea02000000000077
:1017a8001e0090000000e800100798000e08900046
:1017b8008000e8001e009000808f5000ceff3e00a1
:1017c8004f04be000080fa00000006000800fa007e
:1017d80010079800210798006247980073479800ff
:1017e8000040eb00004f78006e409000e14f400051
:1017f80002003a000040eb0070479800ee4090006d
:1018080070c2b30080cf500007003600ee40900051
:1018180080cdb30000c0400060479800c0c0b3004e
:10182800004f78000600370081c2b3006e40900078
:1018380000c0500060479800b0c0b300004f780067
:101848009e80fb006e4090000080fb00fe429000ee
:10185800010278003300200000017800ae009000fb
:101868001e0090004fff07000080fa0000000600ed
:101878000800fa00100798002107980062479800ae
:10188800734798000040eb00004f78006e409000ce
:10189800e14f400002003a000040eb00704798001a
:1018a8006e409000fd4f5000060036006e409000dc
:1018b8007e40500060479800c0c0b300004f7800d9
:1018c80006003700e1c1b3006e40900000c0500030
:1018d80060479800b0c0b300004f78009e80fb00be
:1018e8006e4090000080fb00fe42900001027800ec
:1018f8003300200000017800ae0090001e00900028
:1019080028ff07000080fa00000006000c00fa001b
:10191800200798003107980042079800234f980045
:10192800344f98000040eb00104798000040eb004f
:10193800204798000040eb00004f78002500370052
:101948001e80fb004200dd00ce00900000804000b9
:101958001000be001e4190008281fb002e01900005
:1019680002834100be4a90002e4a90000001be004a
:10197800be00900006007800e2ea020000000000c5
:101988001e80fb004200dd00ce0090000080400079
:101998001000be0061004000e0804800a201800005
:1019a80000f0a4008180d200a10188009040780056
:1019b800a2018800300020000008dd0020479800c0
:1019c8009e4090002e40900000c0400010479800b4
:1019d8001e4fe8001e80fb004200dd00ce00900094
:1019e800008040001001be000200780000807100f5
:1019f8000000e000d2ff3a000080fa000000060074
:101a08006200fa00889fbe008a9fbe008c9fbe00bd
:101a1800100798002107980032079800430798009c
:101a280054079800650798000040eb00004f7800c5
:101a380036c9bf000004e0003200320019c9bf00f7
:101a48000004e0002f003a001ac9bf000004e000bb
:101a580015003200e06f210010407800f04040008f
:101a6800e06f210001487800e06f21001040780005
:101a78000080fb004400de0000407800e24f500088
:101a880005003600e06f210010407800ef4060004c
:101a9800e06f210001487800c06f21002c1302007c
:101aa800010000001a69ef00688c2f00090020006f
:101ab8000801be000e4890000080fb004400de00d4
:101ac800004078000080fb00ef0060003005200037
:101ad8000088b900000078008000eb000000410099
:101ae8008180490095c4b30000c2eb000001be002c
:101af800ae0090001e009000e2ea02000000000024
:101b080016003700668c2f00070020000601be0073
:101b18000e4890000080fb004400de000040780082
:101b28000080fb00ef006000300520000088b9004d
:101b3800000078008000eb0000004100818049002f
:101b48008042eb0000c2eb000001be00ae00900036
:101b58001e009000e2ea02000000000036c9bf0043
:101b68000004e0002f00320019c9bf00e14f500007
:101b78002c003a001ac9bf000004e000150032002a
:101b8800e06f2100104078008040e800e06f2100fd
:101b980001487800e06f2100104078000080fb00c9
:101ba8006f006000e90f500006003400e06f21006c
:101bb8009040780000cfb30080c06000e06f210043
:101bc80001487800c06f21002c13020001000000ba
:101bd8001a69ef006c8c2f000d0020000c01be006c
:101be8000e4890000080fb00ef00600030052000e8
:101bf8000088b900000078008000eb000001410077
:101c0800818149001e0090007c00400095c4b3000b
:101c180000c2eb00ae009000e2ea02000000000003
:101c2800130037006a8c2f000b0020000a01be0049
:101c38000e4890000080fb00ef0060003005200097
:101c48000088b900000078008000eb000001410026
:101c5800818149001e0090007c0040008042eb001a
:101c680000c2eb00ae009000e2ea020000000000b3
:101c780036c9bf000004e0003500320019c9bf00b2
:101c8800e24f500032003a001ac9bf000004e000d9
:101c980015003200d06f210010407800f04040005d
:101ca800d06f210001487800d06f210010407800e3
:101cb8000080fb004400de0000407800e54f500043
:101cc80005003600d06f210010407800ef4060001a
:101cd800d06f210001487800c06f21002c1302004a
:101ce800010000001a69ef00618c2f00710798004d
:101cf80004002000040f98007e0190008e099000d7
:101d08007e4090000080fb004400de000040780028
:101d18000080fb00ef006000300520000088b9005b
:101d2800000078008000eb0000014100818149003b
:101d38001e0090004005b00095c4b30000c2eb003f
:101d4800ae009000e2ea020000000000190037002f
:101d5800658c2f00150f980001002000210f9800b6
:101d68001e099000ae0990007e4090000080fb00a4
:101d78004400de00004078000080fb00ef006000b7
:101d8800300520000088b900000078008000eb00d2
:101d980000014100818149001e0090004005b0000b
:101da8008042eb0000c2eb00ae009000e2ea0200c5
:101db8000000000036c9bf000004e0003200320015
:101dc80019c9bf00e34f50002f003a001ac9bf00dd
:101dd8000004e00015003200d06f210010407800a8
:101de8008040e800d06f210001487800d06f2100c2
:101df800104078000080fb006f006000e90f500081
:101e080006003400d06f21009040780000cfb30066
:101e180080c06000d06f210001487800c06f2100a9
:101e28002c130200010000001a69ef00648c2f00d7
:101e3800340f980005002000450f98003e099000d7
:101e4800ce0990007e4090000080fb00ef0060000b
:101e5800300520000088b900000078008000eb0001
:101e680000014100818149001e0090000007b00078
:101e780095c4b30000c2eb00ae009000e2ea020095
:101e88000000000016003700618c2f00510f9800e9
:101e980004002000640f98005e099000ee0990008d
:101ea8007e4090000080fb00ef00600030052000bd
:101eb8000088b900000078008000eb0000014100b4
:101ec800818149001e0090000007b0008042eb00ad
:101ed80000c2eb00ae009000e2ea02000000000041
:101ee800b199800000022000008060000000e0003e
:101ef8000300320000c0eb00004f780002003700fa
:101f08000040eb00004f7800658c2f00750f98009b
:101f180001002000011798007e0890008e109000a4
:101f2800e4332000050020000401400085814800ba
:101f38002e009000e30040001e0090008003b000d7
:101f48008042eb001e427800e2ea02000000000036
:101f5800d0998000700060000000e00005003200a9
:101f6800c09980004300de006140600036e9b70098
:101f7800020037003669ef001969ef00a53b2f0012
:101f88001517980001002000211798001e109000d6
:101f9800ae109000840820000500200004014000d5
:101fa800858148002e0090008080e9001e00900086
:101fb8004010b0008042eb0000c2eb00e2ea0200f1
:101fc80000000000a53b2f003517980001002000f5
:101fd800411798003e119000ce1190002e009000fd
:101fe8008080e9001e0090004011b0008042eb00a4
:101ff80000c2eb00e2ea02000000000036c9bf00a0
:102008000004e0003600320019c9bf00e44f500058
:1020180033003a001ac9bf000004e000150032007e
:102028002070210010407800f0404000207021000e
:102038000148780020702100104078000080fb00e3
:102048004400de0000407800e94f500005003600eb
:102058002070210010407800ef40600020702100bf
:1020680001487800c06f21002c1302000100000015
:102078001a69ef00a43b2f005417980005002000b0
:10208800651798005e119000ee1190004e48900080
:102098000080fb004400de00004078000080fb0068
:1020a800ef006000400420000088b90000007800bc
:1020b8008000eb0000014100818149002e00900062
:1020c8008080e9001e0090004012b00095c4b30063
:1020d80000c2eb00e2ea0200000000001a0037002c
:1020e800a13b2f007117980004002000041f9800de
:1020f8007e1190008e1990004e4890000080fb00e1
:102108004400de00004078000080fb00ef00600023
:10211800400420000088b900000078008000eb002f
:1021280000014100818149002e0090008080e90073
:102138001e0090004012b0008042eb0000c2eb008d
:10214800e2ea02000000000036c9bf000004e00017
:102158003300320019c9bf00e54f500030003a0083
:102168001ac9bf000004e0001500320020702100e9
:10217800104078008040e800207021000148780075
:1021880020702100104078000080fb006f00600084
:10219800e90f5000060034002070210090407800bc
:1021a80000cfb30080c06000207021000148780093
:1021b800c06f21002c130200010000001a69ef0013
:1021c800a53b2f00151f980001002000211f980033
:1021d8001e199000ae1990004e4890000080fb0038
:1021e800ef006000400420000088b900000078007b
:1021f8008000eb0000014100818149002e00900021
:102208008080e9001e0090004013b00095c4b30020
:1022180000c2eb00e2ea02000000000017003700ed
:10222800a43b2f00341f980005002000451f98008c
:102238003e199000ce1990004e4890000080fb0097
:10224800ef006000400420000088b900000078001a
:102258008000eb0000014100818149002e009000c0
:102268008080e9001e0090004013b0008042eb001f
:1022780000c2eb00e2ea020000000000a13b2f00d0
:10228800511f980004002000641f98005e199000f8
:10229800ee19900040482000010020000001410094
:1022a800818149002e0090008080e9001e00900086
:1022b8004014b0008042eb0000c2eb00e2ea0200ea
:1022c8000000000036c9bf000004e00036003200fc
:1022d80019c9bf00e64f500033003a001ac9bf00c1
:1022e8000004e00015003200107021001040780052
:1022f800f040400010702100014878001070210063
:10230800104078000080fb004400de0000407800a8
:10231800e14f500005003600107021001040780091
:10232800ef4060001070210001487800c06f210064
:102338002c130200010000001a69ef00a53b2f00d2
:10234800751f980001002000012798007e19900051
:102358008e2190003e4890000080fb004400de0083
:10236800004078000080fb00ef006000400420007f
:102378000088b900000078008000eb0000014100ef
:10238800818149002e0090008080e9001e009000a5
:102398004015b00095c4b30000c2eb00e2ea0200a9
:1023a800000000001a003700a43b2f0014279800f3
:1023b80005002000252798001e219000ae219000de
:1023c8003e4890000080fb004400de00004078009a
:1023d8000080fb00ef006000400420000088b90086
:1023e800000078008000eb00000141008181490075
:1023f8002e0090008080e9001e0090004015b0007b
:102408008042eb0000c2eb00e2ea0200000000009c
:1024180036c9bf000004e0003300320019c9bf000c
:10242800e74f500030003a001ac9bf000004e0002e
:102438001500320010702100104078008040e8003c
:1024480010702100014878001070210010407800b9
:102458000080fb006f006000e90f500006003400a8
:10246800107021009040780000cfb30080c0600059
:102478001070210001487800c06f21002c13020061
:10248800010000001a69ef00a13b2f0031279800d6
:1024980004002000442798003e219000ce2190009f
:1024a8003e4890000080fb00ef00600040042000e0
:1024b8000088b900000078008000eb0000014100ae
:1024c800818149002e0090008080e9001e00900064
:1024d8004016b00095c4b30000c2eb00e2ea020067
:1024e8000000000017003700a53b2f005527980073
:1024f80001002000612798005e219000ee219000e5
:102508003e4890000080fb00ef006000400420007f
:102518000088b900000078008000eb00000141004d
:10252800818149002e0090008080e9001e00900003
:102538004016b0008042eb0000c2eb00e2ea020065
:1025480000000000a43b2f0074279800050020001d
:10255800052f98007e2190008e2990004048200089
:102568000100200000004100818049002e019000f8
:102578008283e9001e0190004617200002034300f1
:102588008042eb0000c2eb000001be00870078002b
:1025980006007800e2ea02000000000036c9bf0029
:1025a8000004e0003a00320019c9bf00e84f5000ab
:1025b80037003a001ac9bf000004e00015003200d5
:1025c8000070210010407800f040400000702100a9
:1025d8000148780000702100104078000080fb005e
:1025e8004400de0000407800e34f5000050036004c
:1025f8000070210010407800ef406000007021005a
:1026080001487800c06f21002c130200010000006f
:102618001a69ef00a13b2f00112f98000400200039
:10262800242f98001e299000ae2990002e48900073
:102638000080fb004400de00004078000080fb00c2
:10264800ef006000400420000088b9000000780016
:102658008000eb0000004100818049002e019000bd
:102668008283e9001e0190004618200002034300ff
:1026780095c4b30000c2eb000001be0087007800db
:1026880006007800e2ea0200000000001e003700a1
:10269800a53b2f00352f980001002000412f9800fe
:1026a8003e299000ce2990002e4890000080fb0023
:1026b8004400de00004078000080fb00ef0060006e
:1026c800400420000088b900000078008000eb007a
:1026d80000004100818049002e0190008283e900ba
:1026e8001e01900046182000020343008042eb00c0
:1026f80000c2eb000001be008700780006007800e9
:10270800e2ea02000000000036c9bf000004e00051
:102718003700320019c9bf00e94f500034003a00b1
:102728001ac9bf000004e000150032000070210043
:10273800104078008040e8000070210001487800cf
:1027480000702100104078000080fb006f006000de
:10275800e90f500006003400007021009040780016
:1027680000cfb30080c060000070210001487800ed
:10277800c06f21002c130200010000001a69ef004d
:10278800a43b2f00542f980005002000652f9800c7
:102798005e299000ee2990002e4890000080fb00f2
:1027a800ef006000400420000088b90000007800b5
:1027b8008000eb0000004100818049002e0190005c
:1027c8008283e9001e01900046192000020343009d
:1027d80095c4b30000c2eb000001be00870078007a
:1027e80006007800e2ea0200000000001b00370043
:1027f800a13b2f00712f9800040020000437980097
:102808007e2990008e3190002e4890000080fb00b9
:10281800ef006000400420000088b9000000780044
:102828008000eb0000004100818049002e019000eb
:102838008283e9001e01900046192000020343002c
:102848008042eb0000c2eb000001be008700780068
:1028580006007800e2ea0200000000004f06be0011
:102868004f05be004f04be000080fa0000000600bd
:102878000000fa00889fbe001cc9bf000004e000e9
:1028880018003a0010c0b3001ce9b700d0998000c6
:102898000040a000d09988004ee902000000000026
:1028a80094c4b300230020000232200081032000da
:1028b8000000eb001cee0200000000008042eb006c
:1028c800c4c1b300889c2100190020000801be0083
:1028d800e101200080162000e2ea0200000000006a
:1028e8002c0037001cc9bf00e14f500028003a00f7
:1028f80010c0b3001ce9b700c06f21001080fb00b6
:10290800d16f21009180fb00c808dd000100700034
:102918008000eb0080007800e06f21001080fb0051
:10292800f26f21001281fb004811dd0002007000e7
:102938008001eb0080017800007021001080fb000e
:10294800127021001281fb004811dd0002007000a6
:102958000002eb0000027800207021009082fb004a
:102968000000eb00f20f20000281620005f02f004a
:102978000500600000007100010178008002780005
:10298800010f2000200d20001dfc0700010037006a
:102998001c69ef00a0998000680060000000e0005a
:1029a8000c003200a09980000030a100a099880096
:1029b80019c9bf00e84f500004003e0019c9bf0004
:1029c8000040e80019e9b7000200370090c0b300e2
:1029d80019e9b700a1998000000420000080600078
:1029e8000000e0000b003200a09980000060a10008
:1029f800a099880019c9bf000004e0000400320053
:102a080019c9bf000040e90019e9b7000100370003
:102a18001969ef00a0998000610060000000e000e3
:102a28000b003200a09980000000a100a099880046
:102a3800d0998000700060000000e00003003200c0
:102a480010c0b3001ae9b700010037001a69ef0097
:102a5800c0998000610060000000e0000a003200b8
:102a6800c09980000000a100c09988001b69ef0090
:102a78001c69ef00d09980000040a100d09988001f
:102a8800a0c0b30019e9b7004f04be000080fa00e7
:102a9800000006002000fa00889fbe008a9fbe0042
:102aa8008c9fbe000000eb00000f7800a000200003
:102ab80010079800314a80001e0090008080400076
:102ac800204a80001e0040008042eb0000c2eb005c
:102ad800c2fe220013002000e2ea0200000000000b
:102ae8000000eb00000f7800f005200010079800a8
:102af800314a80001e00900080804000204a8000fb
:102b08001e0040008042eb0000c2eb006806230074
:102b1800190020000801be00e2ea020000000000df
:102b2800c0062000000f78007006200010079800eb
:102b3800314a80001e00900080804000204a8000ba
:102b48001e0040008042eb0000c2eb008a1a210000
:102b58001b0020000a01be00e2ea0200000000009b
:102b680000142000000f780070062000100798005d
:102b7800314a80001e00900080804000204a80007a
:102b88001e0040008042eb0000c2eb008c1a2100be
:102b98001d0020000c01be00e2ea02000000000057
:102ba800001c2000000f7800f00520001007980096
:102bb800314a80001e00900080804000204a80003a
:102bc8001e0040008042eb0000c2eb00020e230012
:102bd8002207980012002000320798002e0190006a
:102be800be019000e2ea020000000000201b200065
:102bf800000f7800a000200010079800314a8000dc
:102c08001e00900080804000204a80001e00400086
:102c18008042eb0000c2eb00a2a820004207980007
:102c280012002000520798004e019000de0190002b
:102c3800e2ea02000000000090192000000f78006e
:102c4800f001200010079800314a80001e00900013
:102c580080804000204a80001e0040008042eb0037
:102c680000c2eb00a2942500620798001200200021
:102c7800720798006e019000fe019000e2ea0200df
:102c880000000000f0172000000f7800f00320007b
:102c980010079800314a80001e0090008080400094
:102ca800204a80001e0040008042eb0000c2eb007a
:102cb800a2c22500020f980012002000120f9800ef
:102cc8000e0990009e099000e2ea02000000000050
:102cd80070152000000f780050032000100798009e
:102ce800314a80001e00900080804000204a800009
:102cf8001e0040008042eb0000c2eb0042e82500c5
:102d0800220f980012002000320f98002e09900020
:102d1800be099000e2ea020000000000e001200085
:102d2800000f7800a000200010079800314a8000aa
:102d38001e00900080804000204a80001e00400055
:102d480000c2eb0023002000a20120001cee0200bc
:102d58000000000080032000000f78000000eb0056
:102d680010079800314a80001e00900080804000c3
:102d7800204a80001e00400000c2eb00b300200083
:102d8800220020001cee020000000000314a8000f2
:102d98001e00900080804000204a80001e004000f5
:102da80000c2eb0023002000820120001cee02007c
:102db8000000000000052000000f78000000eb0074
:102dc80010079800314a80001e0090008080400063
:102dd800204a80001e00400000c2eb00a300200033
:102de800220020001cee0200000000000005200068
:102df800000f7800a000200010079800314a8000da
:102e08001e00900080804000204a80001e00400084
:102e180000c2eb0023002000321020001cee02004c
:102e28000000000030152000000f78000000eb00c3
:102e380010079800314a80001e00900080804000f2
:102e4800204a80001e00400000c2eb00a3002000c2
:102e5800220020001cee020000000000314a800021
:102e68001e00900080804000204a80001e00400024
:102e780000c2eb0023002000820120001cee0200ab
:102e880000000000a0162000000f78000000eb00f2
:102e980010079800314a80001e0090008080400092
:102ea800204a80001e00400000c2eb00a300200062
:102eb800220020001cee020000000000a0162000e6
:102ec800000f7800a000200010079800314a800009
:102ed8001e00900080804000204a80001e004000b4
:102ee80000c2eb0023002000820420001cee020038
:102ef80000000000e0012000000f780030012000f1
:102f080010079800314a80001e0090008080400021
:102f1800204a80001e00400000c2eb002300200071
:102f2800421920001cee0200000000000000eb0027
:102f3800000f78004003200010079800314a8000f5
:102f48001e00900080804000204a80001e00400043
:102f580000c2eb0023002000720c20001cee0200cf
:102f680000000000700f2000000f780040032000d0
:102f780010079800314a80001e00900080804000b1
:102f8800204a80001e00400000c2eb002300200001
:102f9800f20520001cee020000000000e001200005
:102fa800000f7800b007200010079800314a800011
:102fb8001e00900080804000204a80001e004000d3
:102fc80000c2eb0023002000e20420001cee0200f7
:102fd8000000000080092000000f7800314a8000be
:102fe8001e00900080804000204a80001e004000a3
:102ff80000c2eb0023002000820a20001cee020021
:1030080000000000c0162000000f7800314a800040
:103018001e00900080804000204a80001e00400072
:1030280000c2eb0023002000420520001cee020035
:10303800000000000000eb00000f78008002200074
:1030480010079800314a80001e00900080804000e0
:10305800204a80001e00400000c2eb0073032000dd
:10306800220020001cee020000000000c01d20000d
:10307800000f78009003200010079800314a800064
:103088001e00900080804000204a80001e00400002
:1030980000c2eb0063022000220020001cee0200a8
:1030a80000000000b0002000000f7800600420003d
:1030b80010079800400a2000000f780040102000f8
:1030c800000f7800314a80001e0090008080400088
:1030d800204a80001e0040008042eb0000c2eb0046
:1030e80062b92500420f980012002000520f980084
:1030f8004e099000de099000e2ea0200000000009c
:1031080040162000000f7800314a80001e00900011
:1031180080804000204a80001e0040008042eb0072
:1031280000c2eb0042722600620f980012002000d5
:10313800720f98006e099000fe099000e2ea020002
:10314800000000004f06be004f05be004f04be0041
:103158000080fa00000006000a00fa00889fbe00fe
:103168008a9fbe008c9fbe004ee90200000000004e
:1031780094c4b3002300200002322000e11a20008a
:103188000000eb001cee02000000000094c4b30035
:1031980013002000023220008000eb000000eb004a
:1031a8001cee02000000000094c4b30013002000cd
:1031b80002322000210320000000eb001cee020078
:1031c8000000000094c4b300130020006222200015
:1031d80041062000a00720001cee020000000000ad
:1031e80010002000000f78000b0037009e007800c8
:1031f800d00320000088b9000000780094c4b30010
:1032080023032000120020008000eb001cee0200c7
:10321800000000001e0fe8001e007800ec0f5000b0
:10322800f2ff360020002000000f78000b00370066
:103238009e007800d00320000088b90000007800c4
:1032480094c4b300230320001200200021032000af
:103258001cee0200000000001e0fe8001e007800af
:10326800eb0f5000f2ff36000000eb00000f780073
:1032780005003700806b21001e00400011c0b3001c
:10328800014878001e0fe8001e007800f70f500074
:10329800f8ff3600100a200000498800901020002e
:1032a8001049880010002000000f78000e00370039
:1032b8001e0078007e00b900800078001049800068
:1032c800008040000549800094c4b300130020002a
:1032d800e21d200080007800050078001cee020046
:1032e800000000001e0fe8001e007800e40f5000e8
:1032f800efff3600100a20000049880010498000be
:103308007e0040001049880010498000054980006f
:1033180094c4b300a30520001200200080007800a8
:10332800050078001cee02000000000000192000d3
:1033380000498800104980000549800094c4b30002
:10334800a305200012002000800078000500780006
:103358001cee020000000000f02720000049880051
:10336800104980000549800094c4b300a3052000db
:103378001200200080007800050078001cee020092
:1033880000000000300a200000498800f0102000ea
:1033980010498800d0122000104988001049800088
:1033a800054980000042eb0080c1eb0082cf20007d
:1033b800800078000500780054f907001149800062
:1033c80000498000000cb0008042eb0000c2eb0016
:1033d800a267260012079800120020002207980012
:1033e8001e019000ae019000e2ea02000000000019
:1033f800b01420001049880011498000004980005d
:103408000042eb0080c1eb0082d020003ff90700aa
:103418001149800000498000000cb0008042eb0098
:1034280000c2eb00c2692600320798001200200093
:10343800420798003e019000ce019000e2ea0200a7
:1034480000000000901620001049880011498000f3
:10345800004980000042eb0080c1eb0082d12000cf
:103468002af907001149800000498000000cb000cb
:103478008042eb0000c2eb00acaf25001d0020002d
:103488000c01be00e2ea0200000000002019200042
:1034980000498800f010200010498800d012200050
:1034a80010498800b0142000104988001149800094
:1034b800004980000042eb0080c1eb0042d22000ae
:1034c80012f9070090162000104988001149800061
:1034d800004980000042eb0080c1eb0082d320004d
:1034e8000af90700300a200000498800e018200087
:1034f8001049880011498000004980000042eb0013
:1035080080c1eb0042d4200000f907000019200018
:103518000049880011498000004980000042eb0002
:1035280080c1eb0002d52000f8f8070050162000f3
:103538000049880011498000004980008042eb0062
:1035480000c2eb00aaee25001b0020000a01be0005
:10355800e2ea020000000000d025200000498800af
:1035680011498000004980008042eb0000c2eb0056
:10357800a8ee2500190020000801be00e2ea0200ba
:10358800000000004f06be004f05be004f04be00fd
:103598000080fa00000006000e00fa00889fbe00b6
:1035a8008a9fbe008c9fbe000040eb00004f780051
:1035b8000040eb0010479800d01120002007980029
:1035c800f010200030079800c1478000a0002000bc
:1035d80000017800110009008280d80010079800c7
:1035e8009e009000703e2000808f5000060036003c
:1035f8001e009000803eb10010079800c0c0b300c4
:103608001047980006003700813e20001e009000f9
:103618000080500010079800b0c0b3001047980011
:103628001e4090008080fb003e0090007e0040001d
:1036380080c2eb0001027800330020001e019000d8
:10364800800078002e009000d6f70700d147800050
:10365800a000200000017800110009008280d80035
:10366800100798009e009000703e2000808f500048
:10367800060036001e009000803eb100100798003a
:10368800c0c0b3001047980006003700813e2000f4
:103698001e0090000080500010079800b0c0b300d2
:1036a800104798001e4090008080fb003e0090006c
:1036b800c003b00080c2eb00010278003300200094
:1036c8001e019000800078002e009000b5f70700da
:1036d800404380000000d100100798001e009000b1
:1036e8008000eb003e019000a70520008283430084
:1036f80000c3eb008042eb0044c0b3000001be00f1
:10370800870078002e0090009ef6070050222000c7
:1037180020079800f01020003007980095c8bf00d7
:103728000080fb00100798001e0090000000e000d9
:1037380003003a0000c0eb00004f78000200370099
:1037480000ceb300004f78001e0090008000eb0010
:103758003e019000c7032000828343001e43780087
:103768008042eb0044c0b3000001be00870078002f
:103778002e00900083f607006bc8bf008080fb0016
:103788000003200000806000f00f50000f0032009e
:10379800f00f500003003c000000e0000800320079
:1037a8001300370001022000810f50000a00320088
:1037b80001032000810f50000a0032000c0037007e
:1037c800c0c1b300004f780009003700c0cfb30074
:1037d800004f78000600370000ceb300004f780095
:1037e8000300370000ceb300004f7800000000004f
:1037f800604380008000eb003e019000a705200098
:10380800828343002e019000700151004207980006
:103818001e4378008042eb0054c0b3000001be0094
:10382800870078004e00900056f6070060062000da
:103838002007980090012000300798006bc8bf004f
:103848008080fb0000032000008060000000e00092
:1038580003003a00c0c1b300004f780002003700ef
:1038680090c4b300004f7800314a80003e009000b9
:1038780080804000224a80002e0090000000410015
:103888008042eb001e42780088f7210019002000d2
:103898000801be00e2ea0200000000000069210001
:1038a800104078000080fb00680060000000e00025
:1038b8000300320000ceb300004f7800020037004a
:1038c800c0c1b300004f78001e407800fc4f500084
:1038d80002003a0000c0eb00004f7800e012200020
:1038e80020079800600420003007980091c8bf00a6
:1038f8000080fb00cf80de002603020000000000ed
:10390800d2cc2c00c3ec2300d60302000000000038
:10391800f002020000000000334a80003e019000df
:1039280002844100234a80002e01900082834100d6
:103938001e4378008042eb0034c0b3000001be0093
:1039480088007800070078000ef60700209b8000aa
:10395800610060000000e0000300320000ceb30008
:10396800004f78000200370000c0eb00004f7800dd
:10397800700c200020079800f00120003007980004
:10398800314a80003e00900080804000224a80003a
:103998002e009000000041001e4278002300200005
:1039a800020320001cee020000000000314a8000e3
:1039b8003e00900080804000224a80002e00900047
:1039c800000041001e4278008305200022002000ec
:1039d8001cee020000000000500f20002007980095
:1039e800f001200030079800314a80003e00900026
:1039f80080804000224a80002e0090000000410094
:103a08001e42780083052000220020001cee0200e0
:103a180000000000700c20002007980050072000cc
:103a280030079800314a80003e00900080804000b6
:103a3800224a80002e009000000041001e427800bb
:103a480023002000020320001cee020000000000fa
:103a5800209b8000610060000000e000030032004d
:103a68000040eb00004f78000200370000c0eb0078
:103a7800004f7800900c200020079800d003200009
:103a880030079800314a80003e0090008080400056
:103a9800224a80002e009000000041001e4278005b
:103aa80023002000c20220001cee020000000000db
:103ab800e00d200020079800100220003007980031
:103ac800314a80003e00900080804000224a8000f9
:103ad8002e009000000041001e427800430520009f
:103ae800220020001cee020000000000119b800054
:103af80000002400008060000000e00003003200a5
:103b08000040eb00004f78000200370000c0eb00d7
:103b1800004f7800f017200020079800f0032000dd
:103b280030079800c06b2100104078009e4f50006d
:103b380012003200c06b21001e487800314a800014
:103b48003e00900080804000224a80002e009000b5
:103b5800000041008042eb001e427800a2c225000e
:103b68005207980012002000620798005e0190003a
:103b7800ee019000e2ea020000000000119b8000c4
:103b880000002400008060000000e0000300320014
:103b980000ceb300004f78000200370000c0eb00f1
:103ba800004f7800f017200020079800f00120004f
:103bb80030079800314a80003e0090008080400025
:103bc800224a80002e009000000041001e4278002a
:103bd80023002000b20120001cee020000000000bb
:103be800314a80003e00900080804000224a8000d8
:103bf8002e009000000041001e427800830520003e
:103c0800220020001cee020000000000d01a200054
:103c180020079800d003200030079800314a800020
:103c28003e00900080804000224a80002e009000d4
:103c3800000041001e427800a3032000220020005b
:103c48001cee020000000000f0172000200798007a
:103c58005007200030079800314a80003e0090004d
:103c680080804000224a80002e0090000000410021
:103c78001e42780023002000020320001cee0200f0
:103c8800000000009019200020079800f001200093
:103c980030079800314a80003e0090008080400044
:103ca800224a80002e009000000041008042eb0074
:103cb8001e427800ac9425001d0020000c01be00b7
:103cc800e2ea020000000000119b80000080200052
:103cd800008060000000e0000300320000ceb30066
:103ce800004f7800020037000040eb00004f7800da
:103cf800800120002007980040032000300798002a
:103d0800314a80003e00900080804000224a8000b6
:103d18002e009000000051008042eb001e42780007
:103d2800ea9f25001b0020000a01be00e2ea02000b
:103d380000000000b0062000200798006004200062
:103d4800300798004f06be004f05be004f04be0066
:103d58000080fa00000006001800fa00889fbe00e4
:103d68008a9fbe008c9fbe0090c4b3001047980085
:103d78000040eb0020479800805e2100104078004a
:103d88000004e00014003500905e21001040780027
:103d98000080fb00620060000000e0000e003a00b6
:103da800b05e2100104078008080fb0000042000f5
:103db800008060000000e00007003a00c05e2100bb
:103dc800104078000080fb0061006000004078002f
:103dd8000004e0000300320000ceb3001047980052
:103de8000200370090c4b300104798008042eb00ef
:103df8001e429000e249220013002000c103200067
:103e080040082000e2ea020000000000109b800049
:103e1800620060000000e00003003200c0cfb30081
:103e2800104798000200370090c4b300104798006c
:103e3800f0602100104078000004e0000300320028
:103e480000ceb300104798000200370090c4b300ba
:103e5800104798008042eb001e429000286622001e
:103e6800190020000801be00910320002010200046
:103e7800e2ea0200000000003069210010407800ea
:103e88000080fb00680060000000e00003003a00ca
:103e980000ceb300104798000200370090c4b3006a
:103ea800104798008042eb001e429000aa2b220087
:103eb8001b0020000a01be00f1032000401320006f
:103ec800e2ea020000000000e2c8bf000080fb0038
:103ed8006f006000ed0f500009003200ee0f500037
:103ee8000c0032000000e0000f003a00c0c1b3002f
:103ef800104798000040eb00004f78000f00370093
:103f080000ceb3001047980010c0b300004f7800ef
:103f18000a003700c0c1b3001047980020c0b300a2
:103f2800004f78000500370090c4b3001047980090
:103f38000040eb00004f78000000000021dd200069
:103f48002107980012002000320798002e019000e7
:103f5800be0190009e80fb00900520000088b900fb
:103f6800000078008000eb000000410081804900db
:103f78008042eb001e4290000001be00e1032000d9
:103f880000182000e2ea0200000000006ac8bf0032
:103f98000080fb00700060000000e00003003200b9
:103fa800c0c1b300104798000200370090c4b300a6
:103fb800104798008042eb001e429000036f2200d9
:103fc8004307980011002000510798004e01900007
:103fd800de01900001042000201b2000e2ea02001c
:103fe80000000000e2c8bf000080fb007000600015
:103ff8000000e0000300320000cfb3001047980033
:104008000200370090c4b300104798008042eb00cc
:104018001e42900022fb2500620798001300200032
:10402800730798006e019000fe019000f1032000d4
:10403800f01f2000e2ea02000000000041502000ca
:10404800010f980012002000120f98000e0990002e
:104058009e099000e2c8bf008080fb000006200097
:10406800008060004580de00800078001006200097
:104078000088b900000078008000eb0000004100d3
:10408800818049008042eb00c4c1b3000001be003a
:1040980091032000f0222000e2ea02000000000064
:1040a80043502000230f980011002000310f980082
:1040b8002e089000be089000321220000300200055
:1040c80002004000838048008042eb00c4c1b30076
:1040d8000001be00d1042000f0222000e2ea020024
:1040e80000000000b3c8bf00e14f400003003a00e1
:1040f800c0c1b300104798000200370000ceb300db
:10410800104798008042eb001e4290002c5e26006b
:104118001d0020000c01be00b10320004027200034
:10412800e2ea0200000000001e4290004301200065
:104138002200200071042000f02720001cee02005d
:10414800000000004f06be004f05be004f04be0031
:104158000080fa00000006003000fa00889fbe00c8
:104168008a9fbe008c9fbe0090c4b300004f7800a9
:10417800109b8000680060000000e000030032002f
:1041880000ceb300004f78000200370090c4b3009f
:10419800004f78008042eb001e427800026d21003b
:1041a8001300200051002000a0002000e2ea0200d5
:1041b80000000000309b8000680060000000e00004
:1041c80003003a0000ceb300004f78000200370029
:1041d80090c4b300004f7800806b21001040780035
:1041e8009e4f500017003200806b21001e48780057
:1041f8008042eb001e4278002802220019002000ad
:104208000801be007100200090042000e2ea0200cc
:1042180000000000aa9520001b0020000a00be0034
:1042280070004000e08048008042eb001e427800a9
:104238000001be0001012000d0052000e2ea0200d2
:1042480000000000319b8000000420000080600016
:104258000000e00003003a0000ceb300004f7800f1
:104268000200370090c4b300004f7800906b210023
:10427800104078009e4f50001c003200906b2100c7
:104288001e4878008042eb001e4278002c02220073
:104298001d0020000c01be00710020005008200005
:1042a800e2ea020000000000a19520002107980022
:1042b80012002000320798002e009000be009000e7
:1042c8000202200003002000020040008380480012
:1042d8008042eb001e4278000001be000101200070
:1042e80090092000e2ea020000000000119b800013
:1042f80000802000008060000000e0000300320021
:1043080000ceb300004f78000200370090c4b3001d
:10431800004f78008042eb001e4278008380200026
:104328004307980011002000510798004e019000a3
:10433800de01900011002000c00b2000e2ea02001c
:1043480000000000309b8000610060000000e00079
:104358000300320000ceb300004f7800020037009f
:1043680090c4b300004f7800106921001040780015
:104378008080fb0000022000008060000000e00058
:104388000300320000ceb300004f7800020037006f
:1043980090c4b300004f78008042eb001e427800c2
:1043a800820c210062079800130020007307980010
:1043b8006e019000fe019000710020008013200023
:1043c800e2ea020000000000306921001040780095
:1043d8000080fb0061006000004078000004e000fd
:1043e8000300320000ceb300004f7800020037000f
:1043f80090c4b300004f78008042eb001e42780062
:1044080081fe2000010f980012002000120f980072
:104418000e0990009e09900071002000501720009e
:10442800e2ea0200000000008ac8bf00e14f500025
:1044380003003a0000ceb300004f780008003700b0
:104448008ac8bf00e24f500003003a0000c0eb00ea
:10445800004f78000200370090c4b300004f780086
:104468008042eb001e427800e3352200230f9800bb
:1044780011002000310f98002e099000be0990000d
:1044880051002000b01b2000e2ea020000000000fa
:104498006bc8bf008080fb00000320000080600024
:1044a8004480de00100798001e009000e20f5000c4
:1044b800030032001e009000e30f500003003a0092
:1044c80000ceb300004f78000200370090c4b3005c
:1044d800004f78008042eb001e427800c253220051
:1044e800420f980013002000530f98004e099000c7
:1044f800de099000a1002000201f2000e2ea02004f
:104508000000000020692100104078000080fb00b6
:10451800620060000000e00003003a00c0cfb30072
:10452800004f78000200370090c4b300004f7800b5
:104538008042eb001e427800415d2200610f980026
:1045480012002000720f98006e099000fe0990007a
:10455800b100200000232000e2ea02000000000071
:10456800309b8000700060000000e00003003a000b
:1045780000ceb300004f78000200370090c4b300ab
:10458800004f7800a06b2100104078009e4f50002b
:104598001d003200a06b21001e4878008042eb000d
:1045a8001e427800a30c2200031798001100200077
:1045b800111798000e1190009e11900071002000b4
:1045c800e0262000e2ea020000000000a295200098
:1045d8002217980013002000331798002e1090001f
:1045e800be10900070004000e08048008042eb0060
:1045f8001e4278000001be00010120002028200092
:10460800e2ea020000000000319b80000010200058
:10461800008060000000e00003003a0000ceb30014
:10462800004f78000200370090c4b300004f7800b4
:10463800b06b2100104078009e4f50001f003200e0
:10464800b06b21001e4878008042eb001e427800c3
:10465800a10c220041179800120020005217980060
:104668004e119000de11900071002000a02a200059
:10467800e2ea020000000000a395200063179800fa
:1046880011002000711798006e109000fe10900025
:10469800020220000300200002004000838048003e
:1046a8008042eb001e4278000001be00010120009c
:1046b800e02b2000e2ea0200000000004f06be00e6
:1046c8004f05be004f04be000080fa00000006003f
:1046d8000000fa00881f7800d010200000498800e8
:1046e800e018200010498800204080008000eb007e
:1046f800184980000749800000c3eb0015c0b300cb
:1047080044c0b3000001be008800780007007800ac
:104718009cf20700701e200000498800304080008d
:1047280041408000a2002000030020003e04020057
:1047380000000000184980000749800000c3eb0012
:104748008042eb0074c0b3000001be00880078000e
:10475800070078008bf207004f0478000080fa0009
:10476800000006000000fa001cc9bf000004e000b9
:1047780005003a0010c0b3001ce9b70076fa07003c
:10478800c4f807002f0037001cc9bf00e14f5000d4
:1047980004003a0020c0b3001ce9b7007efb070004
:1047a800280037001cc9bf00e24f500004003a003f
:1047b80030c0b3001ce9b70067fe070021003700ce
:1047c8001cc9bf00e34f500005003a0040c0b300c9
:1047d8001ce9b700beff07005ffd0700190037009e
:1047e8001cc9bf00e44f500003003a0050c0b3009a
:1047f8001ce9b700130037001cc9bf00e54f500083
:1048080003003a0060c0b3001ce9b7000d00370090
:104818001cc9bf00e64f500003003a0070c0b30047
:104828001ce9b700070037001cc9bf00e74f50005c
:1048380003003a0010c0b3001ce9b70001003700bc
:104848001c69ef001ec9bf000004e00054003a00d4
:10485800a0998000680060000000e00019003200a4
:10486800a09980000030a100a0998800c094200081
:10487800a000900000042000008060000000e0001c
:1048880010003200d0998000700060000000e00045
:104898000c003a00e14a8000703e2000808f5000f2
:1048a8000300360040062000e04a88000300370075
:1048b800e04a80004006b000e04a880058fc020048
:1048c80000000000a0998000610060000000e00086
:1048d80012003200a09980000000a100a099880071
:1048e800c09980000000a100c0998800a0998000ac
:1048f8000030a100a0998800a09980000060a10064
:10490800a0998800b09980000010a100b099880093
:104918001c69ef0010c0b3001be9b700c099800004
:10492800610060000000e0000c003200c0998000c7
:104938000000a100c0998800a09980000000a10093
:10494800a0998800a09980000030a100a099880053
:10495800a09980000060a100a0998800a19980001a
:1049680000042000008060000000e0000c0032001d
:10497800a09980000060a100a0998800c0998000db
:104988000000a100c0998800a09980000030a10013
:10499800a0998800a09980000000a100a099880033
:1049a8000080fa00000006000800fa00889fbe0098
:1049b8008a9fbe008c1f78004047980031079800f6
:1049c8000000eb00000f78000000eb0010079800d3
:1049d8000000eb00000f7800450037009e007800cb
:1049e800401a20000088b9000000780074004000d8
:1049f8008042eb0000c2eb00e866230019002000ab
:104a08000801be0011042000e2ea020000000000d4
:104a18004e4090000004e0000d0032009e00780037
:104a2800401a20000088b90000007800c012b000c9
:104a38008042eb0000c2eb00aa6c23001b002000a0
:104a48000a01be0011042000e2ea02000000000092
:104a58000000eb00100798001f0037003e00900090
:104a6800100078000000e0001f0032003e009000b7
:104a7800100078008000eb003e0190000281e80001
:104a8800320798009e019000220220000299b90086
:104a980002017800dc052000020646009e0178002d
:104aa800421a20000299b90002017800f603410079
:104ab80000c3eb008042eb0024c0b3000001be003d
:104ac8008c00780007007800aef107001e00900007
:104ad8000000e800100798001e009000e90f500041
:104ae800deff360001003700000000001e0fe8005e
:104af8001e007800e10f5000b8ff36004f0678001e
:104b08004f05be004f04be000080fa0000000600fa
:104b18000600fa00889fbe00200798000000eb00fe
:104b2800000f78000000eb00100798000000eb0071
:104b3800000f7800240037000000eb0010079800f1
:104b48001d0037002e009000100078000000e000e3
:104b580004003a002e0090000080e800200798002a
:104b6800120037009e009000200220000088b90043
:104b780000007800f1052000808040002e009000a1
:104b8800100078002e0190000281e80022079800aa
:104b98008042eb0000c2eb002878230019002000b7
:104ba8000801be00e2ea0200000000001e009000ba
:104bb8000000e800100798001e009000e90f500060
:104bc800e0ff36001e0fe8001e007800e10f5000dd
:104bd800d9ff36004f04be000080fa00000006002e
:104be8000600fa00889fbe00000f780011079800a1
:104bf800220798008042eb0000c2eb00e67d23000c
:104c0800170020000601be009e0090001e007800dc
:104c1800e2ea020000000000081920001900200044
:104c28000801be00ae009000c00520000088b90051
:104c3800000078008000eb000000410081804900fe
:104c4800820220001e0341008042eb0000c2eb00fc
:104c58000001be009e00900006007800e2ea020013
:104c6800000000004f04be000080fa0000000600ab
:104c78006000fa00889fbe008a9fbe008c9fbe001d
:104c88008166280013000900311f78008e02b100e8
:104c98008e0078000040eb0043ff0700000520006d
:104ca80000498800f005200010498800114980005b
:104cb800004980000042eb0080c1eb00c296200052
:104cc80012f3070010498000210220008080400074
:104cd800004980008042eb0000c2eb0068722300ac
:104ce800190020000801be00e2ea020000000000ee
:104cf800104980004004b000064980008042eb0063
:104d080000c2eb006a7223001b0020000a01be00eb
:104d18008000780006007800e2ea02000000000047
:104d2800104980006006b000054980000042eb0091
:104d380080c1eb0082972000800078000500780091
:104d4800f2f20700104980008008b0000549800091
:104d58000042eb0080c1eb00429820008000780000
:104d680005007800e9f2070010498000a10a200038
:104d780080804000004980008042eb0000c2eb00c8
:104d880062552500022f980012002000122f98006b
:104d98000e2990009e299000e2ea0200000000001f
:104da80010498000c10c200080804000004980002c
:104db8000042eb0080c1eb0002992000d3f207000b
:104dc80010498000e10e20008080400000498000ea
:104dd8000042eb0080c1eb00c2992000cbf2070033
:104de80010498000011120008080400000498000a7
:104df8000042eb0080c1eb00829a2000c3f207005a
:104e08001049800021132000808040000049800064
:104e18000042eb0080c1eb00429b2000bbf2070080
:104e2800401f200000498800f00520001049880034
:104e380011498000004980000042eb0080c1eb006e
:104e4800029c2000b1f207001049800021022000d6
:104e580080804000004980000042eb0080c1eb00e8
:104e6800029d2000a9f2070010498000410420009b
:104e780080804000004980008042eb0000c2eb00c7
:104e8800a2662500222f980012002000322f9800d9
:104e98002e299000be299000e2ea020000000000de
:104ea8001049800061062000808040000049800091
:104eb800120020004aff07001049800081082000e6
:104ec80080804000004980003200200044ff070035
:104ed80010498000a10a200080804000004980001d
:104ee8000001eb003eff070010498000c10c2000c4
:104ef80080804000004980008042eb0000c2eb0047
:104f080062722300422f980012002000522f98004e
:104f18004e299000de299000e2ea0200000000001d
:104f280010498000e10e2000808040000049800088
:104f38008042eb0000c2eb0062722300622f9800ef
:104f480012002000722f98006e299000fe29900010
:104f5800e2ea020000000000104980000111200070
:104f680080804000004980008042eb0000c2eb00d6
:104f78006c7223001d0020000c01be00e2ea020052
:104f880000000000104980002113200080804000ac
:104f9800004980000042eb0080c1eb00029e200027
:104fa8005af20700810220008100470002692800a8
:104fb80013000900b2187800800220000e0040009b
:104fc800d3fe07004f06be004f05be004f04be00cb
:104fd8000080fa00000006006c00fa00889fbe00fe
:104fe8008a9fbe008c9fbe008161280013000900c3
:104ff800311f78008e02b1008e0078000040eb006f
:1050080069fe07000005200000498800f00520001f
:1050180010498800114980000049800022002000c2
:10502800effe070010498000210220008080400028
:10503800004980008042eb0000c2eb006872230048
:10504800190020000801be00e2ea0200000000008a
:105058001049800041042000808040000049800001
:105068008042eb0000c2eb006a7223001b002000a4
:105078000a01be00e2ea02000000000010498000b8
:105088006106200080804000004980008042eb00db
:1050980000c2eb006c7223001d0020000c01be0052
:1050a800e2ea0200000000001049800081082000a8
:1050b80080804000004980000042eb0080c1eb0086
:1050c800029f200011f2070010498000a10a200069
:1050d80080804000004980000042eb0080c1eb0066
:1050e80082a0200009f2070010498000c10c2000ae
:1050f80080804000004980000042eb0080c1eb0046
:1051080082a1200001f2070010498000e10e200072
:1051180080804000004980000042eb0080c1eb0025
:1051280082a22000f9f10700104980000111200037
:1051380080804000004980008042eb0000c2eb0004
:1051480062722300022f980012002000122f98008c
:105158000e2990009e299000e2ea0200000000005b
:10516800104980002013b000054980000042eb0080
:1051780080c1eb0082a32000800078000500780041
:10518800e2f10700401f200000498800f0052000d8
:105198001049880010498000054980000042eb0052
:1051a80080c1eb0002a5200080007800050078008f
:1051b800d6f10700104980002002b00005498000a0
:1051c8000042eb0080c1eb0082a62000800078003e
:1051d80005007800cdf10700104980004004b000b8
:1051e800064980008042eb0000c2eb006172230098
:1051f800212f980012002000322f98002e299000ad
:10520800be2990008000780006007800e2ea0200db
:1052180000000000104980006106200080804000e6
:10522800004980008042eb0000c2eb00627223005c
:10523800422f980012002000522f98004e2990000b
:10524800de299000e2ea0200000000001049800018
:105258008108200080804000004980008042eb00e7
:1052680000c2eb0062722300622f98001200200037
:10527800722f98006e299000fe299000e2ea020041
:105288000000000010498000a10a20008080400032
:10529800004980008042eb0000c2eb0062722300ec
:1052a8000237980012002000123798000e31900043
:1052b8009e319000e2ea02000000000010498000e0
:1052c800c10c200080804000004980008042eb0033
:1052d80000c2eb00627223002237980012002000ff
:1052e800323798002e319000be319000e2ea020079
:1052f8000000000010498000e10e2000808040007e
:10530800004980000042eb0080c1eb0002a82000a9
:105318007ef10700104980000111200080804000c4
:10532800004980008042eb0000c2eb00a20d24007f
:105338004237980012002000523798004e319000f2
:10534800de319000e2ea020000000000104980000f
:105358002113200080804000004980000042eb00bb
:1053680080c1eb00c2a8200068f10700810220007c
:10537800810047000264280013000900b218780071
:10538800800220000e004000e1fd07004f06be002d
:105398004f05be004f04be000080fa000000060062
:1053a8007400fa00889fbe008a9fbe008c9fbe00d2
:1053b8000000eb00000f78000000eb0010079800d9
:1053c800e4004700826028000f000900b258780006
:1053d8000000eb00000f7800390037009e007800cd
:1053e800401a20000088b9000000780074004000ce
:1053f8008042eb0000c2eb00ea6623001b0020009d
:105408000a01be0011042000e2ea020000000000c8
:105418000000eb0010079800230037001e007800fa
:10542800c300dd001e00900000804000000047001f
:10543800404090000004e0001f0032001e00780089
:10544800c300dd001e0090000080400000004700ff
:10545800404090000081fb008001eb009e0090001e
:10546800200220000088b90000007800f70520001d
:10547800808343009e007800401a20000088b9000d
:10548800000078007400400000c3eb008042eb008d
:1054980024c0b300870078003aef07001e00900090
:1054a8000000e800100798001e009000e70f500069
:1054b800daff360001003700000000001e0fe80088
:1054c8001e007800e10f5000c4ff36008042eb0058
:1054d80000c2eb00c8852100190020000801be00a9
:1054e80091102000801b2000e2ea0200000000006a
:1054f800c6cfb3008042eb0084c0b300b29c2c003e
:1055080033132000b1122000801b20001def07007c
:105518008042eb0000c2eb00ac6726001d002000b3
:105528000c01be00b112200080232000e2ea020034
:1055380000000000c6cfb30025c0b30034c0b300dc
:105548005206200003002000b11220008024200011
:105558000cef07004006200000498800f0052000f5
:1055680010498800114980000049800074004000fb
:105578008042eb0000c2eb0062722300220f980009
:1055880012002000320f98002e099000be099000ea
:10559800e2ea020000000000104980002102200019
:1055a8008080400000498000740040008042eb0089
:1055b80000c2eb0062722300420f98001200200024
:1055c800520f98004e099000de099000e2ea0200ae
:1055d8000000000010498000410420008080400045
:1055e800004980008042eb0000c2eb00a2082600c0
:1055f800620f980012002000720f98006e09900048
:10560800fe099000e2ea0200000000001049800054
:105618004104200080804000004980007400400060
:105628008042eb0000c2eb00a29a23000217980008
:1056380012002000121798000e1190009e11900081
:10564800e2ea020000000000104980006106200024
:1056580080804000004980008042eb0000c2eb00df
:10566800020b26002217980012002000321798001b
:105678002e119000be119000e2ea02000000000026
:1056880010498000610620008080400000498000a9
:10569800740040008042eb0000c2eb00a29a230095
:1056a8004217980012002000521798004e119000df
:1056b800de119000e2ea02000000000010498000bc
:1056c800810820008080400000498000740040006c
:1056d8008042eb0000c2eb00627223006217980060
:1056e80012002000721798006e119000fe119000b1
:1056f800e2ea02000000000010498000a10a200030
:105708008080400000498000740040008042eb0027
:1057180000c2eb0062722300021f980012002000f2
:10572800121f98000e1990009e199000e2ea0200dc
:105738000000000010498000c10c2000808040005b
:1057480000498000740040008042eb0000c2eb007a
