:10000000007E040001000000A8010000A80100001B
:10001000A8010000A8010000A8010000A80100003C
:10002000A8010000A8010000A8010000A80100002C
:10003000A80100002CE40000A8010000A8010000B5
:10004000A8010000FE290100A8010000A80100008D
:10005000A8010000A8010000A8010000A8010000FC
:10006000A8010000A8010000722A0100A8010000F8
:10007000A8010000A8010000A8010000ECFA00009F
:10008000EEE900008C2A0100A8010000A801000090
:10009000A801000092D30000A8010000A801000000
:1000A000A8010000A8010000A8010000A8010000AC
:1000B000A8010000A8010000A8010000A80100009C
:1000C00080DB0000A8010000A8010000A8010000DA
:0C00D000A8010000A8010000A801000029
:10010800A8010000A8010000A8010000A801000043
:10011800A8010000A8010000A8010000A801000033
:10012800A8010000A8010000A8010000A801000023
:10013800A8010000A8010000A8010000A801000013
:10014800A8010000A8010000A8010000A801000003
:10015800A8010000A8010000A8010000A8010000F3
:10016800A8010000A8010000A8010000A8010000E3
:10017800A8010000A8010000A8010000A8010000D3
:10018800A8010000A8010000A8010000A8010000C3
:10019800A8010000A8010000A8010000A8010000B3
:1001A800A8010000A8010000A8010000A8010000A3
:1001B800A8010000A8010000A8010000A801000093
:1001C800A8010000A8010000A8010000A801000083
:0401D800A80100007A
:100200000FCB20000E7F22000E01880000000000AE
:10021000000020000000E000020032000001200089
:10022000200288000C000700E034230011002000A9
:1002300011000700000020000000E0000200320072
:10024000000002000000000098070200010000000A
:100250000040DA000000FE004440A900C020200059
:100260000000E0000300320000002000A001880030
:100270004440A8000000060091018800800078003A
:100280000000EB0015003700E280400032A0B4000F
:100290009101BA00E280400032A0B4009102BA009D
:1002A000E280400032A0B4000002EB00472BDE00E9
:1002B000F507B200602CE10004003A000059EB00A1
:1002C0008301E900FDFF3E00040037006128E100E2
:1002D000010032000082EB000B00070011C3BA00DE
:1002E0001101BA000604E00003003A000200E00039
:1002F000E5FF3A0000000600F607B200960188000C
:1003000082007800F5FF37003159BA008301E90017
:100310000C0032002159BA008301E90008003200C4
:100320000400E00003003A00E280400032A0B40084
:10033000F5FF370011D9BA008301E900FAFF3A004E
:100340008100E800E180400032A0B4000000060017
:100350000040DA000000FE0003F0A200889FBE000B
:100360008A9FBE008C1F7800F8000700FF00330052
:100370006450E1004F0032006420E100520032007E
:1003800003826C0007003B000905D0000306D00083
:10039000820F54000C065D0002003900020032009A
:1003A00089017800030678008582550004003D002D
:1003B0000003FD008103FD008502EA008B854200F9
:1003C000840F720002003B0060001000E080180003
:1003D0006011B8000005EB007A28E1000A0039003E
:1003E00006007800C75DDD00F707B2008780750062
:1003F0002D003700828171000A01780061056000DC
:100400008180D1000080D3008502E900F9FF3B0024
:10041000060440008784480002003B00600414008A
:10042000E0841C000988A300070032008A81710063
:1004300082817100610164008904D1000884D300C5
:100440008B05E800170037000978A30013003A0075
:100450000B00E000130034008B05E90008044400A1
:1004600089844C000A4474000978A3000D003A0006
:100470000B00E000070034008B05E900080444008D
:1004800089844C0001003A000B0020000978A30089
:10049000F7FF32000001EB0002003700828171009B
:1004A0000A0178006E0007000CF0A70001F0A00020
:1004B000B70037006420E10002003A00838F6C002F
:1004C000B70033000801BE000200BE00B0003700D4
:1004D000889FBE008A9FBE008C1F78009B0007008B
:1004E000A200330003866C006450E1002E0032004D
:1004F0006420E100330032006150E1002F0032003F
:100500006120E1003100320085855500EB07B00025
:1005100009002000080420000500370008044400FA
:1005200089844C000A0031000603430087834B0096
:100530000001530081815B00F8FF33000203BE001D
:100540000800A0000804440089844C00F6FF39002C
:10055000C639DD0083017300010032001300200062
:100560008904D1000884D3000998A3000500320053
:100570000800A7000300A0008904D1000884D3006C
:100580008B05E8008904D1000884D3000001EB004A
:100590000281D2003200070001F0A1000CF0A70098
:1005A00001F0A0007A0037006420E1007C003200F6
:1005B0000801BE000200BE00F7FF37006120E10025
:1005C000770032006000B800F3FF37000000200021
:1005D00001F82700F0FF3700F4FF2F00BA003700C2
:1005E0000001BE00440007000470A70003F0A10052
:1005F00003F8A30013003A006509B10010003200AF
:10060000090035006928E1000200350001002800DA
:100610000000050000004000818048008502E900DC
:10062000FCFF3A0000000600F88F4200050035008C
:100630008100D1000080D3008502E800FCFF3A0071
:10064000000006008000EB00000005004F89DE007E
:1006500082017800B70037006011B800C50037008C
:1006600081002000618055000B003D000B00200040
:1006700061FE2F000100E1001D0034008281710045
:10068000610164008904D1000884D3000000E800FF
:10069000FAFF3A007100200061006400030070005E
:1006A000020060000900320061044400E0844C0054
:1006B0000988A500050032008B05E8006808E10004
:1006C00002003A008904D1000884D300F20F200010
:1006D0000258E10005003D00C75DDD00F907B200EA
:1006E0008980750008007800000006000BF82700DC
:1006F0008B00780000000500C70ADE00F107B20099
:10070000F50FB20008003200E1CF420002003200D3
:100710000170A00024000500810F7000010032006C
:100720000408050044000500810F700002003A0033
:10073000140005008502E9000000400081C0480067
:10074000FCFF3B000170A000240005000004BE0077
:10075000E9FF07000003BE000405BE000200BE0062
:10076000E5FF0700844F7500000006000200BE0090
:100770006450E100050036006420E100020036000C
:100780000968A30001003A000800BE000160A00053
:100790004F0678004F05BE004F04BE000000060063
:1007A000F0FF2F00F1FF2700F9FF3700889FBE0000
:1007B0008A9FBE008C1F7800E4FF0700EBFF330028
:1007C00003866C006450E100240032006420E100E4
:1007D000270032006150E100220032006120E10078
:1007E000210032008B854200EB07B1000134B800D4
:1007F000003AB8000804420089844A00013AB8006F
:100800000030B8008880400009014A00040033002D
:100810000000400081804800020149008B05E9008A
:10082000C909DD00830170000100320013002000BF
:10083000C814DE004814DD004709DE001200B200D3
:10084000C808DE000884700085FF070001F0A100E1
:100850000CF0A70001F0A000CDFF37006120E100FF
:10086000CFFF32000801BE000200BE00F7FF3700D4
:100870006150E100FCFF3A00C9FF37006022B80078
:10088000060220000000D0008180D2000482D20045
:100890008582D2000000A0000202520083825A002A
:1008A000030031000202420083824A000000A100DE
:1008B0000603E900F3FF3A0000000600EFFF07001F
:1008C0000400BE0000000600889FBE008A9FBE0094
:1008D000841F78009DFF07004F007800110033004F
:1008E000F0FF2F00838F6C0006003B0004056500BD
:1008F0000A00A7000800370009F0A6001000200039
:1009000008003700820F5400838F5C000300390019
:100910001000200001003E000000200009F0A700A8
:100920000000EA004F05BE004F04BE000000E000DA
:1009300000000600881F7800030478000300E00030
:1009400007003D0060001000E08018006001190001
:10095000E081190002003B0001F02D000300370088
:100960000400070008F0A70001F0A0004F04780081
:1009700000000600889FBE008A9FBE0000827000B3
:100980000402710004827100260032000004BE00DF
:100990000200BE006011B8006B0920009502200023
:1009A0000182CF000A0039000541B1000082CF006A
:1009B000070039000541B1000982CF000400390069
:1009C0000541B1000882CF00010039000541B100A6
:1009D00005425200120032000A003B008281710081
:1009E000610164008100D1000080D3008984D300BC
:1009F0000884D3008B05E8000442E800F7FF3A00C2
:100A0000070037000804440089844C0000004800B7
:100A1000818048008B05E9000442E900F9FF3A00B3
:100A20000FFF07004F05BE004F04BE000000060088
:100A30002000000012000000210000001300000050
:100A40002200000014000000230000001500000038
:100A50002400000016000000250000001700000020
:100A600026000000180000002700000029000000F8
:100A70001100000019000000280000001A0000000A
:100A80000100000009000000020000000A00000050
:100A9000030000000B000000040000000C00000038
:100AA000050000000D000000060000000E00000020
:100AB000070000002A0000000800000011000000EC
:100AC000100000001F0000000000000000000000F7
:100AD00020000000120000002100000013000000B0
:100AE0002200000014000000230000001500000098
:100AF0002400000016000000250000001700000080
:100B00002600000018000000270000002900000057
:100B10001100000019000000280000001A00000069
:100B200000000000000000000000000000000000C5
:100B300000000000880000000000000078000000B5
:100B400000000000B000000000000000540200009F
:100B500000000000000000002C0200000000000067
:100B60000000000000000000000000000000000085
:100B70000100000009000000020000000A0000005F
:100B8000030000000B000000040000000C00000047
:100B9000050000000D000000060000000E0000002F
:100BA000070000002A0000000800000011000000FB
:100BB000100000001F000000000000000000000006
:100BC00020000000120000002100000013000000BF
:100BD00022000000140000002300000015000000A7
:100BE000240000001600000025000000170000008F
:100BF0002600000018000000270000002900000067
:100C00001100000019000000280000001A00000078
:100C10000100000009000000020000000A000000BE
:100C2000030000000B000000040000000C000000A6
:100C3000050000000D000000060000000E0000008E
:100C4000070000002A00000008000000110000005A
:100C5000100000001F000000000000000000000065
:100C60000102000003040000050600000708000060
:100C7000090F000010110000120000000000000029
:100C8000110000001200000013000000140000001A
:100C90001C0000001B0000001A00000019000000EA
:100CA000200000001F0000001E0000001D000000CA
:100CB0000A00000009000000080000000700000012
:100CC00006000000010000000B0000000C00000006
:100CD000A000000000000000000000000000000074
:100CE000D00000008800000088000000880000009C
:100CF00000000000D0000000740200007402000038
:100D000000000000000000000000000000000000E3
:100D100000000000440200001C0200002C02000041
:100D200004000000030000000200000001000000B9
:100D30000500000006000000070000000800000099
:100D4000090000000A0000000B0000000C00000079
:100D50000D0000000E0000000F0000001000000059
:100D60001500000016000000170000001800000029
:100D70009A00000000000000000000008800000051
:100D80009A00000078000000880000008800000041
:100D90008800000088000000540200005402000097
:100DA0001C02000044020000440200004402000053
:100DB0000000000000000000000000002C02000005
:100DC0004D5500004943000000480000464D00001A
:100DD0005A4B00004A0000004A7500006C200000D9
:100DE00032310000203200003031000037000000B6
:100DF000313500003A330000373A0000303400004B
:100E000000500000696E0000677300006865000014
:100E10006E670000204D0000616F0000005600006A
:100E2000312E0000302E0000300000006D700000F8
:100E3000737A00006D40000031320000362E000051
:100E4000636F00006D0000001800FA00889FBE006C
:100E50008A9FBE008C1F7800600798007107980079
:100E6000020F9800130F98004457980055579800A8
:100E70006657980010C0B300104798000040EB0080
:100E8000204798000040EB00204798001A003700E8
:100E90004E5090008080FB002E4090000080FB00B0
:100EA000008050000006E9000E0890009E089000A7
:100EB000A2002000030020005E04020000000000E9
:100EC000804078000C004700314098000E089000E8
:100ED0009E089000A2002000030020003E040200B3
:100EE00000000000000F9800110F98002E409000A5
:100EF0000040E80020479800AE4090004E5090001F
:100F000080CF5000E2FF39000040EB0020479800FE
:100F1000120037004E5090008080FB002E40900061
:100F20000080FB0000805000CE5090008180FB00CC
:100F30000101E900AE4090008180FB00810051007A
:100F400081004700B1409000000047003140980008
:100F50002E4090000040E80020479800AE409000EE
:100F60005E50900080CF5000EAFF39004E50900054
:100F70008080FB005E5090000080FB0000805000ED
:100F80000000470001C1B300314098005E5090005E
:100F90000004E000400032000040EB0020479800D1
:100FA000380037001E4090000004E00015003200B9
:100FB0002E4090000080FB00000047003040900071
:100FC0000004E0000F003A002E4090008080FB00FB
:100FD0004E5090000080FB000001E9005E50900040
:100FE0000080FB0000005100808F500005003D0094
:100FF00010C0B300104798000040EB00004F78008D
:10100000040037000040EB0010479800EE509000BD
:10101000014F78000AD321001B0020000A01BE0006
:101020002E4090000080FB00000047003040900000
:101030000080FB004400DD008000EB000000410068
:10104000818049002E4190000281FB004311DD00A8
:10105000820178006E019000028341008042EB0023
:101060001E4278000001BE00FE00900006007800DD
:101070001CFF0200000000002E4090000040E8002D
:1010800020479800AE4090004E50900080CF500016
:10109000C4FF36003C0037000040EB0020479800BA
:1010A000350037001E4090000004E00012003200BE
:1010B0002E4090000080FB00000047003040900070
:1010C0000004E0000C003A002E4090008080FB00FD
:1010D0004E5090000080FB000000E900808F50001F
:1010E00005003D0010C0B300104798000040EB0021
:1010F000004F7800040037000040EB0010479800D4
:10110000EE509000014F780008D321001900200014
:101110000801BE002E4090000080FB000000470048
:10112000304090000080FB004400DD008000EB00B8
:1011300000004100818049002E4190000281FB00A7
:101140004311DD00820178006E01900002834100AE
:101150008042EB001E4278000001BE00FE009000BD
:10116000060078001CFF0200000000002E409000E6
:101170000040E80020479800AE4090004E5090009C
:1011800080CF5000C7FF39004F0678004F05BE00E2
:101190004F04BE000080FA00000006001800FA00AC
:1011A000889FBE008A9FBE008C1F78006007980051
:1011B00071079800020F9800130F98004457980089
:1011C000555798006657980010C0B3001047980014
:1011D0000040EB00204798000040EB0020479800BB
:1011E0001A0037004E5090008080FB002E40900087
:1011F0000080FB00008050000006E9000E0890000F
:101200009E089000A2002000030020005E0402005F
:1012100000000000804078000C004700314098003A
:101220000E0890009E089000A200200003002000FD
:101230003E04020000000000000F9800110F98000B
:101240002E4090000040E80020479800AE409000FB
:101250004E50900080CF5000E2FF39000040EB007C
:1012600020479800120037004E5090008080FB000D
:101270002E4090000080FB0000805000CE50900077
:101280008180FB000101E900AE4090008180FB00FD
:101290008100510081004700B140900000004700EC
:1012A000314098002E4090000040E8002047980010
:1012B000AE4090005E50900080CF5000EAFF3900B1
:1012C0004E5090008080FB005E5090000080FB003C
:1012D0000080500000004700A1C0B30031409800DA
:1012E0005E5090000004E000420032000040EB003D
:1012F000204798003A0037001E4090000004E000AC
:10130000150032002E4090000080FB0000004700D6
:10131000304090000004E0000F003A002E409000A2
:101320008080FB004E5090000080FB000001E9002F
:101330005E5090000080FB0000005100808F500044
:1013400005003D0010C0B300104798000040EB00BE
:10135000004F7800040037000040EB001047980071
:10136000EE509000014F78008A3721001B002000CA
:101370000A01BE002E4090000080FB0000004700E4
:10138000304090008080FB00600220000088B9009F
:10139000000078008000EB000000410081804900DF
:1013A0002E4190000281FB004411DD008201780093
:1013B0006E019000028341008042EB001E427800E3
:1013C0000001BE00FE009000060078001CFF020035
:1013D000000000002E4090000040E80020479800E8
:1013E000AE4090004E50900080CF5000C2FF3600BB
:1013F0003E0037000040EB002047980037003700E0
:101400001E4090000004E000120032002E409000C8
:101410000080FB0000004700304090000004E00026
:101420000C003A002E4090008080FB004E5090004F
:101430000080FB000000E900808F500005003D00A7
:1014400010C0B300104798000040EB00004F780038
:10145000040037000040EB0010479800EE50900069
:10146000014F780088372100190020000801BE00D4
:101470002E4090000080FB000000470030409000AC
:101480008080FB00600220000088B9000000780026
:101490008000EB0000004100818049002E41900057
:1014A0000281FB004411DD00820178006E01900092
:1014B000028341008042EB001E4278000001BE0022
:1014C000FE009000060078001CFF020000000000F3
:1014D0002E4090000040E80020479800AE40900069
:1014E0004E50900080CF5000C5FF39004F06780065
:1014F0004F05BE004F04BE000080FA000000060049
:101500000C00FA00000F78001107980022079800DD
:101510003307980044079800254F98002E0090004C
:101520004300DD002E4A9000CE01900000017800BB
:101530009E0090001E00780056020200010000008C
:101540002E009000C300DD001E0190003E009000C0
:10155000000041002E4A9000CE0190000101780069
:10156000800078001E007800560202000100000092
:101570002E4A9000BE0190004E0190009E00900007
:101580001E00780056020200010000002E009000AC
:101590004300DD001E0040000080E9002E4A90005C
:1015A000BE0190004E0190009E0090005602020085
:1015B000010000000080FA00000006001800FA0098
:1015C000889FBE0050079800610798007207980036
:1015D000030F9800140F9800455798000040EB0047
:1015E000004F78000040EB0010479800640047006F
:1015F000020009000018EB000000EB001007980043
:101600000000EB0010079800150037001E00900046
:1016100065001000300F98007E019000A1002000AE
:1016200081017800110009000381D8008140780011
:101630003E0990000200470041409800FE009000E3
:10164000A000200080017800110009008380D800EC
:10165000700798001E0090000000E8001007980036
:101660009E0090000E089000808F5000E7FF390028
:101670000040EB00004F78000E089000660010005C
:10168000100798000A003700E40047001E00900091
:1016900000804000104078000004E00008003A009C
:1016A0001E4FE8001E0090000000E80010079800A0
:1016B0001E009000E40F5000F3FF360001003700D9
:1016C000000000009E80FB000E089000808F5000FC
:1016D00004003A001E08900000407800004F980077
:1016E000080037009E80FB000E089000008050002C
:1016F000650040009E08900081407800000047008F
:10170000414098000000EB00100798002D003700C2
:101710009E0090000E08900000805000E500400000
:101720001E81FB000E089000000051006500400083
:10173000808F5000030031000040EB0010479800FC
:10174000020037004E509000104798008837210063
:10175000190020000801BE009E0090000E089000B5
:1017600000805000650040000000470040409000AD
:101770008080FB00600220000088B9000000780033
:101780008000EB0000004100818049001E019000B4
:10179000C411DD005E019000028341008042EB0035
:1017A0001E4290000001BE00EE009000060078008E
:1017B0001CFF0200000000001E0090000000E80076
:1017C000100798000E0890008000E8001E009000AE
:1017D000808F5000CEFF3E004F04BE000080FA0014
:1017E000000006000800FA00100798002107980082
:1017F00062479800734798000040EB00004F780064
:101800006E409000E14F400002003A000040EB00C3
:1018100070479800EE40900070C2B30080CF500037
:1018200007003600EE40900080CDB30000C04000BD
:1018300060479800C0C0B300004F78000600370032
:1018400081C2B3006E40900000C050006047980015
:10185000B0C0B300004F78009E80FB006E40900047
:101860000080FB00FE42900001027800330020005F
:1018700000017800AE0090001E0090004FFF0700AE
:101880000080FA00000006000800FA001007980027
:101890002107980062479800734798000040EB00CA
:1018A000004F78006E409000E14F400002003A0087
:1018B0000040EB00704798006E409000FD4F5000D4
:1018C000060036006E4090007E4050006047980051
:1018D000C0C0B300004F780006003700E1C1B3007C
:1018E0006E40900000C0500060479800B0C0B30048
:1018F000004F78009E80FB006E4090000080FB004F
:10190000FE429000010278003300200000017800C0
:10191000AE0090001E00900028FF07000080FA0033
:10192000000006000C00FA0020079800310798001C
:1019300042079800234F9800344F98000040EB0076
:10194000104798000040EB00204798000040EB0053
:10195000004F7800250037001E80FB004200DD00AC
:10196000CE009000008040001000BE001E4190009C
:101970008281FB002E01900002834100BE4A90004C
:101980002E4A90000001BE00BE00900006007800C4
:101990001CFF0200000000001E80FB004200DD0072
:1019A000CE009000008040001000BE0061004000AA
:1019B000E0804800A201800000F0A4008180D200F5
:1019C000A101880090407800A2018800300020002A
:1019D0000008DD00204798009E4090002E409000B7
:1019E00000C04000104798001E4FE8001E80FB001A
:1019F0004200DD00CE009000008040001001BE00DB
:101A000002007800008071000000E000D2FF3A0080
:101A10000080FA00000006006200FA00889FBE0005
:101A20008A9FBE008C9FBE00100798002107980077
:101A300032079800430798005407980065079800FC
:101A40000040EB00004F780036C9BF000004E00002
:101A50003200320019C9BF000004E0002F003A0034
:101A60001AC9BF000004E00015003200A0CA20001F
:101A700010407800F0404000A0CA200001487800E3
:101A8000A0CA2000104078000080FB004400DE0067
:101A900000407800E24F500005003600A0CA200048
:101AA00010407800EF406000A0CA20000148780094
:101AB00080CA200002270200010000001A69EF001E
:101AC000C8C92000190020000801BE000E4890007F
:101AD0000080FB004400DE00004078000080FB0036
:101AE000EF006000300520000088B9000000780099
:101AF0008000EB00000041008180490095C4B300E4
:101B000000C2EB000001BE00AE0090001E0090007D
:101B10001CFF02000000000016003700C6C92000AC
:101B2000170020000601BE000E4890000080FB0058
:101B30004400DE00004078000080FB00EF00600001
:101B4000300520000088B900000078008000EB001C
:101B500000004100818049008042EB0000C2EB00A0
:101B60000001BE00AE0090001E0090001CFF0200AD
:101B70000000000036C9BF000004E0002F00320062
:101B800019C9BF00E14F50002C003A001AC9BF002C
:101B90000004E00015003200A0CA200010407800C8
:101BA0008040E800A0CA200001487800A0CA2000B8
:101BB000104078000080FB006F006000E90F5000CB
:101BC00006003400A0CA20009040780000CFB30087
:101BD00080C06000A0CA20000148780080CA2000B0
:101BE00002270200010000001A69EF00CCC92000A2
:101BF0001D0020000C01BE000E4890000080FB007C
:101C0000EF006000300520000088B9000000780077
:101C10008000EB0000014100818149001E0090001E
:101C20007C00400095C4B30000C2EB00AE00900001
:101C30001CFF02000000000013003700CAC920008A
:101C40001B0020000A01BE000E4890000080FB002F
:101C5000EF006000300520000088B9000000780027
:101C60008000EB0000014100818149001E009000CE
:101C70007C0040008042EB0000C2EB00AE00900010
:101C80001CFF02000000000036C9BF000004E00095
:101C90003500320019C9BF00E24F500032003A004F
:101CA0001AC9BF000004E0001500320090CA2000ED
:101CB00010407800F040400090CA200001487800B1
:101CC00090CA2000104078000080FB004400DE0035
:101CD00000407800E54F50000500360090CA200013
:101CE00010407800EF40600090CA20000148780062
:101CF00080CA200002270200010000001A69EF00DC
:101D0000C1C920007107980014002000040F98003A
:101D10007E0190008E0990007E4090000080FB00C4
:101D20004400DE00004078000080FB00EF0060000F
:101D3000300520000088B900000078008000EB002A
:101D400000014100818149001E0090004005B00063
:101D500095C4B30000C2EB00AE0090001CFF02006F
:101D60000000000019003700C5C92000150F9800B9
:101D700011002000210F98001E099000AE0990006C
:101D80007E4090000080FB004400DE0000407800B0
:101D90000080FB00EF006000300520000088B900E3
:101DA000000078008000EB000001410081814900C3
:101DB0001E0090004005B0008042EB0000C2EB0026
:101DC000AE0090001CFF02000000000036C9BF00FA
:101DD0000004E0003200320019C9BF00E34F500098
:101DE0002F003A001AC9BF000004E00015003200BD
:101DF00090CA2000104078008040E80090CA20007F
:101E00000148780090CA2000104078000080FB0054
:101E10006F006000E90F50000600340090CA2000F7
:101E20009040780000CFB30080C0600090CA2000CE
:101E30000148780080CA200002270200010000004B
:101E40001A69EF00C4C92000340F98001500200063
:101E5000450F98003E099000CE0990007E4090000A
:101E60000080FB00EF006000300520000088B90012
:101E7000000078008000EB000001410081814900F2
:101E80001E0090000007B00095C4B30000C2EB0034
:101E9000AE0090001CFF020000000000160037009A
:101EA000C1C92000510F980014002000640F980051
:101EB0005E099000EE0990007E4090000080FB00DB
:101EC000EF006000300520000088B90000007800B5
:101ED0008000EB0000014100818149001E0090005C
:101EE0000007B0008042EB0000C2EB00AE009000A3
:101EF0001CFF020000000000114B800000022000C7
:101F0000008060000000E0000300320000C0EB0031
:101F1000004F7800020037000040EB00004F7800CF
:101F2000C5C92000750F9800110020000117980006
:101F30007E0890008E109000E43320000500200001
:101F400004014000858148002E009000E30040001D
:101F50001E0090008003B0008042EB001E4278001B
:101F60001CFF020000000000304B80007000600089
:101F70000000E00005003200204B80004300DE003E
:101F80006140600036E9B700020037003669EF00B3
:101F90001969EF00C52820001517980011002000CE
:101FA000211798001E109000AE10900084082000A9
:101FB0000500200004014000858148002E009000AB
:101FC0008080E9001E0090004010B0008042EB00CD
:101FD00000C2EB001CFF020000000000C52820002A
:101FE0003517980011002000411798003E1190000D
:101FF000CE1190002E0090008080E9001E0090001D
:102000004011B0008042EB0000C2EB001CFF020058
:102010000000000036C9BF000004E00036003200B6
:1020200019C9BF00E44F500033003A001AC9BF007D
:102030000004E00015003200E0CA200010407800E3
:10204000F0404000E0CA200001487800E0CA2000CB
:10205000104078000080FB004400DE000040780063
:10206000E94F500005003600E0CA2000104078001B
:10207000EF406000E0CA20000148780080CA2000DC
:1020800002270200010000001A69EF00C4282000A6
:102090005417980015002000651798005E119000F5
:1020A000EE1190004E4890000080FB004400DE00DE
:1020B000004078000080FB00EF006000400420003A
:1020C0000088B900000078008000EB0000014100AA
:1020D000818149002E0090008080E9001E00900060
:1020E0004012B00095C4B30000C2EB001CFF020018
:1020F000000000001A003700C12820007117980066
:1021000014002000041F98007E1190008E1990008A
:102110004E4890000080FB004400DE000040780044
:102120000080FB00EF006000400420000088B90040
:10213000000078008000EB0000014100818149002F
:102140002E0090008080E9001E0090004012B00038
:102150008042EB0000C2EB001CFF02000000000008
:1021600036C9BF000004E0003300320019C9BF00C7
:10217000E54F500030003A001AC9BF000004E000EB
:1021800015003200E0CA2000104078008040E800CE
:10219000E0CA200001487800E0CA20001040780022
:1021A0000080FB006F006000E90F50000600340063
:1021B000E0CA20009040780000CFB30080C06000EB
:1021C000E0CA20000148780080CA200002270200EF
:1021D000010000001A69EF00C5282000151F9800B3
:1021E00011002000211F98001E199000AE199000C8
:1021F0004E4890000080FB00EF006000400420008B
:102200000088B900000078008000EB000001410068
:10221000818149002E0090008080E9001E0090001E
:102220004013B00095C4B30000C2EB001CFF0200D5
:102230000000000017003700C4282000341F980059
:1022400015002000451F98003E199000CE199000FF
:102250004E4890000080FB00EF006000400420002A
:102260000088B900000078008000EB000001410008
:10227000818149002E0090008080E9001E009000BE
:102280004013B0008042EB0000C2EB001CFF0200D4
:1022900000000000C1282000511F980014002000F9
:1022A000641F98005E199000EE19900040482000CD
:1022B0000100200000014100818149002E009000B2
:1022C0008080E9001E0090004014B0008042EB00C6
:1022D00000C2EB001CFF02000000000036C9BF0076
:1022E0000004E0003600320019C9BF00E64F50007C
:1022F00033003A001AC9BF000004E00015003200A4
:10230000D0CA200010407800F0404000D0CA200021
:1023100001487800D0CA2000104078000080FB00FF
:102320004400DE0000407800E14F50000500360018
:10233000D0CA200010407800EF406000D0CA2000D2
:102340000148780080CA2000022702000100000036
:102350001A69EF00C5282000751F980011002000A1
:10236000012798007E1990008E2190003E48900031
:102370000080FB004400DE00004078000080FB008D
:10238000EF006000400420000088B90000007800E1
:102390008000EB0000014100818149002E00900087
:1023A0008080E9001E0090004015B00095C4B30085
:1023B00000C2EB001CFF0200000000001A00370002
:1023C000C428200014279800150020002527980015
:1023D0001E219000AE2190003E4890000080FB003E
:1023E0004400DE00004078000080FB00EF00600049
:1023F000400420000088B900000078008000EB0055
:1024000000014100818149002E0090008080E90098
:102410001E0090004015B0008042EB0000C2EB00AF
:102420001CFF02000000000036C9BF000004E000ED
:102430003300320019C9BF00E74F500030003A00A6
:102440001AC9BF000004E00015003200D0CA200005
:10245000104078008040E800D0CA20000148780091
:10246000D0CA2000104078000080FB006F006000A0
:10247000E90F500006003400D0CA200090407800D8
:1024800000CFB30080C06000D0CA200001487800AF
:1024900080CA200002270200010000001A69EF0034
:1024A000C1282000312798001400200044279800FC
:1024B0003E219000CE2190003E4890000080FB001D
:1024C000EF006000400420000088B90000007800A0
:1024D0008000EB0000014100818149002E00900046
:1024E0008080E9001E0090004016B00095C4B30043
:1024F00000C2EB001CFF02000000000017003700C4
:10250000C528200055279800110020006127980059
:102510005E219000EE2190003E4890000080FB007C
:10252000EF006000400420000088B900000078003F
:102530008000EB0000014100818149002E009000E5
:102540008080E9001E0090004016B0008042EB0041
:1025500000C2EB001CFF020000000000C4282000A5
:102560007427980015002000052F98007E21900008
:102570008E2990004048200001002000000041000A
:10258000818049002E0190008283E9001E019000A5
:1025900046172000020343008042EB0000C2EB001C
:1025A0000001BE0087007800060078001CFF0200D2
:1025B0000000000036C9BF000004E0003A0032000D
:1025C00019C9BF00E84F500037003A001AC9BF00D0
:1025D0000004E00015003200C0CA2000104078005E
:1025E000F0404000C0CA200001487800C0CA200066
:1025F000104078000080FB004400DE0000407800BE
:10260000E34F500005003600C0CA2000104078009B
:10261000EF406000C0CA20000148780080CA200056
:1026200002270200010000001A69EF00C128200003
:10263000112F980014002000242F98001E299000CC
:10264000AE2990002E4890000080FB004400DE0080
:10265000004078000080FB00EF0060004004200094
:102660000088B900000078008000EB000000410005
:10267000818049002E0190008283E9001E019000B4
:10268000461820000203430095C4B30000C2EB00CB
:102690000001BE0087007800060078001CFF0200E1
:1026A000000000001E003700C5282000352F9800CC
:1026B00011002000412F98003E299000CE29900063
:1026C0002E4890000080FB004400DE0000407800AF
:1026D0000080FB00EF006000400420000088B9008B
:1026E000000078008000EB0000004100818049007C
:1026F0002E0190008283E9001E0190004618200000
:10270000020343008042EB0000C2EB000001BE0068
:1027100087007800060078001CFF0200000000001F
:1027200036C9BF000004E0003700320019C9BF00FD
:10273000E94F500034003A001AC9BF000004E0001D
:1027400015003200C0CA2000104078008040E80028
:10275000C0CA200001487800C0CA2000104078009C
:102760000080FB006F006000E90F5000060034009D
:10277000C0CA20009040780000CFB30080C0600045
:10278000C0CA20000148780080CA20000227020049
:10279000010000001A69EF00C4282000542F98009F
:1027A00015002000652F98005E299000EE2990000A
:1027B0002E4890000080FB00EF00600040042000E5
:1027C0000088B900000078008000EB0000004100A4
:1027D000818049002E0190008283E9001E01900053
:1027E000461920000203430095C4B30000C2EB0069
:1027F0000001BE0087007800060078001CFF020080
:10280000000000001B003700C1282000712F980035
:1028100014002000043798007E2990008E3190002B
:102820002E4890000080FB00EF0060004004200074
:102830000088B900000078008000EB000000410033
:10284000818049002E0190008283E9001E019000E2
:1028500046192000020343008042EB0000C2EB0057
:102860000001BE0087007800060078001CFF02000F
:10287000000000004F06BE004F05BE004F04BE0022
:102880000080FA00000006000000FA00889FBE00E9
:102890001CC9BF000004E00018003A0010C0B300DB
:1028A0001CE9B700304B80000040A000304B88008E
:1028B00088FD02000000000094C4B3002300200043
:1028C00002322000810320000000EB0056020200CB
:1028D000010000008042EB00C4C1B300E8D922002F
:1028E000190020000801BE00E10120008016200030
:1028F0001CFF0200000000002C0037001CC9BF00B4
:10290000E14F500028003A0010C0B3001CE9B700A6
:1029100080CA20001080FB0091CA20009180FB003B
:10292000C808DD00010070008000EB008000780026
:10293000A0CA20001080FB00B2CA20001281FB0058
:102940004811DD00020070008001EB00800178007A
:10295000C0CA20001080FB00D2CA20001281FB00F8
:102960004811DD00020070000002EB000002780058
:10297000E0CA20009082FB000000EB00F20F200074
:102980000281620005F02F00050060000000710068
:102990000101780080027800010F2000200D200046
:1029A0001DFC0700010037001C69EF00004B800090
:1029B000680060000000E0000C003200004B800066
:1029C0000030A100004B880019C9BF00E84F50003B
:1029D00004003E0019C9BF000040E80019E9B70033
:1029E0000200370090C0B30019E9B700014B800026
:1029F00000042000008060000000E0000B003200B6
:102A0000004B80000060A100004B880019C9BF0086
:102A10000004E0000400320019C9BF000040E900D2
:102A200019E9B700010037001969EF00004B800079
:102A3000610060000000E0000B003200004B8000ED
:102A40000000A100004B8800304B80007000600047
:102A50000000E0000300320010C0B3001AE9B70024
:102A6000010037001A69EF00204B80006100600010
:102A70000000E0000A003200204B80000000A100AE
:102A8000204B88001B69EF001C69EF00304B800071
:102A90000040A100304B8800A0C0B30019E9B70086
:102AA0004F04BE000080FA00000006002000FA007B
:102AB000889FBE008A9FBE008C9FBE000000EB0076
:102AC000000F7800A000200010079800314A800015
:102AD0001E00900080804000204A80001E004000C0
:102AE0008042EB0000C2EB00227A24001300200099
:102AF0001CFF0200000000000000EB00000F780047
:102B0000F005200010079800314A80001E00900058
:102B100080804000204A80001E0040008042EB0080
:102B200000C2EB00C8812400190020000801BE008B
:102B30001CFF020000000000C0062000000F78000B
:102B40007006200010079800314A80001E00900097
:102B500080804000204A80001E0040008042EB0040
:102B600000C2EB00EA5722001B0020000A01BE0051
:102B70001CFF02000000000000142000000F78007D
:102B80007006200010079800314A80001E00900057
:102B900080804000204A80001E0040008042EB0000
:102BA00000C2EB00EC5722001D0020000C01BE000B
:102BB0001CFF020000000000001C2000000F780035
:102BC000F005200010079800314A80001E00900098
:102BD00080804000204A80001E0040008042EB00C0
:102BE00000C2EB0062892400220798001200200036
:102BF000320798002E019000BE0190001CFF0200D9
:102C000000000000201B2000000F7800A000200022
:102C100010079800314A80001E009000808040001C
:102C2000204A80001E0040008042EB0000C2EB0002
:102C300002E6210042079800120020005207980087
:102C40004E019000DE0190001CFF02000000000019
:102C500090192000000F7800F00120001007980064
:102C6000314A80001E00900080804000204A800091
:102C70001E0040008042EB0000C2EB0042F3260041
:102C80006207980012002000720798006E01900001
:102C9000FE0190001CFF020000000000F017200061
:102CA000000F7800F003200010079800314A8000E0
:102CB0001E00900080804000204A80001E004000DE
:102CC0008042EB0000C2EB00A21C2700020F98001C
:102CD00012002000120F98000E0990009E0990002B
:102CE0001CFF02000000000070152000000F78009B
:102CF0005003200010079800314A80001E00900009
:102D000080804000204A80001E0040008042EB008E
:102D100000C2EB00423B2700220F98001200200067
:102D2000320F98002E099000BE0990001CFF02008F
:102D300000000000E0012000000F7800A00020004B
:102D400010079800314A80001E00900080804000EB
:102D5000204A80001E00400000C2EB00230020003B
:102D6000A2012000560202000100000080032000A2
:102D7000000F78000000EB0010079800314A800037
:102D80001E00900080804000204A80001E0040000D
:102D900000C2EB00B3002000220020005602020017
:102DA00001000000314A80001E0090008080400039
:102DB000204A80001E00400000C2EB0023002000DB
:102DC00082012000560202000100000000052000E0
:102DD000000F78000000EB0010079800314A8000D7
:102DE0001E00900080804000204A80001E004000AD
:102DF00000C2EB00A30020002200200056020200C7
:102E00000100000000052000000F7800A000200055
:102E100010079800314A80001E009000808040001A
:102E2000204A80001E00400000C2EB00230020006A
:102E30003210200056020200010000003015200070
:102E4000000F78000000EB0010079800314A800066
:102E50001E00900080804000204A80001E0040003C
:102E600000C2EB00A3002000220020005602020056
:102E700001000000314A80001E0090008080400068
:102E8000204A80001E00400000C2EB00230020000A
:102E9000820120005602020001000000A01620005E
:102EA000000F78000000EB0010079800314A800006
:102EB0001E00900080804000204A80001E004000DC
:102EC00000C2EB00A30020002200200056020200F6
:102ED00001000000A0162000000F7800A0002000D4
:102EE00010079800314A80001E009000808040004A
:102EF000204A80001E00400000C2EB00230020009A
:102F0000820420005602020001000000E0012000BF
:102F1000000F78003001200010079800314A80002F
:102F20001E00900080804000204A80001E0040006B
:102F300000C2EB00230020004219200056020200CC
:102F4000010000000000EB00000F780040032000AB
:102F500010079800314A80001E00900080804000D9
:102F6000204A80001E00400000C2EB002300200029
:102F7000720C20005602020001000000700F2000B9
:102F8000000F78004003200010079800314A8000AD
:102F90001E00900080804000204A80001E004000FB
:102FA00000C2EB0023002000F205200056020200C0
:102FB00001000000E0012000000F7800B0072000B1
:102FC00010079800314A80001E0090008080400069
:102FD000204A80001E00400000C2EB0023002000B9
:102FE000E2042000560202000100000080092000D7
:102FF000000F7800314A80001E0090008080400061
:10300000204A80001E00400000C2EB002300200088
:10301000820A20005602020001000000C0162000B3
:10302000000F7800314A80001E0090008080400030
:10303000204A80001E00400000C2EB002300200058
:103040004205200056020200010000000000EB00D3
:10305000000F78008002200010079800314A80009D
:103060001E00900080804000204A80001E0040002A
:1030700000C2EB0073032000220020005602020071
:1030800001000000C01D2000000F78009003200008
:1030900010079800314A80001E0090008080400098
:1030A000204A80001E00400000C2EB0063022000A6
:1030B000220020005602020001000000B0002000A3
:1030C000000F78006004200010079800400A2000DC
:1030D000000F780040102000000F7800314A800077
:1030E0001E00900080804000204A80001E004000AA
:1030F0008042EB0000C2EB0002182700420F98004C
:1031000012002000520F98004E099000DE09900036
:103110001CFF02000000000040162000000F780095
:10312000314A80001E00900080804000204A8000CC
:103130001E0040008042EB0000C2EB00E2C227000C
:10314000620F980012002000720F98006E09900024
:10315000FE0990001CFF0200000000004F06BE00A8
:103160004F05BE004F04BE000080FA0000000600BC
:103170005200FA00889FBE008A9FBE008C9FBE004E
:1031800088FD02000000000094C4B300230020006A
:1031900002322000E11A20000000EB00560202007B
:1031A0000100000094C4B30013002000023220008C
:1031B0008000EB000000EB0056020200010000005E
:1031C00094C4B30013002000023220002103200029
:1031D0000000EB00560202000100000094C4B3009E
:1031E000130020006222200041062000A0072000DA
:1031F000560202000100000010002000000F7800BD
:103200000B0037009E007800D00320000088B90032
:103210000000780094C4B3002303200012002000B3
:103220008000EB0056020200010000001E0FE800C3
:103230001E007800EC0F5000F2FF36002000200046
:10324000000F78000B0037009E007800D0032000AC
:103250000088B9000000780094C4B3002303200064
:10326000120020002103200056020200010000008D
:103270001E0FE8001E007800EB0F5000F2FF360032
:103280000000EB00000F78000500370040C620006A
:103290009E00400010C0B300804878001E0FE80078
:1032A0001E007800F70F5000F8FF3600100A2000CB
:1032B000004988009010200010498800100020006C
:1032C000000F78000C0037001E0078007E00B90067
:1032D0008000780010498000808040000049800014
:1032E00094C4B30013002000E21D20005602020027
:1032F000010000001E0FE8001E007800E40F5000DF
:10330000F1FF3600100A20000049880010498000B3
:103310007E0040001049880011498000004980006B
:1033200094C4B300A305200012002000560202003E
:1033300001000000001920000049880011498000A8
:103340000049800094C4B300A305200012002000AF
:103350005602020001000000F0272000004988000A
:10336000114980000049800094C4B300A3052000E7
:10337000120020005602020001000000300A200066
:1033800000498800F010200010498800D012200069
:103390001049880011498000004980008042EB00FC
:1033A00000C2EB00C8042500190020000801BE007F
:1033B0001CFF02000000000011498000004980004D
:1033C0008002B0008042EB0000C2EB000A722500D0
:1033D0001B0020000A01BE001CFF020000000000CC
:1033E00011498000004980000005B0008042EB00D8
:1033F00000C2EB00CC7725001D0020000C01BE00B0
:103400001CFF0200000000001149800000498000FC
:10341000000CB0008042EB0000C2EB0042B8270075
:103420001207980012002000220798001E01900049
:10343000AE0190001CFF020000000000B01420004C
:103440001049880011498000004980008042EB004B
:1034500000C2EB00C20425003207980012002000D1
:10346000420798003E019000CE0190001CFF020030
:103470000000000011498000004980008002B00077
:103480008042EB0000C2EB00027225005207980058
:1034900012002000620798005E019000EE0190008B
:1034A0001CFF02000000000011498000004980005C
:1034B0000005B0008042EB0000C2EB00827D2500D9
:1034C0007207980012002000020F98007E01900001
:1034D0008E0990001CFF02000000000011498000CE
:1034E00000498000000CB0008042EB0000C2EB00FD
:1034F00062BA2700120F980012002000220F9800D5
:103500001E099000AE0990001CFF020000000000A0
:103510009016200010498800114980000049800061
:103520008042EB0000C2EB00426C2500320F980095
:1035300012002000420F98003E099000CE09900032
:103540001CFF0200000000001149800000498000BB
:103550008002B0008042EB0000C2EB00028925002F
:10356000520F980012002000620F98005E09900030
:10357000EE0990001CFF02000000000011498000CD
:1035800000498000000CB0008042EB0000C2EB005C
:10359000420E2700720F98001200200002179800B8
:1035A0007E0990008E1190001CFF020000000000B8
:1035B0002019200000498800F010200010498800E0
:1035C000D012200010498800B01420001049880053
:1035D00011498000004980008042EB0000C2EB00EE
:1035E000C29B270012179800120020002217980093
:1035F0001E119000AE1190001CFF020000000000A0
:103600001149800000498000700040008042EB00BA
:1036100000C2EB0002722500321798001200200051
:10362000421798003E119000CE1190001CFF02003E
:1036300000000000410922005117980012002000EC
:10364000621798005E119000EE1190001149800001
:10365000004980008003B0008042EB0000C2EB0014
:103660001CFF02000000000011498000004980009A
:103670000006B0008042EB0000C2EB00420D2600C5
:103680007217980012002000021F98007E1190000F
:103690008E1990001CFF0200000000009016200010
:1036A0001049880011498000004980008042EB00E9
:1036B00000C2EB0082212500121F9800120020009A
:1036C000221F98001E199000AE1990001CFF0200E6
:1036D0000000000011498000004980008002B00015
:1036E0008042EB0000C2EB00026F2600321F980000
:1036F00012002000421F98003E199000CE19900041
:103700001CFF020000000000300A20000049880071
:10371000E018200010498800104980000649800008
:103720008042EB0000C2EB0041272500511F9800AA
:1037300012002000621F98005E199000EE199000A0
:1037400080007800060078001CFF020000000000E6
:1037500011498000004980008002B0008042EB00E7
:1037600000C2EB00C2322500721F98001200200038
:10377000022798007E1990008E2190001CFF020005
:103780000000000000192000004988001149800055
:10379000004980008042EB0000C2EB00022D2500B2
:1037A0001227980012002000222798001E21900066
:1037B000AE2190001CFF02000000000011498000B3
:1037C000004980008002B0008042EB0000C2EB00A4
:1037D000C2322500322798001200200042279800AC
:1037E0003E219000CE2190001CFF0200000000004E
:1037F00050162000004988001149800000498000CF
:103800008042EB0000C2EB00A24127005227980043
:1038100012002000622798005E219000EE219000A7
:103820001CFF020000000000D02520000049880095
:1038300011498000004980008042EB0000C2EB008B
:10384000A24127007227980012002000022F980042
:103850007E2190008E2990001CFF020000000000D5
:103860004F06BE004F05BE004F04BE000080FA00A8
:10387000000006000E00FA00889FBE008A9FBE006E
:103880008C9FBE000040EB00004F78000040EB0032
:1038900010479800D011200020079800F010200059
:1038A00030079800C1478000A00020000001780088
:1038B000110009008280D800100798009E00900037
:1038C000703E2000808F5000060036001E009000E1
:1038D000803EB10010079800C0C0B30010479800A8
:1038E00006003700813E20001E009000008050003E
:1038F00010079800B0C0B300104798001E40900019
:103900008080FB003E0090007E00400080C2EB0003
:1039100001027800330020001E0190008000780032
:103920002E00900025F70700D1478000A00020005E
:1039300000017800110009008280D800100798006B
:103940009E009000703E2000808F500006003600E0
:103950001E009000803EB10010079800C0C0B30068
:103960001047980006003700813E20001E0090009E
:103970000080500010079800B0C0B30010479800B6
:103980001E4090008080FB003E009000C003B0000D
:1039900080C2EB0001027800330020001E0190007D
:1039A000800078002E00900004F70700404380005C
:1039B0000000D100100798001E0090008000EB006E
:1039C0003E019000A70520008283430000C3EB0066
:1039D0008042EB0044C0B3000001BE0087007800C5
:1039E0002E009000EDF507005022200020079800DF
:1039F000F01020003007980095C8BF000080FB0041
:103A0000100798001E0090000000E00003003A003C
:103A100000C0EB00004F78000200370000CEB3007A
:103A2000004F78001E0090008000EB003E019000E7
:103A3000C7032000828343001E4378008042EB00CE
:103A400044C0B3000001BE00870078002E00900043
:103A5000D2F507006BC8BF008080FB000003200088
:103A600000806000F00F50000F003200F00F500097
:103A700003003C000000E0000800320013003700A3
:103A800001022000810F50000A00320001032000D3
:103A9000810F50000A0032000C003700C0C1B30093
:103AA000004F780009003700C0CFB300004F780006
:103AB0000600370000CEB300004F78000300370047
:103AC00000CEB300004F780000000000604380008B
:103AD0008000EB003E019000A70520008283430098
:103AE0002E01900070015100420798001E4378009B
:103AF0008042EB0054C0B3000001BE008700780094
:103B00004E009000A5F507006006200020079800F1
:103B100090012000300798006BC8BF008080FB0038
:103B200000032000008060000000E00003003A0075
:103B3000C0C1B300004F78000200370090C4B3004A
:103B4000004F7800314A80003E00900080804000A5
:103B5000224A80002E009000000041008042EB00CD
:103B60001E427800E84A2300190020000801BE0028
:103B70001CFF020000000000C0C3200010407800BD
:103B80000080FB00680060000000E00003003200DD
:103B900000CEB300004F780002003700C0C1B30070
:103BA000004F78001E407800FC4F500002003A00A1
:103BB00000C0EB00004F7800E012200020079800C2
:103BC000600420003007980091C8BF000080FB000F
:103BD000CF80DE002603020000000000D2CC2C00C3
:103BE000C3EC2300D603020000000000F002020034
:103BF00000000000334A80003E0190000284410032
:103C0000234A80002E019000828341001E437800E9
:103C10008042EB0034C0B3000001BE008800780091
:103C2000070078005DF50700004C8000610060002F
:103C30000000E0000300320000CEB300004F780027
:103C40000200370000C0EB00004F7800700C20002D
:103C500020079800F001200030079800314A8000CA
:103C60003E00900080804000224A80002E0090009C
:103C7000000041001E4278002300200002032000C3
:103C80005602020001000000314A80003E00900010
:103C900080804000224A80002E00900000004100F9
:103CA0001E427800830520002200200056020200F8
:103CB00001000000500F200020079800F0012000B4
:103CC00030079800314A80003E009000808040001C
:103CD000224A80002E009000000041001E42780021
:103CE000830520002200200056020200010000008F
:103CF000700C200020079800500720003007980023
:103D0000314A80003E00900080804000224A8000BE
:103D10002E009000000041001E4278002300200089
:103D2000020320005602020001000000004C800047
:103D3000610060000000E000030032000040EB0082
:103D4000004F78000200370000C0EB00004F780001
:103D5000900C200020079800D00320003007980026
:103D6000314A80003E00900080804000224A80005E
:103D70002E009000000041001E4278002300200029
:103D8000C20220005602020001000000E00D2000E7
:103D9000200798001002200030079800314A800068
:103DA0003E00900080804000224A80002E0090005B
:103DB000000041001E427800430520002200200040
:103DC0005602020001000000F14B800000002400B8
:103DD000008060000000E000030032000040EB00C3
:103DE000004F78000200370000C0EB00004F780061
:103DF000F017200020079800F003200030079800FB
:103E000080C62000104078009E4F50001200320003
:103E100080C620001E487800314A80003E00900095
:103E200080804000224A80002E0090000000410067
:103E30008042EB001E427800A21C27005207980027
:103E400012002000620798005E019000EE019000D1
:103E50001CFF020000000000F14B80000000240065
:103E6000008060000000E0000300320000CEB300DC
:103E7000004F78000200370000C0EB00004F7800D0
:103E8000F017200020079800F0012000300798006C
:103E9000314A80003E00900080804000224A80002D
:103EA0002E009000000041001E42780023002000F8
:103EB000B20120005602020001000000314A8000D9
:103EC0003E00900080804000224A80002E0090003A
:103ED000000041001E4278008305200022002000DF
:103EE0005602020001000000D01A200020079800AE
:103EF000D003200030079800314A80003E00900037
:103F000080804000224A80002E0090000000410086
:103F10001E427800A3032000220020005602020067
:103F200001000000F0172000200798005007200033
:103F300030079800314A80003E00900080804000A9
:103F4000224A80002E009000000041001E427800AE
:103F5000230020000203200056020200010000009E
:103F60009019200020079800F001200030079800E9
:103F7000314A80003E00900080804000224A80004C
:103F80002E009000000041008042EB001E427800AD
:103F90004CF326001D0020000C01BE001CFF020097
:103FA00000000000F14B80000080200000806000D5
:103FB0000000E0000300320000CEB300004F7800A4
:103FC000020037000040EB00004F78008001200025
:103FD000200798004003200030079800314A8000F5
:103FE0003E00900080804000224A80002E00900019
:103FF000000051008042EB001E4278008AFE26003D
:104000001B0020000A01BE001CFF0200000000008F
:10401000B0062000200798006004200030079800B8
:104020004F06BE004F05BE004F04BE000080FA00E0
:10403000000006001800FA00889FBE008A9FBE009C
:104040008C9FBE0090C4B300104798000040EB0066
:104050002047980040BD2000104078000004E00098
:104060001400350050BD2000104078000080FB0097
:10407000620060000000E0000E003A0070BD200009
:10408000104078008080FB00000420000080600069
:104090000000E00007003A0080BD200010407800DA
:1040A0000080FB0061006000004078000004E00038
:1040B0000300320000CEB300104798000200370022
:1040C00090C4B300104798008042EB001E4290005D
:1040D000429D230013002000C1032000400820005F
:1040E0001CFF020000000000F04B80006200600036
:1040F0000000E00003003200C0CFB300104798007A
:104100000200370090C4B30010479800B0BF2000F1
:10411000104078000004E0000300320000CEB3003D
:10412000104798000200370090C4B3001047980071
:104130008042EB001E42900088B923001900200045
:104140000801BE0091032000201020001CFF020087
:1041500000000000F0C32000104078000080FB0049
:10416000680060000000E00003003A0000CEB300E9
:10417000104798000200370090C4B3001047980021
:104180008042EB001E4290000A7F23001B002000AB
:104190000A01BE00F1032000401320001CFF0200B2
:1041A00000000000E2C8BF000080FB006F0060005C
:1041B000ED0F500009003200EE0F50000C003200ED
:1041C0000000E0000F003A00C0C1B30010479800A3
:1041D0000040EB00004F78000F00370000CEB30026
:1041E0001047980010C0B300004F78000A00370055
:1041F000C0C1B3001047980020C0B300004F780042
:104200000500370090C4B300104798000040EB0051
:10421000004F780000000000811A2200210798005A
:1042200012002000320798002E019000BE0190007D
:104230009E80FB00900520000088B90000007800F7
:104240008000EB0000004100818049008042EB00CB
:104250001E4290000001BE00E10320000018200073
:104260001CFF0200000000006AC8BF000080FB00C5
:10427000700060000000E00003003200C0C1B30025
:10428000104798000200370090C4B3001047980010
:104290008042EB001E42900063C223004307980057
:1042A00011002000510798004E019000DE0190009F
:1042B00001042000201B20001CFF02000000000061
:1042C000E2C8BF000080FB00700060000000E0005A
:1042D0000300320000CFB3001047980002003700FF
:1042E00090C4B300104798008042EB001E4290003B
:1042F000224E2700620798001300200073079800E1
:104300006E019000FE019000F1032000F01F2000DC
:104310001CFF020000000000A18D2100010F980089
:1043200012002000120F98000E0990009E099000C4
:10433000E2C8BF008080FB00000620000080600013
:104340004580DE0080007800100620000088B9005B
:10435000000078008000EB000000410081804900EF
:104360008042EB00C4C1B3000001BE0091032000F5
:10437000F02220001CFF020000000000A38D21009D
:10438000230F980011002000310F98002E08900094
:10439000BE089000321220000300200002004000FE
:1043A000838048008042EB00C4C1B3000001BE001E
:1043B000D1042000F02220001CFF020000000000B9
:1043C000B3C8BF00E14F400003003A00C0C1B300D2
:1043D000104798000200370000CEB3001047980045
:1043E0008042EB001E4290002CB127001D002000EF
:1043F0000C01BE00B1032000402720001CFF02007A
:10440000000000001E429000430120002200200016
:1044100071042000F0272000560202000100000075
:104420004F06BE004F05BE004F04BE000080FA00DC
:10443000000006003000FA00889FBE008A9FBE0080
:104440008C9FBE0090C4B300004F7800F04B8000FA
:10445000680060000000E0000300320000CEB300FE
:10446000004F78000200370090C4B300004F78007E
:104470008042EB001E42780062AA22001300200056
:1044800051002000A00020001CFF020000000000DE
:10449000104C8000680060000000E00003003A005B
:1044A00000CEB300004F78000200370090C4B30084
:1044B000004F780040C62000104078009E4F50000A
:1044C0001700320040C620001E4878008042EB00F2
:1044D0001E42780088552300190020000801BE0004
:1044E00071002000900420001CFF0200000000006A
:1044F0000AD321001B0020000A00BE00700040000B
:10450000E08048008042EB001E4278000001BE00BF
:1045100001012000D00520001CFF02000000000067
:10452000114C800000042000008060000000E000CA
:1045300003003A0000CEB300004F780002003700BD
:1045400090C4B300004F780050C62000104078009F
:104550009E4F50001C00320050C620001E487800BC
:104560008042EB001E4278008C5523001D00200085
:104570000C01BE0071002000500820001CFF02004A
:104580000000000001D32100210798001200200044
:10459000320798002E009000BE009000020220001A
:1045A0000300200002004000838048008042EB00AE
:1045B0001E4278000001BE00010120009009200089
:1045C0001CFF020000000000F14B80000080200072
:1045D000008060000000E0000300320000CEB30065
:1045E000004F78000200370090C4B300004F7800FD
:1045F0008042EB001E427800E3BD21004307980093
:1046000011002000510798004E019000DE0190003B
:1046100011002000C00B20001CFF02000000000061
:10462000104C8000610060000000E00003003200D8
:1046300000CEB300004F78000200370090C4B300F2
:10464000004F7800D0C32000104078008080FB002D
:1046500000022000008060000000E0000300320043
:1046600000CEB300004F78000200370090C4B300C2
:10467000004F78008042EB001E427800E2492200A1
:104680006207980013002000730798006E019000E5
:10469000FE01900071002000801320001CFF02002A
:1046A00000000000F0C32000104078000080FB00F4
:1046B00061006000004078000004E0000300320068
:1046C00000CEB300004F78000200370090C4B30062
:1046D000004F78008042EB001E427800E13B220050
:1046E000010F980012002000120F98000E09900090
:1046F0009E09900071002000501720001CFF02004E
:10470000000000008AC8BF00E14F500003003A00DB
:1047100000CEB300004F7800080037008AC8BF0001
:10472000E24F500003003A0000C0EB00004F780059
:104730000200370090C4B300004F78008042EB00C5
:104740001E42780043892300230F980011002000A7
:10475000310F98002E099000BE09900051002000F2
:10476000B01B20001CFF0200000000006BC8BF004F
:104770008080FB0000032000008060004480DE0099
:10478000100798001E009000E20F50000300320056
:104790001E009000E30F500003003A0000CEB3006B
:1047A000004F78000200370090C4B300004F78003B
:1047B0008042EB001E42780022A72300420F98009F
:1047C00013002000530F98004E099000DE0990005E
:1047D000A1002000201F20001CFF0200000000009C
:1047E000E0C32000104078000080FB006200600001
:1047F0000000E00003003A00C0CFB300004F780093
:104800000200370090C4B300004F78008042EB00F4
:104810001E427800A1B02300610F98001200200012
:10482000720F98006E099000FE099000B100200000
:10483000002320001CFF020000000000104C80003C
:10484000700060000000E00003003A0000CEB300FA
:10485000004F78000200370090C4B300004F78008A
:1048600060C62000104078009E4F50001D003200AE
:1048700060C620001E4878008042EB001E4278008F
:1048800003602300031798001100200011179800FF
:104890000E1190009E11900071002000E026200073
:1048A0001CFF02000000000002D321002217980024
:1048B00013002000331798002E109000BE109000B7
:1048C00070004000E08048008042EB001E4278000B
:1048D0000001BE0001012000202820001CFF020072
:1048E00000000000114C80000010200000806000DB
:1048F0000000E00003003A0000CEB300004F780053
:104900000200370090C4B300004F780070C620004A
:10491000104078009E4F50001F00320070C62000EB
:104920001E4878008042EB001E42780001602300A0
:104930004117980012002000521798004E11900065
:10494000DE11900071002000A02A20001CFF020050
:104950000000000003D3210063179800110020001D
:10496000711798006E109000FE1090000202200057
:104970000300200002004000838048008042EB00DA
:104980001E4278000001BE0001012000E02B200043
:104990001CFF0200000000004F06BE004F05BE00D5
:1049A0004F04BE000080FA00000006000000FA007C
:1049B000881F7800D010200000498800E0182000EF
:1049C00010498800204080008000EB0018498000DA
:1049D0000749800000C3EB0015C0B30044C0B3001A
:1049E0000001BE008800780007007800EBF10700A6
:1049F000701E200000498800304080004140800047
:104A0000A2002000030020003E040200000000007D
:104A1000184980000749800000C3EB008042EB008A
:104A200074C0B3000001BE00880078000700780061
:104A3000DAF107004F0478000080FA000000060059
:104A40000000FA001CC9BF000004E00005003A00A5
:104A500010C0B3001CE9B700C5F9070013F8070040
:104A60002F0037001CC9BF00E14F500004003A007E
:104A700020C0B3001CE9B7007EFB07002800370008
:104A80001CC9BF00E24F500004003A0030C0B30020
:104A90001CE9B70067FE0700210037001CC9BF00F2
:104AA000E34F500005003A0040C0B3001CE9B700D6
:104AB000BEFF07005FFD0700190037001CC9BF00DB
:104AC000E44F500003003A0050C0B3001CE9B700A7
:104AD000130037001CC9BF00E54F500003003A0027
:104AE00060C0B3001CE9B7000D0037001CC9BF004F
:104AF000E64F500003003A0070C0B3001CE9B70055
:104B0000070037001CC9BF00E74F500003003A0000
:104B100010C0B3001CE9B700010037001C69EF00AA
:104B20001EC9BF000004E00054003A00004B8000A2
:104B3000680060000000E00019003200004B8000B7
:104B40000030A100004B8800C0942000A00090001D
:104B500000042000008060000000E000100032002F
:104B6000304B8000700060000000E0000C003A0054
:104B7000E14A8000703E2000808F50000300360024
:104B800040062000E04A880003003700E04A800029
:104B90004006B000E04A88002E100200010000002C
:104BA000004B8000610060000000E0001200320055
:104BB000004B80000000A100004B8800204B8000CB
:104BC0000000A100204B8800004B80000030A100B5
:104BD000004B8800004B80000060A100004B880063
:104BE000104B80000010A100104B88001C69EF00E2
:104BF00010C0B3001BE9B700204B800061006000CB
:104C00000000E0000C003200204B80000000A100FA
:104C1000204B8800004B80000000A100004B880062
:104C2000004B80000030A100004B8800004B80004A
:104C30000060A100004B8800014B800000042000B0
:104C4000008060000000E0000C003200004B80009B
:104C50000060A100004B8800204B80000000A100F4
:104C6000204B8800004B80000030A100004B8800E2
:104C7000004B80000000A100004B88000080FA007B
:104C8000000006000800FA00889FBE008A9FBE0050
:104C90008C1F780040479800310798000000EB0017
:104CA000000F78000000EB00100798000000EB00F8
:104CB000000F7800450037009E007800401A200061
:104CC0000088B90000007800740040008042EB00CA
:104CD00000C2EB0048E22400190020000801BE00D9
:104CE000110420001CFF0200000000004E40900054
:104CF0000004E0000D0032009E007800401A200001
:104D00000088B90000007800C012B0008042EB00BB
:104D100000C2EB000AE824001B0020000A01BE00CC
:104D2000110420001CFF0200000000000000EB0046
:104D3000100798001F0037003E0090001000780018
:104D40000000E0001F0032003E00900010007800DC
:104D50008000EB003E0190000281E80032079800DD
:104D60009E019000220220000299B9000201780001
:104D7000DC052000020646009E017800421A200051
:104D80000299B90002017800F603410000C3EB006C
:104D90008042EB0024C0B3000001BE008C0078000C
:104DA00007007800FDF007001E0090000000E800FA
:104DB000100798001E009000E90F5000DEFF36003B
:104DC00001003700000000001E0FE8001E00780000
:104DD000E10F5000B8FF36004F0678004F05BE00C7
:104DE0004F04BE000080FA00000006000600FA0032
:104DF000889FBE00200798000000EB00000F78009D
:104E00000000EB00100798000000EB00000F780096
:104E1000240037000000EB00100798001D00370049
:104E20002E009000100078000000E00004003A001E
:104E30002E0090000080E800200798001200370044
:104E40009E009000200220000088B9000000780039
:104E5000F1052000808040002E00900010007800B6
:104E60002E0190000281E800220798008042EB00AA
:104E700000C2EB0088F32400190020000801BE00E6
:104E80001CFF0200000000001E0090000000E8006F
:104E9000100798001E009000E90F5000E0FF360058
:104EA0001E0FE8001E007800E10F5000D9FF360009
:104EB0004F04BE000080FA00000006000600FA0061
:104EC000889FBE00000F7800110798002207980005
:104ED0008042EB0000C2EB0046F9240017002000DE
:104EE0000601BE009E0090001E0078001CFF02001C
:104EF0000000000068562100190020000801BE00D3
:104F0000AE009000C00520000088B90000007800C5
:104F10008000EB00000041008180490082022000F7
:104F20001E0341008042EB0000C2EB000001BE0006
:104F30009E009000060078001CFF020000000000A8
:104F40004F04BE000080FA0000000600AC00FA002A
:104F5000889FBE008A9FBE008C9FBE00016928000A
:104F600013000900311F78008E02B1008E00780016
:104F70000040EB0043FF07000005200000498800C7
:104F8000F005200010498800114980000049800088
:104F90008042EB0000C2EB00C8622700190020002D
:104FA0000801BE001CFF0200000000001149800043
:104FB00000498000720040008042EB0000C2EB001C
:104FC000CA0A24001B0020000A01BE001CFF0200C8
:104FD0000000000010498000210220008080400075
:104FE000004980008042EB0000C2EB00CCED2400C1
:104FF0001D0020000C01BE001CFF0200000000008C
:105000001049800041042000808040000049800059
:105010008042EB0000C2EB00C2ED2400022F98009A
:1050200012002000122F98000E2990009E29900057
:105030001CFF0200000000001049800061062000F3
:1050400080804000004980008042EB0000C2EB00FD
:10505000C21A2400222F980012002000322F98003C
:105060002E299000BE2990001CFF020000000000C5
:1050700010498000810820008080400000498000A5
:105080008042EB0000C2EB0022652700422F98000F
:1050900012002000522F98004E299000DE29900027
:1050A0001CFF020000000000104980008108200061
:1050B0008080400000498000720040008042EB0088
:1050C00000C2EB00C20A2400622F980012002000E8
:1050D000722F98006E299000FE2990001CFF02009C
:1050E0000000000010498000A10A200080804000DC
:1050F000004980008042EB0000C2EB0042C5260060
:105100000237980012002000123798000E319000EC
:105110009E3190001CFF020000000000104980003A
:10512000C10C200080804000004980008042EB00DC
:1051300000C2EB00C21224002237980012002000A7
:10514000323798002E319000BE3190001CFF0200D3
:105150000000000010498000E10E20008080400027
:10516000004980008042EB0000C2EB00C212240024
:105170004237980012002000523798004E319000BC
:10518000DE3190001CFF020000000000104980008A
:10519000E10E200080804000004980008042EB004A
:1051A00000C2EB0082B32700623798001200200093
:1051B000723798006E319000FE3190001CFF0200A3
:1051C0000000000010498000011120008080400094
:1051D000004980008042EB0000C2EB00A25B270088
:1051E000023F980012002000123F98000E399000F4
:1051F0009E3990001CFF0200000000001049800052
:1052000001112000808040000049800072004000B1
:105210008042EB0000C2EB0002CB2600223F980048
:1052200012002000323F98002E399000BE399000C5
:105230001CFF020000000000104980002113200024
:1052400080804000004980008042EB0000C2EB00FB
:10525000025E2700423F980012002000523F980053
:105260004E399000DE3990001CFF02000000000063
:1052700010498000211320008080400000498000F8
:10528000720040008042EB0000C2EB0002CB26001F
:10529000623F980012002000723F98006E39900023
:1052A000FE3990001CFF020000000000401F20009B
:1052B00000498800F005200010498800114980004D
:1052C000004980008042EB0000C2EB00021625007E
:1052D0000287980012002000128798000E8190002B
:1052E0009E8190001CFF0200000000001149800018
:1052F000004980006002B00000C3EB008042EB0078
:1053000014C0B3001200200003002000A3EF070028
:1053100011498000004980008003B0008042EB000A
:1053200000C2EB00028626002287980012002000AF
:10533000328798002E819000BE8190001CFF0200F1
:105340000000000010498000210220008080400001
:10535000004980008042EB0000C2EB0002162500ED
:105360004287980012002000528798004E819000DA
:10537000DE8190001CFF0200000000001049800048
:105380002102200080804000004980006002B000BF
:1053900000C3EB008042EB0014C0B30022002000E9
:1053A000030020007DEF070010498000210220004B
:1053B00080804000004980008003B0008042EB0004
:1053C00000C2EB00028626006287980012002000CF
:1053D000728798006E819000FE8190001CFF020091
:1053E000000000001049800041042000808040003F
:1053F000004980008042EB0000C2EB00C2D02600D2
:10540000028F980012002000128F98000E899000E1
:105410009E8990001CFF02000000000010498000DF
:105420006006B00003498000120020008000780070
:1054300003007800A1FE0700104980008008B0003A
:1054400003498000320020008000780003007800CB
:105450009AFE070010498000A00AB00003498000AE
:105460000001EB00800078000300780093FE070045
:1054700010498000C00CB000064980008042EB005B
:1054800000C2EB00C1ED2400218F98001200200023
:10549000328F98002E899000BE899000800078009D
:1054A000060078001CFF0200000000001049800088
:1054B000E10E200080804000004980008042EB0027
:1054C00000C2EB00C2ED2400428F980012002000C1
:1054D000528F98004E899000DE8990001CFF0200D8
:1054E0000000000010498000011120008080400071
:1054F000004980008042EB0000C2EB00C2ED2400B6
:10550000628F980012002000728F98006E899000C0
:10551000FE8990001CFF020000000000104980007E
:105520002113200080804000004980008042EB0071
:1055300000C2EB00A25B2700029798001200200037
:10554000129798000E9190009E9190001CFF02000F
:1055500000000000104980002113200080804000DE
:1055600000498000720040008042EB0000C2EB0066
:10557000A2812700229798001200200032979800FD
:105580002E919000BE9190001CFF020000000000D0
:1055900010498000211320008080400000498000D5
:1055A0008002B0008042EB0000C2EB00E256270010
:1055B0004297980012002000529798004E91900058
:1055C000DE9190001CFF020000000000810220001C
:1055D00081004700826B280013000900B218780090
:1055E000800220000E00400000FE07004F06BE00B3
:1055F0004F05BE004F04BE000080FA000000060008
:10560000CC00FA00889FBE008A9FBE008C9FBE001F
:105610000164280013000900311F78008E02B100D8
:105620008E0078000040EB0096FD0700000520008A
:1056300000498800F00520001049880011498000C9
:1056400000498000220020001CFE07001049800055
:105650002102200080804000004980008042EB0051
:1056600000C2EB00C8ED2400190020000801BE00B4
:105670001CFF0200000000001049800041042000CF
:1056800080804000004980008042EB0000C2EB00B7
:10569000CAED24001B0020000A01BE001CFF02000E
:1056A000000000001049800061062000808040005A
:1056B000004980008042EB0000C2EB00CCED2400EA
:1056C0001D0020000C01BE001CFF020000000000B5
:1056D000104980008108200080804000004980003F
:1056E0008042EB0000C2EB00C2522400022F98005F
:1056F00012002000122F98000E2990009E29900081
:105700001CFF0200000000001049800081082000FA
:105710008080400000498000A003B00000C3EB007F
:105720008042EB0014C0B3001200200003002000F0
:105730009AEE070010498000810820008080400018
:10574000004980008004B0008042EB0000C2EB0002
:1057500062BA2700222F980012002000322F9800F2
:105760002E299000BE2990001CFF020000000000BE
:10577000104980008108200080804000004980009E
:105780008005B0008042EB0000C2EB0082ED2600F5
:10579000422F980012002000522F98004E299000AE
:1057A000DE2990001CFF020000000000104980006C
:1057B000A10A200080804000004980008042EB0068
:1057C00000C2EB00025E2700622F9800120020004A
:1057D000722F98006E299000FE2990001CFF020095
:1057E0000000000010498000A10A200080804000D5
:1057F00000498000720040008042EB0000C2EB00D4
:10580000A28127000237980012002000123798006A
:105810000E3190009E3190001CFF0200000000003D
:1058200010498000A10A20008080400000498000CB
:105830008002B0008042EB0000C2EB00425927001A
:105840002237980012002000323798002E31900045
:10585000BE3190001CFF02000000000010498000D3
:10586000C10C200080804000004980008042EB0095
:1058700000C2EB00025E27004237980012002000B1
:10588000523798004E319000DE3190001CFF02002C
:105890000000000010498000C10C20008080400002
:1058A00000498000720040008042EB0000C2EB0023
:1058B000A2812700623798001200200072379800FA
:1058C0006E319000FE3190001CFF020000000000CD
:1058D00010498000C10C20008080400000498000F9
:1058E0008002B0008042EB0000C2EB00E2562700CD
:1058F000023F980012002000123F98000E399000DD
:105900009E3990001CFF020000000000104980003A
:10591000E10E200080804000004980008042EB00C2
:1059200000C2EB00A25B2700223F9800120020007B
:10593000323F98002E399000BE3990001CFF0200C3
:105940000000000010498000E10E2000808040002F
:1059500000498000720040008042EB0000C2EB0072
:10596000A2812700423F980012002000523F980079
:105970004E399000DE3990001CFF0200000000004C
:1059800010498000E10E2000808040000049800026
:105990008002B0008042EB0000C2EB0042592700B9
:1059A000623F980012002000723F98006E3990000C
:1059B000FE3990001CFF020000000000104980002A
:1059C0000111200080804000004980008042EB00EF
:1059D00000C2EB00C2ED24000287980012002000F4
:1059E000128798000E8190009E8190001CFF02009B
:1059F000000000001049800021132000808040003A
:105A0000004980008042EB0000C2EB00C25224003B
:105A10002287980012002000328798002E81900083
:105A2000BE8190001CFF02000000000010498000B1
:105A3000211320008080400000498000A003B000B6
:105A400000C3EB008042EB0014C0B3002200200032
:105A500003002000D1ED0700104980002113200031
:105A60008080400000498000A004B0008042EB002C
:105A700000C2EB0082BC2700428798001200200081
:105A8000528798004E819000DE8190001CFF02003A
:105A90000000000010498000211320008080400099
:105AA000004980008005B0008042EB0000C2EB009E
:105AB00082ED26006287980012002000728798000D
:105AC0006E819000FE8190001CFF0200000000002B
:105AD000401F200000498800F00520001049880080
:105AE00011498000004980008042EB0000C2EB00B9
:105AF000C2522400028F980012002000128F9800DA
:105B00000E8990009E8990001CFF0200000000009A
:105B10001149800000498000A003B00000C3EB00E1
:105B20008042EB0014C0B3002200200003002000DC
