:10000000007E040001000000A8010000A80100001B
:10001000A8010000A8010000A8010000A80100003C
:10002000A8010000A8010000A8010000A80100002C
:10003000A801000032E80000A8010000A8010000AB
:10004000A8010000F62B0100A8010000A801000093
:10005000A8010000A8010000A8010000A8010000FC
:10006000A8010000A80100006A2C0100A8010000FE
:10007000A8010000A8010000A8010000E0FE0000A7
:10008000E2ED0000842C0100A8010000A80100009E
:10009000A8010000ECD70000A8010000A8010000A2
:1000A000A8010000A8010000A8010000A8010000AC
:1000B000A8010000A8010000A8010000A80100009C
:1000C000DADF0000A8010000A8010000A80100007C
:0C00D000A8010000A8010000A801000029
:10010800A8010000A8010000A8010000A801000043
:10011800A8010000A8010000A8010000A801000033
:10012800A8010000A8010000A8010000A801000023
:10013800A8010000A8010000A8010000A801000013
:10014800A8010000A8010000A8010000A801000003
:10015800A8010000A8010000A8010000A8010000F3
:10016800A8010000A8010000A8010000A8010000E3
:10017800A8010000A8010000A8010000A8010000D3
:10018800A8010000A8010000A8010000A8010000C3
:10019800A8010000A8010000A8010000A8010000B3
:1001A800A8010000A8010000A8010000A8010000A3
:1001B800A8010000A8010000A8010000A801000093
:1001C800A8010000A8010000A8010000A801000083
:0401D800A80100007A
:10020000AFCA20000E7F22000E018800000000000F
:10021000000020000000E000020032000001200089
:10022000200288000C000700C05F2300110020009E
:1002300011000700000020000000E0000200320072
:1002400000000200000000008C0B02000100000012
:100250000040DA000000FE004440A900406A20008F
:100260000000E0000300320000002000A001880030
:100270004440A8000000060091018800800078003A
:100280000000EB0015003700E280400032A0B4000F
:100290009101BA00E280400032A0B4009102BA009D
:1002A000E280400032A0B4000002EB00472BDE00E9
:1002B000F507B200602CE10004003A000059EB00A1
:1002C0008301E900FDFF3E00040037006128E100E2
:1002D000010032000082EB000B00070011C3BA00DE
:1002E0001101BA000604E00003003A000200E00039
:1002F000E5FF3A0000000600F607B200960188000C
:1003000082007800F5FF37003159BA008301E90017
:100310000C0032002159BA008301E90008003200C4
:100320000400E00003003A00E280400032A0B40084
:10033000F5FF370011D9BA008301E900FAFF3A004E
:100340008100E800E180400032A0B4000000060017
:100350000040DA000000FE0003F0A200889FBE000B
:100360008A9FBE008C1F7800F8000700FF00330052
:100370006450E1004F0032006420E100520032007E
:1003800003826C0007003B000905D0000306D00083
:10039000820F54000C065D0002003900020032009A
:1003A00089017800030678008582550004003D002D
:1003B0000003FD008103FD008502EA008B854200F9
:1003C000840F720002003B0060001000E080180003
:1003D0006011B8000005EB007A28E1000A0039003E
:1003E00006007800C75DDD00F707B2008780750062
:1003F0002D003700828171000A01780061056000DC
:100400008180D1000080D3008502E900F9FF3B0024
:10041000060440008784480002003B00600414008A
:10042000E0841C000988A300070032008A81710063
:1004300082817100610164008904D1000884D300C5
:100440008B05E800170037000978A30013003A0075
:100450000B00E000130034008B05E90008044400A1
:1004600089844C000A4474000978A3000D003A0006
:100470000B00E000070034008B05E900080444008D
:1004800089844C0001003A000B0020000978A30089
:10049000F7FF32000001EB0002003700828171009B
:1004A0000A0178006E0007000CF0A70001F0A00020
:1004B000B70037006420E10002003A00838F6C002F
:1004C000B70033000801BE000200BE00B0003700D4
:1004D000889FBE008A9FBE008C1F78009B0007008B
:1004E000A200330003866C006450E1002E0032004D
:1004F0006420E100330032006150E1002F0032003F
:100500006120E1003100320085855500EB07B00025
:1005100009002000080420000500370008044400FA
:1005200089844C000A0031000603430087834B0096
:100530000001530081815B00F8FF33000203BE001D
:100540000800A0000804440089844C00F6FF39002C
:10055000C639DD0083017300010032001300200062
:100560008904D1000884D3000998A3000500320053
:100570000800A7000300A0008904D1000884D3006C
:100580008B05E8008904D1000884D3000001EB004A
:100590000281D2003200070001F0A1000CF0A70098
:1005A00001F0A0007A0037006420E1007C003200F6
:1005B0000801BE000200BE00F7FF37006120E10025
:1005C000770032006000B800F3FF37000000200021
:1005D00001F82700F0FF3700F4FF2F00BA003700C2
:1005E0000001BE00440007000470A70003F0A10052
:1005F00003F8A30013003A006509B10010003200AF
:10060000090035006928E1000200350001002800DA
:100610000000050000004000818048008502E900DC
:10062000FCFF3A0000000600F88F4200050035008C
:100630008100D1000080D3008502E800FCFF3A0071
:10064000000006008000EB00000005004F89DE007E
:1006500082017800B70037006011B800C50037008C
:1006600081002000618055000B003D000B00200040
:1006700061FE2F000100E1001D0034008281710045
:10068000610164008904D1000884D3000000E800FF
:10069000FAFF3A007100200061006400030070005E
:1006A000020060000900320061044400E0844C0054
:1006B0000988A500050032008B05E8006808E10004
:1006C00002003A008904D1000884D300F20F200010
:1006D0000258E10005003D00C75DDD00F907B200EA
:1006E0008980750008007800000006000BF82700DC
:1006F0008B00780000000500C70ADE00F107B20099
:10070000F50FB20008003200E1CF420002003200D3
:100710000170A00024000500810F7000010032006C
:100720000408050044000500810F700002003A0033
:10073000140005008502E9000000400081C0480067
:10074000FCFF3B000170A000240005000004BE0077
:10075000E9FF07000003BE000405BE000200BE0062
:10076000E5FF0700844F7500000006000200BE0090
:100770006450E100050036006420E100020036000C
:100780000968A30001003A000800BE000160A00053
:100790004F0678004F05BE004F04BE000000060063
:1007A000F0FF2F00F1FF2700F9FF3700889FBE0000
:1007B0008A9FBE008C1F7800E4FF0700EBFF330028
:1007C00003866C006450E100240032006420E100E4
:1007D000270032006150E100220032006120E10078
:1007E000210032008B854200EB07B1000134B800D4
:1007F000003AB8000804420089844A00013AB8006F
:100800000030B8008880400009014A00040033002D
:100810000000400081804800020149008B05E9008A
:10082000C909DD00830170000100320013002000BF
:10083000C814DE004814DD004709DE001200B200D3
:10084000C808DE000884700085FF070001F0A100E1
:100850000CF0A70001F0A000CDFF37006120E100FF
:10086000CFFF32000801BE000200BE00F7FF3700D4
:100870006150E100FCFF3A00C9FF37006022B80078
:10088000060220000000D0008180D2000482D20045
:100890008582D2000000A0000202520083825A002A
:1008A000030031000202420083824A000000A100DE
:1008B0000603E900F3FF3A0000000600EFFF07001F
:1008C0000400BE0000000600889FBE008A9FBE0094
:1008D000841F78009DFF07004F007800110033004F
:1008E000F0FF2F00838F6C0006003B0004056500BD
:1008F0000A00A7000800370009F0A6001000200039
:1009000008003700820F5400838F5C000300390019
:100910001000200001003E000000200009F0A700A8
:100920000000EA004F05BE004F04BE000000E000DA
:1009300000000600881F7800030478000300E00030
:1009400007003D0060001000E08018006001190001
:10095000E081190002003B0001F02D000300370088
:100960000400070008F0A70001F0A0004F04780081
:1009700000000600889FBE008A9FBE0000827000B3
:100980000402710004827100260032000004BE00DF
:100990000200BE006011B8006B0920009502200023
:1009A0000182CF000A0039000541B1000082CF006A
:1009B000070039000541B1000982CF000400390069
:1009C0000541B1000882CF00010039000541B100A6
:1009D00005425200120032000A003B008281710081
:1009E000610164008100D1000080D3008984D300BC
:1009F0000884D3008B05E8000442E800F7FF3A00C2
:100A0000070037000804440089844C0000004800B7
:100A1000818048008B05E9000442E900F9FF3A00B3
:100A20000FFF07004F05BE004F04BE000000060088
:100A30001E0400000000000003FC00000000000095
:100A40001FFC0000000000007C000000000100000E
:100A5000E00000000007000080000000000E000021
:100A6000000000000018000000000000003000003E
:100A70000000000000E000000000000001FF000096
:100A8000FFFC000001FF0000FFFC000003800000ED
:100A90000000000007000000000000000E00000041
:100AA000000000000C000000000000001800000022
:100AB00000000000180000000000000030000000EE
:100AC0000000000030000000000000006000000096
:100AD0000000000060000000000000006000000056
:100AE00000000000C000000000000000C000000086
:100AF00000000000C000000000000000C000000076
:100B000000000000C000000000000000C000000065
:100B100000000000C000000000000000C000000055
:100B2000000000001E040000C000000000000000E3
:100B3000C000000000000000C00000000000000035
:100B4000C000000000000000C00000000000000025
:100B5000C000000000000000E000000000000000F5
:100B600060000000000000006000000000000000C5
:100B700060000000000000003000000000000000E5
:100B80003000000000000000300000000000000005
:100B90001800000000000000180000000000000025
:100BA0000C00000000000000040000000000000035
:100BB000060000000000000003000000000000002C
:100BC000018000000000000000C0000000000000E4
:100BD0000060000000000000003000000000000085
:100BE0000018000000000000000E000000000000DF
:100BF000000300000000000000010000C000000031
:100C0000000000007C000000000000000FFC00005D
:100C10000000000001FC00002506000000000000AC
:100C2000FFF000000000000000070000FFFE0000D1
:100C300000000000001F0000000F00008000000006
:100C40000038000000010000E000000000E00000AB
:100C5000000000007000000001C000000000000063
:100C60001800000003000000000000000C0000005D
:100C7000060000007FE00000060000000C010000FC
:100C8000FFF80000030000000C070000801E0000B9
:100C900003000000180C00000003000001800000A9
:100CA000301800000001000080C00000303000005B
:100CB00000000000C0C000006060000000000000F4
:100CC0006060000060400000000000002060000044
:100CD00060C000000000000030600000E0C00000C4
:100CE0000000000030700000C18000000000000023
:100CF00018300000C1800000000000001830000023
:100D0000C18000000000000018300000C180000019
:100D10000000000018300000C1800000000000004A
:100D200018300000018000000000000018000000E2
:100D30000180000000000000180000000180000099
:100D4000000000001800000001800000000000000A
:100D500018000000018000000000000018000000E2
:100D600000C00000000000003000000000C00000D3
:100D70000000000030000000004000000000000003
:100D80002000000000600000000000006000000083
:100D90000030000000000000C0000000001800004B
:100DA0000001000080000000000C000000030000B3
:100DB0000000000000070000801E0000000000008E
:100DC00000010000FFF8000000000000000000002B
:100DD0007FE00000000000001E0400000000000092
:100DE000000C000000000000000C000000000000EB
:100DF000000C000000000000000C000000000000DB
:100E0000000C000000000000000C000000000000CA
:100E1000000C000000000000001C000000000000AA
:100E20000018000000000000001800000000000092
:100E3000001800000000000000300000000000006A
:100E40000030000000000000006000000000000012
:100E5000006000000000000000C000000000000072
:100E600001C0000000000000018000000000000040
:100E70000300000000000000060000000000000069
:100E80000C000000000000001C000000000000003A
:100E90003000000000000000E00000000001000041
:100EA000C00000000007000080000000003E0000BD
:100EB0000000000001F8000000000000FFE000005A
:100EC00000000000FF000000000000002F060000EE
:100ED000FC0000000000000000000000FF80000097
:100EE000000000000000000003C00000000000003F
:100EF0000000000000F00000000000000000000002
:100F0000003800000000000000000000000C00009D
:100F100000000000000000000006000000000000CB
:100F200000000000000300000000000000000000BE
:100F3000000100008000000000000000FFFF000032
:100F4000FF00000000000000FFFF0000FFC00000E5
:100F5000000000000000000060F000000000000041
:100F600000000000303C0000000000000000000015
:100F7000180E00000000000000000000080700003C
:100F800000000000000000000C03000080000000D2
:100F90000000000006010000C0000000000000008A
:100FA00003000000E000000000000000010000005D
:100FB0007000000000000000018000003000000010
:100FC0000000000000C00000380000000000000029
:100FD0000040000018000000000000000060000059
:100FE0000C00000000000000003000000C000000B9
:100FF00000000000001000000600000000000000DB
:10100000001800000600000000000000000C0000B6
:1010100006000000000000000006000000000000C4
:1010200000000000000200000000000000000000BE
:1010300000030000000000000000000000010000AC
:1010400080000000000000000000000080000000A0
:101050000000000000000000C000000000000000D0
:101060000000000060000000000000000000000020
:101070003000000000000000000000001000000030
:101080000000000000000000180000000000000048
:10109000000000000C000000000000000000000044
:1010A0000400000000000000000000000600000036
:1010B000000000000000000003000000000000002D
:1010C000000000000180000000000000000000009F
:1010D00001800000000000000000000000C00000CF
:1010E00000000000000000000060000000000000A0
:1010F0000000000000600000000000000000000090
:10110000003000001D0300008000000000C000004F
:1011100000000000C00000000060000000000000AF
:10112000300000000038000000000000180000003F
:10113000000C000000000000060000000006000097
:10114000000000000300000000010000800000001B
:1011500000C0000000000000C000000000600000AF
:101160000000000030000000001800000000000037
:1011700018000000000C0000000000000600000045
:101180000006000000000000030000000001000055
:101190008000000000C0000000000000C00000004F
:1011A000006000000000000030000000003000007F
:1011B00000000000180C00000630000000000000D5
:1011C00000000000003F00000000000000000000E0
:1011D000000F0000F0000000000000000000000010
:1011E000FF00000000000000000000000FF0000001
:1011F000000000000000000000FF000000000000F0
:1012000000000000000F0000F000000000000000DF
:1012100000000000FF0000000000000000000000CF
:101220000FF00000000000000000000000FF0000C0
:101230000000000000000000000F0000FC000000A3
:101240000000000000000000FC0A000005F00000A3
:101250000000000000000000FF000000000000008F
:10126000000F0000F00000000000000000FF000080
:1012700000000000000000000FF00000000000006F
:1012800000000000FF00000000000000000F000050
:10129000F00000000000000000FF0000000000005F
:1012A000000000000FF0000000000000000000003F
:1012B000FF1C00000300000000010000000000000F
:1012C0000300000000070000000000000E00000006
:1012D000000C0000000000001800000000380000B2
:1012E000000000007000000000E0000000010000AD
:1012F000C0000000038000000003000000000000A8
:1013000006000000000E0000000000001C000000AD
:1013100000380000000000007000000000600000C5
:1013200000000000C0000000018000000003000079
:101330008000000007000000000E00000000000018
:101340001C00000000180000000000003000000039
:101350000070000000000000E0000000000000003D
:101360002000000012000000210000001300000017
:1013700022000000140000002300000015000000FF
:1013800024000000160000002500000017000000E7
:1013900026000000180000002700000029000000BF
:1013A0001100000019000000280000001A000000D1
:1013B0000100000009000000020000000A00000017
:1013C000030000000B000000040000000C000000FF
:1013D000050000000D000000060000000E000000E7
:1013E000070000002A0000000800000011000000B3
:1013F000100000001F0000000000000000000000BE
:101400002000000012000000210000001300000076
:10141000220000001400000023000000150000005E
:101420002400000016000000250000001700000046
:10143000260000001800000027000000290000001E
:101440001100000019000000280000001A00000030
:10145000000000000000000000000000000000008C
:10146000000000008800000000000000780000007C
:1014700000000000B0000000000000005402000066
:1014800000000000000000002C020000000000002E
:10149000000000000000000000000000000000004C
:1014A0000100000009000000020000000A00000026
:1014B000030000000B000000040000000C0000000E
:1014C000050000000D000000060000000E000000F6
:1014D000070000002A0000000800000011000000C2
:1014E000100000001F0000000000000000000000CD
:1014F0002000000012000000210000001300000086
:10150000220000001400000023000000150000006D
:101510002400000016000000250000001700000055
:10152000260000001800000027000000290000002D
:101530001100000019000000280000001A0000003F
:101540000100000009000000020000000A00000085
:10155000030000000B000000040000000C0000006D
:10156000050000000D000000060000000E00000055
:10157000070000002A000000080000001100000021
:10158000100000001F00000000000000000000002C
:101590000102000003040000050600000708000027
:1015A000090F0000101100001200000000000000F0
:1015B00011000000120000001300000014000000E1
:1015C0001C0000001B0000001A00000019000000B1
:1015D000200000001F0000001E0000001D00000091
:1015E0000A000000090000000800000007000000D9
:1015F00006000000010000000B0000000C000000CD
:10160000A00000000000000000000000000000003A
:10161000D000000088000000880000008800000062
:1016200000000000D00000007402000074020000FE
:1016300000000000000000000000000000000000AA
:1016400000000000440200001C0200002C02000008
:101650000400000003000000020000000100000080
:101660000500000006000000070000000800000060
:10167000090000000A0000000B0000000C00000040
:101680000D0000000E0000000F0000001000000020
:1016900015000000160000001700000018000000F0
:1016A0009A00000000000000000000008800000018
:1016B0009A00000078000000880000008800000008
:1016C000880000008800000054020000540200005E
:1016D0001C0200004402000044020000440200001A
:1016E0000000000000000000000000002C020000CC
:1016F0004D5500004943000000480000464D0000E1
:101700005A4B00004A0000004D61000072200000AA
:101710003137000020320000303100003700000077
:10172000313000003A340000353A00003338000010
:1017300000500000696E00006773000068650000DB
:101740006E670000204D0000616F00000056000031
:10175000312E0000302E0000300000006D700000BF
:10176000737A00006D40000031320000362E000018
:10177000636F00006D0000001800FA00889FBE0033
:101780008A9FBE008C1F7800600798007107980040
:10179000020F9800130F980044579800555798006F
:1017A0006657980010C0B300104798000040EB0047
:1017B000204798000040EB00204798001A003700AF
:1017C0004E5090008080FB002E4090000080FB0077
:1017D000008050000006E9000E0890009E0890006E
:1017E000A2002000030020005E04020000000000B0
:1017F000804078000C004700314098000E089000AF
:101800009E089000A2002000030020003E04020079
:1018100000000000000F9800110F98002E4090006B
:101820000040E80020479800AE4090004E509000E5
:1018300080CF5000E2FF39000040EB0020479800C5
:10184000120037004E5090008080FB002E40900028
:101850000080FB0000805000CE5090008180FB0093
:101860000101E900AE4090008180FB008100510041
:1018700081004700B14090000000470031409800CF
:101880002E4090000040E80020479800AE409000B5
:101890005E50900080CF5000EAFF39004E5090001B
:1018A0008080FB005E5090000080FB0000805000B4
:1018B0000000470001C1B300314098005E50900025
:1018C0000004E000400032000040EB002047980098
:1018D000380037001E4090000004E0001500320080
:1018E0002E4090000080FB00000047003040900038
:1018F0000004E0000F003A002E4090008080FB00C2
:101900004E5090000080FB000001E9005E50900006
:101910000080FB0000005100808F500005003D005A
:1019200010C0B300104798000040EB00004F780053
:10193000040037000040EB0010479800EE50900084
:10194000014F78004A1222001B0020000A01BE004D
:101950002E4090000080FB000000470030409000C7
:101960000080FB004400DD008000EB00000041002F
:10197000818049002E4190000281FB004311DD006F
:10198000820178006E019000028341008042EB00EA
:101990001E4278000001BE00FE00900006007800A4
:1019A00010030200010000002E4090000040E800FB
:1019B00020479800AE4090004E50900080CF5000DD
:1019C000C4FF36003C0037000040EB002047980081
:1019D000350037001E4090000004E0001200320085
:1019E0002E4090000080FB00000047003040900037
:1019F0000004E0000C003A002E4090008080FB00C4
:101A00004E5090000080FB000000E900808F5000E5
:101A100005003D0010C0B300104798000040EB00E7
:101A2000004F7800040037000040EB00104798009A
:101A3000EE509000014F780048122200190020005B
:101A40000801BE002E4090000080FB00000047000F
:101A5000304090000080FB004400DD008000EB007F
:101A600000004100818049002E4190000281FB006E
:101A70004311DD00820178006E0190000283410075
:101A80008042EB001E4278000001BE00FE00900084
:101A90000600780010030200010000002E409000B4
:101AA0000040E80020479800AE4090004E50900063
:101AB00080CF5000C7FF39004F0678004F05BE00A9
:101AC0004F04BE000080FA00000006001800FA0073
:101AD000889FBE008A9FBE008C1F78006007980018
:101AE00071079800020F9800130F98004457980050
:101AF000555798006657980010C0B30010479800DB
:101B00000040EB00204798000040EB002047980081
:101B10001A0037004E5090008080FB002E4090004D
:101B20000080FB00008050000006E9000E089000D5
:101B30009E089000A2002000030020005E04020026
:101B400000000000804078000C0047003140980001
:101B50000E0890009E089000A200200003002000C4
:101B60003E04020000000000000F9800110F9800D2
:101B70002E4090000040E80020479800AE409000C2
:101B80004E50900080CF5000E2FF39000040EB0043
:101B900020479800120037004E5090008080FB00D4
:101BA0002E4090000080FB0000805000CE5090003E
:101BB0008180FB000101E900AE4090008180FB00C4
:101BC0008100510081004700B140900000004700B3
:101BD000314098002E4090000040E80020479800D7
:101BE000AE4090005E50900080CF5000EAFF390078
:101BF0004E5090008080FB005E5090000080FB0003
:101C0000008050000000470001C1B300314098003F
:101C10005E5090000004E000420032000040EB0003
:101C2000204798003A0037001E4090000004E00072
:101C3000150032002E4090000080FB00000047009D
:101C4000304090000004E0000F003A002E40900069
:101C50008080FB004E5090000080FB000001E900F6
:101C60005E5090000080FB0000005100808F50000B
:101C700005003D0010C0B300104798000040EB0085
:101C8000004F7800040037000040EB001047980038
:101C9000EE509000014F78000A6820001B002000E1
:101CA0000A01BE002E4090000080FB0000004700AB
:101CB000304090008080FB00400420000088B90084
:101CC000000078008000EB000000410081804900A6
:101CD0002E4190000281FB004411DD00820178005A
:101CE0006E019000028341008042EB001E427800AA
:101CF0000001BE00FE009000060078001003020004
:101D0000010000002E4090000040E80020479800AD
:101D1000AE4090004E50900080CF5000C2FF360081
:101D20003E0037000040EB002047980037003700A6
:101D30001E4090000004E000120032002E4090008F
:101D40000080FB0000004700304090000004E000ED
:101D50000C003A002E4090008080FB004E50900016
:101D60000080FB000000E900808F500005003D006E
:101D700010C0B300104798000040EB00004F7800FF
:101D8000040037000040EB0010479800EE50900030
:101D9000014F780008682000190020000801BE00EB
:101DA0002E4090000080FB00000047003040900073
:101DB0008080FB00400420000088B900000078000B
:101DC0008000EB0000004100818049002E4190001E
:101DD0000281FB004411DD00820178006E01900059
:101DE000028341008042EB001E4278000001BE00E9
:101DF000FE009000060078001003020001000000C1
:101E00002E4090000040E80020479800AE4090002F
:101E10004E50900080CF5000C5FF39004F0678002B
:101E20004F05BE004F04BE000080FA00000006000F
:101E30001800FA00889FBE008A9FBE008C1F7800A1
:101E40006007980071079800020F9800130F980020
:101E500044579800555798006657980010C0B30033
:101E6000104798000040EB00204798000040EB002E
:101E7000204798001A0037004E5090008080FB00E9
:101E80002E4090000080FB00008050000006E9001A
:101E90000E0890009E089000A20020000300200081
:101EA0005E04020000000000804078000C00470043
:101EB000314098000E0890009E089000A20020007B
:101EC000030020003E04020000000000000F980004
:101ED000110F98002E4090000040E8002047980025
:101EE000AE4090004E50900080CF5000E2FF39008D
:101EF0000040EB0020479800120037004E50900041
:101F00008080FB002E4090000080FB00008050008D
:101F1000CE5090008180FB000101E900AE409000AE
:101F20008180FB008100510081004700B14090009A
:101F300000004700314098002E4090000040E8002B
:101F400020479800AE4090005E50900080CF500037
:101F5000EAFF39004E5090008080FB005E509000F8
:101F60000080FB000080500000004700A1C0B300CB
:101F7000314098005E5090000004E00042003200C2
:101F80000040EB00204798003A0037001E409000C8
:101F90000004E000150032002E4090000080FB009D
:101FA00000004700304090000004E0000F003A00BD
:101FB0002E4090008080FB004E5090000080FB007F
:101FC0000001E9005E5090000080FB00000051001D
:101FD000808F500005003D0010C0B30010479800EE
:101FE0000040EB00004F7800040037000040EB0099
:101FF00010479800EE509000014F7800CA762100FB
:102000001B0020000A01BE002E4090000080FB0053
:1020100000004700304090008080FB0060022000FC
:102020000088B900000078008000EB00000041004B
:10203000818049002E4190000281FB004411DD00A7
:10204000820178006E019000028341008042EB0023
:102050001E4278000001BE00FE00900006007800DD
:1020600010030200010000002E4090000040E80034
:1020700020479800AE4090004E50900080CF500016
:10208000C2FF36003E0037000040EB0020479800BA
:10209000370037001E4090000004E00012003200BC
:1020A0002E4090000080FB00000047003040900070
:1020B0000004E0000C003A002E4090008080FB00FD
:1020C0004E5090000080FB000000E900808F50001F
:1020D00005003D0010C0B300104798000040EB0021
:1020E000004F7800040037000040EB0010479800D4
:1020F000EE509000014F7800C876210019002000B2
:102100000801BE002E4090000080FB000000470048
:10211000304090008080FB00600220000088B90001
:10212000000078008000EB00000041008180490041
:102130002E4190000281FB004411DD0082017800F5
:102140006E019000028341008042EB001E42780045
:102150000001BE00FE00900006007800100302009F
:10216000010000002E4090000040E8002047980049
:10217000AE4090004E50900080CF5000C5FF390017
:102180004F0678004F05BE004F04BE000080FA00E5
:10219000000006000C00FA00000F780011079800FC
:1021A000220798003307980044079800254F9800AD
:1021B0002E0090004300DD002E4A9000CE019000DA
:1021C000000178009E0090001E0078004A06020080
:1021D000010000002E009000C300DD001E019000F1
:1021E0003E009000000041002E4A9000CE01900079
:1021F00001017800800078001E0078004A06020085
:10220000010000002E4A9000BE0190004E01900097
:102210009E0090001E0078004A06020001000000A7
:102220002E0090004300DD001E0040000080E90009
:102230002E4A9000BE0190004E0190009E0090003A
:102240004A060200010000000080FA0000000600BB
:102250001800FA00889FBE00500798006107980098
:1022600072079800030F9800140F980045579800C4
:102270000040EB00004F78000040EB001047980052
:1022800064004700020009000018EB000000EB00AA
:10229000100798000000EB001007980015003700A9
:1022A0001E00900065001000300F98007E01900025
:1022B000A100200081017800110009000381D800ED
:1022C000814078003E09900002004700414098009C
:1022D000FE009000A000200080017800110009009D
:1022E0008380D800700798001E0090000000E8006E
:1022F000100798009E0090000E089000808F5000FC
:10230000E7FF39000040EB00004F78000E08900016
:1023100066001000100798000A003700E40047002C
:102320001E00900000804000104078000004E00093
:1023300008003A001E4FE8001E0090000000E80070
:10234000100798001E009000E40F5000F3FF3600C5
:1023500001003700000000009E80FB000E08900086
:10236000808F500004003A001E0890000040780062
:10237000004F9800080037009E80FB000E08900078
:1023800000805000650040009E0890008140780069
:1023900000004700414098000000EB001007980043
:1023A0002D0037009E0090000E0890000080500025
:1023B000E50040001E81FB000E0890000000510067
:1023C00065004000808F5000030031000040EB00AA
:1023D00010479800020037004E50900010479800B8
:1023E000C8762100190020000801BE009E00900060
:1023F0000E0890000080500065004000000047007B
:10240000404090008080FB00600220000088B900FE
:10241000000078008000EB0000004100818049004E
:102420001E019000C411DD005E0190000283410096
:102430008042EB001E4290000001BE00EE009000C2
:102440000600780010030200010000001E0090004A
:102450000000E800100798000E0890008000E800D7
:102460001E009000808F5000CEFF3E004F04BE0043
:102470000080FA00000006000800FA00100798002B
:102480002107980062479800734798000040EB00CE
:10249000004F78006E409000E14F400002003A008B
:1024A0000040EB0070479800EE40900070C2B3000F
:1024B00080CF500007003600EE40900080CDB30082
:1024C00000C0400060479800C0C0B300004F7800D3
:1024D0000600370081C2B3006E40900000C050007B
:1024E00060479800B0C0B300004F78009E80FB00AA
:1024F0006E4090000080FB00FE42900001027800D8
:102500003300200000017800AE0090001E00900013
:102510004FFF07000080FA00000006000800FA00E4
:1025200010079800210798006247980073479800A9
:102530000040EB00004F78006E409000E14F4000FB
:1025400002003A000040EB00704798006E40900097
:10255000FD4F5000060036006E4090007E40500057
:1025600060479800C0C0B300004F780006003700F5
:10257000E1C1B3006E40900000C050006047980079
:10258000B0C0B300004F78009E80FB006E4090000A
:102590000080FB00FE429000010278003300200022
:1025A00000017800AE0090001E00900028FF070098
:1025B0000080FA00000006006200FA00889FBE005A
:1025C0008A9FBE008C9FBE001007980021079800CC
:1025D0003207980043079800540798006507980051
:1025E0000040EB00004F780030C9BF000004E0005D
:1025F0003200320013C9BF000004E0002F003A008F
:1026000014C9BF000004E0001500320040CA2000D9
:1026100010407800F040400040CA20000148780097
:1026200040CA2000104078000080FB004400DE001B
:1026300000407800E24F50000500360040CA2000FC
:1026400010407800EF40600040CA20000148780048
:1026500020CA2000FA280200010000001469EF00DF
:1026600008092100190020000801BE000E48900052
:102670000080FB004400DE00004078000080FB008A
:10268000EF006000300520000088B90000007800ED
:102690008000EB00000041008180490095C4B30038
:1026A00000C2EB000001BE00AE0090001E009000D2
:1026B0001003020001000000160037000609210087
:1026C000170020000601BE000E4890000080FB00AD
:1026D0004400DE00004078000080FB00EF00600056
:1026E000300520000088B900000078008000EB0071
:1026F00000004100818049008042EB0000C2EB00F5
:102700000001BE00AE0090001E0090001003020009
:102710000100000030C9BF000004E0002F003200BB
:1027200013C9BF00E14F50002C003A0014C9BF008C
:102730000004E0001500320040CA2000104078007C
:102740008040E80040CA20000148780040CA2000CC
:10275000104078000080FB006F006000E90F50001F
:102760000600340040CA20009040780000CFB3003B
:1027700080C0600040CA20000148780020CA2000C4
:10278000FA280200010000001469EF000C09210082
:102790001D0020000C01BE000E4890000080FB00D0
:1027A000EF006000300520000088B90000007800CC
:1027B0008000EB0000014100818149001E00900073
:1027C0007C00400095C4B30000C2EB00AE00900056
:1027D0001003020001000000130037000A09210065
:1027E0001B0020000A01BE000E4890000080FB0084
:1027F000EF006000300520000088B900000078007C
:102800008000EB0000014100818149001E00900022
:102810007C0040008042EB0000C2EB00AE00900064
:10282000100302000100000030C9BF000004E000F6
:102830003500320013C9BF00E24F500032003A00A9
:1028400014C9BF000004E0001500320030CA2000A7
:1028500010407800F040400030CA20000148780065
:1028600030CA2000104078000080FB004400DE00E9
:1028700000407800E54F50000500360030CA2000C7
:1028800010407800EF40600030CA20000148780016
:1028900020CA2000FA280200010000001469EF009D
:1028A000010921007107980014002000040F98000E
:1028B0007E0190008E0990007E4090000080FB0019
:1028C0004400DE00004078000080FB00EF00600064
:1028D000300520000088B900000078008000EB007F
:1028E00000014100818149001E0090004005B000B8
:1028F00095C4B30000C2EB00AE00900010030200CC
:10290000010000001900370005092100150F98008B
:1029100011002000210F98001E099000AE099000C0
:102920007E4090000080FB004400DE000040780004
:102930000080FB00EF006000300520000088B90037
:10294000000078008000EB00000141008181490017
:102950001E0090004005B0008042EB0000C2EB007A
:10296000AE009000100302000100000030C9BF005B
:102970000004E0003200320013C9BF00E34F5000F2
:102980002F003A0014C9BF000004E0001500320017
:1029900030CA2000104078008040E80030CA200093
:1029A0000148780030CA2000104078000080FB0009
:1029B0006F006000E90F50000600340030CA2000AC
:1029C0009040780000CFB30080C0600030CA200083
:1029D0000148780020CA2000FA2802000100000007
:1029E0001469EF0004092100340F9800150020003D
:1029F000450F98003E099000CE0990007E4090005F
:102A00000080FB00EF006000300520000088B90066
:102A1000000078008000EB00000141008181490046
:102A20001E0090000007B00095C4B30000C2EB0088
:102A3000AE009000100302000100000016003700F5
:102A400001092100510F980014002000640F980024
:102A50005E099000EE0990007E4090000080FB002F
:102A6000EF006000300520000088B9000000780009
:102A70008000EB0000014100818149001E009000B0
:102A80000007B0008042EB0000C2EB00AE009000F7
:102A90001003020001000000E14A80000002200053
:102AA000008060000000E0000300320000C0EB0086
:102AB000004F7800020037000040EB00004F780024
:102AC00005092100750F98001100200001179800DA
:102AD0007E0890008E109000E43320000500200056
:102AE00004014000858148002E009000E300400072
:102AF0001E0090008003B0008042EB001E42780070
:102B00001003020001000000004B80007000600014
:102B10000000E00005003200F04A80004300DE00C3
:102B20006140600030E9B700020037003069EF0013
:102B30001369EF00056820001517980011002000A8
:102B4000211798001E109000AE10900084082000FD
:102B50000500200004014000858148002E009000FF
:102B60008080E9001E0090004010B0008042EB0021
:102B700000C2EB0010030200010000000568200005
:102B80003517980011002000411798003E11900061
:102B9000CE1190002E0090008080E9001E00900071
:102BA0004011B0008042EB0000C2EB0010030200B5
:102BB0000100000030C9BF000004E0003600320010
:102BC00013C9BF00E44F500033003A0014C9BF00DE
:102BD0000004E0001500320080CA20001040780098
:102BE000F040400080CA20000148780080CA2000E0
:102BF000104078000080FB004400DE0000407800B8
:102C0000E94F50000500360080CA200010407800CF
:102C1000EF40600080CA20000148780020CA2000F0
:102C2000FA280200010000001469EF000468200087
:102C30005417980015002000651798005E11900049
:102C4000EE1190004E4890000080FB004400DE0032
:102C5000004078000080FB00EF006000400420008E
:102C60000088B900000078008000EB0000014100FE
:102C7000818149002E0090008080E9001E009000B4
:102C80004012B00095C4B30000C2EB001003020074
:102C9000010000001A003700016820007117980039
:102CA00014002000041F98007E1190008E199000DF
:102CB0004E4890000080FB004400DE000040780099
:102CC0000080FB00EF006000400420000088B90095
:102CD000000078008000EB00000141008181490084
:102CE0002E0090008080E9001E0090004012B0008D
:102CF0008042EB0000C2EB00100302000100000064
:102D000030C9BF000004E0003300320013C9BF0027
:102D1000E54F500030003A0014C9BF000004E00045
:102D20001500320080CA2000104078008040E80082
:102D300080CA20000148780080CA20001040780036
:102D40000080FB006F006000E90F500006003400B7
:102D500080CA20009040780000CFB30080C060009F
:102D600080CA20000148780020CA2000FA2802000A
:102D7000010000001469EF0005682000151F98008D
:102D800011002000211F98001E199000AE1990001C
:102D90004E4890000080FB00EF00600040042000DF
:102DA0000088B900000078008000EB0000014100BD
:102DB000818149002E0090008080E9001E00900073
:102DC0004013B00095C4B30000C2EB001003020032
:102DD000010000001700370004682000341F98002D
:102DE00015002000451F98003E199000CE19900054
:102DF0004E4890000080FB00EF006000400420007F
:102E00000088B900000078008000EB00000141005C
:102E1000818149002E0090008080E9001E00900012
:102E20004013B0008042EB0000C2EB001003020030
:102E30000100000001682000511F980014002000CC
:102E4000641F98005E199000EE1990004048200021
:102E50000100200000014100818149002E00900006
:102E60008080E9001E0090004014B0008042EB001A
:102E700000C2EB00100302000100000030C9BF00D7
:102E80000004E0003600320013C9BF00E64F5000D6
:102E900033003A0014C9BF000004E00015003200FE
:102EA00070CA200010407800F040400070CA200036
:102EB0000148780070CA2000104078000080FB00B4
:102EC0004400DE0000407800E14F5000050036006D
:102ED00070CA200010407800EF40600070CA2000E7
:102EE0000148780020CA2000FA28020001000000F2
:102EF0001469EF0005682000751F9800110020007C
:102F0000012798007E1990008E2190003E48900085
:102F10000080FB004400DE00004078000080FB00E1
:102F2000EF006000400420000088B9000000780035
:102F30008000EB0000014100818149002E009000DB
:102F40008080E9001E0090004015B00095C4B300D9
:102F500000C2EB0010030200010000001A0037005D
:102F600004682000142798001500200025279800E9
:102F70001E219000AE2190003E4890000080FB0092
:102F80004400DE00004078000080FB00EF0060009D
:102F9000400420000088B900000078008000EB00A9
:102FA00000014100818149002E0090008080E900ED
:102FB0001E0090004015B0008042EB0000C2EB0004
:102FC000100302000100000030C9BF000004E0004F
:102FD0003300320013C9BF00E74F500030003A0001
:102FE00014C9BF000004E0001500320070CA2000C0
:102FF000104078008040E80070CA20000148780046
:1030000070CA2000104078000080FB006F00600054
:10301000E90F50000600340070CA2000904078008C
:1030200000CFB30080C0600070CA20000148780063
:1030300020CA2000FA280200010000001469EF00F5
:1030400001682000312798001400200044279800D0
:103050003E219000CE2190003E4890000080FB0071
:10306000EF006000400420000088B90000007800F4
:103070008000EB0000014100818149002E0090009A
:103080008080E9001E0090004016B00095C4B30097
:1030900000C2EB001003020001000000170037001F
:1030A000056820005527980011002000612798002E
:1030B0005E219000EE2190003E4890000080FB00D1
:1030C000EF006000400420000088B9000000780094
:1030D0008000EB0000014100818149002E0090003A
:1030E0008080E9001E0090004016B0008042EB0096
:1030F00000C2EB0010030200010000000468200081
:103100007427980015002000052F98007E2190005C
:103110008E2990004048200001002000000041005E
:10312000818049002E0190008283E9001E019000F9
:1031300046172000020343008042EB0000C2EB0070
:103140000001BE008700780006007800100302002E
:103150000100000030C9BF000004E0003A00320066
:1031600013C9BF00E84F500037003A0014C9BF0030
:103170000004E0001500320060CA20001040780012
:10318000F040400060CA20000148780060CA20007A
:10319000104078000080FB004400DE000040780012
:1031A000E34F50000500360060CA20001040780050
:1031B000EF40600060CA20000148780020CA20006B
:1031C000FA280200010000001469EF0001682000E5
:1031D000112F980014002000242F98001E29900021
:1031E000AE2990002E4890000080FB004400DE00D5
:1031F000004078000080FB00EF00600040042000E9
:103200000088B900000078008000EB000000410059
:10321000818049002E0190008283E9001E01900008
:10322000461820000203430095C4B30000C2EB001F
:103230000001BE008700780006007800100302003D
:10324000010000001E00370005682000352F98009F
:1032500011002000412F98003E299000CE299000B7
:103260002E4890000080FB004400DE000040780003
:103270000080FB00EF006000400420000088B900DF
:10328000000078008000EB000000410081804900D0
:103290002E0190008283E9001E0190004618200054
:1032A000020343008042EB0000C2EB000001BE00BD
:1032B000870078000600780010030200010000007B
:1032C00030C9BF000004E0003700320013C9BF005E
:1032D000E94F500034003A0014C9BF000004E00078
:1032E0001500320060CA2000104078008040E800DD
:1032F00060CA20000148780060CA200010407800B1
:103300000080FB006F006000E90F500006003400F1
:1033100060CA20009040780000CFB30080C06000F9
:1033200060CA20000148780020CA2000FA28020064
:10333000010000001469EF0004682000542F980079
:1033400015002000652F98005E299000EE2990005E
:103350002E4890000080FB00EF0060004004200039
:103360000088B900000078008000EB0000004100F8
:10337000818049002E0190008283E9001E019000A7
:10338000461920000203430095C4B30000C2EB00BD
:103390000001BE00870078000600780010030200DC
:1033A000010000001B00370001682000712F980009
:1033B00014002000043798007E2990008E31900080
:1033C0002E4890000080FB00EF00600040042000C9
:1033D0000088B900000078008000EB000000410088
:1033E000818049002E0190008283E9001E01900037
:1033F00046192000020343008042EB0000C2EB00AC
:103400000001BE008700780006007800100302006B
:10341000010000004F06BE004F05BE004F04BE0075
:103420000080FA00000006000000FA00889FBE003D
:1034300016C9BF000004E00018003A0010C0B30035
:1034400016E9B700004B80000040A000004B880048
:103450007C0102000100000094C4B300230020009E
:1034600002322000810320000000EB004A06020027
:10347000010000008042EB00C4C1B30068F92200E3
:10348000190020000801BE00E10120008016200084
:1034900010030200010000002C00370016C9BF0015
:1034A000E14F500028003A0010C0B30016E9B70001
:1034B00020CA20001080FB0031CA20009180FB0050
:1034C000C808DD00010070008000EB00800078007B
:1034D00040CA20001080FB0052CA20001281FB006D
:1034E0004811DD00020070008001EB0080017800CF
:1034F00060CA20001080FB0072CA20001281FB000D
:103500004811DD00020070000002EB0000027800AC
:1035100080CA20009082FB000000EB00F20F200028
:103520000281620005F02F000500600000007100BC
:103530000101780080027800010F2000200D20009A
:103540001DFC0700010037001669EF00D04A80001B
:10355000680060000000E0000C003200D04A8000EB
:103560000030A100D04A880013C9BF00E84F5000C6
:1035700004003E0013C9BF000040E80013E9B70093
:103580000200370090C0B30013E9B700D14A8000B1
:1035900000042000008060000000E0000B0032000A
:1035A000D04A80000060A100D04A880013C9BF0043
:1035B0000004E0000400320013C9BF000040E9002D
:1035C00013E9B700010037001369EF00D04A80000B
:1035D000610060000000E0000B003200D04A800073
:1035E0000000A100D04A8800004B800070006000FD
:1035F0000000E0000300320010C0B30014E9B7007F
:10360000010037001469EF00F04A8000610060009B
:103610000000E0000A003200F04A80000000A10033
:10362000F04A88001569EF001669EF00004B800032
:103630000040A100004B8800A0C0B30013E9B70010
:103640004F04BE000080FA00000006002C00FA00C3
:10365000889FBE008A9FBE008C9FBE000000EB00CA
:10366000000F7800A0002000100798008251200071
:1036700003002000014A80001E009000808040006E
:10368000F04980001E0040008042EB0000C2EB00C9
:1036900010030200010000000000EB00000F7800A2
:1036A000F00520001007980028592000090020008C
:1036B0000801BE00014A80001E009000808040008A
:1036C000F04980001E0040008042EB0000C2EB0089
:1036D0001003020001000000C0062000000F780067
:1036E0007006200010079800CA6020000B00200020
:1036F0000A01BE00014A80001E0090008080400048
:10370000F04980001E0040008042EB0000C2EB0048
:10371000100302000100000000142000000F7800D8
:103720007006200010079800CC6020000D002000DB
:103730000C01BE00014A80001E0090008080400005
:10374000F04980001E0040008042EB0000C2EB0008
:103750001003020001000000001C2000000F780090
:10376000F005200010079800C16E20002107980086
:1037700002002000320798002E019000BE01900048
:10378000014A80001E00900080804000F0498000C7
:103790001E0040008042EB0000C2EB00100302005C
:1037A00001000000201B2000000F7800A000200076
:1037B0001007980061762000410798000200200061
:1037C000520798004E019000DE019000014A8000EF
:1037D0001E00900080804000F04980001E004000E4
:1037E0008042EB0000C2EB00100302000100000069
:1037F00090192000000F7800F001200010079800B9
:1038000021882000610798000200200072079800BC
:103810006E019000FE019000014A80001E009000A1
:1038200080804000F04980001E0040008042EB0094
:1038300000C2EB001003020001000000F01720009E
:10384000000F7800F003200010079800B18D2000D1
:10385000010F980002002000120F98000E0990003E
:103860009E099000014A80001E0090008080400068
:10387000F04980001E0040008042EB0000C2EB00D7
:10388000100302000100000070152000000F7800F6
:10389000500320001007980051922000210F98003B
:1038A00002002000320F98002E099000BE099000FF
:1038B000014A80001E00900080804000F049800096
:1038C0001E0040008042EB0000C2EB00100302002B
:1038D00001000000E0012000000F7800A00020009F
:1038E00010079800014A80001E0090008080400070
:1038F000F04980001E00400000C2EB0023002000C1
:10390000A20120004A0602000100000080032000FE
:10391000000F78000000EB0010079800014A8000BB
:103920001E00900080804000F04980001E00400092
:1039300000C2EB00B3002000220020004A06020073
:1039400001000000014A80001E00900080804000BD
:10395000F04980001E00400000C2EB002300200060
:10396000820120004A06020001000000000520003C
:10397000000F78000000EB0010079800014A80005B
:103980001E00900080804000F04980001E00400032
:1039900000C2EB00A3002000220020004A06020023
:1039A0000100000000052000000F7800A0002000AA
:1039B00010079800014A80001E009000808040009F
:1039C000F04980001E00400000C2EB0023002000F0
:1039D000321020004A0602000100000030152000CD
:1039E000000F78000000EB0010079800014A8000EB
:1039F0001E00900080804000F04980001E004000C2
:103A000000C2EB00A3002000220020004A060200B2
:103A100001000000014A80001E00900080804000EC
:103A2000F04980001E00400000C2EB00230020008F
:103A3000820120004A06020001000000A0162000BA
:103A4000000F78000000EB0010079800014A80008A
:103A50001E00900080804000F04980001E00400061
:103A600000C2EB00A3002000220020004A06020052
:103A700001000000A0162000000F7800A000200028
:103A800010079800014A80001E00900080804000CE
:103A9000F04980001E00400000C2EB00230020001F
:103AA000820420004A06020001000000E00120001C
:103AB000000F78003001200010079800014A8000B4
:103AC0001E00900080804000F04980001E004000F1
:103AD00000C2EB0023002000421920004A06020029
:103AE000010000000000EB00000F78004003200000
:103AF00010079800014A80001E009000808040005E
:103B0000F04980001E00400000C2EB0023002000AE
:103B1000720C20004A06020001000000700F200015
:103B2000000F78004003200010079800014A800031
:103B30001E00900080804000F04980001E00400080
:103B400000C2EB0023002000F20520004A0602001C
:103B500001000000E0012000000F7800B007200005
:103B600010079800014A80001E00900080804000ED
:103B7000F04980001E00400000C2EB00230020003E
:103B8000E20420004A060200010000008009200033
:103B9000000F7800014A80001E00900080804000E5
:103BA000F04980001E00400000C2EB00230020000E
:103BB000820A20004A06020001000000C016200010
:103BC000000F7800014A80001E00900080804000B5
:103BD000F04980001E00400000C2EB0023002000DE
:103BE000420520004A060200010000000000EB0030
:103BF000000F78008002200010079800014A800022
:103C00001E00900080804000F04980001E004000AF
:103C100000C2EB0073032000220020004A060200CD
:103C200001000000C01D2000000F7800900320005C
:103C300010079800014A80001E009000808040001C
:103C4000F04980001E00400000C2EB00630220002B
:103C5000220020004A06020001000000B0002000FF
:103C6000000F78006004200010079800014A8000CF
:103C70001E00900080804000F04980001E0040003F
:103C80008042EB0000C2EB00E2D52600420F980014
:103C900012002000520F98004E099000DE0990009B
:103CA0001003020001000000014A80001E00900085
:103CB00080804000F04980001E0040008002B0007B
:103CC0008042EB0000C2EB00221B2500620F98002F
:103CD00012002000720F98006E099000FE099000FB
:103CE0001003020001000000400A2000000F7800CD
:103CF000014A80001E00900080804000F049800052
:103D00001E0040008042EB0000C2EB00423F270053
:103D10000217980012002000121798000E11900050
:103D20009E119000100302000100000040102000CE
:103D3000000F7800014A80001E0090008080400043
:103D4000F04980001E0040008042EB0000C2EB0002
:103D5000821D2700221798001200200032179800B9
:103D60002E119000BE11900010030200010000000F
:103D700040162000000F7800014A80001E009000CD
:103D800080804000F04980001E0040008042EB002F
:103D900000C2EB0022BB270042179800120020004F
:103DA000521798004E119000DE119000100302008F
:103DB000010000004F06BE004F05BE004F04BE00CC
:103DC0000080FA00000006005200FA00889FBE0042
:103DD0008A9FBE008C9FBE007C0102000100000093
:103DE00094C4B3002300200002322000E11A200016
:103DF0000000EB004A0602000100000094C4B3007A
:103E000013002000023220008000EB000000EB00D5
:103E10004A0602000100000094C4B3001300200011
:103E200002322000210320000000EB004A060200BD
:103E30000100000094C4B30013002000622220009F
:103E400041062000A00720004A06020001000000F1
:103E500010002000000F78000B0037009E00780053
:103E6000D00320000088B9000000780094C4B3009B
:103E700023032000120020008000EB004A0602000D
:103E8000010000001E0FE8001E007800EC0F50003B
:103E9000F2FF360020002000000F78000B003700F2
:103EA0009E007800D00320000088B9000000780050
:103EB00094C4B3002303200012002000210320003B
:103EC0004A060200010000001E0FE8001E007800F4
:103ED000EB0F5000F2FF36000000EB00000F7800FF
:103EE00005003700E0C520009E00400010C0B30070
:103EF000804878001E0FE8001E007800F70F500081
:103F0000F8FF3600100A2000D048880090102000EA
:103F1000E048880010002000000F78000C003700F7
:103F20001E0078007E00B90080007800E048800024
:103F300080804000D048800094C4B300130020006B
:103F4000E21D20004A060200010000001E0FE800EA
:103F50001E007800E40F5000F1FF3600100A200028
:103F6000D0488800E04880007E004000E04888009B
:103F7000E1488000D048800094C4B300A30520002D
:103F8000120020004A060200010000000019200073
:103F9000D0488800E1488000D048800094C4B30035
:103FA000A3052000120020004A06020001000000C4
:103FB000F0272000D0488800E1488000D0488000E9
:103FC00094C4B300A3052000120020004A0602009A
:103FD00001000000300A2000D0488800F0102000C6
:103FE000E0488800D0122000E0488800E1488000C6
:103FF000D04880008042EB0000C2EB0028ED240096
:10400000190020000801BE0010030200010000009A
:10401000E1488000D04880008002B0008042EB0080
:1040200000C2EB006A5A25001B0020000A01BE00F6
:104030001003020001000000E1488000D048800029
:104040000005B0008042EB0000C2EB002C602500B0
:104050001D0020000C01BE00100302000100000042
:10406000E1488000D0488000000CB0008042EB00A6
:1040700000C2EB0082B02700120798001200200057
:10408000220798001E019000AE019000100302006C
:1040900001000000B0142000E0488800E1488000E2
:1040A000D04880008042EB0000C2EB0022ED2400EB
:1040B0003207980012002000420798003E0190004D
:1040C000CE0190001003020001000000E1488000D2
:1040D000D04880008002B0008042EB0000C2EB00BC
:1040E000625A2500520798001200200062079800CB
:1040F0005E019000EE01900010030200010000003C
:10410000E1488000D04880000005B0008042EB000C
:1041100000C2EB00E2652500720798001200200043
:10412000020F98007E0190008E099000100302009B
:1041300001000000E1488000D0488000000CB00081
:104140008042EB0000C2EB00A2B22700120F9800E1
:1041500012002000220F98001E099000AE09900066
:10416000100302000100000090162000E0488800C3
:10417000E1488000D04880008042EB0000C2EB00A4
:10418000A2542500320F980012002000420F980020
:104190003E099000CE0990001003020001000000CB
:1041A000E1488000D04880008002B0008042EB00EF
:1041B00000C2EB0062712500520F9800120020002F
:1041C000620F98005E099000EE0990001003020053
:1041D00001000000E1488000D0488000000CB000E1
:1041E0008042EB0000C2EB00C2132700720F980060
:1041F00012002000021798007E0990008E11900096
:10420000100302000100000020192000D04888009F
:10421000F0102000E0488800D0122000E04888001C
:10422000B0142000E0488800E1488000D0488000B9
:104230008042EB0000C2EB00629627001217980044
:1042400012002000221798001E119000AE1190005D
:104250001003020001000000E1488000D048800007
:10426000700040008042EB0000C2EB00625A250063
:104270003217980012002000421798003E1190005B
:10428000CE1190001003020001000000C136220090
:104290005117980012002000621798005E119000DC
:1042A000EE119000E1488000D04880008003B0000B
:1042B0008042EB0000C2EB0010030200010000008E
:1042C000E1488000D04880000006B0008042EB004A
:1042D00000C2EB00A2F52500721798001200200022
:1042E000021F98007E1190008E19900010030200AA
:1042F0000100000090162000E0488800E14880009E
:10430000D04880008042EB0000C2EB00E2092500AB
:10431000121F980012002000221F98001E19900002
:10432000AE1990001003020001000000E148800077
:10433000D04880008002B0008042EB0000C2EB0059
:1043400062572600321F980012002000421F98007A
:104350003E199000CE1990001003020001000000E9
:10436000300A2000D0488800E0182000E04888008B
:10437000E0488000D64880008042EB0000C2EB009D
:10438000A10F2500511F980012002000621F980005
:104390005E199000EE199000800078000600780009
:1043A0001003020001000000E1488000D0488000B6
:1043B0008002B0008042EB0000C2EB00221B25000F
:1043C000721F980012002000022798007E199000AA
:1043D0008E2190001003020001000000001920004F
:1043E000D0488800E1488000D04880008042EB003F
:1043F00000C2EB0062152500122798001200200071
:10440000222798001E219000AE2190001003020088
:1044100001000000E1488000D04880008002B00028
:104420008042EB0000C2EB00221B250032279800DF
:1044300012002000422798003E219000CE219000DB
:10444000100302000100000050162000D048880030
:10445000E1488000D04880008042EB0000C2EB00C1
:10446000423F270052279800120020006227980040
:104470005E219000EE219000100302000100000078
:10448000D0252000D0488800E1488000D048800036
:104490008042EB0000C2EB00423F270072279800E9
:1044A00012002000022F98007E2190008E2990009B
:1044B00010030200010000004F06BE004F05BE00C1
:1044C0004F04BE000080FA00000006000E00FA0053
:1044D000889FBE008A9FBE008C9FBE000040EB00FC
:1044E000004F78000040EB0010479800D0112000EA
:1044F00020079800F010200030079800B147800096
:10450000A000200000017800110009008280D8007E
:10451000100798009E009000703E2000808F500091
:10452000060036001E009000803EB1001007980083
:10453000C0C0B3001047980006003700813E20003D
:104540001E0090000080500010079800B0C0B3001B
:10455000104798001E4090008080FB003E009000B5
:104560007E00400080C2EB00010278003300200092
:104570001E019000800078002E00900034F70700A4
:10458000C1478000A0002000000178001100090050
:104590008280D800100798009E009000703E200096
:1045A000808F5000060036001E009000803EB10053
:1045B00010079800C0C0B3001047980006003700ED
:1045C000813E20001E0090000080500010079800DF
:1045D000B0C0B300104798001E4090008080FB00E0
:1045E0003E009000C003B00080C2EB0001027800E2
:1045F000330020001E019000800078002E00900003
:1046000013F70700404380000000D1001007980016
:104610001E0090008000EB003E019000A7052000E6
:104620008283430000C3EB008042EB0044C0B30030
:104630000001BE00870078002E009000FCF5070006
:104640005022200020079800F0102000300798002A
:1046500095C8BF000080FB00100798001E00900066
:104660000000E00003003A0000C0EB00004F7800BB
:104670000200370000CEB300004F78001E0090000B
:104680008000EB003E019000C703200082834300BE
:104690001E4378008042EB0044C0B3000001BE001E
:1046A000870078002E009000E1F507006BC8BF007E
:1046B0008080FB000003200000806000F00F5000AD
:1046C0000F003200F00F500003003C000000E0003B
:1046D000080032001300370001022000810F500053
:1046E0000A00320001032000810F50000A0032004E
:1046F0000C003700C0C1B300004F7800090037003C
:10470000C0CFB300004F78000600370000CEB300E2
:10471000004F78000300370000CEB300004F780050
:1047200000000000604380008000EB003E0190002C
:10473000A7052000828343002E01900070015100E4
:10474000420798001E4378008042EB0054C0B3003B
:104750000001BE00870078004E009000B4F507000D
:104760006006200020079800900120003007980084
:104770006BC8BF008080FB00000320000080600049
:104780000000E00003003A00C0C1B300004F780011
:104790000200370090C4B300004F7800014A800047
:1047A0003E00900080804000F24980002E00900082
:1047B000000041008042EB001E427800A8752300F3
:1047C000190020000801BE001003020001000000D3
:1047D00060C32000104078000080FB00680060008B
:1047E0000000E0000300320000CEB300004F78006C
:1047F00002003700C0C1B300004F78001E407800AF
:10480000FC4F500002003A0000C0EB00004F78005F
:10481000E012200020079800600420003007980074
:1048200091C8BF000080FB00CF80DE00260302009D
:1048300000000000D2CC2C00C3EC2300D603020001
:1048400000000000F002020000000000034A8000A7
:104850003E01900002844100F34980002E01900047
:10486000828341001E4378008042EB0034C0B300D5
:104870000001BE0088007800070078006CF5070092
:10488000D04B8000610060000000E00003003200B7
:1048900000CEB300004F78000200370000C0EB00EC
:1048A000004F7800700C200020079800F0012000D5
:1048B00030079800014A80003E0090008080400050
:1048C000F24980002E009000000041001E42780056
:1048D00023002000020320004A060200010000001D
:1048E000014A80003E00900080804000F249800034
:1048F0002E009000000041001E4278008305200039
:10490000220020004A06020001000000500F200093
:1049100020079800F001200030079800014A80002D
:104920003E00900080804000F24980002E00900000
:10493000000041001E427800830520002200200074
:104940004A06020001000000700C200020079800B9
:104950005007200030079800014A80003E00900078
:1049600080804000F24980002E009000000041004D
:104970001E42780023002000020320004A060200A5
:1049800001000000D04B8000610060000000E000EA
:10499000030032000040EB00004F780002003700B7
:1049A00000C0EB00004F7800900C2000200798001A
:1049B000D003200030079800014A80003E0090009C
:1049C00080804000F24980002E00900000004100ED
:1049D0001E42780023002000C20220004A06020086
:1049E00001000000E00D20002007980010022000C8
:1049F00030079800014A80003E009000808040000F
:104A0000F24980002E009000000041001E42780014
:104A100043052000220020004A0602000100000099
:104A2000C14B800000002400008060000000E00016
:104A3000030032000040EB00004F78000200370016
:104A400000C0EB00004F7800F0172000200798000E
:104A5000F00320003007980020C6200010407800A6
:104A60009E4F50001500320020C620001E487800DE
:104A7000B18D2000510798000200200062079800C5
:104A80005E009000EE009000034A80003E0190001E
:104A900082834100F34980002E019000028341008F
:104AA0008042EB001E4278000001BE0087007800C3
:104AB000060078001003020001000000C14B8000D6
:104AC00000002400008060000000E00003003200CD
:104AD00000CEB300004F78000200370000C0EB00AA
:104AE000004F7800F017200020079800F001200008
:104AF00030079800014A80003E009000808040000E
:104B0000F24980002E009000000041001E42780013
:104B100023002000B20120004A060200010000002C
:104B2000014A80003E00900080804000F2498000F1
:104B30002E009000000041001E42780083052000F6
:104B4000220020004A06020001000000D01A2000C6
:104B500020079800D003200030079800014A800009
:104B60003E00900080804000F24980002E009000BE
:104B7000000041001E427800A30320002200200014
:104B80004A06020001000000F017200020079800EC
:104B90005007200030079800014A80003E00900036
:104BA00080804000F24980002E009000000041000B
:104BB0001E42780023002000020320004A06020063
:104BC000010000009019200020079800F00120004B
:104BD000300798002C8820000D0020000C00BE003B
:104BE000034A80003E01900082834100F349800027
:104BF0002E019000028341008042EB001E427800AB
:104C00000001BE0087007800060078001003020053
:104C100001000000C14B8000008020000080600087
:104C20000000E0000300320000CEB300004F780027
:104C3000020037000040EB00004F780080012000A8
:104C40002007980040032000300798009A95200024
:104C50000B0020000A00BE00034A80003E019000C5
:104C600082834100F34980002E01900002835100AD
:104C70008042EB001E4278000001BE0087007800F1
:104C8000060078001003020001000000B0062000BA
:104C900020079800600420003007980098C8BF00E3
:104CA0000080FB006500B900000078001007980044
:104CB0009E009000703E2000808F50000200360061
:104CC000703E2000100798001E0090008000EB004E
:104CD000034A80003E01900002844100F3498000B5
:104CE0002E0190008283410000C3EB008042EB0064
:104CF00034C0B3000001BE008800780007007800CF
:104D00004BF407004F06BE004F05BE004F04BE0027
:104D10000080FA00000006001800FA00889FBE001C
:104D20008A9FBE008C9FBE0090C4B30010479800BD
:104D30000040EB0020479800E0BC200010407800C5
:104D40000004E00014003500F0BC200010407800A2
:104D50000080FB00620060000000E0000E003A00EE
:104D600010BD2000104078008080FB00000420006F
:104D7000008060000000E00007003A0020BD200035
:104D8000104078000080FB00610060000040780067
:104D90000004E0000300320000CEB300104798008A
:104DA0000200370090C4B300104798008042EB0027
:104DB0001E429000C2BD230013002000C10320004A
:104DC000400820001003020001000000C04B8000DA
:104DD000620060000000E00003003200C0CFB300BA
:104DE000104798000200370090C4B30010479800A5
:104DF00090C32000104078000080FB006800600035
:104E00000000E00003003A0000CEB3001047980015
:104E10000200370090C4B300104798008042EB00B6
:104E20001E429000A8AD2600190020000801BE0017
:104E300091032000B01320001003020001000000C5
:104E40008042EB001E4290006AB326001B00200047
:104E50000A01BE00D1042000B0132000100302009C
:104E600001000000E0C8BF000080FB006F00600090
:104E7000ED0F500009003200EE0F50000C00320020
:104E80000000E0000F003A00C0C1B30010479800D6
:104E90000040EB00004F78000F00370000CEB30059
:104EA0001047980010C0B300004F78000A00370088
:104EB000C0C1B3001047980020C0B300004F780075
:104EC0000500370090C4B300104798000040EB0085
:104ED000004F7800000000000148220021079800E0
:104EE00012002000320798002E019000BE019000B1
:104EF0009E80FB00900520000088B900000078002B
:104F00008000EB0000004100818049008042EB00FE
:104F10001E4290000001BE00E103200000182000A6
:104F200010030200010000006AC8BF000080FB00FF
:104F3000700060000000E00003003200C0C1B30058
:104F4000104798000200370090C4B3001047980043
:104F50008042EB001E42900023FE2600430798008B
:104F600011002000510798004E019000DE019000D2
:104F700001042000A01B200010030200010000001B
:104F8000E0C8BF000080FB00700060000000E0008F
:104F900003003200C0CFB300104798000200370072
:104FA00090C4B300104798008042EB001E4290006E
:104FB0002CB926001D0020000C01BE00910320002A
:104FC000201F20001003020001000000E2CC21009D
:104FD0006207980013002000730798006E0090008D
:104FE000FE0090003212200003002000020040006A
:104FF000838048008042EB001E4290000001BE000A
:10500000D1042000201F2000100302000100000036
:10501000E3CC2100030F980011002000110F98002D
:105020000E0990009E099000E0C8BF008080FB0040
:1050300000062000008060004580DE0080007800CF
:10504000100620000088B900000078008000EB0006
:1050500000004100818049008042EB00C4C1B300E0
:105060000001BE0091032000F02220001003020086
:1050700001000000E2CC2100220F98001300200064
:10508000330F98002E089000BE08900032122000C6
:105090000300200002004000838048008042EB00B3
:1050A000C4C1B3000001BE00D1042000F0222000E2
:1050B00010030200010000004F06BE004F05BE00B5
:1050C0004F04BE000080FA00000006003000FA0025
:1050D000889FBE008A9FBE008C9FBE0090C4B30014
:1050E000004F7800C04B8000680060000000E000C6
:1050F0000300320000CEB300004F780002003700FA
:1051000090C4B300004F78008042EB001E4278004C
:10511000E2C922001300200051002000A00020005E
:105120001003020001000000A04B80006800600036
:105130000000E00003003A0000CEB300004F78000A
:105140000200370090C4B300004F7800E0C5200093
:10515000104078009E4F500017003200E0C520003C
:105160001E4878008042EB001E42780048802300F1
:10517000190020000801BE007100200090042000EA
:1051800010030200010000004A1222001B00200050
:105190000A00BE0070004000E08048008042EB0042
:1051A0001E4278000001BE0001012000D005200051
:1051B0001003020001000000A14B80000008200045
:1051C000008060000000E00003003A0000CEB30061
:1051D000004F78000200370090C4B300004F780001
:1051E000F0C52000104078009E4F50001C00320097
:1051F000F0C520001E4878008042EB001E42780077
:105200004C8023001D0020000C01BE007100200016
:10521000500820001003020001000000411222008B
:105220002107980012002000320798002E009000FD
:10523000BE00900002022000030020000200400097
:10524000838048008042EB001E4278000001BE00CF
:10525000010120009009200010030200010000005D
:10526000C14B800000802000008060000000E00052
:105270000300320000CEB300004F78000200370078
:1052800090C4B300004F78008042EB001E427800CB
:1052900023FD2100430798001100200051079800CA
:1052A0004E019000DE01900011002000C00B200094
:1052B0001003020001000000E04B8000610060006C
:1052C0000000E0000300320000CEB300004F780081
:1052D0000200370090C4B300004F780070C3200074
:1052E000104078008080FB000002200000806000F9
:1052F0000000E0000300320000CEB300004F780051
:105300000200370090C4B300004F78008042EB00E9
:105310001E42780062772200620798001300200086
:10532000730798006E019000FE019000710020004C
:1053300080132000100302000100000090C3200031
:10534000104078000080FB006100600000407800A1
:105350000004E0000300320000CEB300004F7800EC
:105360000200370090C4B300004F78008042EB0089
:105370001E42780061692200010F9800120020008F
:10538000120F98000E0990009E09900071002000F5
:105390005017200010030200010000008AC8BF005F
:1053A000E14F500003003A0000CEB300004F7800F8
:1053B000080037008AC8BF00E24F500003003A00DF
:1053C00000C0EB00004F78000200370090C4B3002B
:1053D000004F78008042EB001E427800C3A92300F2
:1053E000230F980011002000310F98002E09900023
:1053F000BE09900051002000B01B200010030200E5
:10540000010000006BC8BF008080FB00000320008B
:10541000008060004480DE00100798001E009000AD
:10542000E20F5000030032001E009000E30F500016
:1054300003003A0000CEB300004F780002003700AE
:1054400090C4B300004F78008042EB001E42780009
:10545000A2C72300420F980013002000530F9800AA
:105460004E099000DE099000A1002000201F2000BE
:10547000100302000100000080C3200010407800EB
:105480000080FB00620060000000E00003003A00C2
:10549000C0CFB300004F78000200370090C4B300C3
:1054A000004F78008042EB001E42780021D123009B
:1054B000610F980012002000720F98006E09900092
:1054C000FE099000B100200000232000100302001C
:1054D00001000000A04B8000700060000000E000B0
:1054E00003003A0000CEB300004F780002003700FE
:1054F00090C4B300004F780000C620001040780030
:105500009E4F50001D00320000C620001E4878004B
:105510008042EB001E427800C38A230003179800E4
:1055200011002000111798000E1190009E1190009C
:1055300071002000E026200010030200010000009E
:1055400042122200221798001300200033179800FF
:105550002E109000BE10900070004000E0804800C7
:105560008042EB001E4278000001BE0001012000D5
:10557000202820001003020001000000A14B800041
:1055800000102000008060000000E00003003A00EE
:1055900000CEB300004F78000200370090C4B30083
:1055A000004F780010C62000104078009E4F500039
:1055B0001F00320010C620001E4878008042EB0019
:1055C0001E427800C18A2300411798001200200073
:1055D000521798004E119000DE11900071002000CB
:1055E000A02A200010030200010000004312220044
:1055F0006317980011002000711798006E1090003A
:10560000FE10900002022000030020000200400073
:10561000838048008042EB001E4278000001BE00FB
:1056200001012000E02B2000100302000100000017
:105630004F06BE004F05BE004F04BE000080FA00BA
:10564000000006000000FA00881F7800D01020003B
:10565000D0488800E0182000E04888002040800002
:105660008000EB00E8488000D748800000C3EB00D2
:1056700015C0B30044C0B3000001BE00880078002C
:1056800007007800EAF10700701E2000D04888006B
:105690003040800041408000A20020000300200034
:1056A0003E04020000000000E8488000D748800067
:1056B00000C3EB008042EB0074C0B3000001BE00E9
:1056C0008800780007007800D9F107004F047800BF
:1056D0000080FA00000006000000FA0016C9BF00B2
:1056E0000004E00005003A0010C0B30016E9B7005E
:1056F000B5F90700D5F707002F00370016C9BF001E
:10570000E14F500004003A0020C0B30016E9B70092
:105710006EFB07002800370016C9BF00E24F50009B
:1057200004003A0030C0B30016E9B70067FE070076
:105730002100370016C9BF00E34F500005003A00B2
:1057400040C0B30016E9B700BEFF070072FD0700B6
:105750001900370016C9BF00E44F500003003A009B
:1057600050C0B30016E9B7001300370016C9BF00D8
:10577000E54F500003003A0060C0B30016E9B700DF
:105780000D00370016C9BF00E64F500003003A0075
:1057900070C0B30016E9B7000700370016C9BF0094
:1057A000E74F500003003A0010C0B30016E9B700FD
:1057B000010037001669EF0018C9BF000004E000BF
:1057C00054003A00D04A8000680060000000E00009
:1057D00019003200D04A80000030A100D04A880071
:1057E00060942000A0009000000420000080600071
:1057F0000000E00010003200004B800070006000EC
:105800000000E0000C003A00B14A8000703E200029
:10581000808F50000300360040062000B04A880008
:1058200003003700B04A80004006B000B04A88004C
:105830002214020001000000D04A800061006000D4
:105840000000E00012003200D04A80000000A100F9
:10585000D04A8800F04A80000000A100F04A880089
:10586000D04A80000030A100D04A8800D04A800091
:105870000060A100D04A8800E04A80000010A1002A
:10588000E04A88001669EF0010C0B30015E9B700C0
:10589000F04A8000610060000000E0000C0032006F
:1058A000F04A80000000A100F04A8800D04A800041
:1058B0000000A100D04A8800D04A80000030A1003A
:1058C000D04A8800D04A80000060A100D04A8800F9
:1058D000D14A800000042000008060000000E00049
:1058E0000C003200D04A80000060A100D04A88003D
:1058F000F04A80000000A100F04A8800D04A8000F1
:105900000030A100D04A8800D04A80000000A100E9
:10591000D04A88000080FA00000006000800FA0063
:10592000889FBE008A9FBE008C1F78004047980069
:10593000310798000000EB00000F78000000EB003A
:10594000100798000000EB00000F780045003700BA
:105950009E007800401A20000088B90000007800FE
:10596000740040008042EB0000C2EB00A8CA240093
:10597000190020000801BE001104200010030200DD
:10598000010000004E4090000004E0000D003200D5
:105990009E007800401A20000088B90000007800BE
:1059A000C012B0008042EB0000C2EB006AD02400BD
:1059B0001B0020000A01BE00110420001003020099
:1059C000010000000000EB00100798001F003700E6
:1059D0003E009000100078000000E0001F00320040
:1059E0003E009000100078008000EB003E01900027
:1059F0000281E800320798009E01900022022000F8
:105A00000299B90002017800DC0520000206460078
:105A10009E017800421A20000299B9000201780024
:105A2000F603410000C3EB008042EB0024C0B3004A
:105A30000001BE008C00780007007800FCF0070031
:105A40001E0090000000E800100798001E00900063
:105A5000E90F5000DEFF36000100370000000000B3
:105A60001E0FE8001E007800E10F5000B8FF36005E
:105A70004F0678004F05BE004F04BE000080FA00BC
:105A8000000006000600FA00889FBE00200798006C
:105A90000000EB00000F78000000EB0010079800FA
:105AA0000000EB00000F7800240037000000EB003E
:105AB000100798001D0037002E009000100078009D
:105AC0000000E00004003A002E0090000080E80092
:105AD00020079800120037009E009000200220004E
:105AE0000088B90000007800F105200080804000A7
:105AF0002E009000100078002E0190000281E80036
:105B0000220798008042EB0000C2EB00E8DB240093
:105B1000190020000801BE0010030200010000006F
:105B20001E0090000000E800100798001E00900082
