:020000040000fa
:08000000007e04000100000075
:020000040000fa
:04000800a80100004b
:020000040000fa
:04000c00a801000047
:020000040000fa
:04001000a801000043
:020000040000fa
:04001400a80100003f
:020000040000fa
:04001800a80100003b
:020000040000fa
:04001c00a801000037
:020000040000fa
:04002000a801000033
:020000040000fa
:04002400a80100002f
:020000040000fa
:04002800a80100002b
:020000040000fa
:04002c00a801000027
:020000040000fa
:04003000a801000023
:020000040000fa
:0400340086d600006c
:020000040000fa
:04003800a80100001b
:020000040000fa
:04003c00a801000017
:020000040000fa
:04004000a801000013
:020000040000fa
:04004400141c010087
:020000040000fa
:04004800a80100000b
:020000040000fa
:04004c00a801000007
:020000040000fa
:04005000a801000003
:020000040000fa
:04005400a8010000ff
:020000040000fa
:04005800a8010000fb
:020000040000fa
:04005c00a8010000f7
:020000040000fa
:04006000a8010000f3
:020000040000fa
:04006400a8010000ef
:020000040000fa
:04006800881c0100ef
:020000040000fa
:04006c00a8010000e7
:020000040000fa
:04007000a8010000e3
:020000040000fa
:04007400a8010000df
:020000040000fa
:04007800a8010000db
:020000040000fa
:04007c0026ed00006d
:020000040000fa
:0400800022dc00007e
:020000040000fa
:04008400a21c0100b9
:020000040000fa
:04008800a8010000cb
:020000040000fa
:04008c00a8010000c7
:020000040000fa
:04009000a8010000c3
:020000040000fa
:0400940044c600005e
:020000040000fa
:04009800a8010000bb
:020000040000fa
:04009c00a8010000b7
:020000040000fa
:0400a000a8010000b3
:020000040000fa
:0400a400a8010000af
:020000040000fa
:0400a800a8010000ab
:020000040000fa
:0400ac00a8010000a7
:020000040000fa
:0400b000a8010000a3
:020000040000fa
:0400b400a80100009f
:020000040000fa
:0400b800a80100009b
:020000040000fa
:0400bc00a801000097
:020000040000fa
:0400c00032ce00003c
:020000040000fa
:0400c400a80100008f
:020000040000fa
:0400c800a80100008b
:020000040000fa
:0400cc00a801000087
:020000040000fa
:0400d000a801000083
:020000040000fa
:0400d400a80100007f
:020000040000fa
:0400d800a80100007b
:020000040000fa
:04010800a80100004a
:020000040000fa
:04010c00a801000046
:020000040000fa
:04011000a801000042
:020000040000fa
:04011400a80100003e
:020000040000fa
:04011800a80100003a
:020000040000fa
:04011c00a801000036
:020000040000fa
:04012000a801000032
:020000040000fa
:04012400a80100002e
:020000040000fa
:04012800a80100002a
:020000040000fa
:04012c00a801000026
:020000040000fa
:04013000a801000022
:020000040000fa
:04013400a80100001e
:020000040000fa
:04013800a80100001a
:020000040000fa
:04013c00a801000016
:020000040000fa
:04014000a801000012
:020000040000fa
:04014400a80100000e
:020000040000fa
:04014800a80100000a
:020000040000fa
:04014c00a801000006
:020000040000fa
:04015000a801000002
:020000040000fa
:04015400a8010000fe
:020000040000fa
:04015800a8010000fa
:020000040000fa
:04015c00a8010000f6
:020000040000fa
:04016000a8010000f2
:020000040000fa
:04016400a8010000ee
:020000040000fa
:04016800a8010000ea
:020000040000fa
:04016c00a8010000e6
:020000040000fa
:04017000a8010000e2
:020000040000fa
:04017400a8010000de
:020000040000fa
:04017800a8010000da
:020000040000fa
:04017c00a8010000d6
:020000040000fa
:04018000a8010000d2
:020000040000fa
:04018400a8010000ce
:020000040000fa
:04018800a8010000ca
:020000040000fa
:04018c00a8010000c6
:020000040000fa
:04019000a8010000c2
:020000040000fa
:04019400a8010000be
:020000040000fa
:04019800a8010000ba
:020000040000fa
:04019c00a8010000b6
:020000040000fa
:0401a000a8010000b2
:020000040000fa
:0401a400a8010000ae
:020000040000fa
:0401a800a8010000aa
:020000040000fa
:0401ac00a8010000a6
:020000040000fa
:0401b000a8010000a2
:020000040000fa
:0401b400a80100009e
:020000040000fa
:0401b800a80100009a
:020000040000fa
:0401bc00a801000096
:020000040000fa
:0401c000a801000092
:020000040000fa
:0401c400a80100008e
:020000040000fa
:0401c800a80100008a
:020000040000fa
:0401cc00a801000086
:020000040000fa
:0401d000a801000082
:020000040000fa
:0401d400a80100007e
:020000040000fa
:0401d800a80100007a
:020000040000fa
:100200008fca20000e7f22000e018800000000002f
:10021000000020000000e000020032000001200089
:10022000200288000c000700007722001100200047
:1002300011000700000020000000e0000200320072
:100240000000020000000000c6f4020000000000f0
:100250000040da000000fe004440a9004060200099
:100260000000e0000300320000002000a001880030
:100270004440a8000000060091018800800078003a
:100280000000eb0015003700e280400032a0b4000f
:100290009101ba00e280400032a0b4009102ba009d
:1002a000e280400032a0b4000002eb00472bde00e9
:1002b000f507b200602ce10004003a000059eb00a1
:1002c0008301e900fdff3e00040037006128e100e2
:1002d000010032000082eb000b00070011c3ba00de
:1002e0001101ba000604e00003003a000200e00039
:1002f000e5ff3a0000000600f607b200960188000c
:1003000082007800f5ff37003159ba008301e90017
:100310000c0032002159ba008301e90008003200c4
:100320000400e00003003a00e280400032a0b40084
:10033000f5ff370011d9ba008301e900faff3a004e
:100340008100e800e180400032a0b4000000060017
:100350000040da000000fe0003f0a200889fbe000b
:100360008a9fbe008c1f7800f8000700ff00330052
:100370006450e1004f0032006420e100520032007e
:1003800003826c0007003b000905d0000306d00083
:10039000820f54000c065d0002003900020032009a
:1003a00089017800030678008582550004003d002d
:1003b0000003fd008103fd008502ea008b854200f9
:1003c000840f720002003b0060001000e080180003
:1003d0006011b8000005eb007a28e1000a0039003e
:1003e00006007800c75ddd00f707b2008780750062
:1003f0002d003700828171000a01780061056000dc
:100400008180d1000080d3008502e900f9ff3b0024
:10041000060440008784480002003b00600414008a
:10042000e0841c000988a300070032008a81710063
:1004300082817100610164008904d1000884d300c5
:100440008b05e800170037000978a30013003a0075
:100450000b00e000130034008b05e90008044400a1
:1004600089844c000a4474000978a3000d003a0006
:100470000b00e000070034008b05e900080444008d
:1004800089844c0001003a000b0020000978a30089
:10049000f7ff32000001eb0002003700828171009b
:1004a0000a0178006e0007000cf0a70001f0a00020
:1004b000b70037006420e10002003a00838f6c002f
:1004c000b70033000801be000200be00b0003700d4
:1004d000889fbe008a9fbe008c1f78009b0007008b
:1004e000a200330003866c006450e1002e0032004d
:1004f0006420e100330032006150e1002f0032003f
:100500006120e1003100320085855500eb07b00025
:1005100009002000080420000500370008044400fa
:1005200089844c000a0031000603430087834b0096
:100530000001530081815b00f8ff33000203be001d
:100540000800a0000804440089844c00f6ff39002c
:10055000c639dd0083017300010032001300200062
:100560008904d1000884d3000998a3000500320053
:100570000800a7000300a0008904d1000884d3006c
:100580008b05e8008904d1000884d3000001eb004a
:100590000281d2003200070001f0a1000cf0a70098
:1005a00001f0a0007a0037006420e1007c003200f6
:1005b0000801be000200be00f7ff37006120e10025
:1005c000770032006000b800f3ff37000000200021
:1005d00001f82700f0ff3700f4ff2f00ba003700c2
:1005e0000001be00440007000470a70003f0a10052
:1005f00003f8a30013003a006509b10010003200af
:10060000090035006928e1000200350001002800da
:100610000000050000004000818048008502e900dc
:10062000fcff3a0000000600f88f4200050035008c
:100630008100d1000080d3008502e800fcff3a0071
:10064000000006008000eb00000005004f89de007e
:1006500082017800b70037006011b800c50037008c
:1006600081002000618055000b003d000b00200040
:1006700061fe2f000100e1001d0034008281710045
:10068000610164008904d1000884d3000000e800ff
:10069000faff3a007100200061006400030070005e
:1006a000020060000900320061044400e0844c0054
:1006b0000988a500050032008b05e8006808e10004
:1006c00002003a008904d1000884d300f20f200010
:1006d0000258e10005003d00c75ddd00f907b200ea
:1006e0008980750008007800000006000bf82700dc
:1006f0008b00780000000500c70ade00f107b20099
:10070000f50fb20008003200e1cf420002003200d3
:100710000170a00024000500810f7000010032006c
:100720000408050044000500810f700002003a0033
:10073000140005008502e9000000400081c0480067
:10074000fcff3b000170a000240005000004be0077
:10075000e9ff07000003be000405be000200be0062
:10076000e5ff0700844f7500000006000200be0090
:100770006450e100050036006420e100020036000c
:100780000968a30001003a000800be000160a00053
:100790004f0678004f05be004f04be000000060063
:1007a000f0ff2f00f1ff2700f9ff3700889fbe0000
:1007b0008a9fbe008c1f7800e4ff0700ebff330028
:1007c00003866c006450e100240032006420e100e4
:1007d000270032006150e100220032006120e10078
:1007e000210032008b854200eb07b1000134b800d4
:1007f000003ab8000804420089844a00013ab8006f
:100800000030b8008880400009014a00040033002d
:100810000000400081804800020149008b05e9008a
:10082000c909dd00830170000100320013002000bf
:10083000c814de004814dd004709de001200b200d3
:10084000c808de000884700085ff070001f0a100e1
:100850000cf0a70001f0a000cdff37006120e100ff
:10086000cfff32000801be000200be00f7ff3700d4
:100870006150e100fcff3a00c9ff37006022b80078
:10088000060220000000d0008180d2000482d20045
:100890008582d2000000a0000202520083825a002a
:1008a000030031000202420083824a000000a100de
:1008b0000603e900f3ff3a0000000600efff07001f
:1008c0000400be0000000600889fbe008a9fbe0094
:1008d000841f78009dff07004f007800110033004f
:1008e000f0ff2f00838f6c0006003b0004056500bd
:1008f0000a00a7000800370009f0a6001000200039
:1009000008003700820f5400838f5c000300390019
:100910001000200001003e000000200009f0a700a8
:100920000000ea004f05be004f04be000000e000da
:1009300000000600881f7800030478000300e00030
:1009400007003d0060001000e08018006001190001
:10095000e081190002003b0001f02d000300370088
:100960000400070008f0a70001f0a0004f04780081
:1009700000000600889fbe008a9fbe0000827000b3
:100980000402710004827100260032000004be00df
:100990000200be006011b8006b0920009502200023
:1009a0000182cf000a0039000541b1000082cf006a
:1009b000070039000541b1000982cf000400390069
:1009c0000541b1000882cf00010039000541b100a6
:1009d00005425200120032000a003b008281710081
:1009e000610164008100d1000080d3008984d300bc
:1009f0000884d3008b05e8000442e800f7ff3a00c2
:100a0000070037000804440089844c0000004800b7
:100a1000818048008b05e9000442e900f9ff3a00b3
:100a20000fff07004f05be004f04be000000060088
:020000040000fa
:100a30001e0400000000000003fc00000000000095
:100a40001ffc0000000000007c000000000100000e
:100a5000e00000000007000080000000000e000021
:100a6000000000000018000000000000003000003e
:100a70000000000000e000000000000001ff000096
:100a8000fffc000001ff0000fffc000003800000ed
:100a90000000000007000000000000000e00000041
:100aa000000000000c000000000000001800000022
:100ab00000000000180000000000000030000000ee
:100ac0000000000030000000000000006000000096
:100ad0000000000060000000000000006000000056
:100ae00000000000c000000000000000c000000086
:100af00000000000c000000000000000c000000076
:100b000000000000c000000000000000c000000065
:100b100000000000c000000000000000c000000055
:100b2000000000001e040000c000000000000000e3
:100b3000c000000000000000c00000000000000035
:100b4000c000000000000000c00000000000000025
:100b5000c000000000000000e000000000000000f5
:100b600060000000000000006000000000000000c5
:100b700060000000000000003000000000000000e5
:100b80003000000000000000300000000000000005
:100b90001800000000000000180000000000000025
:100ba0000c00000000000000040000000000000035
:100bb000060000000000000003000000000000002c
:100bc000018000000000000000c0000000000000e4
:100bd0000060000000000000003000000000000085
:100be0000018000000000000000e000000000000df
:100bf000000300000000000000010000c000000031
:100c0000000000007c000000000000000ffc00005d
:100c10000000000001fc00002506000000000000ac
:100c2000fff000000000000000070000fffe0000d1
:100c300000000000001f0000000f00008000000006
:100c40000038000000010000e000000000e00000ab
:100c5000000000007000000001c000000000000063
:100c60001800000003000000000000000c0000005d
:100c7000060000007fe00000060000000c010000fc
:100c8000fff80000030000000c070000801e0000b9
:100c900003000000180c00000003000001800000a9
:100ca000301800000001000080c00000303000005b
:100cb00000000000c0c000006060000000000000f4
:100cc0006060000060400000000000002060000044
:100cd00060c000000000000030600000e0c00000c4
:100ce0000000000030700000c18000000000000023
:100cf00018300000c1800000000000001830000023
:100d0000c18000000000000018300000c180000019
:100d10000000000018300000c1800000000000004a
:100d200018300000018000000000000018000000e2
:100d30000180000000000000180000000180000099
:100d4000000000001800000001800000000000000a
:100d500018000000018000000000000018000000e2
:100d600000c00000000000003000000000c00000d3
:100d70000000000030000000004000000000000003
:100d80002000000000600000000000006000000083
:100d90000030000000000000c0000000001800004b
:100da0000001000080000000000c000000030000b3
:100db0000000000000070000801e0000000000008e
:100dc00000010000fff8000000000000000000002b
:100dd0007fe00000000000001e0400000000000092
:100de000000c000000000000000c000000000000eb
:100df000000c000000000000000c000000000000db
:100e0000000c000000000000000c000000000000ca
:100e1000000c000000000000001c000000000000aa
:100e20000018000000000000001800000000000092
:100e3000001800000000000000300000000000006a
:100e40000030000000000000006000000000000012
:100e5000006000000000000000c000000000000072
:100e600001c0000000000000018000000000000040
:100e70000300000000000000060000000000000069
:100e80000c000000000000001c000000000000003a
:100e90003000000000000000e00000000001000041
:100ea000c00000000007000080000000003e0000bd
:100eb0000000000001f8000000000000ffe000005a
:100ec00000000000ff000000000000002f060000ee
:100ed000fc0000000000000000000000ff80000097
:100ee000000000000000000003c00000000000003f
:100ef0000000000000f00000000000000000000002
:100f0000003800000000000000000000000c00009d
:100f100000000000000000000006000000000000cb
:100f200000000000000300000000000000000000be
:100f3000000100008000000000000000ffff000032
:100f4000ff00000000000000ffff0000ffc00000e5
:100f5000000000000000000060f000000000000041
:100f600000000000303c0000000000000000000015
:100f7000180e00000000000000000000080700003c
:100f800000000000000000000c03000080000000d2
:100f90000000000006010000c0000000000000008a
:100fa00003000000e000000000000000010000005d
:100fb0007000000000000000018000003000000010
:100fc0000000000000c00000380000000000000029
:100fd0000040000018000000000000000060000059
:100fe0000c00000000000000003000000c000000b9
:100ff00000000000001000000600000000000000db
:10100000001800000600000000000000000c0000b6
:1010100006000000000000000006000000000000c4
:1010200000000000000200000000000000000000be
:1010300000030000000000000000000000010000ac
:1010400080000000000000000000000080000000a0
:101050000000000000000000c000000000000000d0
:101060000000000060000000000000000000000020
:101070003000000000000000000000001000000030
:101080000000000000000000180000000000000048
:10109000000000000c000000000000000000000044
:1010a0000400000000000000000000000600000036
:1010b000000000000000000003000000000000002d
:1010c000000000000180000000000000000000009f
:1010d00001800000000000000000000000c00000cf
:1010e00000000000000000000060000000000000a0
:1010f0000000000000600000000000000000000090
:10110000003000001d0300008000000000c000004f
:1011100000000000c00000000060000000000000af
:10112000300000000038000000000000180000003f
:10113000000c000000000000060000000006000097
:10114000000000000300000000010000800000001b
:1011500000c0000000000000c000000000600000af
:101160000000000030000000001800000000000037
:1011700018000000000c0000000000000600000045
:101180000006000000000000030000000001000055
:101190008000000000c0000000000000c00000004f
:1011a000006000000000000030000000003000007f
:1011b00000000000180c00000630000000000000d5
:1011c00000000000003f00000000000000000000e0
:1011d000000f0000f0000000000000000000000010
:1011e000ff00000000000000000000000ff0000001
:1011f000000000000000000000ff000000000000f0
:1012000000000000000f0000f000000000000000df
:1012100000000000ff0000000000000000000000cf
:101220000ff00000000000000000000000ff0000c0
:101230000000000000000000000f0000fc000000a3
:101240000000000000000000fc0a000005f00000a3
:101250000000000000000000ff000000000000008f
:10126000000f0000f00000000000000000ff000080
:1012700000000000000000000ff00000000000006f
:1012800000000000ff00000000000000000f000050
:10129000f00000000000000000ff0000000000005f
:1012a000000000000ff0000000000000000000003f
:1012b000ff1c00000300000000010000000000000f
:1012c0000300000000070000000000000e00000006
:1012d000000c0000000000001800000000380000b2
:1012e000000000007000000000e0000000010000ad
:1012f000c0000000038000000003000000000000a8
:1013000006000000000e0000000000001c000000ad
:1013100000380000000000007000000000600000c5
:1013200000000000c0000000018000000003000079
:101330008000000007000000000e00000000000018
:101340001c00000000180000000000003000000039
:101350000070000000000000e0000000000000003d
:101360002000000012000000210000001300000017
:1013700022000000140000002300000015000000ff
:1013800024000000160000002500000017000000e7
:1013900026000000180000002700000029000000bf
:1013a0001100000019000000280000001a000000d1
:1013b000b00000000000000000000000d4000000a9
:1013c000d400000088000000000000007800000049
:1013d00000000000c00000006402000000000000e7
:1013e0000000000000000000440200004402000071
:1013f00044020000000000000000000000000000a7
:101400000100000009000000020000000a000000c6
:10141000030000000b000000040000000c000000ae
:10142000050000000d000000060000000e00000096
:10143000070000002a000000080000001100000062
:10144000100000001f00000000000000000000006d
:101450000807000006050000040300000201000068
:101460000f0a0000090e00000d000000000000003f
:101470001100000012000000130000001400000022
:101480001c0000001b0000001a00000019000000f2
:10149000200000001f0000001e0000001d000000d2
:1014a0000100000002000000030000000400000032
:1014b000050000000a000000140000000d000000fc
:1014c000a00000000000000000000000000000007c
:1014d000000000000000000000000000000000000c
:1014e00000000000000000000000000000000000fc
:1014f00000000000000000000000000044020000a6
:1015000000000000440200001c0200004002000035
:1015100004000000030000000200000001000000c1
:1015200005000000060000000700000008000000a1
:10153000090000000a0000000b0000000c00000081
:101540000d0000000e0000000f0000001000000061
:101550001500000016000000170000001800000031
:10156000000000000000000088000000880000006b
:101570009b0000009b000000780000008800000035
:1015800088000000880000002c0200002c020000ef
:101590001c0200004402000044020000440200005b
:1015a000000000000000000000000000000000003b
:1015b0004d5500004943000000480000464d000022
:1015c0005a4b00004a0000004d61000072200000ec
:1015d00031370000203200003031000037000000b9
:1015e000313000003a340000353a00003338000052
:1015f00000500000696e000067730000686500001d
:101600006e670000204d0000616f00000056000072
:10161000312e0000302e0000300000006d70000000
:10162000737a00006d40000031320000362e000059
:08163000636f00006d00000073
:020000040000fa
:101638001800fa00889fbe008a9fbe008c1f7800a1
:101648006007980071079800020f9800130f980020
:1016580044579800555798006657980010c0b30033
:10166800104798000040eb00204798000040eb002e
:10167800204798001a0037004e5090008080fb00e9
:101688002e4090000080fb00008050000006e9001a
:101698000e0890009e089000a20020000300200081
:1016a8005e04020000000000804078000c00470043
:1016b800314098000e0890009e089000a20020007b
:1016c800030020003e04020000000000000f980004
:1016d800110f98002e4090000040e8002047980025
:1016e800ae4090004e50900080cf5000e2ff39008d
:1016f8000040eb0020479800120037004e50900041
:101708008080fb002e4090000080fb00008050008d
:10171800ce5090008180fb000101e900ae409000ae
:101728008180fb008100510081004700b14090009a
:1017380000004700314098002e4090000040e8002b
:1017480020479800ae4090005e50900080cf500037
:10175800eaff39004e5090008080fb005e509000f8
:101768000080fb00008050000000470001c1b3006a
:10177800314098005e5090000004e00040003200c4
:101788000040eb0020479800380037001e409000ca
:101798000004e000150032002e4090000080fb009d
:1017a80000004700304090000004e0000f003a00bd
:1017b8002e4090008080fb004e5090000080fb007f
:1017c8000001e9005e5090000080fb00000051001d
:1017d800808f500005003d0010c0b30010479800ee
:1017e8000040eb00004f7800040037000040eb0099
:1017f80010479800ee509000014f78002a142100fd
:101808001b0020000a01be002e4090000080fb0053
:1018180000004700304090000080fb004400dd00dd
:101828008000eb0000004100818049002e419000bb
:101838000281fb004311dd00820178006e019000f7
:10184800028341008042eb001e4278000001be0086
:10185800fe0090000600780056f10200000000002b
:101868002e4090000040e80020479800ae409000cd
:101878004e50900080cf5000c4ff36003c00370027
:101888000040eb0020479800350037001e409000cc
:101898000004e000120032002e4090000080fb009f
:1018a80000004700304090000004e0000c003a00bf
:1018b8002e4090008080fb004e5090000080fb007e
:1018c8000000e900808f500005003d0010c0b30003
:1018d800104798000040eb00004f780004003700e4
:1018e8000040eb0010479800ee509000014f780040
:1018f80028142100190020000801be002e40900085
:101908000080fb0000004700304090000080fb0092
:101918004400dd008000eb000000410081804900a8
:101928002e4190000281fb004311dd008201780006
:101938006e019000028341008042eb001e42780055
:101948000001be00fe0090000600780056f102007b
:10195800000000002e4090000040e800204798005a
:10196800ae4090004e50900080cf5000c7ff390025
:101978004f0678004f05be004f04be000080fa00f5
:10198800000006001800fa00889fbe008a9fbe006b
:101998008c1f78006007980071079800020f980064
:1019a800130f9800445798005557980066579800a9
:1019b80010c0b300104798000040eb002047980083
:1019c8000040eb00204798001a0037004e50900066
:1019d8008080fb002e4090000080fb0000805000bb
:1019e8000006e9000e0890009e089000a200200062
:1019f800030020005e040200000000008040780020
:101a08000c004700314098000e0890009e08900096
:101a1800a2002000030020003e0402000000000095
:101a2800000f9800110f98002e4090000040e80029
:101a380020479800ae4090004e50900080cf500054
:101a4800e2ff39000040eb00204798001200370001
:101a58004e5090008080fb002e4090000080fb00dc
:101a680000805000ce5090008180fb000101e90009
:101a7800ae4090008180fb0081005100810047004a
:101a8800b140900000004700314098002e4090007f
:101a98000040e80020479800ae4090005e5090005b
:101aa80080cf5000eaff39004e5090008080fb0044
:101ab8005e5090000080fb0000805000000047004e
:101ac80001c1b300314098005e5090000004e0006e
:101ad800420032000040eb00204798003a003700ef
:101ae8001e4090000004e000150032002e409000d7
:101af8000080fb0000004700304090000004e00038
:101b08000f003a002e4090008080fb004e5090005d
:101b18000080fb000001e9005e5090000080fb009f
:101b280000005100808f500005003d0010c0b30038
:101b3800104798000040eb00004f78000400370081
:101b48000040eb0010479800ee509000014f7800dd
:101b58000aa52f000b0020000a01be002e409000ad
:101b68000080fb0000004700304090008080fb00b0
:101b7800400420000088b900000078008000eb00d5
:101b880000004100818049002e4190000281fb0045
:101b98004411dd00820178006e019000028341004b
:101ba8008042eb001e4278000001be00fe0090005b
:101bb8000600780056f10200000000002e40900058
:101bc8000040e80020479800ae4090004e5090003a
:101bd80080cf5000c2ff36003e0037000040eb00c7
:101be80020479800370037001e4090000004e000ae
:101bf800120032002e4090000080fb0000004700d9
:101c0800304090000004e0000c003a002e409000a4
:101c18008080fb004e5090000080fb000000e9002f
:101c2800808f500005003d0010c0b3001047980099
:101c38000040eb00004f7800040037000040eb0044
:101c480010479800ee509000014f780008a52f002b
:101c5800090020000801be002e4090000080fb0013
:101c680000004700304090008080fb0040042000c6
:101c78000088b900000078008000eb0000004100f7
:101c8800818049002e4190000281fb004411dd0053
:101c9800820178006e019000028341008042eb00cf
:101ca8001e4278000001be00fe0090000600780089
:101cb80056f10200000000002e4090000040e800ad
:101cc80020479800ae4090004e50900080cf5000c2
:101cd800c5ff39004f0678004f05be004f04be000f
:101ce8000080fa00000006001800fa00889fbe0075
:101cf8008a9fbe008c1f78006007980071079800c3
:101d0800020f9800130f98004457980055579800f1
:101d18006657980010c0b300104798000040eb00c9
:101d2800204798000040eb00204798001a00370031
:101d38004e5090008080fb002e4090000080fb00f9
:101d4800008050000006e9000e0890009e089000f0
:101d5800a2002000030020005e0402000000000032
:101d6800804078000c004700314098000e08900031
:101d78009e089000a2002000030020003e040200fc
:101d880000000000000f9800110f98002e409000ee
:101d98000040e80020479800ae4090004e50900068
:101da80080cf5000e2ff39000040eb002047980048
:101db800120037004e5090008080fb002e409000ab
:101dc8000080fb0000805000ce5090008180fb0016
:101dd8000101e900ae4090008180fb0081005100c4
:101de80081004700b1409000000047003140980052
:101df8002e4090000040e80020479800ae40900038
:101e08005e50900080cf5000eaff39004e5090009d
:101e18008080fb005e5090000080fb000080500036
:101e280000004700a1c0b300314098005e50900008
:101e38000004e000420032000040eb002047980018
:101e48003a0037001e4090000004e0001500320000
:101e58002e4090000080fb000000470030409000ba
:101e68000004e0000f003a002e4090008080fb0044
:101e78004e5090000080fb000001e9005e50900089
:101e88000080fb0000005100808f500005003d00dd
:101e980010c0b300104798000040eb00004f7800d6
:101ea800040037000040eb0010479800ee50900007
:101eb800014f78008a6320001b0020000a01be0041
:101ec8002e4090000080fb0000004700304090004a
:101ed8008080fb00600220000088b90000007800c4
:101ee8008000eb0000004100818049002e419000f5
:101ef8000281fb004411dd00820178006e01900030
:101f0800028341008042eb001e4278000001be00bf
:101f1800fe0090000600780056f102000000000064
:101f28002e4090000040e80020479800ae40900006
:101f38004e50900080cf5000c2ff36003e00370060
:101f48000040eb0020479800370037001e40900003
:101f58000004e000120032002e4090000080fb00d8
:101f680000004700304090000004e0000c003a00f8
:101f78002e4090008080fb004e5090000080fb00b7
:101f88000000e900808f500005003d0010c0b3003c
:101f9800104798000040eb00004f7800040037001d
:101fa8000040eb0010479800ee509000014f780079
:101fb80088632000190020000801be002e40900010
:101fc8000080fb0000004700304090008080fb004c
:101fd800600220000088b900000078008000eb0053
:101fe80000004100818049002e4190000281fb00e1
:101ff8004411dd00820178006e01900002834100e7
:102008008042eb001e4278000001be00fe009000f6
:102018000600780056f10200000000002e409000f3
:102028000040e80020479800ae4090004e509000d5
:1020380080cf5000c5ff39004f0678004f05be001d
:102048004f04be000080fa00000006000c00fa00f1
:10205800000f7800110798002207980033079800ae
:1020680044079800254f98002e0090004300dd009b
:102078002e4a9000ce019000000178009e0090004a
:102088001e00780090f40200000000002e0090006e
:10209800c300dd001e0190003e00900000004100da
:1020a8002e4a9000ce01900001017800800078004f
:1020b8001e00780090f40200000000002e4a9000f4
:1020c800be0190004e0190009e0090001e00780016
:1020d80090f40200000000002e0090004300dd0094
:1020e8001e0040000080e9002e4a9000be019000ca
:1020f8004e0190009e00900090f402000000000045
:102108000080fa00000006001800fa00889fbe0050
:10211800500798006107980072079800030f98000d
:10212800140f9800455798000040eb00004f7800c6
:102138000040eb00104798006400470002000900c7
:102148000018eb000000eb00100798000000eb00ff
:1021580010079800150037001e0090006500100059
:10216800300f98007e019000a100200081017800c6
:10217800110009000381d800814078003e099000d1
:102188000200470041409800fe009000a000200097
:1021980080017800110009008380d800700798003a
:1021a8001e0090000000e800100798009e009000b4
:1021b8000e089000808f5000e7ff39000040eb00c8
:1021c800004f78000e089000660010001007980075
:1021d8000a003700e40047001e009000008040001d
:1021e800104078000004e00008003a001e4fe800a4
:1021f8001e0090000000e800100798001e009000e4
:10220800e40f5000f3ff3600010037000000000023
:102218009e80fb000e089000808f500004003a005a
:102228001e08900000407800004f98000800370012
:102238009e80fb000e089000008050006500400062
:102248009e089000814078000000470041409800b7
:102258000000eb00100798002d0037009e0090004a
:102268000e08900000805000e50040001e81fb0031
:102278000e0890000000510065004000808f50005b
:10228800030031000040eb001047980002003700bf
:102298004e509000104798008863200019002000d5
:1022a8000801be009e0090000e08900000805000bb
:1022b8006500400000004700404090008080fb001f
:1022c800600220000088b900000078008000eb0060
:1022d80000004100818049001e019000c411dd000a
:1022e8005e019000028341008042eb001e42900094
:1022f8000001be00ee0090000600780056f10200d2
:10230800000000001e0090000000e8001007980080
:102318000e0890008000e8001e009000808f50009a
:10232800ceff3e004f04be000080fa000000060009
:102338000800fa00100798002107980062479800e3
:10234800734798000040eb00004f78006e40900003
:10235800e14f400002003a000040eb00704798004f
:10236800ee40900070c2b30080cf500007003600e6
:10237800ee40900080cdb30000c040006047980058
:10238800c0c0b300004f78000600370081c2b30018
:102398006e40900000c0500060479800b0c0b30085
:1023a800004f78009e80fb006e4090000080fb008c
:1023b800fe429000010278003300200000017800fe
:1023c800ae0090001e0090004fff07000080fa004a
:1023d800000006006200fa00889fbe008a9fbe00c7
:1023e8008c9fbe00100798002107980032079800bc
:1023f8004307980054079800650798000040eb00d1
:10240800004f780034c9bf000004e00032003200f9
:1024180017c9bf000004e0002f003a0018c9bf0028
:102428000004e0001500320020ca200010407800a7
:10243800f040400020ca20000148780020ca20004f
:10244800104078000080fb004400de000040780067
:10245800e24f50000500360020ca200010407800e6
:10246800ef40600020ca20000148780000ca200020
:1024780018190200010000001869ef00c8f52f00c4
:10248800090020000801be000e4890000080fb00f3
:102498004400de00004078000080fb00ef00600090
:1024a800300520000088b900000078008000eb00ab
:1024b800000041008180490095c4b30000c2eb00d0
:1024c8000001be00ae0090001e00900056f1020010
:1024d8000000000016003700c6f52f000700200096
:1024e8000601be000e4890000080fb004400de009c
:1024f800004078000080fb00ef00600030052000fd
:102508000088b900000078008000eb00000041005e
:10251800818049008042eb0000c2eb000001be0050
:10252800ae0090001e00900056f10200000000006e
:1025380034c9bf000004e0002f00320017c9bf00f3
:10254800e14f50002c003a0018c9bf000004e00019
:102558001500320020ca2000104078008040e800b2
:1025680020ca20000148780020ca200010407800c6
:102578000080fb006f006000e90f50000600340087
:1025880020ca20009040780000cfb30080c06000cf
:1025980020ca20000148780000ca2000181902004b
:1025a800010000001869ef00ccf52f000d00200095
:1025b8000c01be000e4890000080fb00ef00600098
:1025c800300520000088b900000078008000eb008a
:1025d80000014100818149001e0090007c004000fc
:1025e80095c4b30000c2eb00ae00900056f10200a3
:1025f8000000000013003700caf52f000b00200070
:102608000a01be000e4890000080fb00ef00600049
:10261800300520000088b900000078008000eb0039
:1026280000014100818149001e0090007c004000ab
:102638008042eb0000c2eb00ae00900056f10200b1
:102648000000000034c9bf000004e000350032007b
:1026580017c9bf00e24f500032003a0018c9bf0046
:102668000004e0001500320010ca20001040780075
:10267800f040400010ca20000148780010ca20002d
:10268800104078000080fb004400de000040780025
:10269800e54f50000500360010ca200010407800b1
:1026a800ef40600010ca20000148780000ca2000ee
:1026b80018190200010000001869ef00c1f52f0089
:1026c8007107980004002000040f98007e01900014
:1026d8008e0990007e4090000080fb004400de00e0
:1026e800004078000080fb00ef006000300520000b
:1026f8000088b900000078008000eb00000141006c
:10270800818149001e0090004005b00095c4b300c7
:1027180000c2eb00ae00900056f10200000000007d
:1027280019003700c5f52f00150f9800010020008b
:10273800210f98001e099000ae0990007e4090007d
:102748000080fb004400de00004078000080fb00b1
:10275800ef006000300520000088b9000000780014
:102768008000eb0000014100818149001e009000bb
:102778004005b0008042eb0000c2eb00ae009000c4
:1027880056f102000000000034c9bf000004e00058
:102798003200320017c9bf00e34f50002f003a0043
:1027a80018c9bf000004e0001500320010ca20005c
:1027b800104078008040e80010ca200001487800e6
:1027c80010ca2000104078000080fb006f006000f5
:1027d800e90f50000600340010ca2000904078002d
:1027e80000cfb30080c0600010ca20000148780004
:1027f80000ca200018190200010000001869ef0043
:10280800c4f52f00340f980005002000450f9800ec
:102818003e099000ce0990007e4090000080fb00a9
:10282800ef006000300520000088b9000000780043
:102838008000eb0000014100818149001e009000ea
:102848000007b00095c4b30000c2eb00ae009000d2
:1028580056f102000000000016003700c1f52f00f5
:10286800510f980004002000640f98005e09900042
:10287800ee0990007e4090000080fb00ef006000b1
:10288800300520000088b900000078008000eb00c7
:1028980000014100818149001e0090000007b0003e
:1028a8008042eb0000c2eb00ae00900056f102003f
:1028b80000000000e14a8000000220000080600063
:1028c8000000e0000300320000c0eb00004f780079
:1028d800020037000040eb00004f7800c5f52f00dc
:1028e800750f980001002000011798007e089000dd
:1028f8008e109000e4332000050020000401400001
:10290800858148002e009000e30040001e009000e2
:102918008003b0008042eb001e42780056f10200ae
:1029280000000000004b8000700060000000e00024
:1029380005003200f04a80004300de00614060007c
:1029480034e9b700020037003469ef001769ef0077
:1029580005a52f00151798000100200021179800e1
:102968001e109000ae109000840820000500200082
:1029780004014000858148002e0090008080e90015
:102988001e0090004010b0008042eb0000c2eb0037
:1029980056f102000000000005a52f003517980029
:1029a80001002000411798003e119000ce119000c0
:1029b8002e0090008080e9001e0090004011b000b9
:1029c8008042eb0000c2eb0056f10200000000005c
:1029d80034c9bf000004e0003600320017c9bf0048
:1029e800e44f500033003a0018c9bf000004e0006b
:1029f8001500320060ca200010407800f040400006
:102a080060ca20000148780060ca200010407800a1
:102a18000080fb004400de0000407800e94f5000d1
:102a28000500360060ca200010407800ef406000c2
:102a380060ca20000148780000ca20001819020066
:102a4800010000001869ef0004a52f005417980032
:102a580005002000651798005e119000ee119000a7
:102a68004e4890000080fb004400de0000407800e3
:102a78000080fb00ef006000400420000088b900df
:102a8800000078008000eb000001410081814900ce
:102a98002e0090008080e9001e0090004012b000d7
:102aa80095c4b30000c2eb0056f10200000000001c
:102ab8001a00370001a52f007117980004002000a4
:102ac800041f98007e1190008e1990004e489000c7
:102ad8000080fb004400de00004078000080fb001e
:102ae800ef006000400420000088b9000000780072
:102af8008000eb0000014100818149002e00900018
:102b08008080e9001e0090004012b0008042eb0077
:102b180000c2eb0056f102000000000034c9bf00fb
:102b28000004e0003300320017c9bf00e54f500031
:102b380030003a0018c9bf000004e0001500320058
:102b480060ca2000104078008040e80060ca200079
:102b58000148780060ca2000104078000080fb001f
:102b68006f006000e90f50000600340060ca2000c2
:102b78009040780000cfb30080c0600060ca200099
:102b88000148780000ca200018190200010000005e
:102b98001869ef0005a52f00151f980001002000f7
:102ba800211f98001e199000ae1990004e48900001
:102bb8000080fb00ef006000400420000088b9009e
:102bc800000078008000eb0000014100818149008d
:102bd8002e0090008080e9001e0090004013b00095
:102be80095c4b30000c2eb0056f1020000000000db
:102bf8001700370004a52f00341f98000500200097
:102c0800451f98003e199000ce1990004e4890003c
:102c18000080fb00ef006000400420000088b9003d
:102c2800000078008000eb0000014100818149002c
:102c38002e0090008080e9001e0090004013b00034
:102c48008042eb0000c2eb0056f1020000000000d9
:102c580001a52f00511f980004002000641f980050
:102c68005e199000ee1990004048200001002000f5
:102c780000014100818149002e0090008080e90018
:102c88001e0090004014b0008042eb0000c2eb0030
:102c980056f102000000000034c9bf000004e00043
:102ca8003600320017c9bf00e64f500033003a0023
:102cb80018c9bf000004e0001500320050ca200007
:102cc80010407800f040400050ca200001487800c9
:102cd80050ca2000104078000080fb004400de004d
:102ce80000407800e14f50000500360050ca20002f
:102cf80010407800ef40600050ca2000014878007a
:102d080000ca200018190200010000001869ef002d
:102d180005a52f00751f98000100200001279800c5
:102d28007e1990008e2190003e4890000080fb00a4
:102d38004400de00004078000080fb00ef006000e7
:102d4800400420000088b900000078008000eb00f3
:102d580000014100818149002e0090008080e90037
:102d68001e0090004015b00095c4b30000c2eb00ef
:102d780056f10200000000001a00370004a52f00d9
:102d88001427980005002000252798001e21900090
:102d9800ae2190003e4890000080fb004400de0019
:102da800004078000080fb00ef0060004004200035
:102db8000088b900000078008000eb0000014100a5
:102dc800818149002e0090008080e9001e0090005b
:102dd8004015b0008042eb0000c2eb0056f1020043
:102de8000000000034c9bf000004e00033003200d6
:102df80017c9bf00e74f500030003a0018c9bf009c
:102e08000004e0001500320050ca2000104078008d
:102e18008040e80050ca20000148780050ca2000cd
:102e2800104078000080fb006f006000e90f500040
:102e38000600340050ca20009040780000cfb3004c
:102e480080c0600050ca20000148780000ca2000f5
:102e580018190200010000001869ef0001a52f00f1
:102e68003127980004002000442798003e21900054
:102e7800ce2190003e4890000080fb00ef006000eb
:102e8800400420000088b900000078008000eb00b2
:102e980000014100818149002e0090008080e900f6
:102ea8001e0090004016b00095c4b30000c2eb00ad
:102eb80056f10200000000001700370005a52f009a
:102ec8005527980001002000612798005e21900096
:102ed800ee2190003e4890000080fb00ef0060006b
:102ee800400420000088b900000078008000eb0052
:102ef80000014100818149002e0090008080e90096
:102f08001e0090004016b0008042eb0000c2eb00ab
:102f180056f102000000000004a52f007427980055
:102f280005002000052f98007e2190008e29900032
:102f38004048200001002000000041008180490035
:102f48002e0190008283e9001e01900046172000a0
:102f5800020343008042eb0000c2eb000001be0008
:102f6800870078000600780056f102000000000093
:102f780034c9bf000004e0003a00320017c9bf009e
:102f8800e84f500037003a0018c9bf000004e000bd
:102f98001500320040ca200010407800f040400080
:102fa80040ca20000148780040ca2000104078003c
:102fb8000080fb004400de0000407800e34f500032
:102fc8000500360040ca200010407800ef4060003d
:102fd80040ca20000148780000ca200018190200e1
:102fe800010000001869ef0001a52f00112f9800bb
:102ff80004002000242f98001e299000ae2990007c
:103008002e4890000080fb004400de00004078005d
:103018000080fb00ef006000400420000088b90039
:10302800000078008000eb0000004100818049002a
:103038002e0190008283e9001e01900046182000ae
:103048000203430095c4b30000c2eb000001be00b8
:10305800870078000600780056f1020000000000a2
:103068001e00370005a52f00352f9800010020000d
:10307800412f98003e299000ce2990002e489000bc
:103088000080fb004400de00004078000080fb0068
:10309800ef006000400420000088b90000007800bc
:1030a8008000eb0000004100818049002e01900063
:1030b8008283e9001e0190004618200002034300a5
:1030c8008042eb0000c2eb000001be0087007800e0
:1030d8000600780056f102000000000034c9bf0065
:1030e8000004e0003700320017c9bf00e94f500064
:1030f80034003a0018c9bf000004e000150032008f
:1031080040ca2000104078008040e80040ca2000f3
:103118000148780040ca2000104078000080fb0079
:103128006f006000e90f50000600340040ca20001c
:103138009040780000cfb30080c0600040ca2000f3
:103148000148780000ca2000181902000100000098
:103158001869ef0004a52f00542f980005002000df
:10316800652f98005e299000ee2990002e48900067
:103178000080fb00ef006000400420000088b900d8
:10318800000078008000eb000000410081804900c9
:103198002e0190008283e9001e019000461920004c
:1031a8000203430095c4b30000c2eb000001be0057
:1031b800870078000600780056f102000000000041
:1031c8001b00370001a52f00712f98000400200074
:1031d800043798007e2990008e3190002e48900088
:1031e8000080fb00ef006000400420000088b90068
:1031f800000078008000eb00000041008180490059
:103208002e0190008283e9001e01900046192000db
:10321800020343008042eb0000c2eb000001be0045
:10322800870078000600780056f1020000000000d0
:103238004f06be004f05be004f04be000080fa00d6
:10324800000006000000fa00889fbe001ac9bf00ef
:103258000004e00018003a0010c0b3001ae9b700f3
:10326800004b80000040a000004b8800c2ef020025
:103278000000000094c4b3002300200002322000a4
:10328800810320000000eb0090f402000000000021
:103298008042eb00c4c1b30048fb210019002000a4
:1032a8000801be00e10120008016200056f102004e
:1032b800000000002c0037001ac9bf00e14f500081
:1032c80028003a0010c0b3001ae9b70000ca20006d
:1032d8001080fb0011ca20009180fb00c808dd00a7
:1032e800010070008000eb008000780020ca2000f8
:1032f8001080fb0032ca20001281fb004811dd005b
:10330800020070008001eb008001780040ca2000b4
:103318001080fb0052ca20001281fb004811dd001a
:10332800020070000002eb000002780060ca200072
:103338009082fb000000eb00f20f20000281620087
:1033480005f02f0005006000000071000101780001
:1033580080027800010f2000200d20001dfc0700ce
:10336800010037001a69ef00d04a80006800600049
:103378000000e0000c003200d04a80000030a100bc
:10338800d04a880017c9bf00e84f500004003e002b
:1033980017c9bf000040e80017e9b700020037006e
:1033a80090c0b30017e9b700d14a8000000420009c
:1033b800008060000000e0000b003200d04a80006e
:1033c8000060a100d04a880017c9bf000004e000cf
:1033d8000400320017c9bf000040e90017e9b70030
:1033e800010037001769ef00d04a800061006000d3
:1033f8000000e0000b003200d04a80000000a1006d
:10340800d04a8800004b8000700060000000e00097
:103418000300320010c0b30018e9b70001003700fc
:103428001869ef00f04a8000610060000000e000c9
:103438000a003200f04a80000000a100f04a88002b
:103448001969ef001a69ef00004b80000040a100e5
:10345800004b8800a0c0b30017e9b7004f04be00b6
:103468000080fa00000006000600fa00881f7800b5
:10347800100798002107980020032000000f78000b
:10348800d04780008000eb002c0302000000000001
:10349800d2cc2c00c3dc2300d603020000000000bd
:1034a800f002020000000000000f780081c12f0028
:1034b8001e8f4000f03120009e007800808f500061
:1034c8000200360000322000000f78001e0078004d
:1034d8008000eb0000c3eb008042eb0034c0b30077
:1034e8000001be00ae0090001e00900025f9070004
:1034f8001e0078000000e0001900320019c9bf0062
:103508000004e00016003a001e0078008000eb007e
:103518002c03020000000000a2702d0033052400d7
:10352800d6030200000000000200200003e0230090
:10353800d603020000000000f002020000000000b4
:1035480000007800c4c1b300c30120000001780066
:1035580081072000300e200090f4020000000000d7
:10356800f03120009e007800808f500030003e002f
:1035780019c9bf000004e0002d003a001e007800c1
:103588008000eb002c03020000000000a2702d0058
:1035980033052400d60302000000000002002000ca
:1035a80003e02300d6030200000000000001be0073
:1035b80000002800513a2400ac010200000000007d
:1035c800f002020000000000000478001e007800ed
:1035d8008000eb002c03020000000000a2702d0008
:1035e80033052400d603020000000000020020007a
:1035f80003e02300d60302000000000002002000c0
:1036080033362400ae01020000000000f002020080
:1036180000000000000078000042eb00c301200019
:10362800080178008107200090f4020000000000e3
:103638004f0478000080fa00000006000600fa0037
:10364800889fbe008a9fbe00100798002107980037
:1036580040062000000f7800e04780008000eb0063
:103668002c03020000000000d2cc2c00c3dc230095
:10367800d603020000000000f00202000000000073
:10368800000f7800703e20009e007800808f500068
:1036980079003e00803e20001e0f5000401f200091
:1036a8009e007800808f500002003600401f2000e6
:1036b800000f78001e0078008000eb0000c3eb00cc
:1036c8008042eb0034c0b3000001be00ae009000a1
:1036d8001e009000abf807002e009000e4004000a8
:1036e8001e009000740050008042eb0000c2eb0006
:1036f8008ad626001b0020000a01be0028f302001b
:10370800000000001e0078000000e00030003200d9
:1037180019c9bf000004e0002d003a001e0078001f
:103728008000eb002c0302000000000052b82e00bd
:1037380013fd2300d603020000000000d2cc2c00a9
:10374800c3e42300d60302000000000002002000aa
:1037580003f82300ae01020000000000f00202009e
:1037680000000000000478001e0078008000eb00d4
:103778002c0302000000000052b82e0013fd2300a5
:10378800d603020000000000d2cc2c00c3e42300c2
:10379800d6030200000000000001be00000028005f
:1037a800313c2400ac01020000000000f0020200dd
:1037b8000000000000007800c4c1b300c30120006d
:1037c80008017800f10a200090f4020000000000cf
:1037d800301f20009e007800808f500099003e0026
:1037e80019c9bf000004e00096003a001e007800e6
:1037f8008000eb002c0302000000000052b82e00ed
:1038080013fd2300d603020000000000d2cc2c00d8
:10381800c3e42300d6030200000000000001be003c
:103828000000200041322400ac010200000000002a
:10383800f002020000000000000078000042eb00e7
:10384800c301200000017800f10a2000300e20009a
:1038580090f40200000000000042eb00c3012000c9
:10386800520a2000f10a20009018200090f402006b
:10387800000000007300370081c12f001e8f400038
:10388800401f20009e007800808f50000200360004
:10389800401f2000000f78002e009000e400400038
:1038a8001e009000740050008042eb0000c2eb0044
:1038b80068d72600190020000801be0028f302007e
:1038c800000000001e0078008000eb0000c3eb0041
:1038d8008042eb0034c0b3000001be00ae0090008f
:1038e8001e00900027f807001e007800e30f500024
:1038f8001900360019c9bf000004e00016003a009c
:103908001e0078008000eb002c030200000000007d
:103918003233230033fd2300d603020000000000e9
:10392800d2cc2c00c3e42300d60302000000000020
:10393800f00202000000000000007800c4c1b300db
:10394800c301200000017800f10a2000901820002f
:1039580090f4020000000000301f20009e00780054
:10396800808f500037003e0019c9bf000004e000f6
:1039780034003a001e0078008000eb002c0302009f
:10398800000000003233230033fd2300d603020079
:1039980000000000d2cc2c00c3e42300d6030200b0
:1039a800000000000001be00000020005132240089
:1039b800ac01020000000000f0020200000000005c
:1039c800000478001e0078008000eb002c03020041
:1039d800000000003233230033fd2300d603020029
:1039e80000000000d2cc2c00c3e42300d603020060
:1039f8000000000002002800433c2400ae01020041
:103a080000000000f0020200000000000000780042
:103a18000042eb00c301200008017800f10a2000f1
:103a280090f40200000000000042eb00c3012000f7
:103a3800420a2000f10a2000300e200090f4020013
:103a4800000000004f05be004f04be000080fa00d1
:103a5800000006000200fa00881f780000c0eb0092
:103a6800004f780040c6b3001047980092c8bf00c6
:103a78000080fb00cf80de0026030200000000006b
:103a8800d2cc2c00c3ec2300d603020000000000b7
:103a9800f002020000000000104798009e409000cd
:103aa80030c6b30080cf50000200360040c6b300d5
:103ab800104798001e4090000004e0000c003200ff
:103ac800b0bc2000104078000080fb006800600057
:103ad8000000e0000300320000ceb300004f780081
:103ae80005003700c0c1b300004f7800020037005e
:103af8000040eb00004f78001e4090000080fb0063
:103b08008000eb0000c3eb008042eb0034c0b30040
:103b18000001be00410e20009024200099f7070004
:103b28001e4090000080fb00cf80de0026030200cc
:103b380000000000a2702d0033052400d603020007
:103b480000000000f0020200000000000000780001
:103b58001e427800c301200000017800610e200099
:103b6800300e200090f40200000000009e409000fb
:103b780030c6b30080cf500027003e001e409000a2
:103b88000080fb00cf80de0026030200000000005a
:103b9800a2702d0033052400d603020000000000a7
:103ba8000001be0000002800513a2400ac010200c8
:103bb80000000000f002020000000000000478008d
:103bc8001e4090000080fb00cf80de00260302002c
:103bd80000000000a2702d0033052400d603020067
:103be800000000000200200033362400ae0102006d
:103bf80000000000f0020200000000000000780051
:103c08000042eb00c301200008017800610e20008b
:103c180090f40200000000004f0478000080fa00d1
:103c280000000600c200fa00889fbe008a9fbe00fe
:103c38008c9fbe00c2ef02000000000094c4b300d5
:103c48002300200002322000e11a20000000eb00cf
:103c580090f402000000000094c4b3001300200098
:103c6800023220008000eb000000eb0090f402001c
:103c78000000000094c4b3001300200002322000aa
:103c8800210320000000eb0090f402000000000077
:103c980094c4b300130020006222200041062000d3
:103ca800a007200090f4020000000000100020008f
:103cb800000f78000b0037009e007800d00320002a
:103cc8000088b9000000780094c4b30023032000e2
:103cd800120020008000eb0090f4020000000000b9
:103ce8001e0fe8001e007800ec0f5000f2ff3600af
:103cf80020002000000f78000b0037009e0078009d
:103d0800d00320000088b9000000780094c4b300f4
:103d180023032000120020002103200090f4020059
:103d2800000000001e0fe8001e007800eb0f500096
:103d3800f2ff3600100a2000f0488800901020009a
:103d4800004988000000eb00000f78000c003700e5
:103d58001e0078007e00b9008000780000498000cd
:103d680080804000f048800094c4b3001300200015
:103d7800e21d200090f40200000000001e0fe80081
:103d88001e007800e40f5000f1ff3600100a2000f2
:103d9800f048880001498000f048800094c4b300ce
:103da800830720001200200090f4020000000000a9
:103db80070182000f048880001498000f048800011
:103dc80094c4b300830720001200200090f402007e
:103dd80000000000f0272000f0488800014980001a
:103de800f048800094c4b30083072000120020002c
:103df80090f40200000000000000eb00000f7800c3
:103e080005003700c0c520009e0040000040eb00c0
:103e1800804878001e0fe8001e007800f70f500059
:103e2800f8ff36008042eb0000c2eb00e86a24008d
:103e3800190020000801be00b1072000a00a2000d8
:103e480056f102000000000000c2eb002300200031
:103e5800f214200061072000100e200090f40200e8
:103e68000000000000c2eb0023002000f214200034
:103e780041092000100e200090f40200000000000c
:103e880000c2eb000302200022002000610720008e
:103e9800100e200090f402000000000000c2eb00a9
:103ea800a300200022002000c106200040132000ab
:103eb80090f402000000000000c2eb00a300200004
:103ec80022002000c10620007018200090f4020093
:103ed8000000000000c2eb00a30020002200200028
:103ee800c1062000a01d200090f402000000000080
:103ef80000c2eb000302200022002000610720001e
:103f0800e022200090f40200000000002a142100a2
:103f18001b0020000a00be008042eb0000c2eb003c
:103f28000001be0081062000d00d200056f10200dd
:103f3800000000002c1421001d0020000c00be0011
:103f4800020820000300200002004000838048008f
:103f58008042eb0000c2eb000001be008106200099
:103f68002022200056f10200000000002314210046
:103f78001307980011002000210798001e009000e8
:103f8800ae0090008042eb0000c2eb000001be00d2
:103f980081062000a022200056f102000000000047
:103fa80022142100320798001300200043079800cc
:103fb8003e009000ce0090008042eb0000c2eb0073
:103fc8000001be00810620002023200056f10200d7
:103fd800000000008042eb0000c2eb00c1c32600d5
:103fe8005107980012002000620798005e019000b7
:103ff800ee019000e10720000028200056f10200a1
:10400800000000008042eb0000c2eb00a370240017
:104018007307980011002000010f98007e0190009e
:104028008e099000210b2000a00a200056f1020002
:104038000000000000c2eb0023002000f214200062
:10404800d10a2000100e200090f4020000000000a9
:1040580000c2eb0023002000f2142000b10c200065
:10406800100e200090f402000000000000c2eb00d7
:104078000302200022002000d10a2000100e200098
:1040880090f402000000000000c2eb00a300200032
:1040980022002000310a20004013200090f4020082
:1040a8000000000000c2eb00a30020002200200056
:1040b800310a2000a01d200090f40200000000003a
:1040c80000c2eb000302200022002000d10a2000d9
:1040d800e022200090f402000000000000c2eb0083
:1040e8002300200082002000610a2000500d2000db
:1040f80090f402000000000022142100120f980022
:1041080013002000230f98001e089000ae089000ae
:1041180002052000030020000200400083804800c0
:104128008042eb0000c2eb000001be00f109200054
:10413800d00d200056f102000000000023142100d9
:10414800330f980011002000410f98003e0890009e
:10415800ce0890008042eb0000c2eb000001be00d8
:10416800f1092000500e200056f102000000000066
:1041780022142100520f980013002000630f9800aa
:104188005e089000ee0890008042eb0000c2eb0051
:104198000001be00f1092000d00e200056f10200f7
:1041a8000000000021142100710f98001200200067
:1041b800021798007e0890008e1090008042eb0055
:1041c80000c2eb000001be00f109200030182000f9
:1041d80056f102000000000000c2eb0003022000bc
:1041e80022002000d10a20007018200090f402005c
:1041f800000000002314210013179800110020006c
:10420800211798001e109000ae10900002052000a3
:104218000300200002004000838048008042eb0039
:1042280000c2eb000001be00f1092000202220009e
:1042380056f10200000000002314210033179800f3
:1042480011002000411798003e109000ce109000f9
:104258008042eb0000c2eb000001be00f109200023
:10426800a022200056f102000000000022142100c4
:104278005217980013002000631798005e109000f2
:10428800ee1090008042eb0000c2eb000001be007f
:10429800f10920002023200056f102000000000050
:1042a8008042eb0000c2eb00e1c5260071179800c0
:1042b80012002000021f98007e1190008e199000b5
:1042c800510b20000028200056f1020000000000d9
:1042d8008042eb0000c2eb0023332600131f980036
:1042e80011002000211f98001e199000ae1990009f
:1042f800910e2000d00a200056f1020000000000b4
:1043080000c2eb0023002000f2142000410e200020
:10431800100e200090f402000000000000c2eb0024
:1043280023002000f214200021102000100e20008d
:1043380090f402000000000000c2eb00030220001d
:1043480022002000410e2000100e200090f40200f0
:104358000000000000c2eb00a300200022002000a3
:10436800a10d20004013200090f40200000000007e
:1043780000c2eb00a300200022002000a10d2000b5
:104388007018200090f402000000000000c2eb004a
:10439800a300200022002000a10d2000a01d200065
:1043a80090f402000000000000c2eb0003022000ad
:1043b80022002000410e2000e022200090f402009c
:1043c8000000000022142100321f98001300200072
:1043d800431f98003e189000ce1890008042eb00d2
:1043e80000c2eb000001be00610d2000d00d2000ce
:1043f80056f102000000000021142100511f98000e
:1044080012002000621f98005e189000ee189000bd
:1044180070004000e08048008042eb0000c2eb00e2
:104428000001be00610d20002022200056f102008c
:104438000000000023142100731f980011002000c1
:10444800012798007e1890008e2090008042eb0093
:1044580000c2eb000001be00610d2000a022200078
:1044680056f10200000000002214210012279800d3
:1044780013002000232798001e209000ae209000f3
:104488008042eb0000c2eb000001be00610d20007d
:104498002023200056f10200000000008042eb00bb
:1044a80000c2eb0041cc2600312798001200200002
:1044b800422798003e219000ce219000c10e200096
:1044c8000028200056f1020000000000a00a200089
:1044d800f0488800e0182000004988000149800061
:1044e800f04880008042eb0000c2eb00631a240011
:1044f8005327980012002000622798005e21900040
:10450800ee21900056f102000000000001498000f1
:10451800f04880008002b0008042eb0000c2eb004f
:10452800e32524007327980012002000022f98002a
:104538007e2190008e29900056f1020000000000b4
:1045480000192000f048880001498000f0488000e8
:104558008042eb0000c2eb0023202400132f9800b8
:1045680012002000222f98001e299000ae299000ea
:1045780056f102000000000001498000f048800068
:104588008002b0008042eb0000c2eb00e32524006b
:10459800332f980012002000422f98003e299000e7
:1045a800ce29900056f102000000000050162000ad
:1045b800f048880001498000f04880008042eb0004
:1045c80000c2eb00e3542600532f9800120020008d
:1045d800622f98005e299000ee29900056f10200a3
:1045e80000000000d0252000f04888000149800024
:1045f800f04880008042eb0000c2eb00e354260044
:10460800732f980012002000023798007e2990002e
:104618008e31900056f10200000000009018200032
:10462800f0488800f0102000004988000149800007
:10463800f04880008042eb0000c2eb00635f24007a
:104648001337980012002000223798001e3190007e
:10465800ae31900056f102000000000001498000d0
:10466800f04880008002b0008042eb0000c2eb00fe
:10467800c3f4220033379800120020004237980014
:104688003e319000ce31900056f10200000000004b
:1046980001498000f04880000006b0008042eb002d
:1046a80000c2eb0063172500533798001200200062
:1046b800623798005e319000ee31900056f10200aa
:1046c8000000000001498000f0488000200eb00082
:1046d8008042eb0000c2eb0023ca26007337980023
:1046e80012002000023f98007e3190008e39900021
:1046f80056f102000000000000498000fe00400062
:10470800f04880008042eb0000c2eb00635f2400a9
:10471800133f980012002000223f98001e39900095
:10472800ae39900056f102000000000000498000f8
:10473800fe004000f04880008002b0008042eb009c
:1047480000c2eb0063172500333f980012002000d9
:10475800423f98003e399000ce39900056f1020051
:104768000000000000498000fe004000f048800082
:10477800200eb0008042eb0000c2eb0023ca2600e6
:10478800533f980012002000623f98005e39900065
:10479800ee39900056f10200000000000049800048
:1047a800c103200080804000f04880000080e800bd
:1047b8008042eb0000c2eb0023652400733f9800a1
:1047c80012002000028798007e3990008e819000a8
:1047d80056f102000000000000498000c1032000db
:1047e80080804000f04880008002b0008042eb00ea
:1047f80000c2eb00a3562500138798001200200082
:10480800228798001e819000ae81900056f1020028
:104818000000000000498000c103200080804000a3
:10482800f04880000005b0008042eb0000c2eb00b9
:1048380063172500338798001200200042879800ec
:104848003e819000ce81900056f1020000000000e9
:1048580000498000c103200080804000f0488000ab
:10486800200eb0008042eb0000c2eb0023ca2600f5
:104878005387980012002000628798005e8190009c
:10488800ee81900056f1020000000000004980000f
:10489800a105200080804000f04880000080e800ea
:1048a8008042eb0000c2eb00236524007387980068
:1048b80012002000028f98007e8190008e8990005f
:1048c80056f102000000000000498000a105200008
:1048d80080804000f04880008002b0008042eb00f9
:1048e80000c2eb00635c2500138f980012002000c3
:1048f800228f98001e899000ae89900056f1020020
:104908000000000000498000a105200080804000d0
:10491800f04880000005b0008042eb0000c2eb00c8
:1049280063172500338f980012002000428f9800eb
:104938003e899000ce89900056f1020000000000e8
:1049480000498000a105200080804000f0488000d8
:10495800200eb0008042eb0000c2eb0023ca260004
:10496800538f980012002000628f98005e89900093
:10497800ee89900056f1020000000000300a200085
:10498800f0488800f01020000049880001498000a4
:10499800f04880008042eb0000c2eb0003ac260028
:1049a800738f980012002000029798007e8990006b
:1049b8008e91900056f1020000000000014980002d
:1049c800f0488000700040008042eb0000c2eb001d
:1049d800236524001397980012002000229798005e
:1049e8001e919000ae91900056f102000000000068
:1049f800a3382100339798001100200041979800b0
:104a08003e919000ce91900001498000f0488000ce
:104a18008003b0008042eb0000c2eb0056f10200b8
:104a28000000000001498000f04880000006b00046
:104a38008042eb0000c2eb0062002500529798000c
:104a480013002000639798005e919000ee9190000b
:104a580056f102000000000000498000fe004000fe
:104a6800f04880008042eb0000c2eb00a214240052
:104a78007297980013002000039f98007e91900081
:104a88008e99900056f10200000000000049800055
:104a9800fe004000f04880008002b0008042eb0039
:104aa80000c2eb00e2502500129f9800130020007e
:104ab800239f98001e999000ae99900056f102002d
:104ac8000000000000498000c103200080804000f1
:104ad800f04880008042eb0000c2eb0062cf250066
:104ae800329f980013002000439f98003e99900041
:104af800ce99900056f102000000000000498000a5
:104b0800c103200080804000f04880008002b0008f
:104b18008042eb0000c2eb00e2252400529f98007f
:104b280013002000639f98005e999000ee99900012
:104b380056f102000000000000498000c003b000e8
:104b48008042eb0000c2eb00e1542600719f980000
:104b58001200200002a798007e9990008ea1900074
:104b680080007800e016200056f1020000000000e6
:104b78004f06be004f05be004f04be000080fa007d
:104b8800000006000400fa00881f78000040eb00cf
:104b9800004f78000000eb0010079800502220001a
:104ba800f0488800f010200000498800f28d2000ad
:104bb8001241780001498000f048800080c1eb0074
:104bc800dbf50700e28d20001241780000498000e3
:104bd800fe004000f048800080c1eb00d4f50700db
:104be800029020001241780000498000c103200093
:104bf80080804000f048800080c1eb00ccf50700c1
:104c0800829020001241780000498000a105200010
:104c180080804000f048800080c1eb00c4f50700a8
:104c2800d0122000f0488800f010200000498800c9
:104c380096c8bf000080fb008000eb000849800098
:104c4800f748800000c3eb008042eb0044c0b3008b
:104c58000001be00880078000700780022f40700f1
:104c68006bc8bf008080fb0000032000008060004c
:104c7800f00f50000f003200f00f500003003c000e
:104c88000000e00008003200130037000102200095
:104c9800810f50000a00320001032000810f5000ec
:104ca8000a0032000c003700c0c1b300004f780082
:104cb80009003700c0cfb300004f78000600370066
:104cc80000ceb300004f78000300370000ceb300d9
:104cd800004f780000000000604380008000eb0077
:104ce800024980007e044100f2488000f003510030
:104cf8001e4378008042eb0054c0b3000001be00a0
:104d08008800780007007800f7f3070099c8bf000b
:104d18000080fb006500b9000000780010079800cb
:104d28009e009000703e2000808f500002003600e8
:104d3800703e2000100798001e0090008000eb00d5
:104d480002498000c803200002044400f74880009c
:104d580000c3eb008042eb0044c0b3000001be007a
:104d68008800780007007800dff307004f04780018
:104d78000080fa00000006001c00fa00889fbe00b0
:104d88008a9fbe008c9fbe0090c4b3001047980055
:104d98000040eb0020479800c06480006800600075
:104da8000000e00012003200d142800040062000de
:104db800808f50000b003600e14a8000000220007e
:104dc800008060000000e0000300320000ceb30065
:104dd800104798000800370090c4b30010479800a7
:104de8000500370000ceb3001047980002003700d6
:104df80090c4b300104798008042eb001e42900018
:104e080082d2220013002000910320009008200085
:104e180056f10200000000006bc8bf008080fb0054
:104e280000032000008060000000e00003003a005a
:104e3800c0c1b300104798000200370090c4b30007
:104e4800104798008042eb001e429000686c2200d8
:104e5800190020000801be00f1032000a00b20006b
:104e680056f1020000000000c04b800062006000a4
:104e78000000e00003003200c0cfb30010479800e4
:104e88000200370090c4b30010479800e2c8bf0082
:104e98000004e0000300350000ceb300104798007e
:104ea8000200370090c4b300104798008042eb001e
:104eb8001e4290002aa725001b0020000a01be0000
:104ec80091032000b013200056f1020000000000fa
:104ed8008042eb001e429000ecac25001d00200033
:104ee8000c01be00d1042000b013200056f10200ce
:104ef80000000000e2c8bf000080fb006f006000f7
:104f0800ed0f500009003200ee0f50000c00320087
:104f18000000e0000f003a00c0c1b300104798003d
:104f28000040eb00004f78000f00370000ceb300c0
:104f38001047980010c0b300004f78000a003700ef
:104f4800c0c1b3001047980020c0b300004f7800dc
:104f58000500370090c4b300104798000040eb00ec
:104f6800004f780000000000e14921002107980067
:104f780012002000320798002e019000be01900018
:104f88009e80fb00900520000088b9000000780092
:104f98008000eb0000004100818049008042eb0066
:104fa8001e4290000001be00e1032000001820000e
:104fb80056f10200000000006ac8bf000080fb0034
:104fc800700060000000e00003003200c0c1b300c0
:104fd800104798000200370090c4b30010479800ab
:104fe8008042eb001e429000a30e26004307980063
:104ff80011002000510798004e019000de0190003a
:1050080001042000a01b200056f10200000000004f
:10501800e2c8bf000080fb00700060000000e000f4
:1050280003003200c0cfb3001047980002003700d9
:1050380090c4b300104798008042eb001e429000d5
:10504800a2b2250062079800130020007307980099
:105058006e019000fe01900091032000201f2000a7
:1050680056f1020000000000a1b92000010f9800cd
:1050780012002000120f98000e0890009e08900061
:105088003212200003002000020040008380480004
:105098008042eb001e4290000001be00d1042000b7
:1050a800201f200056f1020000000000a3b92000d4
:1050b800230f980011002000310f98002e0990004e
:1050c800be099000e2c8bf008080fb0000062000f7
:1050d800008060004580de00800078001006200017
:1050e8000088b900000078008000eb000000410053
:1050f800818049008042eb00c4c1b3000001be00ba
:1051080091032000f022200056f102000000000068
:10511800a2b92000420f980013002000530f9800f6
:105128004e089000de089000321220000300200094
:1051380002004000838048008042eb00c4c1b300f5
:105148000001be00d1042000f022200056f1020028
:10515800000000004f06be004f05be004f04be0011
:105168000080fa00000006002400fa00889fbe00b4
:105178008a9fbe008c9fbe0090c4b300004f780089
:10518800c04b8000680060000000e00003003200af
:1051980000ceb300004f78000200370090c4b3007f
:1051a800004f7800a04b8000680060000000e0001d
:1051b80003003a0000ceb300004f78000200370029
:1051c80090c4b300004f7800c0c52000104078009c
:1051d8009e4f500016003200c0c520001e487800bf
:1051e8008042eb001e427800a281220013002000ba
:1051f800710020009004200056f102000000000019
:1052080028142100190020000800be00700040008a
:10521800e08048008042eb001e4278000001be009a
:1052280001012000d005200056f102000000000016
:1052380040bd2000104078000004e0001400350054
:1052480050bd2000104078000080fb006200600024
:105258000000e0000e003a0070bd20001040780009
:105268008080fb0000042000008060000000e00057
:1052780007003a0080bd2000104078000080fb0045
:1052880061006000004078000004e0000300320084
:1052980000ceb300004f78000200370090c4b3007e
:1052a800004f78008042eb001e4278002abf22009f
:1052b8001b0020000a01be00a100200040082000b9
:1052c80056f1020000000000e14b800000002400bd
:1052d800008060000000e0000300320000ceb30050
:1052e800004f78000200370090c4b300004f7800e8
:1052f800a04b8000610060000000e0000300320065
:1053080000ceb300004f78000200370090c4b3000d
:10531800004f78008042eb001e4278008c3f22004c
:105328001d0020000c01be0071002000101020009c
:1053380056f1020000000000c0bc200010407800b8
:105348008080fb0000022000008060000000e00078
:105358000300320000ceb300004f7800020037008f
:1053680090c4b300004f78008042eb001e427800e2
:105378004179210021079800110020003107980089
:105388002e019000be0190007100200080132000c3
:1053980056f1020000000000e0bc20001040780038
:1053a8000080fb0061006000004078000004e0001d
:1053b8000300320000ceb300004f7800020037002f
:1053c80090c4b300004f78008042eb001e42780082
:1053d800416b2100410798001100200051079800f7
:1053e8004e019000de01900071002000501720004f
:1053f80056f10200000000008cc8bf00e14f5000c9
:1054080003003a0000ceb300004f780008003700d0
:105418008cc8bf00e24f500003003a0000c0eb0008
:10542800004f78000200370090c4b300004f7800a6
:105438008042eb001e42780021ab220061079800f1
:1054480011002000710798006e019000fe01900085
:1054580051002000b01b200056f10200000000009f
:105468006bc8bf008080fb00000320000080600044
:105478004480de00100798001e009000e20f5000e4
:10548800030032001e009000e30f500003003a00b2
:1054980000ceb300004f78000200370090c4b3007c
:1054a800004f78008042eb001e42780001c92200bc
:1054b800010f980011002000110f98000e099000ac
:1054c8009e099000a1002000201f200056f1020034
:1054d80000000000d0bc2000104078000080fb00d5
:1054e800620060000000e00003003a00c0cfb30093
:1054f800004f78000200370090c4b300004f7800d6
:105508008042eb001e427800e1db2200210f980068
:1055180011002000310f98002e099000be0990005c
:10552800b10020000023200056f102000000000016
:10553800f0648000680060000000e00003003200b2
:10554800c0cfb300004f78000200370090c4b3000a
:10555800004f78008042eb001e42780001ff2000d7
:10556800410f980011002000510f98004e0990003b
:10557800de099000110020005026200056f102009c
:1055880000000000a04b8000700060000000e000f8
:1055980003003a0000ceb300004f78000200370045
:1055a80090c4b300004f7800f0c520001040780088
:1055b8009e4f50001d003200f0c520001e487800a4
:1055c8008042eb001e427800218c2200610f980077
:1055d80011002000710f98006e099000fe099000dc
:1055e80071002000a02a200056f1020000000000ef
:1055f80021142100011798001100200011179800ac
:105608000e1090009e10900070004000e08048004e
:105618008042eb001e4278000001be00010120001c
:10562800e02b200056f10200000000004f06be00eb
:105638004f05be004f04be000080fa0000000600bf
:105648000000fa00881f7800d0102000f048880079
:10565800e018200000498800204080008000eb000e
:1056680008498000f748800000c3eb0015c0b3006c
:1056780044c0b3000001be0088007800070078002d
:1056880099f10700701e2000f04888003040800023
:1056980041408000a2002000030020003e040200d8
:1056a8000000000008498000f748800000c3eb00b4
:1056b8008042eb0074c0b3000001be00880078008f
:1056c8000700780088f107004f0478000080fa008e
:1056d800000006000000fa001ac9bf000004e0003c
:1056e80004003a0010c0b3001ae9b7004df90700ea
:1056f800360037001ac9bf00e14f500004003a00d5
:1057080020c0b3001ae9b7001efd07002f003700bc
:105718001ac9bf00e24f500004003a0030c0b3007d
:105728001ae9b70090fe0700280037001ac9bf0021
:10573800e34f500005003a0040c0b3001ae9b70033
:10574800bfff07008cfd0700200037001ac9bf0003
