:10000000007E040001000000A8010000A80100001B
:10001000A8010000A8010000A8010000A80100003C
:10002000A8010000A8010000A8010000A80100002C
:10003000A801000006E50000A8010000A8010000DA
:10004000A8010000E4290100A8010000A8010000A7
:10005000A8010000A8010000A8010000A8010000FC
:10006000A8010000A8010000582A0100A801000012
:10007000A8010000A8010000A801000006FC000083
:1000800008EB0000722A0100A8010000A80100008E
:10009000A801000086D70000A8010000A801000008
:1000A000A8010000A8010000A8010000A8010000AC
:1000B000A8010000A8010000A8010000A80100009C
:1000C00062DF0000A8010000A8010000A8010000F4
:0C00D000A8010000A8010000A801000029
:10010800A8010000A8010000A8010000A801000043
:10011800A8010000A8010000A8010000A801000033
:10012800A8010000A8010000A8010000A801000023
:10013800A8010000A8010000A8010000A801000013
:10014800A8010000A8010000A8010000A801000003
:10015800A8010000A8010000A8010000A8010000F3
:10016800A8010000A8010000A8010000A8010000E3
:10017800A8010000A8010000A8010000A8010000D3
:10018800A8010000A8010000A8010000A8010000C3
:10019800A8010000A8010000A8010000A8010000B3
:1001A800A8010000A8010000A8010000A8010000A3
:1001B800A8010000A8010000A8010000A801000093
:1001C800A8010000A8010000A8010000A801000083
:0401D800A80100007A
:10020000EF2E21000E7F22000E018800000000006A
:10021000000020000000E000020032000001200089
:10022000200288000C000700409D210011002000E2
:1002300011000700000020000000E0000200320072
:100240000000020000000000B208020001000000EF
:100250000040DA000000FE004440A90040232000D6
:100260000000E0000300320000002000A001880030
:100270004440A8000000060091018800800078003A
:100280000000EB0015003700E280400032A0B4000F
:100290009101BA00E280400032A0B4009102BA009D
:1002A000E280400032A0B4000002EB00472BDE00E9
:1002B000F507B200602CE10004003A000059EB00A1
:1002C0008301E900FDFF3E00040037006128E100E2
:1002D000010032000082EB000B00070011C3BA00DE
:1002E0001101BA000604E00003003A000200E00039
:1002F000E5FF3A0000000600F607B200960188000C
:1003000082007800F5FF37003159BA008301E90017
:100310000C0032002159BA008301E90008003200C4
:100320000400E00003003A00E280400032A0B40084
:10033000F5FF370011D9BA008301E900FAFF3A004E
:100340008100E800E180400032A0B4000000060017
:100350000040DA000000FE0003F0A200889FBE000B
:100360008A9FBE008C1F7800FA000700010133004D
:100370006450E1004F0032006420E100520032007E
:1003800003826C0007003B000905D0000306D00083
:10039000820F54000C065D0002003900020032009A
:1003A00089017800030678008582550004003D002D
:1003B0000003FD008103FD008502EA008B854200F9
:1003C000840F720002003B0060001000E080180003
:1003D0006011B8000005EB007A28E1000A0039003E
:1003E00006007800C75DDD00F707B2008780750062
:1003F0002D003700828171000A01780061056000DC
:100400008180D1000080D3008502E900F9FF3B0024
:10041000060440008784480002003B00600414008A
:10042000E0841C000988A300070032008A81710063
:1004300082817100610164008904D1000884D300C5
:100440008B05E800170037000978A30013003A0075
:100450000B00E000130034008B05E90008044400A1
:1004600089844C000A4474000978A3000D003A0006
:100470000B00E000070034008B05E900080444008D
:1004800089844C0001003A000B0020000978A30089
:10049000F7FF32000001EB0002003700828171009B
:1004A0000A017800700007000CF0A70001F0A0001E
:1004B000B90037006420E10002003A00838F6C002D
:1004C000B90033000801BE000200BE00B2003700D0
:1004D000889FBE008A9FBE008C1F78009D00070089
:1004E000A400330003866C006450E1002E0032004B
:1004F0006420E100330032006150E1002F0032003F
:100500006120E1003100320085855500EB07B00025
:1005100009002000080420000500370008044400FA
:1005200089844C000A0031000603430087834B0096
:100530000001530081815B00F8FF33000203BE001D
:100540000800A0000804440089844C00F6FF39002C
:10055000C639DD0083017300010032001300200062
:100560008904D1000884D3000998A3000500320053
:100570000800A7000300A0008904D1000884D3006C
:100580008B05E8008904D1000884D3000001EB004A
:100590000281D2003400070001F0A1000CF0A70096
:1005A00001F0A0007C0037006420E1007E003200F2
:1005B0000801BE000200BE00F7FF37006120E10025
:1005C000790032006000B800F3FF3700000020001F
:1005D00001F82700F0FF370014002000BC003700AE
:1005E000F4FF2F00BA0037000001BE0044000700EE
:1005F0000470A70003F0A10003F8A30013003A0061
:100600006509B10010003200090035006928E100D9
:100610000200350001002800000005000000400035
:10062000818048008502E900FCFF3A0000000600D6
:10063000F88F4200050035008100D1000080D30012
:100640008502E800FCFF3A00000006008000EB0095
:10065000000005004F89DE0082017800B7003700F6
:100660006011B800C500370081002000618055008E
:100670000B003D000B00200061FE2F000100E10097
:100680001D00340082817100610164008904D10081
:100690000884D3000000E800FAFF3A00710020004F
:1006A0006100640003007000020060000900320075
:1006B00061044400E0844C000988A5000500320074
:1006C0008B05E8006808E10002003A008904D100C7
:1006D0000884D300F20F20000258E10005003D001D
:1006E000C75DDD00F907B200898075000800780059
:1006F000000006000BF827008B00780000000500C2
:10070000C70ADE00F107B200F50FB20008003200A0
:10071000E1CF4200020032000170A0002400050079
:10072000810F70000100320004080500440005003C
:10073000810F700002003A00140005008502E900F4
:100740000000400081C04800FCFF3B000170A00099
:10075000240005000004BE00E9FF07000003BE00FE
:100760000405BE000200BE00E5FF0700844F7500CF
:10077000000006000200BE006450E10005003600E3
:100780006420E100020036000968A30001003A007D
:100790000800BE000160A0004F0678004F05BE00B3
:1007A0004F04BE0000000600F0FF2F00F1FF2700FD
:1007B000F9FF3700889FBE008A9FBE008C1F78001B
:1007C000E4FF0700EBFF330003866C006450E10098
:1007D000240032006420E100270032006150E10073
:1007E000220032006120E100210032008B854200AE
:1007F000EB07B1000134B800003AB8000804420029
:1008000089844A00013AB8000030B800888040006E
:1008100009014A00040033000000400081804800C4
:10082000020149008B05E900C909DD008301700060
:100830000100320013002000C814DE004814DD005F
:100840004709DE001200B200C808DE00088470000C
:1008500085FF070001F0A1000CF0A70001F0A00047
:10086000CDFF37006120E100CFFF32000801BE005C
:100870000200BE00F7FF37006150E100FCFF3A00C4
:10088000C9FF37006022B800060220000000D00037
:100890008180D2000482D2008582D2000000A000B4
:1008A0000202520083825A00030031000202420019
:1008B00083824A000000A1000603E900F3FF3A002A
:1008C00000000600EFFF07000400BE000000060065
:1008D000889FBE008A9FBE00841F78009DFF07008E
:1008E0004F00780011003300F0FF2F00838F6C0061
:1008F00006003B00040565000A00A7000800370059
:1009000009F0A6001000200008003700820F5400F4
:10091000838F5C00030039001000200001003E00BE
:100920000000200009F0A7000000EA004F05BE000B
:100930004F04BE000000E00000000600881F7800A1
:10094000030478000300E00007003D006000100091
:10095000E080180060011900E081190002003B00EE
:1009600001F02D00030037000400070008F0A70085
:1009700001F0A0004F04780000000600889FBE0030
:100980008A9FBE0000827000040271000482710020
:10099000260032000004BE000200BE006011B80054
:1009A0006B092000950220000182CF000A00390067
:1009B0000541B1000082CF00070039000541B100B8
:1009C0000982CF00040039000541B1000882CF0040
:1009D000010039000541B100054252001200320009
:1009E0000A003B0082817100610164008100D10036
:1009F0000080D3008984D3000884D3008B05E800ED
:100A00000442E800F7FF3A000700370008044400FA
:100A100089844C0000004800818048008B05E90073
:100A20000442E900F9FF3A000FFF07004F05BE003E
:100A30004F04BE000000060020000000120000006D
:100A4000210000001300000022000000140000003C
:100A50002300000015000000240000001600000024
:100A6000250000001700000026000000180000000C
:100A700027000000290000001100000019000000FC
:100A8000280000001A00000000000000880000009C
:100A900000000000000000000000000078000000DE
:100AA00000000000A00000000000000000000000A6
:100AB0000000000000000000000000000000000036
:100AC0005602000000000000560200000000000076
:100AD000000000000000000001000000090000000C
:100AE000020000000A000000030000000B000000EC
:100AF000040000000C000000050000000D000000D4
:100B0000060000000E000000070000002A000000A0
:100B10000800000011000000100000001F0000008D
:100B20000000000000000000200000001200000093
:100B3000210000001300000022000000140000004B
:100B40002300000015000000240000001600000033
:100B5000250000001700000026000000180000001B
:100B6000270000002900000011000000190000000B
:100B7000280000001A000000B000000088000000FB
:100B80000000000088000000000000008800000055
:100B900000000000780000000000000000000000DD
:100BA0002C02000000000000000000000000000017
:100BB0000000000000000000000000000000000035
:100BC000000000000000000001000000090000001B
:100BD000020000000A000000030000000B000000FB
:100BE000040000000C000000050000000D000000E3
:100BF000060000000E000000070000002A000000B0
:100C00000800000011000000100000001F0000009C
:100C100000000000000000002000000012000000A2
:100C2000210000001300000022000000140000005A
:100C30002300000015000000240000001600000042
:100C4000250000001700000026000000180000002A
:100C5000270000002900000011000000190000001A
:100C6000280000001A000000010000000900000038
:100C7000020000000A000000030000000B0000005A
:100C8000040000000C000000050000000D00000042
:100C9000060000000E000000070000002A0000000F
:100CA0000800000011000000100000001F000000FC
:100CB000000000000000000008070000060500001A
:100CC00004030000020100000F0A000009130000E5
:100CD00012000000000000001100000012000000DF
:100CE00013000000140000001C0000001B000000A6
:100CF0001A00000019000000200000001F00000082
:100D00001E0000001D0000000100000002000000A5
:100D10000300000004000000050000000A000000BD
:100D2000140000000D000000A0000000760000008C
:100D3000000000000000000000000000880000002B
:100D40008800000088000000000000000000000093
:100D50000000000000000000000000000000000093
:100D6000000000000000000000000000440200003D
:100D70001C0200002C020000040000000300000020
:100D80000200000001000000050000000600000055
:100D90000700000008000000090000000A00000031
:100DA0000B0000000C0000000D0000000E00000011
:100DB0000F000000100000001500000016000000E9
:100DC00017000000180000009A000000000000005A
:100DD00000000000880000009A0000007800000079
:100DE00088000000880000008800000088000000E3
:100DF0001C0200000000000000000000440200008F
:100E00004402000044020000000000000000000056
:100E1000000000002C0200004D5500004943000076
:100E200000480000464D00005A4B00004A000000F8
:100E30004D610000722000003137000020320000B8
:100E40003031000037000000313000003A3400003B
:100E5000353A00003338000000500000696E000091
:100E600067730000686500006E670000204D000099
:100E7000616F000000560000312E0000302E00008F
:100E8000300000006D700000737A00006D400000BB
:100E900031320000362E0000636F00006D0000004C
:100EA0001800FA00889FBE008A9FBE008C1F780041
:100EB0006007980071079800020F9800130F9800C0
:100EC00044579800555798006657980010C0B300D3
:100ED000104798000040EB00204798000040EB00CE
:100EE000204798001A0037004E5090008080FB0089
:100EF0002E4090000080FB00008050000006E900BA
:100F00000E0890009E089000A20020000300200020
:100F10006204020000000000804078000C004700DE
:100F2000314098000E0890009E089000A20020001A
:100F3000030020004204020000000000000F98009F
:100F4000110F98002E4090000040E80020479800C4
:100F5000AE4090004E50900080CF5000E2FF39002C
:100F60000040EB0020479800120037004E509000E0
:100F70008080FB002E4090000080FB00008050002D
:100F8000CE5090008180FB000101E900AE4090004E
:100F90008180FB008100510081004700B14090003A
:100FA00000004700314098002E4090000040E800CB
:100FB00020479800AE4090005E50900080CF5000D7
:100FC000EAFF39004E5090008080FB005E50900098
:100FD0000080FB00008050000000470001C1B3000A
:100FE000314098005E5090000004E0004000320064
:100FF0000040EB0020479800380037001E4090006A
:101000000004E000150032002E4090000080FB003C
:1010100000004700304090000004E0000F003A005C
:101020002E4090008080FB004E5090000080FB001E
:101030000001E9005E5090000080FB0000005100BC
:10104000808F500005003D0010C0B300104798008D
:101050000040EB00004F7800040037000040EB0038
:1010600010479800EE509000014F78000A0C2200C3
:101070001B0020000A01BE002E4090000080FB00F3
:1010800000004700304090000080FB004400DD007D
:101090008000EB0000004100818049002E4190005B
:1010A0000281FB004311DD00820178006E01900097
:1010B000028341008042EB001E4278000001BE0026
:1010C000FE009000060078003600020001000000DB
:1010D0002E4090000040E80020479800AE4090006D
:1010E0004E50900080CF5000C4FF36003C003700C7
:1010F0000040EB0020479800350037001E4090006C
:101100000004E000120032002E4090000080FB003E
:1011100000004700304090000004E0000C003A005E
:101120002E4090008080FB004E5090000080FB001D
:101130000000E900808F500005003D0010C0B300A2
:10114000104798000040EB00004F78000400370083
:101150000040EB0010479800EE509000014F7800DF
:10116000080C2200190020000801BE002E4090004B
:101170000080FB0000004700304090000080FB0032
:101180004400DD008000EB00000041008180490048
:101190002E4190000281FB004311DD0082017800A6
:1011A0006E019000028341008042EB001E427800F5
:1011B0000001BE00FE00900006007800360002002C
:1011C000010000002E4090000040E80020479800F9
:1011D000AE4090004E50900080CF5000C7FF3900C5
:1011E0004F0678004F05BE004F04BE000080FA0095
:1011F000000006001800FA00889FBE008A9FBE000B
:101200008C1F78006007980071079800020F980003
:10121000130F980044579800555798006657980048
:1012200010C0B300104798000040EB002047980022
:101230000040EB00204798001A0037004E50900005
:101240008080FB002E4090000080FB00008050005A
:101250000006E9000E0890009E089000A200200001
:1012600003002000620402000000000080407800BB
:101270000C004700314098000E0890009E08900036
:10128000A200200003002000420402000000000031
:10129000000F9800110F98002E4090000040E800C9
:1012A00020479800AE4090004E50900080CF5000F4
:1012B000E2FF39000040EB002047980012003700A1
:1012C0004E5090008080FB002E4090000080FB007C
:1012D00000805000CE5090008180FB000101E900A9
:1012E000AE4090008180FB008100510081004700EA
:1012F000B140900000004700314098002E4090001F
:101300000040E80020479800AE4090005E509000FA
:1013100080CF5000EAFF39004E5090008080FB00E3
:101320005E5090000080FB000080500000004700ED
:1013300001C1B300314098005E5090000004E0000D
:10134000420032000040EB00204798003A0037008E
:101350001E4090000004E000150032002E40900076
:101360000080FB0000004700304090000004E000D7
:101370000F003A002E4090008080FB004E509000FD
:101380000080FB000001E9005E5090000080FB003F
:1013900000005100808F500005003D0010C0B300D8
:1013A000104798000040EB00004F78000400370021
:1013B0000040EB0010479800EE509000014F78007D
:1013C0006A3A20001B0020000A01BE002E40900057
:1013D0000080FB0000004700304090008080FB0050
:1013E000400420000088B900000078008000EB0075
:1013F00000004100818049002E4190000281FB00E5
:101400004411DD00820178006E01900002834100EA
:101410008042EB001E4278000001BE00FE009000FA
:101420000600780036000200010000002E40900007
:101430000040E80020479800AE4090004E509000D9
:1014400080CF5000C2FF36003E0037000040EB0066
:1014500020479800370037001E4090000004E0004D
:10146000120032002E4090000080FB000000470078
:10147000304090000004E0000C003A002E40900044
:101480008080FB004E5090000080FB000000E900CF
:10149000808F500005003D0010C0B3001047980039
:1014A0000040EB00004F7800040037000040EB00E4
:1014B00010479800EE509000014F7800683A2000E5
:1014C000190020000801BE002E4090000080FB00A3
:1014D00000004700304090008080FB004004200066
:1014E0000088B900000078008000EB000000410097
:1014F000818049002E4190000281FB004411DD00F3
:10150000820178006E019000028341008042EB006E
:101510001E4278000001BE00FE0090000600780028
:1015200036000200010000002E4090000040E8005C
:1015300020479800AE4090004E50900080CF500061
:10154000C5FF39004F0678004F05BE004F04BE00AE
:101550000080FA00000006001800FA00889FBE0014
:101560008A9FBE008C1F7800600798007107980062
:10157000020F9800130F9800445798005557980091
:101580006657980010C0B300104798000040EB0069
:10159000204798000040EB00204798001A003700D1
:1015A0004E5090008080FB002E4090000080FB0099
:1015B000008050000006E9000E0890009E08900090
:1015C000A2002000030020006204020000000000CE
:1015D000804078000C004700314098000E089000D1
:1015E0009E089000A2002000030020004204020098
:1015F00000000000000F9800110F98002E4090008E
:101600000040E80020479800AE4090004E50900007
:1016100080CF5000E2FF39000040EB0020479800E7
:10162000120037004E5090008080FB002E4090004A
:101630000080FB0000805000CE5090008180FB00B5
:101640000101E900AE4090008180FB008100510063
:1016500081004700B14090000000470031409800F1
:101660002E4090000040E80020479800AE409000D7
:101670005E50900080CF5000EAFF39004E5090003D
:101680008080FB005E5090000080FB0000805000D6
:1016900000004700A1C0B300314098005E509000A8
:1016A0000004E000420032000040EB0020479800B8
:1016B0003A0037001E4090000004E00015003200A0
:1016C0002E4090000080FB0000004700304090005A
:1016D0000004E0000F003A002E4090008080FB00E4
:1016E0004E5090000080FB000001E9005E50900029
:1016F0000080FB0000005100808F500005003D007D
:1017000010C0B300104798000040EB00004F780075
:10171000040037000040EB0010479800EE509000A6
:10172000014F78002A4721001B0020000A01BE005B
:101730002E4090000080FB000000470030409000E9
:101740008080FB00600220000088B9000000780063
:101750008000EB0000004100818049002E41900094
:101760000281FB004411DD00820178006E019000CF
:10177000028341008042EB001E4278000001BE005F
:10178000FE00900006007800360002000100000014
:101790002E4090000040E80020479800AE409000A6
:1017A0004E50900080CF5000C2FF36003E00370000
:1017B0000040EB0020479800370037001E409000A3
:1017C0000004E000120032002E4090000080FB0078
:1017D00000004700304090000004E0000C003A0098
:1017E0002E4090008080FB004E5090000080FB0057
:1017F0000000E900808F500005003D0010C0B300DC
:10180000104798000040EB00004F780004003700BC
:101810000040EB0010479800EE509000014F780018
:1018200028472100190020000801BE002E4090002A
:101830000080FB0000004700304090008080FB00EB
:10184000600220000088B900000078008000EB00F2
:1018500000004100818049002E4190000281FB0080
:101860004411DD00820178006E0190000283410086
:101870008042EB001E4278000001BE00FE00900096
:101880000600780036000200010000002E409000A3
:101890000040E80020479800AE4090004E50900075
:1018A00080CF5000C5FF39004F0678004F05BE00BD
:1018B0004F04BE000080FA00000006001000FA008D
:1018C000889FBE005007980061079800624F9800FB
:1018D0000040EB00004F78000040EB00004F780024
:1018E000240037001E80FB00EE489000E1C060003D
:1018F00000004700114098006E4890000080FB00F7
:101900000000D100604F98002847210019002000F6
:101910000801BE001E80FB00000047001040900040
:101920008080FB00600220000088B9000000780081
:101930008000EB0000004100818049001E81FB0017
:10194000670111004411DD00820178005E01900002
:10195000028341008042EB0000C2EB000001BE00A8
:10196000EE00900006007800360002000100000042
:101970001E4FE8001E407800E74F5000D9FF3600A8
:101980004F04BE000080FA00000006001800FA00B4
:10199000889FBE008A9FBE0060079800710798006C
:1019A000020F9800130F980044579800555798005D
:1019B0006657980010C0B300104798000040EB0035
:1019C000204798000040EB002047980016003700A1
:1019D0004E5090008080FB002E4090000080FB0065
:1019E000008050000000E9008E08900081407800DF
:1019F000EFC0600000004700314098000E089000E2
:101A00009E0890004C09DD004400DE0000007100DB
:101A1000C408DE00000F9800110F98002E409000BF
:101A20000040E80020479800AE4090004E509000E3
:101A300080CF5000E6FF39000040EB0020479800BF
:101A4000120037004E5090008080FB002E40900026
:101A50000080FB0000805000CE5090008180FB0091
:101A60000101E900AE4090008180FB00810051003F
:101A700081004700B14090000000470031409800CD
:101A80002E4090000040E80020479800AE409000B3
:101A90005E50900080CF5000EAFF39004E50900019
:101AA0008080FB005E5090000080FB0000805000B2
:101AB0000000470001C1B300314098005E50900023
:101AC0000004E000420032000040EB002047980094
:101AD0003A0037001E4090000004E000150032007C
:101AE0002E4090000080FB00000047003040900036
:101AF0000004E0000F003A002E4090008080FB00C0
:101B00004E5090000080FB000001E9005E50900004
:101B10000080FB0000005100808F500005003D0058
:101B200010C0B300104798000040EB00004F780051
:101B3000040037000040EB0010479800EE50900082
:101B4000014F78006A3A20001B0020000A01BE0005
:101B50002E4090000080FB000000470030409000C5
:101B60008080FB00400420000088B900000078005D
:101B70008000EB0000004100818049002E41900070
:101B80000281FB004411DD00820178006E019000AB
:101B9000028341008042EB001E4278000001BE003B
:101BA000FE009000060078003600020001000000F0
:101BB0002E4090000040E80020479800AE40900082
:101BC0004E50900080CF5000C2FF36003E003700DC
:101BD0000040EB0020479800370037001E4090007F
:101BE0000004E000120032002E4090000080FB0054
:101BF00000004700304090000004E0000C003A0074
:101C00002E4090008080FB004E5090000080FB0032
:101C10000000E900808F500005003D0010C0B300B7
:101C2000104798000040EB00004F78000400370098
:101C30000040EB00104798006E519000024F780072
:101C4000683A2000190020000801BE002E409000D4
:101C50000080FB0000004700304090008080FB00C7
:101C6000400420000088B900000078008000EB00EC
:101C700000004100818049002E4190000281FB005C
:101C80004411DD00820178006E0190000283410062
:101C90008042EB001E4278000001BE00FE00900072
:101CA0000600780036000200010000002E4090007F
:101CB0000040E80020479800AE4090004E50900051
:101CC00080CF5000C5FF39004F05BE004F04BE0055
:101CD0000080FA00000006000C00FA00000F7800F7
:101CE00011079800220798003307980044079800CE
:101CF000254F98002E0090004300DD002E4A9000F2
:101D0000CE019000000178009E0090001E00780037
:101D100070030200010000002E009000C300DD00EF
:101D20001E0190003E009000000041002E4A9000ED
:101D3000CE01900001017800800078001E0078003C
:101D400070030200010000002E4A9000BE019000C6
:101D50004E0190009E0090001E007800700302006B
:101D6000010000002E0090004300DD001E00400036
:101D70000080E9002E4A9000BE0190004E019000C4
:101D80009E00900070030200010000000080FA0035
:101D9000000006001800FA00889FBE005007980057
:101DA0006107980072079800030F9800140F9800BD
:101DB000455798000040EB00004F78000040EB00D2
:101DC0001047980064004700020009000018EB006B
:101DD0000000EB00100798000000EB0010079800CF
:101DE000150037001E00900065001000300F9800AD
:101DF0007E019000A10020008101780011000900FF
:101E00000381D800814078003E099000020047001D
:101E100041409800FE009000A00020008001780062
:101E2000110009008380D800700798001E00900000
:101E30000000E800100798009E0090000E08900037
:101E4000808F5000E7FF39000040EB00004F780022
:101E50000E08900066001000100798000A00370076
:101E6000E40047001E009000008040001040780011
:101E70000004E00008003A001E4FE8001E00900039
:101E80000000E800100798001E009000E40F5000CA
:101E9000F3FF360001003700000000009E80FB00C9
:101EA0000E089000808F500004003A001E08900039
:101EB00000407800004F9800080037009E80FB002B
:101EC0000E08900000805000650040009E089000C1
:101ED0008140780000004700414098000000EB007E
:101EE000100798002D0037009E0090000E0890000B
:101EF00000805000E50040001E81FB000E089000AD
:101F00000000510065004000808F50000300310048
:101F10000040EB0010479800020037004E50900040
:101F20001047980028472100190020000801BE0032
:101F30009E0090000E089000008050006500400058
:101F400000004700404090008080FB0060022000BD
:101F50000088B900000078008000EB00000041001C
:101F6000818049001E019000C411DD005E019000D7
:101F7000028341008042EB001E4290000001BE003F
:101F8000EE0090000600780036000200010000001C
:101F90001E0090000000E800100798000E08900056
:101FA0008000E8001E009000808F5000CEFF3E00B1
:101FB0004F04BE000080FA00000006000800FA008E
:101FC000100798002107980062479800734798000F
:101FD0000040EB00004F78006E409000E14F400061
:101FE00002003A000040EB0070479800EE4090007D
:101FF00070C2B30080CF500007003600EE40900062
:1020000080CDB30000C0400060479800C0C0B3005E
:10201000004F78000600370081C2B3006E40900088
:1020200000C0500060479800B0C0B300004F780077
:102030009E80FB006E4090000080FB00FE429000FE
:10204000010278003300200000017800AE0090000B
:102050001E0090004FFF07000080FA0000000600FD
:102060006200FA00889FBE008A9FBE008C9FBE005F
:10207000100798002107980032079800430798003E
:1020800054079800650798000040EB00004F780067
:1020900060C9BF000004E0003200320041C9BF0047
:1020A0000004E0002F003A0042C9BF000004E00035
:1020B00015003200802E210010407800F0404000D2
:1020C000802E210001487800802E210010407800E9
:1020D0000080FB004400DE0000407800E24F50002A
:1020E00005003600802E210010407800EF4060008F
:1020F000802E210001487800602E2100C6270200B2
:10210000010000004269EF0068D92000190020009A
:102110000801BE000E4890000080FB004400DE0075
:10212000004078000080FB00EF00600030052000D8
:102130000088B900000078008000EB00000041003A
:102140008180490095C4B30000C2EB000001BE00CD
:10215000AE0090001E00900036000200010000005A
:102160001600370066D92000170020000601BE00C7
:102170000E4890000080FB004400DE000040780024
:102180000080FB00EF006000300520000088B900EF
:10219000000078008000EB000000410081804900D1
:1021A0008042EB0000C2EB000001BE00AE009000D8
:1021B0001E009000360002000100000060C9BF0050
:1021C0000004E0002F00320041C9BF00E14F500081
:1021D0002C003A0042C9BF000004E00015003200A4
:1021E000802E2100104078008040E800802E2100E1
:1021F00001487800802E2100104078000080FB000C
:102200006F006000E90F500006003400802E2100AE
:102210009040780000CFB30080C06000802E210085
:1022200001487800602E2100C6270200010000004E
:102230004269EF006CD920001D0020000C01BE0097
:102240000E4890000080FB00EF0060003005200089
:102250000088B900000078008000EB000001410018
:10226000818149001E0090007C00400095C4B300AD
:1022700000C2EB00AE00900036000200010000003A
:10228000130037006AD920001B0020000A01BE009D
:102290000E4890000080FB00EF0060003005200039
:1022A0000088B900000078008000EB0000014100C8
:1022B000818149001E0090007C0040008042EB00BC
:1022C00000C2EB00AE0090003600020001000000EA
:1022D00060C9BF000004E0003500320041C9BF0002
:1022E000E24F500032003A0042C9BF000004E00053
:1022F00015003200702E210010407800F0404000A0
:10230000702E210001487800702E210010407800C6
:102310000080FB004400DE0000407800E54F5000E4
:1023200005003600702E210010407800EF4060005C
:10233000702E210001487800602E2100C62702007F
:10234000010000004269EF0061D920007107980088
:1023500014002000040F98007E0190008E09900068
:102360007E4090000080FB004400DE0000407800CA
:102370000080FB00EF006000300520000088B900FD
:10238000000078008000EB000001410081814900DD
:102390001E0090004005B00095C4B30000C2EB00E1
:1023A000AE00900036000200010000001900370066
:1023B00065D92000150F980011002000210F98000A
:1023C0001E099000AE0990007E4090000080FB0046
:1023D0004400DE00004078000080FB00EF00600059
:1023E000300520000088B900000078008000EB0074
:1023F00000014100818149001E0090004005B000AD
:102400008042EB0000C2EB00AE00900036000200FC
:102410000100000060C9BF000004E000320032008B
:1024200041C9BF00E34F50002F003A0042C9BF002E
:102430000004E00015003200702E210010407800EA
:102440008040E800702E210001487800702E2100A5
:10245000104078000080FB006F006000E90F500022
:1024600006003400702E21009040780000CFB300A9
:1024700080C06000702E210001487800602E21008D
:10248000C6270200010000004269EF0064D9200065
:10249000340F980015002000450F98003E09900069
:1024A000CE0990007E4090000080FB00EF006000AD
:1024B000300520000088B900000078008000EB00A3
:1024C00000014100818149001E0090000007B0001A
:1024D00095C4B30000C2EB00AE00900036000200CD
:1024E000010000001600370061D92000510F98004C
:1024F00014002000640F98005E099000EE0990001F
:102500007E4090000080FB00EF006000300520005E
:102510000088B900000078008000EB000001410055
:10252000818149001E0090000007B0008042EB004E
:1025300000C2EB00AE009000360002000100000077
:10254000514C800000022000008060000000E0008C
:102550000300320000C0EB00004F7800020037009B
:102560000040EB00004F780065D92000750F9800FF
:1025700011002000011798007E0890008E10900036
:10258000E43320000500200004014000858148005C
:102590002E009000E30040001E0090008003B00079
:1025A0008042EB001E42780036000200010000006D
:1025B000704C8000700060000000E00005003200F8
:1025C000604C80004300DE006140600060E9B700BD
:1025D000020037006069EF004169EF00653A2000B2
:1025E0001517980011002000211798001E10900068
:1025F000AE10900084082000050020000401400077
:10260000858148002E0090008080E9001E00900027
:102610004010B0008042EB0000C2EB003600020028
:1026200001000000653A20003517980011002000D5
:10263000411798003E119000CE1190002E0090009E
:102640008080E9001E0090004011B0008042EB0045
:1026500000C2EB00360002000100000060C9BF00AC
:102660000004E0003600320041C9BF00E44F5000D2
:1026700033003A0042C9BF000004E00015003200F8
:10268000C02E210010407800F0404000C02E2100F4
:1026900001487800C02E2100104078000080FB0027
:1026A0004400DE0000407800E94F5000050036008D
:1026B000C02E210010407800EF406000C02E2100A5
:1026C00001487800602E2100C627020001000000AA
:1026D0004269EF00643A200054179800150020006A
:1026E000651798005E119000EE1190004E48900022
:1026F0000080FB004400DE00004078000080FB000A
:10270000EF006000400420000088B900000078005D
:102710008000EB0000014100818149002E00900003
:102720008080E9001E0090004012B00095C4B30004
:1027300000C2EB0036000200010000001A00370062
:10274000613A20007117980014002000041F9800BF
:102750007E1190008E1990004E4890000080FB0082
:102760004400DE00004078000080FB00EF006000C5
:10277000400420000088B900000078008000EB00D1
:1027800000014100818149002E0090008080E90015
:102790001E0090004012B0008042EB0000C2EB002F
:1027A000360002000100000060C9BF000004E00024
:1027B0003300320041C9BF00E54F500030003A00FD
:1027C00042C9BF000004E00015003200C02E210005
:1027D000104078008040E800C02E210001487800B9
:1027E000C02E2100104078000080FB006F006000C8
:1027F000E90F500006003400C02E21009040780000
:1028000000CFB30080C06000C02E210001487800D6
:10281000602E2100C6270200010000004269EF007F
:10282000653A2000151F980011002000211F980014
:102830001E199000AE1990004E4890000080FB00D9
:10284000EF006000400420000088B900000078001C
:102850008000EB0000014100818149002E009000C2
:102860008080E9001E0090004013B00095C4B300C2
:1028700000C2EB0036000200010000001700370024
:10288000643A2000341F980015002000451F98006E
:102890003E199000CE1990004E4890000080FB0039
:1028A000EF006000400420000088B90000007800BC
:1028B0008000EB0000014100818149002E00900062
:1028C0008080E9001E0090004013B0008042EB00C1
:1028D00000C2EB003600020001000000613A200057
:1028E000511F980014002000641F98005E1990008A
:1028F000EE19900040482000010020000001410036
:10290000818149002E0090008080E9001E00900027
:102910004014B0008042EB0000C2EB003600020021
:102920000100000060C9BF000004E0003600320072
:1029300041C9BF00E64F500033003A0042C9BF0012
:102940000004E00015003200B02E21001040780095
:10295000F0404000B02E210001487800B02E210048
:10296000104078000080FB004400DE00004078004A
:10297000E14F500005003600B02E210010407800D5
:10298000EF406000B02E210001487800602E210049
:10299000C6270200010000004269EF00653A2000EE
:1029A000751F980011002000012798007E199000E3
:1029B0008E2190003E4890000080FB004400DE0025
:1029C000004078000080FB00EF0060004004200021
:1029D0000088B900000078008000EB000001410091
:1029E000818149002E0090008080E9001E00900047
:1029F0004015B00095C4B30000C2EB0036000200E1
:102A0000010000001A003700643A200014279800E3
:102A100015002000252798001E219000AE2190006F
:102A20003E4890000080FB004400DE00004078003B
:102A30000080FB00EF006000400420000088B90027
:102A4000000078008000EB00000141008181490016
:102A50002E0090008080E9001E0090004015B0001C
:102A60008042EB0000C2EB003600020001000000D3
:102A700060C9BF000004E0003300320041C9BF005C
:102A8000E74F500030003A0042C9BF000004E000A8
:102A900015003200B02E2100104078008040E80080
:102AA000B02E210001487800B02E2100104078009F
:102AB0000080FB006F006000E90F5000060034004A
:102AC000B02E21009040780000CFB30080C060009D
:102AD000B02E210001487800602E2100C627020098
:102AE000010000004269EF00613A200031279800A0
:102AF00014002000442798003E219000CE21900031
:102B00003E4890000080FB00EF0060004004200081
:102B10000088B900000078008000EB00000141004F
:102B2000818149002E0090008080E9001E00900005
:102B30004016B00095C4B30000C2EB00360002009E
:102B40000100000017003700653A20005527980063
:102B500011002000612798005E219000EE21900076
:102B60003E4890000080FB00EF0060004004200021
:102B70000088B900000078008000EB0000014100EF
:102B8000818149002E0090008080E9001E009000A5
:102B90004016B0008042EB0000C2EB00360002009D
:102BA00001000000643A20007427980015002000FE
:102BB000052F98007E2190008E299000404820002B
:102BC0000100200000004100818049002E0190009A
:102BD0008283E9001E019000461720000203430093
:102BE0008042EB0000C2EB000001BE0087007800CD
:102BF00006007800360002000100000060C9BF0036
:102C00000004E0003A00320041C9BF00E84F500024
:102C100037003A0042C9BF000004E000150032004E
:102C2000A02E210010407800F0404000A02E21008E
:102C300001487800A02E2100104078000080FB00A1
:102C40004400DE0000407800E34F500005003600ED
:102C5000A02E210010407800EF406000A02E21003F
:102C600001487800602E2100C62702000100000004
:102C70004269EF00613A2000112F980014002000F3
:102C8000242F98001E299000AE2990002E48900015
:102C90000080FB004400DE00004078000080FB0064
:102CA000EF006000400420000088B90000007800B8
:102CB0008000EB0000004100818049002E0190005F
:102CC0008283E9001E0190004618200002034300A1
:102CD00095C4B30000C2EB000001BE00870078007D
:102CE0000600780036000200010000001E003700D8
:102CF000653A2000352F980011002000412F9800E0
:102D00003E299000CE2990002E4890000080FB00C4
:102D10004400DE00004078000080FB00EF0060000F
:102D2000400420000088B900000078008000EB001B
:102D300000004100818049002E0190008283E9005B
:102D40001E01900046182000020343008042EB0061
:102D500000C2EB000001BE0087007800060078008A
:102D6000360002000100000060C9BF000004E0005E
:102D70003700320041C9BF00E94F500034003A002B
:102D800042C9BF000004E00015003200A02E21005F
:102D9000104078008040E800A02E21000148780013
:102DA000A02E2100104078000080FB006F00600022
:102DB000E90F500006003400A02E2100904078005A
:102DC00000CFB30080C06000A02E21000148780031
:102DD000602E2100C6270200010000004269EF00BA
:102DE000643A2000542F980015002000652F9800A9
:102DF0005E299000EE2990002E4890000080FB0094
:102E0000EF006000400420000088B9000000780056
:102E10008000EB0000004100818049002E019000FD
:102E20008283E9001E01900046192000020343003E
:102E300095C4B30000C2EB000001BE00870078001B
:102E40000600780036000200010000001B00370079
:102E5000613A2000712F9800140020000437980078
:102E60007E2990008E3190002E4890000080FB005B
:102E7000EF006000400420000088B90000007800E6
:102E80008000EB0000004100818049002E0190008D
:102E90008283E9001E0190004619200002034300CE
:102EA0008042EB0000C2EB000001BE00870078000A
:102EB0000600780036000200010000004F06BE0048
:102EC0004F05BE004F04BE000080FA00000006005F
:102ED0000000FA00889FBE0044C9BF000004E00063
:102EE00018003A0010C0B30044E9B700704C8000ED
:102EF0000040A000704C8800A2FE0200000000000C
:102F000094C4B3002300200002322000810320007B
:102F10000000EB0070030200010000008042EB00A3
:102F2000C4C1B300C8F12200190020000801BE008E
:102F3000E1012000801620003600020001000000A0
:102F40002C00370044C9BF00E14F500028003A0070
:102F500010C0B30044E9B700602E21001080FB00D0
:102F6000712E21009180FB00C808DD000100700077
:102F70008000EB0080007800802E21001080FB0094
:102F8000922E21001281FB004811DD00020070002A
:102F90008001EB0080017800A02E21001080FB0052
:102FA000B22E21001281FB004811DD0002007000EA
:102FB0000002EB0000027800C02E21009082FB008E
:102FC0000000EB00F20F20000281620005F02F00EC
:102FD00005006000000071000101780080027800A7
:102FE000010F2000200D20001DFC0700010037000C
:102FF0004469EF00404C8000680060000000E00081
:103000000C003200404C80000030A100404C880091
:1030100041C9BF00E84F500004003E0041C9BF0055
:103020000040E80041E9B7000200370090C0B3005B
:1030300041E9B700414C800000042000008060009E
:103040000000E0000B003200404C80000060A10056
:10305000404C880041C9BF000004E0000400320079
:1030600041C9BF000040E90041E9B7000100370055
:103070004169EF00404C8000610060000000E0000A
:103080000B003200404C80000000A100404C880042
:10309000704C8000700060000000E000030032000F
:1030A00010C0B30042E9B700010037004269EF00E9
:1030B000604C8000610060000000E0000A00320007
:1030C000604C80000000A100604C88004369EF0064
:1030D0004469EF00704C80000040A100704C8800F3
:1030E000A0C0B30041E9B7004F04BE000080FA0061
:1030F00000000600A200FA00889FBE008A9FBE0062
:103100008C9FBE00A2FE02000000000094C4B30029
:103110002300200002322000E11A20000000EB0012
:10312000700302000100000094C4B30013002000EB
:10313000023220008000EB000000EB007003020070
:103140000100000094C4B3001300200002322000EC
:10315000210320000000EB007003020001000000CA
:1031600094C4B30013002000622220004106200016
:10317000A0072000700302000100000010002000E2
:10318000000F78000B0037009E007800D00320006D
:103190000088B9000000780094C4B3002303200025
:1031A000120020008000EB0070030200010000000C
:1031B0001E0FE8001E007800EC0F5000F2FF3600F2
:1031C00020002000000F78000B0037009E007800E0
:1031D000D00320000088B9000000780094C4B30038
:1031E00023032000120020002103200070030200AE
:1031F000010000001E0FE8001E007800EB0F5000D9
:10320000F2FF3600100A2000404A8800901020008B
:10321000504A88000000EB00000F78000C003700D7
:103220001E0078007E00B90080007800504A8000BF
:1032300080804000404A800094C4B3001300200006
:10324000E21D200070030200010000001E0FE800D4
:103250001E007800E40F5000F1FF3600100A200035
:10326000404A8800514A8000404A800094C4B3001C
:1032700083072000120020007003020001000000FC
:1032800070182000404A8800514A8000404A80005F
:1032900094C4B300830720001200200070030200D2
:1032A00001000000F0272000404A8800514A8000B9
:1032B000404A800094C4B30083072000120020001D
:1032C00070030200010000000000EB00000F780016
:1032D00005003700202A21009E0040000040EB003E
:1032E000804878001E0FE8001E007800F70F50009D
:1032F000F8FF36008042EB0000C2EB00C8732500E7
:10330000190020000801BE00B1072000A00A20001B
:10331000360002000100000000C2EB002300200084
:10332000F214200061072000100E2000700302003C
:103330000100000000C2EB0023002000F214200076
:1033400041092000100E200070030200010000005F
:1033500000C2EB00030220002200200061072000D1
:10336000100E2000700302000100000000C2EB00FC
:10337000A300200022002000C106200040132000EE
:10338000700302000100000000C2EB00A300200057
:1033900022002000C10620007018200070030200E7
:1033A0000100000000C2EB00A3002000220020006A
:1033B000C1062000A01D20007003020001000000D3
:1033C00000C2EB0003022000220020006107200061
:1033D000E022200070030200010000000A0C22001D
:1033E0001B0020000A00BE008042EB0000C2EB0080
:1033F0000001BE0081062000D00D20003600020032
:10340000010000000C0C22001D0020000C00BE007A
:1034100002082000030020000200400083804800D2
:103420008042EB0000C2EB000001BE0081062000DC
:10343000202220003600020001000000030C2200C0
:103440001307980011002000210798001E0090002B
:10345000AE0090008042EB0000C2EB000001BE0015
:1034600081062000A022200036000200010000009A
:10347000020C220032079800130020004307980036
:103480003E009000CE0090008042EB0000C2EB00B6
:103490000001BE008106200020232000360002002B
:1034A000010000008042EB0000C2EB00819D27007C
:1034B0005107980012002000620798005E019000FA
:1034C000EE019000E10720000028200036000200F5
:1034D000010000008042EB0000C2EB008379250070
:1034E0007307980011002000010F98007E019000E2
:1034F0008E099000210B2000A00A20003600020057
:103500000100000000C2EB0023002000F2142000A4
:10351000D10A2000100E20007003020001000000FC
:1035200000C2EB0023002000F2142000B10C2000A8
:10353000100E2000700302000100000000C2EB002A
:103540000302200022002000D10A2000100E2000DB
:10355000700302000100000000C2EB00A300200085
:1035600022002000310A20004013200070030200D6
:103570000100000000C2EB00A30020002200200098
:10358000310A2000A01D200070030200010000008D
:1035900000C2EB000302200022002000D10A20001C
:1035A000E0222000700302000100000000C2EB00D6
:1035B0002300200082002000610A2000500D20001E
:1035C0007003020001000000020C2200120F98009C
:1035D00013002000230F98001E089000AE089000F2
:1035E0000205200003002000020040008380480004
:1035F0008042EB0000C2EB000001BE00F109200098
:10360000D00D20003600020001000000030C220053
:10361000330F980011002000410F98003E089000E1
:10362000CE0890008042EB0000C2EB000001BE001B
:10363000F1092000500E20003600020001000000B9
:10364000020C2200520F980013002000630F980014
:103650005E089000EE0890008042EB0000C2EB0094
:103660000001BE00F1092000D00E2000360002004B
:1036700001000000010C2200710F980012002000D0
:10368000021798007E0890008E1090008042EB0098
:1036900000C2EB000001BE00F1092000301820003C
:1036A000360002000100000000C2EB00030220000F
:1036B00022002000D10A20007018200070030200B0
:1036C00001000000030C22001317980011002000D5
:1036D000211798001E109000AE10900002052000E7
:1036E0000300200002004000838048008042EB007D
:1036F00000C2EB000001BE00F109200020222000E2
:103700003600020001000000030C2200331798006D
:1037100011002000411798003E109000CE1090003C
:103720008042EB0000C2EB000001BE00F109200066
:10373000A02220003600020001000000020C22003E
:103740005217980013002000631798005E10900035
:10375000EE1090008042EB0000C2EB000001BE00C2
:10376000F1092000202320003600020001000000A3
:103770008042EB0000C2EB00A19F27007117980068
:1037800012002000021F98007E1190008E199000F8
:10379000510B20000028200036000200010000002C
:1037A0008042EB0000C2EB0003142700131F9800B7
:1037B00011002000211F98001E199000AE199000E2
:1037C000910E2000D00A2000360002000100000007
:1037D00000C2EB0023002000F2142000410E200064
:1037E000100E2000700302000100000000C2EB0078
:1037F00023002000F214200021102000100E2000D1
:10380000700302000100000000C2EB000302200070
:1038100022002000410E2000100E20007003020044
:103820000100000000C2EB00A300200022002000E5
:10383000A10D2000401320007003020001000000D1
:1038400000C2EB00A300200022002000A10D2000F8
:1038500070182000700302000100000000C2EB009D
:10386000A300200022002000A10D2000A01D2000A8
:10387000700302000100000000C2EB000302200000
:1038800022002000410E2000E022200070030200F0
:1038900001000000020C2200321F980013002000DB
:1038A000431F98003E189000CE1890008042EB0015
:1038B00000C2EB000001BE00610D2000D00D200011
:1038C0003600020001000000010C2200511F980088
:1038D00012002000621F98005E189000EE18900001
:1038E00070004000E08048008042EB0000C2EB0026
:1038F0000001BE00610D20002022200036000200E1
:1039000001000000030C2200731F9800110020002A
:10391000012798007E1890008E2090008042EB00D6
:1039200000C2EB000001BE00610D2000A0222000BB
:103930003600020001000000020C2200122798004D
:1039400013002000232798001E209000AE20900036
:103950008042EB0000C2EB000001BE00610D2000C0
:103960002023200036000200010000008042EB000E
:1039700000C2EB0001A627003127980012002000AA
:10398000422798003E219000CE219000C10E2000D9
:10399000002820003600020001000000A00A2000DC
:1039A000404A8800E0182000504A8800514A8000B0
:1039B000404A80008042EB0000C2EB00430C25002F
:1039C0005327980012002000622798005E21900083
:1039D000EE2190003600020001000000514A8000F4
:1039E000404A80008002B0008042EB0000C2EB0041
:1039F000C31725007327980012002000022F98009B
:103A00007E2190008E299000360002000100000007
:103A100000192000404A8800514A8000404A800036
:103A20008042EB0000C2EB0003122500132F980028
:103A300012002000222F98001E299000AE2990002D
:103A40003600020001000000514A8000404A800018
:103A50008002B0008042EB0000C2EB00C3172500DB
:103A6000332F980012002000422F98003E2990002A
:103A7000CE29900036000200010000005016200000
:103A8000404A8800514A8000404A80008042EB0052
:103A900000C2EB00033A2700532F980012002000C9
:103AA000622F98005E299000EE29900036000200F7
:103AB00001000000D0252000404A8800514A8000C3
:103AC000404A80008042EB0000C2EB00033A27002E
:103AD000732F980012002000023798007E29900072
:103AE0008E31900036000200010000009018200086
:103AF000404A8800F0102000504A8800514A800057
:103B0000404A80008042EB0000C2EB004368250081
:103B10001337980012002000223798001E319000C1
:103B2000AE3190003600020001000000514A8000D2
:103B3000404A80008002B0008042EB0000C2EB00EF
:103B400023B3230033379800120020004237980037
:103B50003E319000CE31900036000200010000009E
:103B6000514A8000404A80000006B0008042EB00CD
:103B700000C2EB00032626005337980012002000F5
:103B8000623798005E319000EE31900036000200FE
:103B900001000000514A8000404A8000200EB00021
:103BA0008042EB0000C2EB00E3A3270073379800CC
:103BB00012002000023F98007E3190008E39900064
:103BC0003600020001000000504A8000FE00400064
:103BD000404A80008042EB0000C2EB0043682500B1
:103BE000133F980012002000223F98001E399000D9
:103BF000AE3990003600020001000000504A8000FB
:103C0000FE004000404A80008002B0008042EB008D
:103C100000C2EB0003262600333F9800120020006C
:103C2000423F98003E399000CE39900036000200A5
:103C300001000000504A8000FE004000404A800021
:103C4000200EB0008042EB0000C2EB00E3A327008F
:103C5000533F980012002000623F98005E399000A8
:103C6000EE3990003600020001000000504A80004A
:103C7000C103200080804000404A80000080E800AE
:103C80008042EB0000C2EB00036E2500733F9800FA
:103C900012002000028798007E3990008E819000EB
:103CA0003600020001000000504A8000C1032000DD
:103CB00080804000404A80008002B0008042EB00DB
:103CC00000C2EB00437C26001387980012002000FE
:103CD000228798001E819000AE819000360002007D
:103CE00001000000504A8000C10320008080400095
:103CF000404A80000005B0008042EB0000C2EB00AB
:103D0000032626003387980012002000428798007F
:103D10003E819000CE81900036000200010000003C
:103D2000504A8000C103200080804000404A80004B
:103D3000200EB0008042EB0000C2EB00E3A327009E
:103D40005387980012002000628798005E819000DF
:103D5000EE8190003600020001000000300A2000D1
:103D6000404A8800F0102000504A8800514A8000E4
:103D7000404A80008042EB0000C2EB008334250003
:103D80007387980012002000028F98007E819000B7
:103D90008E8990003600020001000000504A800029
:103DA000FE004000404A80008042EB0000C2EB0071
:103DB000433A2500138F980012002000228F9800AC
:103DC0001E899000AE8990003600020001000000BC
:103DD000504A8000C103200080804000404A80009B
:103DE0008042EB0000C2EB0003402500338F9800B7
:103DF00012002000428F98003E899000CE899000EA
:103E000036000200010000000000EB00000F780007
:103E10002700370083302200538F980011002000C4
:103E2000618F98005E889000EE8890001E017800F7
:103E30007E11B90082017800524A800082834100DD
:103E4000424A800086022000020343008042EB00C9
:103E500000C2EB000001BE00870078000600780079
:103E600036000200010000001E0078007E00B9004C
:103E700080007800504A800080804000404A8000E6
:103E80000005B0008042EB0000C2EB008276260005
:103E9000728F980013002000039798007E8990008D
:103EA0008E91900036000200010000001E0FE80015
:103EB0001E007800E20F5000D6FF36004F06BE000D
:103EC0004F05BE004F04BE000080FA00000006004F
:103ED0000200FA00881F78000040EB00004F7800D5
:103EE00050222000404A8800F0102000504A8800EC
:103EF0009292200012417800514A8000404A80008E
:103F000080C1EB002DF8070082922000124178005A
:103F1000504A8000FE004000404A800080C1EB0013
:103F200026F807006293200012417800504A800072
:103F3000C103200080804000404A800080C1EB0027
:103F40001EF80700D0122000404A8800F010200020
:103F5000504A8800604480000000E0000300320006
:103F600000CEB300004F78000200370000C0EB0025
:103F7000004F7800604480008000EB00584A8000C9
:103F8000474A80001E4378008042EB0044C0B300E3
:103F90000001BE0088007800070078006EF5070079
:103FA00081C8BF000004E0000300320000CEB3006F
:103FB000004F78000200370000C0EB00004F78008F
:103FC00081C8BF000080FB008000EB00524A8000E7
:103FD0007E044100474A80001E4378008042EB0087
:103FE00044C0B3000001BE008800780007007800DC
:103FF00059F5070010C22000104078000004E000CE
:104000000300320000CEB300004F780002003700FA
:1040100000C0EB00004F780010C220001040780074
:104020000080FB008000EB00524A8000C8032000A3
:1040300002044400474A80001E4378008042EB009F
:1040400044C0B3000001BE0088007800070078007B
:1040500041F507004F0478000080FA0000000600D8
:104060002600FA00889FBE008A9FBE008C9FBE007B
:1040700090C4B300304798000040EB0040479800E0
:1040800030C22000104078000080FB00700060000B
:104090000000E00005003200C0C1B30030479800C6
:1040A0000040EB00104798000400370090C4B300B4
:1040B0003047980010C0B300104798008042EB00D2
:1040C0003E429000E2F4260013002000810320000D
:1040D0003008200036000200010000001E40900061
:1040E0000004E00012003A008042EB003E429000E3
:1040F00068482700190020000801BE00E1042000E4
:104100005008200036000200010000008042EB0051
:104110003E429000AA8F27001B0020000A01BE002B
:10412000E1042000700920003600020001000000B8
:104130001E409000E14F500015003A008042EB0015
:104140003E429000CC4A27001D0020000C01BE001A
:10415000E1042000500820003600020001000000A9
:104160008042EB003E429000419B270031079800BF
:1041700011002000410798003E019000CE01900000
:10418000E104200070092000360002000100000058
:1041900040BF2000104078000080FB0062006000FB
:1041A0000000E00003003200C0C1B30030479800B7
:1041B0000200370090C4B300304798008042EB0003
:1041C0003E429000E1422700510798001100200074
:1041D000610798005E019000EE019000110420003C
:1041E000C00C2000360002000100000040BF20008B
:1041F000104078000080FB00610060000040780003
:104200000004E00003003200C0C1B3003047980052
:104210000200370090C4B300304798008042EB00A2
:104220003E429000A118270071079800110020005D
:10423000010F98007E0190008E099000B1032000CC
:10424000A0102000360002000100000040BF200046
:10425000104078000080FB00640060000000E00077
:1042600003003200C0C1B30030479800020037009D
:1042700090C4B300304798008042EB003E4290006B
:10428000A1452700110F980011002000210F980070
:104290001E099000AE09900011042000A014200017
:1042A0003600020001000000A19220009140780039
:1042B00041479800CE409000D0C7B30080CF500057
:1042C00004003600CE40900090C8B30080CF50006C
:1042D00004003600CE409000B0C7B30080CF50003D
:1042E00005003A00C0C1B300304798000040EB0021
:1042F0001047980016003700CE409000C0C7B300AA
:1043000080CF500005003A0000CEB300304798003F
:1043100010C0B300104798000D003700CE40900049
:10432000D0C7B30080CF500005003A00C0C1B30031
:104330003047980020C0B3001047980004003700B1
:1043400090C4B3003047980020C0B30010479800D5
:10435000E19A2300310F980011002000410F9800CE
:104360003E099000CE0990001E4090008080FB0026
:10437000C00220000088B900000078008000EB0037
:1043800000004100818049008042EB003E429000E5
:104390000001BE0011042000501820003600020069
:1043A00001000000CE409000E0C7B30080CF500075
:1043B00005003A00C0C1B3003047980010C0B300F8
:1043C0002047980067003700CE409000F0C7B30048
:1043D00080CF500005003A00C0C1B30030479800BC
:1043E00020C0B300204798005E003700CE40900008
:1043F00000C8B30080CF500005003A00C0C1B30030
:104400003047980030C0B30020479800550037006F
:10441000CE40900010C8B30080CF500005003A0095
:10442000C0C1B3003047980040C0B3002047980097
:104430004C003700CE40900020C8B30080CF500021
:1044400005003A00C0C1B3003047980050C0B30027
:104450002047980043003700CE40900030C8B3009A
:1044600080CF500005003A00C0C1B300304798002B
:1044700060C0B300204798003A003700CE4090005B
:1044800040C8B30080CF500005003A00C0C1B3005F
:104490003047980070C0B3002047980031003700C3
:1044A000CE40900050C8B30080CF500005003A00C5
:1044B000C0C1B3003047980080C0B30020479800C7
:1044C00028003700CE40900060C8B30080CF500075
:1044D00005003A00C0C1B3003047980090C0B30057
:1044E000204798001F003700CE40900070C8B300EE
:1044F00080CF500005003A00C0C1B300304798009B
:10450000A0C0B3002047980016003700CE409000AE
:1045100080C8B30080CF500005003A00C0C1B3008E
:1045200030479800B0C0B300204798000D00370016
:10453000CE40900090C8B30080CF500005003A00F4
:10454000C0C1B30030479800C0C0B30020479800F6
:10455000040037000040EB003047980010C0B30063
:10456000204798002E409000E94F5000030036008D
:1045700020C0B300004F78000200370010C0B30025
:10458000004F78002E4090000080FB008000EB0080
:104590003E4390008042EB001E4278000001BE00C6
:1045A00021042000501920003DF207001E40780031
:1045B000E14F50000A003A002E4090000080FB00BE
:1045C0008000EB000043EB008042EB001E427800CD
:1045D0000001BE0021042000D019200030F20700A5
:1045E00020BF2000104078000080FB004600DE0065
:1045F000404798004E409000E14F500003003A00C1
:10460000C0C1B300304798000200370090C4B30027
:10461000304798008042EB003E429000C1402300AA
:10462000510F980011002000610F98005E09900062
:10463000EE099000F1032000E01A2000360002008D
:104640000100000040BF2000104078000080FB0007
:10465000680060000000E00003003200C0C1B30049
:10466000304798000200370090C4B30030479800EC
:104670008042EB003E429000C1A82200710F9800DA
:1046800011002000011798007E0990008E11900003
:10469000C1032000C01E20003600020001000000FF
:1046A00030BF2000104078000080FB0062006000F6
:1046B0000000E00003003200C0CFB3003047980094
:1046C0000200370090C4B300304798008042EB00EE
:1046D0003E42900001CF22001117980011002000E7
:1046E000211798001E119000AE1190008103200048
:1046F0001023200036000200010000004F06BE001B
:104700004F05BE004F04BE000080FA000000060006
:104710002600FA00889FBE008A9FBE008C9FBE00C4
:1047200090C4B300004F7800104D80006800600016
:104730000000E00003003A0000CEB300004F780014
:104740000200370090C4B300004F7800202A2100F7
:10475000104078009E4F500016003200202A2100A1
:104760001E4878008042EB001E427800624B230016
:104770001300200071002000900420003600020089
:1047800001000000080C2200190020000800BE00F3
:1047900070004000E08048008042EB001E4278003C
:1047A0000001BE0001012000D005200036000200FB
:1047B00001000000D0BF2000104078000080FB0006
:1047C000700060000000E0000300320000CEB30083
:1047D000004F78000200370090C4B300004F78000B
:1047E0008042EB001E427800AA7E23001B002000BE
:1047F0000A01BE00A100200040082000360002008F
:1048000001000000514D8000004020000080600049
:104810000000E0000300320000CEB300004F78003B
:104820000200370090C4B300004F78008042EB00D4
:104830001E4278006CCD21001D0020000C01BE003E
:1048400011002000C00B2000360002000100000013
:10485000504D8000610060000000E0000300320065
:1048600000CEB300004F78000200370090C4B300C0
:10487000004F78008042EB001E4278008108230040
:104880001107980011002000210798001E019000D8
:10489000AE019000710020001010200036000200D0
:1048A0000100000040BF2000104078000080FB00A5
:1048B000700060000000E0000300320000CEB30092
:1048C000004F78000200370090C4B300004F78001A
:1048D0008042EB001E427800217A240031079800C4
:1048E00011002000410798003E019000CE01900089
:1048F000A10020000014200036000200010000008A
:1049000040BF2000104078008080FB0000022000A3
:10491000008060000000E00003003200C0C1B3006E
:10492000004F78000200370090C4B300004F7800B9
:104930008042EB001E42780001B622005107980029
:1049400011002000610798005E019000EE019000C8
:1049500051002000901720003600020001000000E6
:104960009EC8BF00E14F5000030032009EC8BF0048
:10497000E24F500003003A0000CEB300004F780031
:104980000200370090C4B300004F78008042EB0073
:104990001E427800A16A23007107980011002000D0
:1049A000010F98007E0190008E09900051002000B8
:1049B000B01B2000360002000100000030BF2000C4
:1049C000104078000080FB0061006000004078002B
:1049D0000004E00004003A00D0BF2000104078003E
:1049E0000004E00003003D0000CEB300004F78005B
:1049F0000200370090C4B300004F78008042EB0003
:104A00001E42780081882300110F980011002000B9
:104A1000210F98001E099000AE099000A10020000F
:104A2000201F2000360002000100000040C22000CC
:104A3000104078000004E00003003A00C0CFB3004B
:104A4000004F78000200370090C4B300004F780098
:104A50008042EB001E42780001922300310F980043
:104A600011002000410F98003E099000CE099000EF
:104A7000B1002000002320003600020001000000E9
:104A80000197800000022000008060000000E0002C
:104A900003003200C0CFB300004F7800020037009F
:104AA00090C4B300004F78008042EB001E427800B3
:104AB00081E22100510F980011002000610F980041
:104AC0005E099000EE0990001100200050262000A1
:104AD0003600020001000000104D800070006000F0
:104AE0000000E00003003A0000CEB300004F780061
:104AF0000200370090C4B300004F7800502A210014
:104B0000104078009E4F50001D003200502A2100B6
:104B10001E4878008042EB001E427800E1552300D9
:104B2000710F980011002000011798007E09900075
:104B30008E11900071002000A02A20003600020093
:104B400001000000010C2200111798001100200044
:104B5000211798001E109000AE10900070004000C9
:104B6000E08048008042EB001E4278000001BE0059
:104B700001012000E02B20003600020001000000AF
:104B80004F06BE004F05BE004F04BE000080FA0075
:104B9000000006000000FA00881F780000102000C6
:104BA000404A8800E0182000504A880020408000D9
:104BB0008000EB00584A8000474A800000C3EB00A9
:104BC00015C0B30054C0B3000001BE0088007800D7
:104BD0000700780060F20700701E2000404A88003D
:104BE0003040800041408000A200200003002000EF
:104BF0004204020000000000584A8000474A80003A
:104C000000C3EB008042EB0074C0B3000001BE00A3
:104C100088007800070078004FF207004F04780002
:104C20000080FA00000006000600FA00889FBE001F
:104C30008A9FBE0000CEB300004F78002003200002
:104C400010079800A005200020079800104E800053
:104C5000E90F500003003E000000EB001007980031
:104C60004B003700114E800040032000808F500021
:104C70000D003E00104E80006A0050008000EB00E6
:104C80003003020000000000F2282C0053EF230044
:104C9000DA03020000000000F4020200000000003D
:104CA000100798003A003700114E8000C00720001E
:104CB000808F500011003E00104E80004003B10074
:104CC0008000EB00300302000000000092C22500CB
:104CD000F3F02300DA0302000000000002002000CD
:104CE000031A2400AE01020000000000F4020200DA
:104CF000000000001007980025003700114E8000CA
:104D0000B0092000808F500011003E00104E80003E
:104D1000C007B1008000EB0030030200000000007B
:104D20006266260063F22300DA030200000000003E
:104D30000200200003272400AE0102000000000052
:104D4000F402020000000000100798001000370075
:104D5000104E8000B009B1008000EB00300302006B
:104D600000000000723D2A0003F32300DA03020072
:104D70000000000002002000032A2400AE0102000F
:104D800000000000F402020000000000100798007C
:104D90009E009000C0032000808F5000030036006A
:104DA000C0C1B300004F78000200370000CEB3004E
:104DB000004F78009E00900040062000808F500039
:104DC0000200360040062000100798001E009000E8
:104DD0008000EB001E43780025C0B30034C0B30050
:104DE0000001BE00711A2000A00120002CF0070075
:104DF0008042EB001E4278008A8124001B002000C4
:104E00000A01BE0091182000A00220003600020016
:104E1000010000001E0090008000EB003003020043
:104E2000000000006266260063022400DA0302002C
:104E3000000000000001BE00000020002138240016
:104E4000AC01020000000000F402020000000000BB
:104E5000000078000042EB0080017800C2022000D0
:104E600031072000600220007003020001000000F2
:104E70001E0090008000EB003003020000000000E4
:104E80006266260063022400DA03020000000000CC
:104E9000F402020000000000000578001E009000EF
:104EA0008000EB0030030200000000006266260074
:104EB00063022400DA030200000000000001BE00CB
:104EC00000002800E13B2400AC01020000000000CB
:104ED000F402020000000000000078001E4278008A
:104EE0008A017800C2022000800078006002200061
:104EF0007003020001000000204E8000E90F500006
:104F000003003E000000EB00200798004B00370034
:104F1000214E800040032000808F50000D003E0095
:104F2000204E80006A0050008000EB003003020039
:104F300000000000F2282C0053EF2300DA030200E7
:104F400000000000F40202000000000020079800AA
:104F50003A003700214E8000C0072000808F5000AB
:104F600011003E00204E80004003B1008000EB00A5
:104F7000300302000000000092C22500F3F023007D
:104F8000DA0302000000000002002000031A2400DF
:104F9000AE01020000000000F40202000000000068
:104FA0002007980025003700214E8000B00920001E
:104FB000808F500011003E00204E8000C007B100DD
:104FC0008000EB0030030200000000006266260053
:104FD00063F22300DA030200000000000200200058
:104FE00003272400AE01020000000000F4020200CA
:104FF000000000002007980010003700204E8000BD
:10500000B009B1008000EB00300302000000000096
:10501000723D2A0003F32300DA03020000000000BF
:1050200002002000032A2400AE010200000000005C
:10503000F40202000000000020079800AE0090007B
:10504000C0032000808F500003003600C0C1B300B1
:10505000004F78000200370000CEB300004F780008
:10506000AE00900040062000808F50000200360005
:1050700040062000200798008042EB001E42780086
:10508000A8872400190020000801BE009118200004
:10509000102D200036000200010000002E009000BC
:1050A0008000EB001E43780025C0B30034C0B3007D
:1050B0000001BE00711A2000102C200078EF0700BC
:1050C0002E0090008000EB00300302000000000082
:1050D0006266260063022400DA030200000000007A
:1050E0000001BE000000200021382400AC010200B5
:1050F00000000000F4020200000000000000780040
:105100000042EB0080017800C2022000310720003D
:10511000D02C200070030200010000002E0090003F
:105120008000EB00300302000000000062662600F1
:1051300063022400DA03020000000000F40202000F
:1051400000000000000478002E0090008000EB00BA
:1051500030030200000000006266260063022400A3
:10516000DA030200000000000001BE000000280079
:10517000E13B2400AC01020000000000F402020048
:1051800000000000000078001E42780088017800CE
:10519000C202200080007800D02C200070030200A2
:1051A000010000004F05BE004F04BE000080FA0061
:1051B000000006000600FA0010079800210798007A
:1051C00020032000000F7800E04580008000EB0005
:1051D0003003020000000000D2CC2C00C3DC23000E
:1051E000DA03020000000000F402020000000000E8
:1051F000000F7800F03120009E007800808F500072
:105200000200360000322000000F78001E007800F7
:105210008000EB0000C3EB008042EB0034C0B30021
:105220000001BE00AE0090001E009000F1EF0700EC
:1052300043C9BF000004E00016003A001E007800D9
:105240008000EB003003020000000000A2702D007F
:1052500033052400DA0302000000000002002000F1
:1052600003E02300DA03020000000000F402020061
:105270000000000000007800C4C1B300C30120009A
:105280000001780081072000300E2000700302002A
:10529000010000000080FA00000006000600FA008D
:1052A000889FBE008A9FBE001007980021079800C3
:1052B00040062000000F7800904980008000EB003D
:1052C0003003020000000000D2CC2C00C3DC23001D
:1052D000DA03020000000000F402020000000000F7
:1052E000000F7800301F20009E007800808F500053
:1052F00079003E00401F20001E0F5000401F20007C
:105300009E007800808F500002003600401F200071
:10531000000F78001E0078008000EB0000C3EB0057
:105320008042EB0034C0B3000001BE00AE0090002C
:105330001E009000AFEF07002E009000E400400038
:105340001E009000740050008042EB0000C2EB0091
:105350004AB027001B0020000A01BE00080202001C
:10536000010000001E0078000000E0003000320064
:1053700043C9BF000004E0002D003A001E00780081
:105380008000EB00300302000000000052B82E0045
:1053900013FD2300DA03020000000000D2CC2C0031
:1053A000C3E42300DA030200000000000200200032
:1053B00003F82300AE01020000000000F402020026
:1053C00000000000000478001E0078008000EB0060
:1053D000300302000000000052B82E0013FD23002D
:1053E000DA03020000000000D2CC2C00C3E423004A
:1053F000DA030200000000000001BE0000002800E7
:10540000313C2400AC01020000000000F402020064
:105410000000000000007800C4C1B300C3012000F8
:1054200008017800F10A200070030200010000006A
:10543000301F20009E007800808F500099003E00B1
:1054400043C9BF000004E00096003A001E00780047
:105450008000EB00300302000000000052B82E0074
:1054600013FD2300DA03020000000000D2CC2C0060
:10547000C3E42300DA030200000000000001BE00C4
:105480000000200041322400AC01020000000000B6
:10549000F402020000000000000078000042EB006F
:1054A000C301200000017800F10A2000300E200026
:1054B00070030200010000000042EB00C301200065
:1054C000520A2000F10A2000901820007003020008
:1054D0000100000073003700C1E02F001E8F400064
:1054E000401F20009E007800808F50000200360090
:1054F000401F2000000F78002E009000E4004000C4
:105500001E009000740050008042EB0000C2EB00CF
:1055100028B12700190020000801BE00080202007F
:10552000010000001E0078008000EB0000C3EB00CB
:105530008042EB0034C0B3000001BE00AE0090001A
:105540001E0090002BEF07001E007800E30F5000B4
:105550001900360043C9BF000004E00016003A00FD
:105560001E0078008000EB00300302000000000005
:105570003233230033FD2300DA0302000000000071
:10558000D2CC2C00C3E42300DA03020000000000A8
:10559000F40202000000000000007800C4C1B30063
:1055A000C301200000017800F10A200090182000BB
:1055B0007003020001000000301F20009E007800F0
:1055C000808F500037003E0043C9BF000004E00058
:1055D00034003A001E0078008000EB003003020027
:1055E000000000003233230033FD2300DA03020001
:1055F00000000000D2CC2C00C3E42300DA03020038
:10560000000000000001BE00000020005132240014
:10561000AC01020000000000F402020000000000E3
:10562000000478001E0078008000EB0030030200C8
:10563000000000003233230033FD2300DA030200B0
:1056400000000000D2CC2C00C3E42300DA030200E7
:105650000000000002002800433C2400AE010200CC
:1056600000000000F40202000000000000007800CA
:105670000042EB00C301200008017800F10A20007D
:1056800070030200010000000042EB00C301200093
:10569000420A2000F10A2000300E200070030200B0
:1056A000010000004F05BE004F04BE000080FA005C
:1056B000000006000200FA00881F780000C0EB001E
:1056C000004F780040C6B30010479800E18B2000DF
:1056D00091407800114798009E40900030C6B3007A
:1056E00080CF50000200360040C6B300104798003B
:1056F0001E4090000004E0001400320010C22000A0
:1057000010407800ED4F50000A00320010C2200017
:1057100090407800F0C3B30080CF50000500320005
:1057200010C220009040780010C7B30080CF500016
:1057300003003A0000CEB300004F780005003700A8
:10574000C0C1B300004F7800020037000040EB00FA
:10575000004F78001E4090000080FB008000EB00AE
:1057600000C3EB008042EB0034C0B3000001BE0078
:10577000410E2000902420009EEE07001E40900065
:105780000080FB00CF80DE002A0302000000000042
:10579000A2702D0033052400DA030200000000008F
:1057A000F402020000000000000078001E427800B1
:1057B000C301200000017800610E2000300E20009F
:1057C00070030200010000009E40900030C6B3004C
:1057D00080CF500027003E001E4090000080FB005C
:1057E000CF80DE002A03020000000000A2702D001E
:1057F00033052400DA030200000000000001BE00AF
:1058000000002800513A2400AC0102000000000012
:10581000F402020000000000000478001E40900026
:105820000080FB00CF80DE002A03020000000000A1
:10583000A2702D0033052400DA03020000000000EE
:105840000200200033362400AE01020000000000F8
:10585000F402020000000000000078000042EB00AB
:10586000C301200008017800610E200070030200CF
:10587000010000004F0478000080FA0000000600DC
:105880000000FA0044C9BF000004E00004003A0030
:1058900010C0B30044E9B70016F607003600370021
:1058A00044C9BF00E14F500004003A0020C0B300DB
:1058B00044E9B70086F907002F00370044C9BF004C
:1058C000E24F500004003A0030C0B30044E9B70092
:1058D0008FFB07002800370044C9BF00E34F50008A
:1058E00005003A0040C0B30044E9B700A9FC070036
:1058F000DBF907002000370044C9BF00E44F500027
:1059000006003A0050C0B30044E9B700D10A2000B5
:105910009024200061FE07001700370044C9BF0033
:10592000E54F500004003A0060C0B30044E9B700FE
:1059300060FF07001000370044C9BF00E64F500069
:1059400006003A0070C0B30044E9B70061072000C8
:105950009024200017FE07000700370044C9BF004D
:10596000E74F500003003A0010C0B30044E9B7000D
:10597000010037004469EF0046C9BF000004E000A1
:1059800054003A00404C8000680060000000E000D5
:1059900019003200404C80000030A100404C8800CB
:1059A000E0962000A000900000042000008060002D
:1059B0000000E00010003200704C800070006000B9
:1059C0000000E0000C003A00214C8000703E2000F6
:1059D000808F50000300360040062000204C8800D5
:1059E00003003700204C80004006B000204C8800A7
:1059F0002811020001000000404C8000610060009E
:105A00000000E00012003200404C80000000A100C5
:105A1000404C8800604C80000000A100604C880071
:105A2000404C80000030A100404C8800404C800079
:105A30000060A100404C8800504C80000010A10084
:105A4000504C88004469EF0010C0B30043E9B70030
:105A5000604C8000610060000000E0000C0032003B
:105A6000604C80000000A100604C8800404C800029
:105A70000000A100404C8800404C80000030A10094
:105A8000404C8800404C80000060A100404C8800E1
:105A9000414C800000042000008060000000E00015
:105AA0000C003200404C80000060A100404C880097
:105AB000604C80000000A100604C8800404C8000D9
:105AC0000030A100404C8800404C80000000A10044
:105AD000404C88000080FA00000006000800FA0030
:105AE000889FBE008A9FBE008C1F780040479800A8
:105AF000310798000000EB00000F78000000EB0079
:105B0000100798000000EB00000F780045003700F8
:105B10009E007800401A20000088B900000078003C
:105B2000740040008042EB0000C2EB0088C12400FA
