:10000000007E040001000000A8010000A80100001B
:10001000A8010000A8010000A8010000A80100003C
:10002000A8010000A8010000A8010000A80100002C
:10003000A801000034C80000A8010000A8010000C9
:10004000A8010000E2250100A8010000A8010000AD
:10005000A8010000A8010000A8010000A8010000FC
:10006000A8010000A801000056260100A801000018
:10007000A8010000A8010000A801000010F4000081
:10008000F2CD000070260100A8010000A8010000C8
:10009000A80100006AB90000A8010000A801000042
:1000A000A8010000A8010000A8010000A8010000AC
:1000B000A8010000A8010000A8010000A80100009C
:1000C000FEC00000A8010000A8010000A801000077
:0C00D000A8010000A8010000A801000029
:10010800A8010000A8010000A8010000A801000043
:10011800A8010000A8010000A8010000A801000033
:10012800A8010000A8010000A8010000A801000023
:10013800A8010000A8010000A8010000A801000013
:10014800A8010000A8010000A8010000A801000003
:10015800A8010000A8010000A8010000A8010000F3
:10016800A8010000A8010000A8010000A8010000E3
:10017800A8010000A8010000A8010000A8010000D3
:10018800A8010000A8010000A8010000A8010000C3
:10019800A8010000A8010000A8010000A8010000B3
:1001A800A8010000A8010000A8010000A8010000A3
:1001B800A8010000A8010000A8010000A801000093
:1001C800A8010000A8010000A8010000A801000083
:0401D800A80100007A
:100200002F6721000E7F22000E01880000000000F1
:10021000000020000000E000020032000001200089
:10022000200288000C000700E05C20001100200084
:1002300011000700000020000000E0000200320072
:100240000000020000000000B0FB020000000000FF
:100250000040DA000000FE004440A90040042000F5
:100260000000E0000300320000002000A001880030
:100270004440A8000000060091018800800078003A
:100280000000EB0015003700E280400032A0B4000F
:100290009101BA00E280400032A0B4009102BA009D
:1002A000E280400032A0B4000002EB00472BDE00E9
:1002B000F507B200602CE10004003A000059EB00A1
:1002C0008301E900FDFF3E00040037006128E100E2
:1002D000010032000082EB000B00070011C3BA00DE
:1002E0001101BA000604E00003003A000200E00039
:1002F000E5FF3A0000000600F607B200960188000C
:1003000082007800F5FF37003159BA008301E90017
:100310000C0032002159BA008301E90008003200C4
:100320000400E00003003A00E280400032A0B40084
:10033000F5FF370011D9BA008301E900FAFF3A004E
:100340008100E800E180400032A0B4000000060017
:100350000040DA000000FE0003F0A200889FBE000B
:100360008A9FBE008C1F7800F8000700FF00330052
:100370006450E1004F0032006420E100520032007E
:1003800003826C0007003B000905D0000306D00083
:10039000820F54000C065D0002003900020032009A
:1003A00089017800030678008582550004003D002D
:1003B0000003FD008103FD008502EA008B854200F9
:1003C000840F720002003B0060001000E080180003
:1003D0006011B8000005EB007A28E1000A0039003E
:1003E00006007800C75DDD00F707B2008780750062
:1003F0002D003700828171000A01780061056000DC
:100400008180D1000080D3008502E900F9FF3B0024
:10041000060440008784480002003B00600414008A
:10042000E0841C000988A300070032008A81710063
:1004300082817100610164008904D1000884D300C5
:100440008B05E800170037000978A30013003A0075
:100450000B00E000130034008B05E90008044400A1
:1004600089844C000A4474000978A3000D003A0006
:100470000B00E000070034008B05E900080444008D
:1004800089844C0001003A000B0020000978A30089
:10049000F7FF32000001EB0002003700828171009B
:1004A0000A0178006E0007000CF0A70001F0A00020
:1004B000B70037006420E10002003A00838F6C002F
:1004C000B70033000801BE000200BE00B0003700D4
:1004D000889FBE008A9FBE008C1F78009B0007008B
:1004E000A200330003866C006450E1002E0032004D
:1004F0006420E100330032006150E1002F0032003F
:100500006120E1003100320085855500EB07B00025
:1005100009002000080420000500370008044400FA
:1005200089844C000A0031000603430087834B0096
:100530000001530081815B00F8FF33000203BE001D
:100540000800A0000804440089844C00F6FF39002C
:10055000C639DD0083017300010032001300200062
:100560008904D1000884D3000998A3000500320053
:100570000800A7000300A0008904D1000884D3006C
:100580008B05E8008904D1000884D3000001EB004A
:100590000281D2003200070001F0A1000CF0A70098
:1005A00001F0A0007A0037006420E1007C003200F6
:1005B0000801BE000200BE00F7FF37006120E10025
:1005C000770032006000B800F3FF37000000200021
:1005D00001F82700F0FF3700F4FF2F00BA003700C2
:1005E0000001BE00440007000470A70003F0A10052
:1005F00003F8A30013003A006509B10010003200AF
:10060000090035006928E1000200350001002800DA
:100610000000050000004000818048008502E900DC
:10062000FCFF3A0000000600F88F4200050035008C
:100630008100D1000080D3008502E800FCFF3A0071
:10064000000006008000EB00000005004F89DE007E
:1006500082017800B70037006011B800C50037008C
:1006600081002000618055000B003D000B00200040
:1006700061FE2F000100E1001D0034008281710045
:10068000610164008904D1000884D3000000E800FF
:10069000FAFF3A007100200061006400030070005E
:1006A000020060000900320061044400E0844C0054
:1006B0000988A500050032008B05E8006808E10004
:1006C00002003A008904D1000884D300F20F200010
:1006D0000258E10005003D00C75DDD00F907B200EA
:1006E0008980750008007800000006000BF82700DC
:1006F0008B00780000000500C70ADE00F107B20099
:10070000F50FB20008003200E1CF420002003200D3
:100710000170A00024000500810F7000010032006C
:100720000408050044000500810F700002003A0033
:10073000140005008502E9000000400081C0480067
:10074000FCFF3B000170A000240005000004BE0077
:10075000E9FF07000003BE000405BE000200BE0062
:10076000E5FF0700844F7500000006000200BE0090
:100770006450E100050036006420E100020036000C
:100780000968A30001003A000800BE000160A00053
:100790004F0678004F05BE004F04BE000000060063
:1007A000F0FF2F00F1FF2700F9FF3700889FBE0000
:1007B0008A9FBE008C1F7800E4FF0700EBFF330028
:1007C00003866C006450E100240032006420E100E4
:1007D000270032006150E100220032006120E10078
:1007E000210032008B854200EB07B1000134B800D4
:1007F000003AB8000804420089844A00013AB8006F
:100800000030B8008880400009014A00040033002D
:100810000000400081804800020149008B05E9008A
:10082000C909DD00830170000100320013002000BF
:10083000C814DE004814DD004709DE001200B200D3
:10084000C808DE000884700085FF070001F0A100E1
:100850000CF0A70001F0A000CDFF37006120E100FF
:10086000CFFF32000801BE000200BE00F7FF3700D4
:100870006150E100FCFF3A00C9FF37006022B80078
:10088000060220000000D0008180D2000482D20045
:100890008582D2000000A0000202520083825A002A
:1008A000030031000202420083824A000000A100DE
:1008B0000603E900F3FF3A0000000600EFFF07001F
:1008C0000400BE0000000600889FBE008A9FBE0094
:1008D000841F78009DFF07004F007800110033004F
:1008E000F0FF2F00838F6C0006003B0004056500BD
:1008F0000A00A7000800370009F0A6001000200039
:1009000008003700820F5400838F5C000300390019
:100910001000200001003E000000200009F0A700A8
:100920000000EA004F05BE004F04BE000000E000DA
:1009300000000600881F7800030478000300E00030
:1009400007003D0060001000E08018006001190001
:10095000E081190002003B0001F02D000300370088
:100960000400070008F0A70001F0A0004F04780081
:1009700000000600889FBE008A9FBE0000827000B3
:100980000402710004827100260032000004BE00DF
:100990000200BE006011B8006B0920009502200023
:1009A0000182CF000A0039000541B1000082CF006A
:1009B000070039000541B1000982CF000400390069
:1009C0000541B1000882CF00010039000541B100A6
:1009D00005425200120032000A003B008281710081
:1009E000610164008100D1000080D3008984D300BC
:1009F0000884D3008B05E8000442E800F7FF3A00C2
:100A0000070037000804440089844C0000004800B7
:100A1000818048008B05E9000442E900F9FF3A00B3
:100A20000FFF07004F05BE004F04BE000000060088
:100A30004D5500004943000000480000464D0000AD
:100A40005A4B00004A0000004A7500006C2000006C
:100A50003231000020320000303100003700000049
:100A6000313500003A330000373A000030340000DE
:100A700000500000696E00006773000068650000A8
:100A80006E670000204D0000616F000000560000FE
:100A9000312E0000302E0000300000006D7000008C
:100AA000737A00006D40000031320000362E0000E5
:100AB000636F00006D0000001800FA00889FBE0000
:100AC0008A9FBE008C1F780060079800710798000D
:100AD000020F9800130F980044579800555798003C
:100AE0006657980010C0B300104798000040EB0014
:100AF000204798000040EB00204798001A0037007C
:100B00004E5090008080FB002E4090000080FB0043
:100B1000008050000006E9000E0890009E0890003A
:100B2000A2002000030020005E040200000000007C
:100B3000804078000C004700314098000E0890007B
:100B40009E089000A2002000030020003E04020046
:100B500000000000000F9800110F98002E40900038
:100B60000040E80020479800AE4090004E509000B2
:100B700080CF5000E2FF39000040EB002047980092
:100B8000120037004E5090008080FB002E409000F5
:100B90000080FB0000805000CE5090008180FB0060
:100BA0000101E900AE4090008180FB00810051000E
:100BB00081004700B140900000004700314098009C
:100BC0002E4090000040E80020479800AE40900082
:100BD0005E50900080CF5000EAFF39004E509000E8
:100BE0008080FB005E5090000080FB000080500081
:100BF0000000470001C1B300314098005E509000F2
:100C00000004E000400032000040EB002047980064
:100C1000380037001E4090000004E000150032004C
:100C20002E4090000080FB00000047003040900004
:100C30000004E0000F003A002E4090008080FB008E
:100C40004E5090000080FB000001E9005E509000D3
:100C50000080FB0000005100808F500005003D0027
:100C600010C0B300104798000040EB00004F780020
:100C7000040037000040EB0010479800EE50900051
:100C8000014F78002ADF21001B0020000A01BE006E
:100C90002E4090000080FB00000047003040900094
:100CA0000080FB004400DD008000EB0000004100FC
:100CB000818049002E4190000281FB004311DD003C
:100CC000820178006E019000028341008042EB00B7
:100CD0001E4278000001BE00FE0090000600780071
:100CE00040F80200000000002E4090000040E800A4
:100CF00020479800AE4090004E50900080CF5000AA
:100D0000C4FF36003C0037000040EB00204798004D
:100D1000350037001E4090000004E0001200320051
:100D20002E4090000080FB00000047003040900003
:100D30000004E0000C003A002E4090008080FB0090
:100D40004E5090000080FB000000E900808F5000B2
:100D500005003D0010C0B300104798000040EB00B4
:100D6000004F7800040037000040EB001047980067
:100D7000EE509000014F780028DF2100190020007C
:100D80000801BE002E4090000080FB0000004700DC
:100D9000304090000080FB004400DD008000EB004C
:100DA00000004100818049002E4190000281FB003B
:100DB0004311DD00820178006E0190000283410042
:100DC0008042EB001E4278000001BE00FE00900051
:100DD0000600780040F80200000000002E4090005D
:100DE0000040E80020479800AE4090004E50900030
:100DF00080CF5000C7FF39004F0678004F05BE0076
:100E00004F04BE000080FA00000006001800FA003F
:100E1000889FBE008A9FBE008C1F780060079800E4
:100E200071079800020F9800130F9800445798001C
:100E3000555798006657980010C0B30010479800A7
:100E40000040EB00204798000040EB00204798004E
:100E50001A0037004E5090008080FB002E4090001A
:100E60000080FB00008050000006E9000E089000A2
:100E70009E089000A2002000030020005E040200F3
:100E800000000000804078000C00470031409800CE
:100E90000E0890009E089000A20020000300200091
:100EA0003E04020000000000000F9800110F98009F
:100EB0002E4090000040E80020479800AE4090008F
:100EC0004E50900080CF5000E2FF39000040EB0010
:100ED00020479800120037004E5090008080FB00A1
:100EE0002E4090000080FB0000805000CE5090000B
:100EF0008180FB000101E900AE4090008180FB0091
:100F00008100510081004700B1409000000047007F
:100F1000314098002E4090000040E80020479800A3
:100F2000AE4090005E50900080CF5000EAFF390044
:100F30004E5090008080FB005E5090000080FB00CF
:100F4000008050000000470001C1B300314098000C
:100F50005E5090000004E000420032000040EB00D0
:100F6000204798003A0037001E4090000004E0003F
:100F7000150032002E4090000080FB00000047006A
:100F8000304090000004E0000F003A002E40900036
:100F90008080FB004E5090000080FB000001E900C3
:100FA0005E5090000080FB0000005100808F5000D8
:100FB00005003D0010C0B300104798000040EB0052
:100FC000004F7800040037000040EB001047980005
:100FD000EE509000014F78002A0C20001B002000EA
:100FE0000A01BE002E4090000080FB000000470078
:100FF000304090008080FB00400420000088B90051
:10100000000078008000EB00000041008180490072
:101010002E4190000281FB004411DD008201780026
:101020006E019000028341008042EB001E42780076
:101030000001BE00FE0090000600780040F80200AB
:10104000000000002E4090000040E800204798007B
:10105000AE4090004E50900080CF5000C2FF36004E
:101060003E0037000040EB00204798003700370073
:101070001E4090000004E000120032002E4090005C
:101080000080FB0000004700304090000004E000BA
:101090000C003A002E4090008080FB004E509000E3
:1010A0000080FB000000E900808F500005003D003B
:1010B00010C0B300104798000040EB00004F7800CC
:1010C000040037000040EB0010479800EE509000FD
:1010D000014F7800280C2000190020000801BE00F4
:1010E0002E4090000080FB00000047003040900040
:1010F0008080FB00400420000088B90000007800D8
:101100008000EB0000004100818049002E419000EA
:101110000281FB004411DD00820178006E01900025
:10112000028341008042EB001E4278000001BE00B5
:10113000FE0090000600780040F802000000000069
:101140002E4090000040E80020479800AE409000FC
:101150004E50900080CF5000C5FF39004F067800F8
:101160004F05BE004F04BE000080FA0000000600DC
:101170001800FA00889FBE008A9FBE008C1F78006E
:101180006007980071079800020F9800130F9800ED
:1011900044579800555798006657980010C0B30000
:1011A000104798000040EB00204798000040EB00FB
:1011B000204798001A0037004E5090008080FB00B6
:1011C0002E4090000080FB00008050000006E900E7
:1011D0000E0890009E089000A2002000030020004E
:1011E0005E04020000000000804078000C00470010
:1011F000314098000E0890009E089000A200200048
:10120000030020003E04020000000000000F9800D0
:10121000110F98002E4090000040E80020479800F1
:10122000AE4090004E50900080CF5000E2FF390059
:101230000040EB0020479800120037004E5090000D
:101240008080FB002E4090000080FB00008050005A
:10125000CE5090008180FB000101E900AE4090007B
:101260008180FB008100510081004700B140900067
:1012700000004700314098002E4090000040E800F8
:1012800020479800AE4090005E50900080CF500004
:10129000EAFF39004E5090008080FB005E509000C5
:1012A0000080FB00008050000000470001C1B30037
:1012B000314098005E5090000004E000420032008F
:1012C0000040EB00204798003A0037001E40900095
:1012D0000004E000150032002E4090000080FB006A
:1012E00000004700304090000004E0000F003A008A
:1012F0002E4090008080FB004E5090000080FB004C
:101300000001E9005E5090000080FB0000005100E9
:10131000808F500005003D0010C0B30010479800BA
:101320000040EB00004F7800040037000040EB0065
:1013300010479800EE509000014F78004A4A210073
:101340001B0020000A01BE002E4090000080FB0020
:1013500000004700304090008080FB00A002200089
:101360000088B900000078008000EB000000410018
:10137000818049002E4190000281FB004411DD0074
:10138000820178006E019000028341008042EB00F0
:101390001E4278000001BE00FE00900006007800AA
:1013A00040F80200000000002E4090000040E800DD
:1013B00020479800AE4090004E50900080CF5000E3
:1013C000C2FF36003E0037000040EB002047980087
:1013D000370037001E4090000004E0001200320089
:1013E0002E4090000080FB0000004700304090003D
:1013F0000004E0000C003A002E4090008080FB00CA
:101400004E5090000080FB000000E900808F5000EB
:1014100005003D0010C0B300104798000040EB00ED
:10142000004F7800040037000040EB0010479800A0
:10143000EE509000014F7800484A2100190020002A
:101440000801BE002E4090000080FB000000470015
:10145000304090008080FB00A00220000088B9008E
:10146000000078008000EB0000004100818049000E
:101470002E4190000281FB004411DD0082017800C2
:101480006E019000028341008042EB001E42780012
:101490000001BE00FE0090000600780040F8020047
:1014A000000000002E4090000040E8002047980017
:1014B000AE4090004E50900080CF5000C5FF3900E4
:1014C0004F0678004F05BE004F04BE000080FA00B2
:1014D000000006001800FA00889FBE008A9FBE0028
:1014E0006007980071079800020F9800130F98008A
:1014F00044579800555798006657980010C0B3009D
:10150000104798000040EB00204798000040EB0097
:1015100020479800140037004E5090008080FB0058
:101520002E4090000080FB00008050000000E90089
:101530008E08900081407800E1C060000000470004
:10154000314098000E0890009E0890008100D10064
:101550000080D300000F9800110F98002E409000DB
:101560000040E80020479800AE4090004E509000A8
:1015700080CF5000E8FF39000040EB002047980082
:10158000120037004E5090008080FB002E409000EB
:101590000080FB0000805000CE5090008180FB0056
:1015A0000101E900AE4090008180FB008100510004
:1015B00081004700B1409000000047003140980092
:1015C0002E4090000040E80020479800AE40900078
:1015D0005E50900080CF5000EAFF39004E509000DE
:1015E0008080FB005E5090000080FB000080500077
:1015F0000000470001C1B300314098005E509000E8
:101600000004E000420032000040EB002047980058
:101610003A0037001E4090000004E0001500320040
:101620002E4090000080FB000000470030409000FA
:101630000004E0000F003A002E4090008080FB0084
:101640004E5090000080FB000001E9005E509000C9
:101650000080FB0000005100808F500005003D001D
:1016600010C0B30010479800EE509000014F780072
:10167000040037000040EB0010479800EE50900047
:10168000014F78002A0C20001B0020000A01BE0038
:101690002E4090000080FB0000004700304090008A
:1016A0008080FB00400420000088B9000000780022
:1016B0008000EB0000004100818049002E41900035
:1016C0000281FB004411DD00820178006E01900070
:1016D000028341008042EB001E4278000001BE0000
:1016E000FE0090000600780040F8020000000000B4
:1016F0002E4090000040E80020479800AE40900047
:101700004E50900080CF5000C2FF36003E003700A0
:101710000040EB0020479800370037001E40900043
:101720000004E000120032002E4090000080FB0018
:1017300000004700304090000004E0000C003A0038
:101740002E4090008080FB004E5090000080FB00F7
:101750000000E900808F500005003D0010C0B3007C
:1017600010479800EE509000014F780004003700B9
:101770000040EB0010479800EE509000014F7800B9
:10178000280C2000190020000801BE002E40900007
:101790000080FB0000004700304090008080FB008C
:1017A000400420000088B900000078008000EB00B1
:1017B00000004100818049002E4190000281FB0021
:1017C0004411DD00820178006E0190000283410027
:1017D0008042EB001E4278000001BE00FE00900037
:1017E0000600780040F80200000000002E40900043
:1017F0000040E80020479800AE4090004E50900016
:1018000080CF5000C5FF39004F05BE004F04BE0019
:101810000080FA00000006001800FA00889FBE0051
:101820008A9FBE006007980071079800020F980019
:10183000130F980044579800555798006657980022
:1018400010C0B300104798000040EB00004F780034
:101850000040EB00004F7800130037004E5090001E
:101860008080FB001E80FB00008050000000E9002B
:101870008E08900081407800EFC0600000004700B3
:10188000314098000E0890009E0890004C09DD0041
:101890004400DE0000007100C408DE00000F980064
:1018A000110F98001E4FE8004E5090009E407800A7
:1018B00080CF5000E9FF39000040EB00004F780076
:1018C0000E0037004E5090008080FB001E80FB0011
:1018D00000805000CE5090008180FB000101E900A3
:1018E0009E80FB008100510081004700B1409000C4
:1018F00000004700314098001E4FE8005E50900005
:101900009E40780080CF5000EEFF39004E5090008E
:101910008080FB005E5090000080FB000080500043
:101920000000470001C1B300314098005E509000B4
:101930000004E000240032000040EB00004F78007B
:101940001C003700EE509000214798002A0C200020
:101950001B0020000A01BE001E80FB0000004700A3
:10196000304090008080FB00400420000088B900D7
:10197000000078008000EB000000410081804900F9
:101980001E81FB004411DD00820178006E01900091
:10199000028341008042EB002E4290000001BE0015
:1019A000FE0090000600780040F8020000000000F1
:1019B0001E4FE8004E5090009E40780080CF5000AF
:1019C000E0FF3600250037000040EB00004F7800B4
:1019D0001E0037000040EB00104798006E51900049
:1019E00022479800280C2000190020000801BE00A2
:1019F0001E80FB0000004700304090008080FB000C
:101A0000400420000088B900000078008000EB004E
:101A100000004100818049001E81FB004411DD006F
:101A2000820178006E019000028341008042EB0049
:101A30002E4290000001BE00FE00900006007800DB
:101A400040F80200000000001E4FE8004E509000D9
:101A50009E40780080CF5000DEFF39004F05BE0069
:101A60004F04BE000080FA00000006000C00FA00DF
:101A700010079800210798006247980043079800D4
:101A8000244F9800354F98000040EB00004F78003D
:101A9000150037001E80FB004200DD00CE009000E4
:101AA000008040001000BE006E4190008281FB006B
:101AB0001E81FB000299B9000201780082017800C2
:101AC0001E01900002834100BE4A90002E4A900001
:101AD0000001BE00AE0090000600780040F8020051
:101AE000000000001E4FE8001E80FB004200DD00E9
:101AF000CE009000008040001001BE00020078007F
:101B0000008071000000E000E2FF3A000080FA006F
:101B1000000006000C00FA0020079800310798002A
:101B200042079800234F9800344F98000040EB0084
:101B3000104798000040EB00204798000040EB0061
:101B4000004F7800250037001E80FB004200DD00BA
:101B5000CE009000008040001000BE001E419000AA
:101B60008281FB002E01900002834100BE4A90005A
:101B70002E4A90000001BE00BE00900006007800D2
:101B800040F80200000000001E80FB004200DD0063
:101B9000CE009000008040001000BE0061004000B8
:101BA000E0804800A201800000F0A4008180D20003
:101BB000A101880010407800A20188006700B900E8
:101BC00000007800204798009E4090002E40900032
:101BD00000C04000104798001E4FE8001E80FB0028
:101BE0004200DD00CE009000008040001001BE00E9
:101BF00002007800008071000000E000D2FF3A008F
:101C00000080FA00000006000000FA00204080007A
:101C100031408000A2002000030020003E040200AA
:101C20000000000000C3EB008042EB0074C0B30072
:101C30000001BE00611B20000005200073FC0700AE
:101C4000104080008000EB0000C3EB0015C0B30023
:101C500054C0B3000001BE00611B2000C029200059
:101C60006AFC07000080FA00000006006200FA002B
:101C7000889FBE008A9FBE008C9FBE001007980000
:101C800021079800320798004307980054079800EE
:101C9000650798000040EB00004F78001CC9BF00AA
:101CA0000004E0003200320011C9BF000004E0006F
:101CB0002F003A0012C9BF000004E00015003200F6
:101CC000C066210010407800F0404000C06621004E
:101CD00001487800C0662100104078000080FB00B9
:101CE0004400DE0000407800E24F5000050036005E
:101CF000C066210010407800EF406000C0662100FF
:101D000001487800A0662100C02302000100000005
:101D10001269EF0088DC2000190020000801BE00D5
:101D20000E4890000080FB004400DE000040780078
:101D30000080FB00EF006000300520000088B90043
:101D4000000078008000EB00000041008180490025
:101D500095C4B30000C2EB000001BE00AE009000CD
:101D60001E00900040F8020000000000160037003E
:101D700086DC2000170020000601BE000E489000FF
:101D80000080FB004400DE00004078000080FB0083
:101D9000EF006000300520000088B90000007800E6
:101DA0008000EB0000004100818049008042EB0090
:101DB00000C2EB000001BE00AE0090001E009000CB
:101DC00040F80200000000001CC9BF000004E00051
:101DD0002F00320011C9BF00E14F50002C003A0023
:101DE00012C9BF000004E00015003200C0662100E7
:101DF000104078008040E800C0662100014878006B
:101E0000C0662100104078000080FB006F00600079
:101E1000E90F500006003400C066210090407800B1
:101E200000CFB30080C06000C06621000148780088
:101E3000A0662100C0230200010000001269EF002B
:101E40008CDC20001D0020000C01BE000E4890001C
:101E50000080FB00EF006000300520000088B90022
:101E6000000078008000EB00000141008181490002
:101E70001E0090007C00400095C4B30000C2EB003F
:101E8000AE00900040F80200000000001300370090
:101E90008ADC20001B0020000A01BE000E489000D2
:101EA0000080FB00EF006000300520000088B900D2
:101EB000000078008000EB000001410081814900B2
:101EC0001E0090007C0040008042EB0000C2EB004E
:101ED000AE00900040F80200000000001CC9BF00E6
:101EE0000004E0003500320011C9BF00E24F50008D
:101EF00032003A0012C9BF000004E00015003200B1
:101F0000B066210010407800F0404000B06621002B
:101F100001487800B0662100104078000080FB0086
:101F20004400DE0000407800E54F50000500360018
:101F3000B066210010407800EF406000B0662100DC
:101F400001487800A0662100C023020001000000C3
:101F50001269EF0081DC2000710798001400200056
:101F6000040F98007E0190008E0990007E40900042
:101F70000080FB004400DE00004078000080FB0091
:101F8000EF006000300520000088B90000007800F4
:101F90008000EB0000014100818149001E0090009B
:101FA0004005B00095C4B30000C2EB00AE00900045
:101FB00040F80200000000001900370085DC200016
:101FC000150F980011002000210F98001E099000A5
:101FD000AE0990007E4090000080FB004400DE00CF
:101FE000004078000080FB00EF006000300520001A
:101FF0000088B900000078008000EB00000141007B
:10200000818149001E0090004005B0008042EB0035
:1020100000C2EB00AE00900040F80200000000009B
:102020001CC9BF000004E0003200320011C9BF002B
:10203000E34F50002F003A0012C9BF000004E00037
:1020400015003200B0662100104078008040E800A2
:10205000B066210001487800B06621001040780089
:102060000080FB006F006000E90F500006003400A4
:10207000B06621009040780000CFB30080C06000BF
:10208000B066210001487800A0662100C02302004C
:10209000010000001269EF0084DC2000340F98007A
:1020A00015002000450F98003E099000CE099000D1
:1020B0007E4090000080FB00EF00600030052000B3
:1020C0000088B900000078008000EB0000014100AA
:1020D000818149001E0090000007B00095C4B30044
:1020E00000C2EB00AE00900040F8020000000000CB
:1020F0001600370081DC2000510F980014002000EA
:10210000640F98005E099000EE0990007E409000F8
:102110000080FB00EF006000300520000088B9005F
:10212000000078008000EB0000014100818149003F
:102130001E0090000007B0008042EB0000C2EB00E0
:10214000AE00900040F8020000000000214A80002C
:1021500000022000008060000000E0000300320068
:1021600000C0EB00004F7800020037000040EB0099
:10217000004F780085DC2000750F980011002000CA
:10218000011798007E0890008E109000E433200024
:102190000500200004014000858148002E009000C9
:1021A000E30040001E0090008003B0008042EB007E
:1021B0001E42780040F8020000000000404A800003
:1021C000700060000000E00005003200304A80002E
:1021D0004300DE00614060001CE9B70002003700E8
:1021E0001C69EF001169EF0013C9BF00E14F5000F7
:1021F00029023A00250C2000151798001100200034
:10220000211798001E109000AE1090008408200046
:102210000500200004014000858148001E00900058
:102220004010B0008042EB0000C2EB00AE00900016
:1022300040F8020000000000250C2000351798002F
:1022400011002000411798003E119000CE1190001F
:102250001E0090004011B0008042EB0000C2EB0075
:10226000AE00900040F80200000000001CC9BF0052
:102270000004E0003500320011C9BF00E44F5000F7
:1022800032003A0012C9BF000004E000150032001D
:102290000067210010407800F040400000672100F6
:1022A0000148780000672100104078000080FB00A2
:1022B0004400DE0000407800E94F50000500360081
:1022C0000067210010407800EF40600000672100A7
:1022D00001487800A0662100C02302000100000030
:1022E0001269EF00240C20005417980015002000FC
:1022F000651798005E119000EE1190004E48900016
:102300000080FB004400DE00004078000080FB00FD
:10231000EF006000400420000088B9000000780051
:102320008000EB0000014100818149001E00900007
:102330004012B00095C4B30000C2EB00AE009000A4
:1023400040F802000000000019003700210C2000B6
:102350007117980014002000041F98007E1190004F
:102360008E1990004E4890000080FB004400DE0073
:10237000004078000080FB00EF0060004004200077
:102380000088B900000078008000EB0000014100E7
:10239000818149001E0090004012B0008042EB0095
:1023A00000C2EB00AE00900040F802000000000008
:1023B0001CC9BF000004E0003200320011C9BF0098
:1023C000E54F50002F003A0012C9BF000004E000A2
:1023D0001500320000672100104078008040E800BE
:1023E0000067210001487800006721001040780054
:1023F0000080FB006F006000E90F50000600340011
:10240000006721009040780000CFB30080C06000DA
:102410000067210001487800A0662100C023020067
:10242000010000001269EF00250C2000151F980024
:1024300011002000211F98001E199000AE19900075
:102440004E4890000080FB00EF0060004004200038
:102450000088B900000078008000EB000001410016
:10246000818149001E0090004013B00095C4B30064
:1024700000C2EB00AE00900040F802000000000037
:1024800016003700240C2000341F9800150020008F
:10249000451F98003E199000CE1990004E489000BC
:1024A0000080FB00EF006000400420000088B900BD
:1024B000000078008000EB000001410081814900AC
:1024C0001E0090004013B0008042EB0000C2EB0001
:1024D000AE00900040F8020000000000210C200037
:1024E000511F980014002000641F98005E1990008E
:1024F000EE1990004048200001002000000141003A
:10250000818149001E0090004014B0008042EB0021
:1025100000C2EB00AE00900040F802000000000096
:102520001CC9BF000004E0003500320011C9BF0023
:10253000E64F500032003A0012C9BF000004E0002C
:1025400015003200F066210010407800F040400095
:10255000F066210001487800F06621001040780004
:102560000080FB004400DE0000407800E14F500096
:1025700005003600F066210010407800EF40600052
:10258000F066210001487800A0662100C023020007
:10259000010000001269EF00250C2000751F980053
:1025A00011002000012798007E1990008E219000D4
:1025B0003E4890000080FB004400DE0000407800B0
:1025C0000080FB00EF006000400420000088B9009C
:1025D000000078008000EB0000014100818149008B
:1025E0001E0090004015B00095C4B30000C2EB007F
:1025F000AE00900040F80200000000001900370013
:10260000240C20001427980015002000252798008E
:102610001E219000AE2190003E4890000080FB00FB
:102620004400DE00004078000080FB00EF00600006
:10263000400420000088B900000078008000EB0012
:1026400000014100818149001E0090004015B0004A
:102650008042EB0000C2EB00AE00900040F80200A8
:10266000000000001CC9BF000004E000350032007B
:1026700011C9BF00E74F500032003A0012C9BF0035
:102680000004E00015003200F066210010407800E0
:102690008040E800F066210001487800F0662100E3
:1026A000104078000080FB006F006000E90F5000D0
:1026B00006003400F06621009040780000CFB3009F
:1026C00080C06000F066210001487800A06621000B
:1026D000C0230200010000001269EF00210C20005D
:1026E0003127980014002000442798003E219000D4
:1026F000CE2190003E4890000080FB00EF0060007B
:10270000400420000088B900000078008000EB0041
:1027100000004100818049001E0190004616200003
:102720000203430095C4B30000C2EB000001BE00E9
:10273000AE0090000600780040F8020000000000A3
:1027400019003700250C20005527980011002000A3
:10275000612798005E219000EE2190003E48900095
:102760000080FB00EF006000400420000088B900FA
:10277000000078008000EB000000410081804900EB
:102780001E01900046162000020343008042EB0029
:1027900000C2EB000001BE00AE0090000600780011
:1027A00040F8020000000000240C2000742798006C
:1027B00015002000052F98007E2190008E299000A2
:1027C00040482000010020000000410081804900B5
:1027D0001E01900046172000020343008042EB00D8
:1027E00000C2EB000001BE00811B20000600780043
:1027F00040F80200000000001CC9BF000004E00017
:102800003800320011C9BF00E84F500035003A00CF
:1028100012C9BF000004E00015003200E06621008C
:1028200010407800F0404000E06621000148780048
:10283000E0662100104078000080FB004400DE00CC
:1028400000407800E34F500005003600E0662100AC
:1028500010407800EF406000E066210001487800F9
:10286000A0662100C0230200010000001269EF00F1
:10287000210C2000112F980014002000242F980014
:102880001E299000AE2990002E4890000080FB0089
:102890004400DE00004078000080FB00EF00600094
:1028A000400420000088B900000078008000EB00A0
:1028B00000004100818049001E0190004618200060
:1028C0000203430095C4B30000C2EB000001BE0048
:1028D000AE0090000600780040F802000000000002
:1028E0001C003700250C2000352F98001100200017
:1028F000412F98003E299000CE2990002E4890004C
:102900000080FB004400DE00004078000080FB00F7
:10291000EF006000400420000088B900000078004B
:102920008000EB0000004100818049001E01900002
:1029300046182000020343008042EB0000C2EB0077
:102940000001BE00AE0090000600780040F80200D2
:10295000000000001CC9BF000004E0003500320088
:1029600011C9BF00E94F500032003A0012C9BF0040
:102970000004E00015003200E066210010407800FD
:102980008040E800E066210001487800E066210010
:10299000104078000080FB006F006000E90F5000DD
:1029A00006003400E06621009040780000CFB300BC
:1029B00080C06000E066210001487800A066210028
:1029C000C0230200010000001269EF00240C200067
:1029D000542F980015002000652F98005E29900064
:1029E000EE2990002E4890000080FB00EF00600070
:1029F000400420000088B900000078008000EB004F
:102A000000004100818049001E019000461920000D
:102A10000203430095C4B30000C2EB000001BE00F6
:102A2000AE0090000600780040F8020000000000B0
:102A300019003700210C2000712F9800140020008D
:102A4000043798007E2990008E3190002E48900027
:102A50000080FB00EF006000400420000088B90007
:102A6000000078008000EB000000410081804900F8
:102A70001E01900046192000020343008042EB0033
:102A800000C2EB000001BE00AE009000060078001E
:102A900040F80200000000004F06BE004F05BE00D7
:102AA0004F04BE000080FA00000006003200FA0069
:102AB000889FBE008A9FBE008C9FBE0090C4B3005A
:102AC000004F780020B38000620060000000E0004A
:102AD00003003200C0CFB300004F7800020037007F
:102AE00090C4B300004F780060622100104078006D
:102AF0009E4F500002003200606221001E487800A4
:102B000040B38000610060000000E0000700320078
:102B1000304A8000620060000000E00003003200E4
:102B200000CEB300004F78000200370090C4B3001D
:102B3000004F7800229D2000130020000200BE00FC
:102B4000422A200003002000020040008380480049
:102B50008042EB001E4278000001BE008100200090
:102B6000E000200040F802000000000040B38000B8
:102B7000620060000000E0000300320000CEB300FD
:102B8000004F78000200370090C4B300004F780077
:102B900070622100104078009E4F500010003200FB
:102BA000706221001E48780008E42C000900200013
:102BB0000801BE0040D320000100200000004100B9
:102BC000818049008042EB001E4278000001BE0077
:102BD000A10020008004200040F802000000000056
:102BE00040B38000640060000000E0000300320099
:102BF00000CEB300004F78000200370090C4B3004D
:102C0000004F780080622100104078009E4F5000F5
:102C100010003200806221001E4878000AE42C0077
:102C20000B0020000A01BE0080FD200001002000F2
:102C300000004100818049008042EB001E42780084
:102C40000001BE00810420008004200040F8020042
:102C50000000000071C8BF00FE4F500008003600A1
:102C600021B3800000042000008060000000E0002C
:102C700003003200C0C1B300004F780002003700EB
:102C800090C4B300004F780090622100104078009B
:102C90009E4F500010003200906221001E487800C4
:102CA0000CE42C000D0020000C01BE00805420001C
:102CB0000100200000004100818049008042EB00BB
:102CC0001E4278000001BE00A1002000C00C2000C0
:102CD00040F802000000000090C4B300004F7800EC
:102CE000A0622100104078009E4F50001300320077
:102CF000A06221001E48780003E42C00130798000E
:102D000001002000210798001E019000AE019000F4
:102D1000A0692000010020000000410081804900DE
:102D20008042EB001E4278000001BE00A10020009E
:102D3000E010200040F8020000000000204B80005E
:102D4000610060000000E0000300320000CEB3002C
:102D5000004F78000200370090C4B300004F7800A5
:102D6000B0622100104078009E4F500013003200E6
:102D7000B06221001E48780002E42C00320798005F
:102D800003002000430798003E009000CE00900012
:102D9000422A2000030020000200400083804800F7
:102DA0008042EB001E4278000001BE00A10020001E
:102DB0000015200040F802000000000020B3800051
:102DC000620060000000E00003003A00C0CFB300E2
:102DD000004F78000200370090C4B300004F780025
:102DE000C0622100104078009E4F50001300320056
:102DF000C06221001E48780003E42C0053079800AD
:102E000001002000610798005E009000EE00900035
:102E100022152000030020000200400083804800AB
:102E20008042EB001E4278000001BE00A10020009D
:102E30002019200040F8020000000000E14280005C
:102E400000082000008060000000E0000300320065
:102E500000CEB300004F78000200370090C4B300EA
:102E6000004F7800D0622100104078009E4F500043
:102E700013003200D06221001E48780003E42C00C9
:102E80007307980001002000010F98007E01900058
:102E90008E099000C02721000100200000004100A1
:102EA000818049008042EB001E4278000001BE0094
:102EB000A1002000401D200040F80200000000009A
:102EC000214B800000402000008060000000E000F6
:102ED0000300320000CEB300004F7800020037003C
:102EE00090C4B300004F7800E062210010407800E9
:102EF0009E4F500013003200E06221001E4878000F
:102F000002E42C00120F980003002000230F980009
:102F10001E089000AE089000623F200003002000D1
:102F200002004000838048008042EB001E4278008F
:102F30000001BE00A10020006021200040F8020036
:102F400000000000004B8000620060000000E00014
:102F50000300320000CEB300004F780002003700BB
:102F600090C4B300004F7800F06221001040780058
:102F70009E4F500002003200F06221001E4878008F
:102F800021B3800000082000008060000000E00005
:102F900009003A00A0408000FE0F500006003200F9
:102FA000B0408000FE0F500003003200C04080009F
:102FB000FE0F500003003A00C0CFB300004F78006E
:102FC0000200370090C4B300004F78000063210076
:102FD000104078009E4F5000020032000063210034
:102FE0001E487800E04A8000620060000000E000B7
:102FF00003003A0000CEB300004F78000200370013
:1030000090C4B300004F7800506321001040780056
:103010009E4F500002003200506321001E4878008D
:10302000204B8000620060000000E00003003A00D6
:1030300000CEB300004F78000200370090C4B30008
:10304000004F780060632100104078009E4F5000D0
:1030500027003200606321001E48780003E42C0042
:10306000330F980001002000410F98003E099000A6
:10307000CE099000E03C210001002000000041004A
:10308000818049008042EB001E4278000001BE00B2
:10309000A10420000011200040F802000000000000
:1030A0008042EB001E42780042A72700520F980092
:1030B00013002000630F98005E099000EE09900055
:1030C000910520001012200040F8020000000000CE
:1030D0001E4378008042EB0014C0B30022002000A1
:1030E00003002000C1052000C012200072F6070076
:1030F000E142800000022000008060000000E0004B
:1031000003003200C0C1B300004F78000200370056
:1031100090C4B300004F7800706321001040780025
:103120009E4F50000E003200706321001E48780050
:103130008042EB001E42780021582300710F980056
:1031400012002000021798007E0990008E11900056
:1031500061052000F014200040F80200000000008B
:10316000E04A8000680060000000E00003003A00D0
:1031700000CEB300004F78000200370090C4B300C7
:10318000004F780080632100104078009E4F50006F
:1031900002003200806321001E487800204B80002E
:1031A000680060000000E00003003A0000CEB300B9
:1031B000004F78000200370090C4B300004F780041
:1031C00090632100104078009E4F5000270032008D
:1031D000906321001E48780003E42C001317980028
:1031E00001002000211798001E119000AE119000E0
:1031F000E03C2100010020000000410081804900E6
:103200008042EB001E4278000001BE00A1042000B5
:10321000601D200040F80200000000008042EB002A
:103220001E427800A2B92700321798001300200030
:10323000431798003E119000CE1190009105200098
:10324000701E200040F80200000000001E437800BD
:103250008042EB0014C0B3002200200003002000D5
:10326000C1052000201F200013F6070090C4B30002
:10327000004F7800A0632100104078009E4F50005E
:1032800002003200A06321001E48780040B3800095
:10329000680060000000E00013003A00A0922000E7
:1032A00030009000620060000000E0000E003A0074
:1032B000E142800000022000008060000000E00089
:1032C0000900320056C8BF00ED4F50000300320025
:1032D00056C8BF00EE4F500003003A0000CEB300C6
:1032E000004F78000200370090C4B300004F780010
:1032F000219D2000511798001200200062179800AD
:103300005E109000EE1090008042EB001E427800AC
:103310000001BE0051042000C008200040F8020057
:103320000000000040B38000680060000000E00082
:103330000E00320040B38000700060000000E0002A
:103340000A00320060418000E50F5000070036009F
:10335000304A8000620060000000E000030032009C
:1033600000CEB300004F78000200370090C4B300D5
:10337000004F7800239D2000731798001100200053
:10338000011F98007E1090008E18900022152000DA
:103390000300200002004000838048008042EB00D0
:1033A0001E4278000001BE00A1002000C0082000DD
:1033B00040F80200000000004F06BE004F05BE00AE
:1033C0004F04BE000080FA00000006008400FA00EE
:1033D000889FBE008A9FBE008C9FBE00000F7800B1
:1033E00011079800214A800000042000008060003E
:1033F0000000E00091053A001BC9BF000080FB00FF
:103400006101B9001002200001002000800F51006E
:10341000818F590080053E000260010021003700C5
:103420005E00370099003700D50037002B013700C8
:10343000600137008C013700C601370000023700F9
:103440002D023700E4023700970337009803370056
:1034500099033700B3033700CC033700E403370088
:10346000FC033700140437002C04370044043700F1
:103470005C043700740437008C043700A404370060
:10348000A5043700A6043700A7043700A8043700B6
:10349000C1043700DA043700F30437001C05370095
:1034A0004005370010C0B3001BE9B700A042800000
:1034B000640060000000E000380032001E00900050
:1034C000680040008042EB00C4CFB300269A27007A
:1034D000170020000601BE00800078001E00780062
:1034E00040F80200000000001E009000E8004000CC
:1034F0001E0178006B0041008042EB00C4CFB30096
:103500002CAF27001D0020000C01BE0040F8020077
:10351000000000001E009000E80040009E017800BE
:10352000768041008042EB00C4CFB3004ABC270044
:103530001B0020000A01BE0040F80200000000004D
:103540001E009000E8004000120220001E00410012
:103550008042EB00C4CFB300088224001900200091
:103560000801BE0040F8020000000000B304200083
:103570001E8041000042EB00430220004206200072
:103580009E0090007AFB020000000000204A8000AC
:103590000060A000204A88002805370020C0B30042
:1035A0001BE9B700A0428000680060000000E00056
:1035B000360032001E009000680040008042EB00A0
:1035C000C4CFB30081AC2300210798001200200073
:1035D000320798002E019000BE0190008000780014
:1035E0001E00780040F80200000000001E0090005D
:1035F000E8004000A30220001E8041008042EB0052
:10360000C4CFB300626E250042079800130020006B
:10361000530798004E019000DE01900040F8020030
:10362000000000001E009000E8004000420520005D
:103630001E0041008042EB00C4CFB300038224008F
:103640006307980012002000720798006E01900036
:10365000FE01900040F8020000000000E307200097
:103660001E8041000042EB00430220004206200081
:103670009E0090007AFB020000000000204A8000BB
:103680000060A000204A8800EC04370030C0B3007E
:103690001BE9B700E14280000008200000806000C4
:1036A0000000E000360032001E009000680040007C
:1036B0008042EB00C4CFB300C1E02500010F9800A9
:1036C00012002000120F98000E0990009E09900031
:1036D000800078001E00780040F802000000000022
:1036E0001E009000E8004000A30220001E80410060
:1036F0008042EB00C4CFB300626E2500220F980019
:1037000013002000330F98002E099000BE0990008E
:1037100040F80200000000001E009000E800400099
:10372000420520001E0041008042EB00C4CFB300E0
:1037300003082400430F980012002000520F980045
:103740004E099000DE09900040F8020000000000E1
:10375000E30720001E8041000042EB0043022000EE
:10376000420620009E0090007AFB0200000000004C
:10377000204A80000060A000204A8800AF04370083
:1037800040C0B3001BE9B70082C8BF000004E000DE
:10379000520032001E009000680040008042EB00A2
:1037A000C4CFB300219A2700610F980012002000B7
:1037B000720F98006E099000FE099000800078005A
:1037C0001E00780040F80200000000001E0090007B
:1037D000E80040009E0178006B8041008042EB00D1
:1037E000C4CFB30022AF27000217980013002000B7
:1037F000131798000E1190009E11900040F80200DF
:10380000000000001E009000E80040001E0178004B
:10381000760041008042EB00C4CFB30043BC2700D8
:103820002317980012002000321798002E119000E4
:10383000BE11900040F80200000000001E00900041
:10384000E8004000130220001E8041008042EB008F
:10385000C4CFB300E24F25004217980013002000A8
:10386000531798004E119000DE11900040F80200AE
:10387000000000001E009000E8004000B20420009C
:103880001E0041008042EB00C4CFB30003082400B7
:103890006317980012002000721798006E119000B4
:1038A000FE11900040F802000000000053072000C5
:1038B0001E8041000042EB0043022000420620002F
:1038C0009E0090007AFB020000000000204A800069
:1038D0000060A000204A88005804370050C0B300A0
:1038E0001BE9B70070C8BF00E14F500031003A003B
:1038F0001E009000680040008042EB00C4CFB3007F
:10390000631E2100B2C0B300800078001E00780062
:1039100056F807001E009000E80040001202200048
:103920001E0041008042EB00C4CFB300636E25004F
:10393000031F980012002000121F98000E1990001B
:103940009E19900040F80200000000001E00900048
:10395000E8004000B30420001E8041008042EB00DC
:10396000C4CFB30002082400221F980013002000D7
:10397000331F98002E199000BE19900040F80200E5
:1039800000000000510720001E8040000042EB00B4
:1039900043022000220320009E0090007AFB0200D8
:1039A00000000000204A80000060A000204A88003B
:1039B0002204370060C0B3001BE9B7009CC8BF00F9
:1039C0000004E000280032001E0090006600400065
:1039D0008042EB00C4CFB300A24D2200421F9800EA
:1039E00013002000531F98004E199000DE1990001C
:1039F000800078001E00780040F8020000000000FF
:103A00001E009000E8004000120420001E0041004B
:103A10008042EB00C4CFB30003082400631F98006A
:103A200012002000721F98006E199000FE1990007D
:103A300040F8020000000000B30620001E80410094
:103A40000042EB0043022000420620009E0090004E
:103A50007AFB020000000000204A80000060A00005
:103A6000204A8800F503370070C0B3001BE9B70097
:103A7000A8C8BF000004E000360032001E0090001D
:103A8000680040008042EB00C4CFB30061AB25006A
:103A90000127980012002000122798000E219000A4
:103AA0009E219000800078001E00780040F80200FF
:103AB000000000001E009000E8004000A30220006B
:103AC0001E8041008042EB00C4CFB300626E25002F
:103AD0002227980013002000332798002E21900001
:103AE000BE21900040F80200000000001E0090007F
:103AF000E8004000420520001E0041008042EB002B
:103B0000C4CFB3000308240043279800120020000C
:103B1000522798004E219000DE21900040F80200CC
:103B200000000000E30720001E8041000042EB007F
:103B300043022000220320009E0090007AFB020036
:103B400000000000204A80000060A000204A880099
:103B5000BA03370080C0B3001BE9B700BCC8BF0080
:103B60000004E000360032001E00900068004000B3
:103B70008042EB00C4CFB30061F4240061279800B9
:103B800012002000722798006E219000FE21900004
:103B9000800078001E00780040F80200000000005D
:103BA0001E009000E8004000A30220001E8041009B
:103BB0008042EB00C4CFB300626E2500022F980054
:103BC00013002000132F98000E2990009E299000CA
:103BD00040F80200000000001E009000E8004000D5
:103BE000420520001E0041008042EB00C4CFB3001C
:103BF00003082400232F980012002000322F980081
:103C00002E299000BE29900040F80200000000001C
:103C1000E30720001E8041000042EB004302200029
:103C2000220320009E0090007AFB020000000000AA
:103C3000204A80000060A000204A88007F033700EF
:103C400090C0B3001BE9B700614180005004200020
:103C5000808F5000280036001E0090006800400051
:103C60008042EB00C4CFB30021772300412F98009E
:103C700012002000522F98004E299000DE2990005B
:103C8000800078001E00780040F80200000000006C
:103C90001E009000E8004000A30220001E804100AA
:103CA0008042EB00C4CFB300E2672300622F98008C
:103CB00013002000732F98006E299000FE299000B9
:103CC00040F8020000000000410520001E80400076
:103CD0000042EB0043022000420620009E009000BC
:103CE0007AFB020000000000204A80000060A00073
:103CF000204A880051033700A0C0B3001BE9B70079
:103D00005EC8BF000004E000B30032001E00900057
:103D1000680040008042EB00C4CFB300C2E0250041
:103D20000237980013002000133798000E319000DE
:103D30009E319000800078001E00780040F802005C
:103D400000000000E18520009140780050C9B300D8
:103D500080CF50001B003600E185200091407800A4
:103D600080CCB30080CF500016003E00414A2100B5
:103D70002137980012002000323798002E30900032
:103D8000BE309000820A20000300200002004000A4
:103D9000838048001E019000E8034100A302200038
:103DA0001E8341008042EB00C4CFB3000001BE007F
:103DB000870078000600780040F80200000000004C
:103DC0005D003700E18520009140780030C6B300E7
:103DD00080CF50001B003600E18520009140780024
:103DE00050C9B30080CF500016003E00414A210068
:103DF0004137980012002000523798004E30900052
:103E0000DE309000E20720000300200002004000A6
:103E1000838048001E019000E8034100A3022000B7
:103E20001E8341008042EB00C4CFB3000001BE00FE
:103E3000870078000600780040F8020000000000CB
:103E40003D003700E18520009140780010C3B300A9
:103E500080CF50001B003600E185200091407800A3
:103E600030C6B30080CF500016003E00414A21000A
:103E70006137980012002000723798006E30900071
:103E8000FE309000420520000300200002004000A8
:103E9000838048001E019000E8034100A302200037
:103EA0001E8341008042EB00C4CFB3000001BE007E
:103EB000870078000600780040F80200000000004B
:103EC0001D0037005EC8BF000004E0001A00320089
:103ED000E18520009140780010C3B30080CF5000EE
:103EE00015003E00414A2100013F980012002000C9
:103EF000123F98000E3890009E389000A2022000D9
:103F00000300200002004000838048001E01900052
:103F1000E8034100A30220001E8341008042EB0021
:103F2000C4CFB3000001BE0087007800060078000F
:103F300040F80200000000001E009000E800400071
:103F4000420320001E0041008042EB00C4CFB300BA
:103F500083F72600233F980012002000323F98008C
:103F60002E399000BE39900040F802000000000099
:103F70001E009000E8004000930420001E804100D5
:103F80008042EB00C4CFB30002082400423F9800F7
:103F900013002000533F98004E399000DE39900006
:103FA00040F8020000000000310720001E804000A1
:103FB0000042EB0043022000420620009E009000D9
:103FC0007AFB020000000000204A80000060A00090
:103FD000204A880099023700B0C0B3001BE9B7003F
:103FE000908180006C006000E40F50008600320079
:103FF000918180000003200000806000F00F5000DD
:104000008100320091818000000C200080806000DF
:1040100000042000808F50007B003200A0818000CF
:104020006C006000E40F500077003200A181800036
:104030000003200000806000F00F5000720032008A
:10404000A1818000000C200080806000000420001E
:10405000808F50006C003200F08180006C006000A6
:10406000E40F500068003200F1818000000320005E
:1040700000806000F00F500063003200F18180008A
:10408000000C20008080600000042000808F500021
:104090005D003200008280006C006000E40F500080
:1040A000590032000182800000032000008060007F
:1040B000F00F50005400320001828000000C2000FC
:1040C0008080600000042000808F50004E0032008D
:1040D000108280006C006000E40F50004A00320043
:1040E000118280000003200000806000F00F50006B
:1040F0004500320011828000000C200080806000AA
:1041000000042000808F50003F0032002082800099
:104110006C006000E40F50003B0032002182800000
:104120000003200000806000F00F500036003200D5
:1041300021828000000C20008080600000042000AC
:10414000808F50003000320020092100104078009C
:10415000E34F50002C00320020092100104078006D
:10416000E44F500028003200300921001040780050
:10417000E34F500024003200300921001040780045
:10418000E44F5000200032008009210010407800E8
:10419000E34F50001C0032008009210010407800DD
:1041A000E44F5000180032009009210010407800C0
:1041B000E34F5000140032009009210010407800B5
:1041C000E44F500010003200A00921001040780098
:1041D000E34F50000C003200A0092100104078008D
:1041E000E44F500008003200B00921001040780070
:1041F000E34F500004003200B00921001040780065
:10420000E44F500028003A001E0090006800400073
:104210008042EB00C4CFB30082A02400623F98002C
:1042200013002000733F98006E399000FE39900013
:10423000800078001E00780040F8020000000000B6
:104240001E009000E8004000A20220001E00410075
:104250008042EB00C4CFB30003082400038798001A
:1042600012002000128798000E8190009E8190001D
:1042700040F8020000000000430520001E804100BD
:104280000042EB0043022000420620009E00900006
:104290007AFB020000000000204A80000060A000BD
:1042A000204A8800E5013700C0C0B3001BE9B70011
:1042B000D0C0B3001BE9B700E0C0B3001BE9B700F2
:1042C000E142800000042000008060000000E00067
:1042D000140032001E009000680040000042EB0015
:1042E000C3CFB300E2502100800078001E007800A8
:1042F00008F60700E10720001E8040000042EB00A6
:1043000043022000420620009E0090007AFB02003B
:1043100000000000204A80000060A000204A8800C1
:10432000C6013700F0C0B3001BE9B700E1408000D0
:1043300040062000808F500014003A001E009000BC
:10434000680040000042EB00C3CFB300A25121003F
:10435000800078001E007800EEF50700E2072000DC
:104360001E0041000042EB0043022000820C2000AE
:104370009E0090007AFB020000000000204A8000AE
:104380000060A000204A8800AC01370000C1B300E3
:104390001BE9B7007FC8BF000004E0001400320032
:1043A0001E009000680040000042EB00C3CFB30045
:1043B000E2522100800078001E007800D5F5070049
:1043C000430520001E8041000042EB004302200014
:1043D000420620009E0090007AFB020000000000D0
:1043E000204A80000060A000204A88009301370026
:1043F00010C1B3001BE9B7007BC8BF000004E00098
:10440000140032001E009000680040000042EB00E3
:10441000C3CFB30022542100800078001E00780032
:10442000BCF50700E10720001E8040000042EB00C1
:1044300043022000420620009E0090007AFB02000A
:1044400000000000204A80000060A000204A880090
:104450007A01370020C1B3001BE9B7007AC8BF005A
:104460000004E000140032001E00900068004000CC
:104470000042EB00C3CFB3006255210080007800FA
:104480001E007800A3F50700920620001E004100E0
:104490000042EB0043022000420620009E009000F4
:1044A0007AFB020000000000204A80000060A000AB
:1044B000204A88006101370030C1B3001BE9B70012
:1044C0007CC8BF000004E000140032001E00900011
:1044D000680040000042EB00C3CFB30062562100E9
:1044E000800078001E0078008AF507004305200050
:1044F0001E8041000042EB004302200042062000E3
:104500009E0090007AFB020000000000204A80001C
:104510000060A000204A88004801370040C1B30075
:104520001BE9B7007FC8BF00E34F500014003A00FA
:104530001E009000680040000042EB00C3CFB300B3
:1045400022572100800078001E00780071F50700D6
:10455000410520001E8040000042EB004302200085
:10456000420620009E0090007AFB0200000000003E
:10457000204A80000060A000204A88002F013700F8
:1045800050C1B3001BE9B7007DC8BF000004E000C4
:10459000140032001E009000680040000042EB0052
:1045A000C3CFB300A2582100800078001E0078001D
:1045B00058F50700420520001E0041000042EB00B4
:1045C00043022000420620009E0090007AFB020079
:1045D00000000000204A80000060A000204A8800FF
:1045E0001601370060C1B3001BE9B70080C8BF00E7
:1045F0000004E000140032001E009000680040003B
:104600000042EB00C3CFB300625921008000780064
:104610001E0078003FF50700430520001E80410082
:104620000042EB0043022000420620009E00900062
:104630007AFB020000000000204A80000060A00019
:10464000204A8800FD00370070C1B3001BE9B700A5
:104650007EC8BF000004E000140032001E0090007D
:10466000680040000042EB00C3CFB300225A210093
:10467000800078001E00780026F50700E107200082
:104680001E8040000042EB00430220004206200052
:104690009E0090007AFB020000000000204A80008B
:1046A0000060A000204A8800E400370080C1B30009
:1046B0001BE9B70081C8BF000004E000140032000D
:1046C0001E009000680040000042EB00C3CFB30022
:1046D000225B2100800078001E0078000DF50700A5
:1046E000420520001E0041000042EB004302200072
:1046F000420620009E0090007AFB020000000000AD
:10470000204A80000060A000204A8800CB003700CB
:1047100090C1B3001BE9B700A0C1B3001BE9B7000B
:10472000B0C1B3001BE9B700C0C1B3001BE9B700BB
:10473000D0C1B3001BE9B70060408000FE0F5000FD
:1047400015003A001E009000680040008042EB0017
:10475000C4CFB300631B2100A2C2B3008000780065
:104760001E007800C1F40700E30720001E8041000E
:104770000042EB0043022000A20220009E009000B5
:104780007AFB020000000000204A80000060A000C8
:10479000204A8800A9003700E0C1B3001BE9B70038
:1047A00080408000FE0F500015003A001E0090006F
:1047B000680040008042EB00C4CFB300631C2100BE
:1047C000A2C2B300800078001E007800A7F40700A2
:1047D000E10720001E8040000042EB004302200061
:1047E000A20220009E0090007AFB02000000000060
:1047F000204A80000060A000204A88008F00370017
:10480000F0C1B3001BE9B70070408000FE0F5000FC
:1048100015003A001E009000680040008042EB0046
:10482000C4CFB300631D2100A2C2B3008000780092
:104830001E0078008DF40700E20720001E004100F2
:104840000042EB0043022000A20220009E009000E4
:104850007AFB020000000000204A80000060A000F7
:10486000204A88007500370000C2B3001BE9B7007A
:1048700040B38000680060000000E00024003A00BF
:10488000A092200030009000620060000000E00074
:104890001F003A00E142800000022000008060001A
:1048A0000000E0001A00320056C8BF00ED4F500073
:1048B0000300320056C8BF00EE4F500014003A000B
:1048C0001E009000680040000042EB00C3CFB30020
:1048D000E25B2100800078001E0078008DF4070064
:1048E000930620001E8041000042EB00430220009E
:1048F000420620009E0090007AFB020000000000AB
:10490000204A80000060A000204A88004B00370049
:1049100010C2B3001BE9B70040B38000680060001C
:104920000000E0001F00320040B380007000600013
:104930000000E0001B00320060418000E50F5000E5
:1049400018003600304A8000620060000000E0007D
:10495000140032001E009000680040000042EB008E
:10496000C3CFB300E25C2100800078001E00780015
:1049700068F40700910620001E8040000042EB0012
:1049800043022000420620009E0090007AFB0200B5
:1049900000000000204A80000060A000204A88003B
:1049A000260037001B69EF0040B380006100600003
:1049B0000000E00018003200304A80006200600011
:1049C0000000E000140032001E009000680040006B
:1049D0000042EB00C3CFB300225E210080007800CC
:1049E0001E0078004BF40700420520001E00410025
:1049F0000042EB0043022000220820009E009000AD
:104A00007AFB020000000000204A80000060A00045
:104A1000204A8800090037001B69EF000042EB00C4
:104A200043022000820C20009E0090001E007800AF
:104A30007AFB020000000000000000004F06BE00EC
:104A40004F05BE004F04BE000080FA0000000600C3
:104A50000600FA00100798002107980010C0B30064
:104A6000004F78006185200091407800014F780068
:104A70001E407800ED4F500003003A0020C0B30004
:104A8000004F78000E0037001E407800EE4F5000B7
:104A900003003A0010C0B300004F78000800370050
:104AA0001E407800EF4F500003003A0030C0B300C2
:104AB000004F7800020037000040EB00004F780004
:104AC000227C2100130020009E80FB00200C20008F
:104AD0000088B900000078008000EB000000410071
:104AE000818049008042EB00C4C1B3000001BE00D8
:104AF000AE0090001E00900040F802000000000090
:104B00000080FA00000006000200FA00881F78000A
:104B100000C0EB00004F780040C6B300104798007B
:104B20001187200091407800114798009E40900026
:104B300030C6B30080CF50000200360040C6B3003C
:104B4000104798001E409000F94F500003003600B7
:104B5000C0C1B300004F78000B0037001E4090002A
:104B60000004E000060032001E409000F94F5000A3
:104B700003003E0000CEB300004F78000200370073
:104B80000040EB00004F78001E4090000080FB00CA
:104B90008000EB0000C3EB008042EB0034C0B300A8
:104BA0000001BE00311120009024200097F0070082
:104BB0001E4090000080FB00CF80DE002603020034
:104BC00000000000A2702D0033052400D60302006F
:104BD00000000000F0020200000000000000780069
:104BE0001E427800C301200000017800511120000E
:104BF000300E20007AFB0200000000009E40900072
:104C000030C6B30080CF500027003E001E40900009
:104C10000080FB00CF80DE002603020000000000C1
:104C2000A2702D0033052400D6030200000000000E
:104C30000001BE0000002800513A2400AC0102002F
:104C400000000000F00202000000000000047800F4
:104C50001E4090000080FB00CF80DE002603020093
:104C600000000000A2702D0033052400D6030200CE
:104C7000000000000200200033362400AE010200D4
:104C800000000000F00202000000000000007800B8
:104C90000042EB00C3012000080178005111200000
:104CA0007AFB0200000000004F0478000080FA0048
:104CB000000006000600FA00881F78001007980020
:104CC0002107980020032000000F78009043800007
:104CD0008000EB002C03020000000000D2CC2C006E
:104CE000C3DC2300D603020000000000F002020033
:104CF00000000000000F7800003220009E007800C5
:104D0000808F50000200360000322000000F780033
:104D10001E0078008000EB0000C3EB008042EB0037
:104D200034C0B3000001BE00AE0090001E00900031
:104D300036F0070013C9BF000004E00016003A0077
:104D40001E0078008000EB002C0302000000000031
:104D5000A2702D0033052400D603020000000000DD
:104D60000200200003E02300D60302000000000040
:104D7000F00202000000000000007800C4C1B3008F
:104D8000C301200000017800D1092000300E20006E
:104D90007AFB02000000000013C9BF000004E0001D
:104DA0002D003A001E0078008000EB002C0302006A
:104DB00000000000A2702D0033052400D60302007D
:104DC000000000000200200003E02300D6030200E0
:104DD000000000000001BE0000002800513A24003D
:104DE000AC01020000000000F00202000000000020
:104DF000000478001E0078008000EB002C03020005
:104E000000000000A2702D0033052400D60302002C
:104E1000000000000200200003E02300D60302008F
:104E2000000000000200200033362400AE01020022
:104E300000000000F0020200000000000000780006
:104E40000042EB00C301200008017800D1092000D6
:104E50007AFB0200000000004F0478000080FA0096
:104E6000000006000600FA00889FBE008A9FBE0070
:104E7000100798002107980040062000000F7800D6
:104E8000E04780008000EB002C03020000000000DF
:104E9000D2CC2C00C3D42300D603020000000000B3
:104EA000F002020000000000000F7800F063200014
:104EB0009E007800808F500079003E000064200042
:104EC0001E0F5000401F20009E007800808F500071
:104ED00002003600401F2000000F78001E007800FE
:104EE0008000EB0000C3EB008042EB0034C0B30055
:104EF0000001BE00AE0090001E009000C3EF07004E
:104F00002E009000E40040001E009000740050004D
:104F10008042EB0000C2EB006AD027001B0020009B
:104F20000A01BE0012FA0200000000001E00780014
:104F30000000E0003000320013C9BF000004E000B0
:104F40002D003A001E0078008000EB002C030200C8
:104F50000000000052B82E0013FD2300D60302000B
:104F600000000000D2CC2C00C3E42300D6030200D2
:104F7000000000000200200003F82300AE01020040
:104F800000000000F00202000000000000047800B1
:104F90001E0078008000EB002C03020000000000DF
:104FA00052B82E0013FD2300D603020000000000BB
:104FB000D2CC2C00C3E42300D60302000000000082
:104FC0000001BE0000002800313C2400AC010200BA
:104FD00000000000F0020200000000000000780065
:104FE000C4C1B300C301200008017800910D200066
:104FF0007AFB020000000000301F20009E007800B5
:10500000808F500099003E0013C9BF000004E000EB
:1050100096003A001E0078008000EB002C0302008E
:105020000000000052B82E0013FD2300D60302003A
:1050300000000000D2CC2C00C3E42300D603020001
:10504000000000000001BE000000200041322400EA
:10505000AC01020000000000F002020000000000AD
:10506000000078000042EB00C3012000000178003E
:10507000910D2000300E20007AFB0200000000009D
:105080000042EB00C3012000520A2000910D2000D5
:10509000901820007AFB0200000000007300370027
:1050A000009C2F001E0F4000401F20009E00780033
:1050B000808F500002003600401F2000000F780053
:1050C0002E009000E40040001E009000740050008C
:1050D0008042EB000042EB0048D12700190020007D
:1050E0000801BE0012FA0200000000001E00780055
:1050F0008000EB0000C3EB008042EB0034C0B30043
:105100000001BE00AE0090001E0090003FEF0700BF
:105110001E007800E30F50001900360013C9BF00CD
:105120000004E00016003A001E0078008000EB004A
:105130002C030200000000003233230033FD230063
:10514000D603020000000000D2CC2C00C3E42300F0
:10515000D603020000000000F00202000000000080
:1051600000007800C4C1B300C30120000001780032
:10517000910D2000901820007AFB02000000000032
:10518000301F20009E007800808F500037003E00C6
:1051900013C9BF000004E00034003A001E0078008C
:1051A0008000EB002C0302000000000032332300DB
:1051B00033FD2300D603020000000000D2CC2C00F7
:1051C000C3E42300D6030200000000000001BE007B
:1051D0000000200051322400AC0102000000000059
:1051E000F002020000000000000478001E007800B9
:1051F0008000EB002C03020000000000323323008B
:1052000033FD2300D603020000000000D2CC2C00A6
:10521000C3E42300D60302000000000002002800BF
:10522000433C2400AE01020000000000F002020036
:1052300000000000000078000042EB00C3012000E5
:1052400008017800910D20007AFB020000000000A8
:105250000042EB00C3012000420A2000910D200013
:10526000300E20007AFB0200000000004F05BE0057
:105270004F04BE000080FA00000006001200FA0091
:10528000889FBE008A9FBE001007980021079800E3
:105290003207980043079800540798006507980064
:1052A000760798000757980040062000000F780006
:1052B0003E009000CE0090002C0302000000000091
:1052C0005E019000EE019000D60302000000000095
:1052D000F002020000000000000F78007E00900045
:1052E0009E007800808F5000160031007E009000F4
:1052F0001E0050008000EB000E539000EEF297006D
:105300000EFA97000001BE00AE0090001E00900053
:10531000BEEE07002E009000E50040001E00900049
:10532000790050008042EB000E5290006AD02700B6
:105330001B0020000A01BE0012FA0200000000005B
:10534000150037002E009000E50040001E00900080
:10535000790050008042EB000042EB0048D127006A
:10536000190020000801BE0012FA0200000000002F
:105370007E0090001E0010008000EB000E53900095
:10538000EEF297000EFA97000001BE00AE0090000A
:105390001E0090009DEE07004F05BE004F04BE00AA
:1053A0000080FA00000006007600FA00889FBE0028
:1053B0008A9FBE008C9FBE00ACF602000000000079
:1053C00094C4B30013002000023220008000EB00E0
:1053D0000000EB007AFB02000000000094C4B30060
:1053E0001300200002322000010420000000EB0026
:1053F0007AFB02000000000094C4B30013002000F8
:1054000002322000010820000000EB007AFB0200BD
:105410000000000010002000000F78000C00370092
:105420009E007800200420000088B9000000780069
:105430006400400094C4B300030420001200200064
:105440008000EB007AFB0200000000001E0FE80065
:105450001E007800EB0F5000F1FF360094C4B3003B
:1054600013002000022120000108200080082000F5
:105470007AFB02000000000010002000000F7800FE
:105480000C0037009E007800200420000088B9003E
:10549000000078006400400094C4B30003042000BE
:1054A00012002000010420007AFB0200000000002E
:1054B0001E0FE8001E007800EB0F5000F1FF3600D1
:1054C0000000EB00000F780005003700606221004B
:1054D0009E0040000040EB00804878001E0FE8006E
:1054E0001E007800F70F5000F8FF3600C4C1B3006B
:1054F0001300200002322000E11A20000000EB001F
:105500007AFB0200000000008042EB0000C2EB00CA
:10551000A8682200190020000801BE00010A20002E
:10552000F00A200040F802000000000000C2EB007A
:1055300023002000F2142000B1092000100E2000EA
:105540007AFB02000000000000C2EB0023002000F4
:10555000F2142000910B2000100E20007AFB0200B4
:105560000000000000C2EB00030220002200200027
:10557000B1092000100E20007AFB0200000000009C
:1055800000C2EB00A300200022002000110920002F
:10559000401320007AFB02000000000000C2EB0074
:1055A000A300200022002000110920007018200014
:1055B0007AFB02000000000000C2EB00A300200004
:1055C0002200200011092000A01D20007AFB02000B
:1055D0000000000000C2EB000302200022002000B7
:1055E000B1092000E02220007AFB02000000000048
:1055F0002ADF21001B0020000A00BE008042EB00D1
:1056000000C2EB000001BE00D1082000D00D200038
:1056100040F80200000000002CDF21001D002000E7
:105620000C00BE0002082000030020000200400021
:10563000838048008042EB0000C2EB000001BE0006
:10564000D10820002022200040F8020000000000C5
:1056500023DF210013079800110020002107980084
:105660001E009000AE0090008042EB0000C2EB00F4
:105670000001BE00D1082000A022200040F8020056
:105680000000000022DF21003207980013002000F4
:10569000430798003E009000CE0090008042EB004F
:1056A00000C2EB000001BE00D10820002023200032
:1056B00040F80200000000008042EB0000C2EB0056
:1056C000E1AC260051079800120020006207980004
:1056D0005E019000EE019000B109200040292000F9
:1056E00040F80200000000008042EB0000C2EB0026
:1056F000437322007307980011002000010F9800E7
:105700007E0190008E099000C10D2000F00A20005B
:1057100040F802000000000000C2EB00230020005F
:10572000F2142000710D2000100E20007AFB020000
:105730000000000000C2EB0023002000F214200053
:10574000510F2000100E20007AFB02000000000024
:1057500000C2EB000302200022002000710D200097
:10576000100E20007AFB02000000000000C2EB00D7
:10577000A300200022002000D10C200040132000B4
:105780007AFB02000000000000C2EB00A300200032
:1057900022002000D10C2000A01D20007AFB020076
:1057A0000000000000C2EB000302200022002000E5
:1057B000710D2000E02220007AFB020000000000B2
:1057C00000C2EB002300200082002000010D200019
:1057D000500D20007AFB02000000000022DF2100B3
:1057E000120F980013002000230F98001E0890004D
:1057F000AE089000020520000300200002004000D7
:10580000838048008042EB0000C2EB000001BE0034
:10581000910C2000D00D200040F802000000000094
:1058200023DF2100330F980011002000410F980062
:105830003E089000CE0890008042EB0000C2EB00D2
:105840000001BE00910C2000500E200040F8020024
:105850000000000022DF2100520F980013002000FA
:10586000630F98005E089000EE0890008042EB0005
:1058700000C2EB000001BE00910C2000D00E200001
:1058800040F802000000000021DF2100710F9800A5
:1058900012002000021798007E0890008E109000E1
:1058A0008042EB0000C2EB000001BE00910C200022
:1058B0003018200040F802000000000000C2EB0099
:1058C0000302200022002000710D2000701820002B
:1058D0007AFB02000000000023DF2100131798006C
:1058E00011002000211798001E109000AE109000AB
:1058F00002052000030020000200400083804800D1
:105900008042EB0000C2EB000001BE00910C2000C1
:105910002022200040F802000000000023DF2100C8
:105920003317980011002000411798003E10900096
:10593000CE1090008042EB0000C2EB000001BE00E0
:10594000910C2000A022200040F80200000000007E
:1059500022DF2100521798001300200063179800DF
:105960005E109000EE1090008042EB0000C2EB0051
:105970000001BE00910C20002023200040F802000E
:10598000000000008042EB0000C2EB0021B12600C5
:105990007117980012002000021F98007E119000DD
:1059A0008E199000710D20004029200040F802005F
:1059B000000000008042EB0000C2EB00A3032200C5
:1059C000131F980011002000211F98001E1990003D
:1059D000AE19900031112000A00A200040F802000A
:1059E0000000000000C2EB0023002000F2142000A1
:1059F00031112000100E20007AFB02000000000090
:105A000000C2EB0023002000F2142000111320003C
:105A1000100E20007AFB02000000000000C2EB0024
:105A2000030220002200200031112000100E20006F
:105A30007AFB02000000000000C2EB00A30020007F
:105A40002200200091102000401320007AFB020069
:105A50000000000000C2EB00A30020002200200094
:105A600091102000701820007AFB02000000000056
:105A700000C2EB00A30020002200200091102000B3
:105A8000A01D20007AFB02000000000000C2EB0015
:105A9000030220002200200031112000E02220001B
:105AA0007AFB02000000000022DF2100321F980074
:105AB00013002000431F98003E189000CE1890005D
:105AC0008042EB0000C2EB000001BE00511020003C
:105AD000D00D200040F802000000000021DF21006E
:105AE000511F980012002000621F98005E1890005D
:105AF000EE18900070004000E08048008042EB000B
:105B000000C2EB000001BE00511020002022200046
:105B100040F802000000000023DF2100731F9800FE
:105B200011002000012798007E1890008E20900020
