:020000040000fa
:08000000007e04000100000075
:020000040000fa
:04000800c80100002b
:020000040000fa
:04000c00c801000027
:020000040000fa
:04001000c801000023
:020000040000fa
:04001400c80100001f
:020000040000fa
:04001800c80100001b
:020000040000fa
:04001c00c801000017
:020000040000fa
:04002000c801000013
:020000040000fa
:04002400c80100000f
:020000040000fa
:04002800c80100000b
:020000040000fa
:04002c00c801000007
:020000040000fa
:04003000c801000003
:020000040000fa
:040034003ab20000dc
:020000040000fa
:04003800c8010000fb
:020000040000fa
:04003c00c8010000f7
:020000040000fa
:04004000c8010000f3
:020000040000fa
:04004400640401004f
:020000040000fa
:04004800c8010000eb
:020000040000fa
:04004c00c8010000e7
:020000040000fa
:04005000c8010000e3
:020000040000fa
:04005400c8010000df
:020000040000fa
:04005800c8010000db
:020000040000fa
:04005c00c8010000d7
:020000040000fa
:04006000c8010000d3
:020000040000fa
:04006400c8010000cf
:020000040000fa
:04006800d8040100b7
:020000040000fa
:04006c00c8010000c7
:020000040000fa
:04007000c8010000c3
:020000040000fa
:04007400c8010000bf
:020000040000fa
:04007800c8010000bb
:020000040000fa
:04007c0072d6000038
:020000040000fa
:04008000b2b8000012
:020000040000fa
:04008400f204010081
:020000040000fa
:04008800c8010000ab
:020000040000fa
:04008c00c8010000a7
:020000040000fa
:04009000c8010000a3
:020000040000fa
:04009400e0a50000e3
:020000040000fa
:04009800c80100009b
:020000040000fa
:04009c00c801000097
:020000040000fa
:0400a000c801000093
:020000040000fa
:0400a400c80100008f
:020000040000fa
:0400a800c80100008b
:020000040000fa
:0400ac00c801000087
:020000040000fa
:0400b000c801000083
:020000040000fa
:0400b400c80100007f
:020000040000fa
:0400b800c80100007b
:020000040000fa
:0400bc00c801000077
:020000040000fa
:0400c000c8ad0000c7
:020000040000fa
:0400c400c80100006f
:020000040000fa
:0400c800c80100006b
:020000040000fa
:0400cc00c801000067
:020000040000fa
:0400d000c801000063
:020000040000fa
:0400d400c80100005f
:020000040000fa
:0400d800c80100005b
:020000040000fa
:04010800c80100002a
:020000040000fa
:04010c00c801000026
:020000040000fa
:04011000c801000022
:020000040000fa
:04011400c80100001e
:020000040000fa
:04011800c80100001a
:020000040000fa
:04011c00c801000016
:020000040000fa
:04012000c801000012
:020000040000fa
:04012400c80100000e
:020000040000fa
:04012800c80100000a
:020000040000fa
:04012c00c801000006
:020000040000fa
:04013000c801000002
:020000040000fa
:04013400c8010000fe
:020000040000fa
:04013800c8010000fa
:020000040000fa
:04013c00c8010000f6
:020000040000fa
:04014000c8010000f2
:020000040000fa
:04014400c8010000ee
:020000040000fa
:04014800c8010000ea
:020000040000fa
:04014c00c8010000e6
:020000040000fa
:04015000c8010000e2
:020000040000fa
:04015400c8010000de
:020000040000fa
:04015800c8010000da
:020000040000fa
:04015c00c8010000d6
:020000040000fa
:04016000c8010000d2
:020000040000fa
:04016400c8010000ce
:020000040000fa
:04016800c8010000ca
:020000040000fa
:04016c00c8010000c6
:020000040000fa
:04017000c8010000c2
:020000040000fa
:04017400c8010000be
:020000040000fa
:04017800c8010000ba
:020000040000fa
:04017c00c8010000b6
:020000040000fa
:04018000c8010000b2
:020000040000fa
:04018400c8010000ae
:020000040000fa
:04018800c8010000aa
:020000040000fa
:04018c00c8010000a6
:020000040000fa
:04019000c8010000a2
:020000040000fa
:04019400c80100009e
:020000040000fa
:04019800c80100009a
:020000040000fa
:04019c00c801000096
:020000040000fa
:0401a000c801000092
:020000040000fa
:0401a400c80100008e
:020000040000fa
:0401a800c80100008a
:020000040000fa
:0401ac00c801000086
:020000040000fa
:0401b000c801000082
:020000040000fa
:0401b400c80100007e
:020000040000fa
:0401b800c80100007a
:020000040000fa
:0401bc00c801000076
:020000040000fa
:0401c000c801000072
:020000040000fa
:0401c400c80100006e
:020000040000fa
:0401c800c80100006a
:020000040000fa
:0401cc00c801000066
:020000040000fa
:0401d000c801000062
:020000040000fa
:0401d400c80100005e
:020000040000fa
:0401d800c80100005a
:020000040000fa
:10020000eff021000e7f22000e01880000000000a8
:10021000000020000000e000020032000001200089
:1002200020028800140007005b0007000000e000c7
:1002300003003a0000902b0001002000020037006c
:100240000000200001002000810f7000010032003a
:1002500014000700000020000000e000020032004f
:10026000000002000000000012de0200000000009a
:100270000040da000000fe004440a900c0672000f2
:100280000000e0000300320000002000a001880010
:100290004440a800000006008a1f78008b1f7800e9
:1002a0000000060091018800800478000000eb0047
:1002b0001a003700e284440032a0b4009905ba0065
:1002c000e284440032a0b4009906ba00e2844400fb
:1002d00032a0b4000006eb00476fde00fd07b2005d
:1002e000636ce10003003a00ebff07000000eb0045
:1002f0000a003700606ce10004003a00005deb008a
:100300008b05e900fdff3e00040037006168e10055
:10031000010032000086eb000b00070019c7ba008d
:100320001905ba000e04e00003003a000a00e000dc
:10033000e0ff3a0000000600fe07b2009e018800c0
:100340008a047800f5ff3700395dba008b05e900b3
:100350000c003200295dba008b05e900080032006c
:100360000c00e00003003a00e284440032a0b40034
:10037000f5ff370019ddba008b05e900faff3a00f6
:100380008904e800e184440032a0b40000000600c3
:100390000040da000000fe000000050003f0a200ab
:1003a000889fbe008a9fbe008c1f7800f80007005f
:1003b000ff0033006450e1004f0032006420e10090
:1003c0005200320003826c0007003b000905d00098
:1003d0000306d000820f54000c065d0002003900b5
:1003e00002003200890178000306780085825500fa
:1003f00004003d000003fd008103fd008502ea00ca
:100400008b854200840f720002003b0060001000e8
:10041000e08018006011b8000005eb007a28e100c8
:100420000a00390006007800c75ddd00f707b2005a
:10043000878075002d003700828171000a017800e5
:10044000610560008180d1000080d3008502e90051
:10045000f9ff3b00060440008784480002003b008f
:1004600060041400e0841c000988a3000700320027
:100470008a81710082817100610164008904d10068
:100480000884d3008b05e800170037000978a30023
:1004900013003a000b00e000130034008b05e90064
:1004a0000804440089844c000a4474000978a300bd
:1004b0000d003a000b00e000070034008b05e90056
:1004c0000804440089844c0001003a000b0020001d
:1004d0000978a300f7ff32000001eb0002003700ab
:1004e000828171000a0178006e0007000cf0a700fd
:1004f00001f0a000b70037006420e10002003a00dc
:10050000838f6c00b70033000801be000200be00fc
:10051000b0003700889fbe008a9fbe008c1f780005
:100520009b000700a200330003866c006450e100ca
:100530002e0032006420e100330032006150e100ff
:100540002f0032006120e100310032008585550026
:10055000eb07b00009002000080420000500370068
:100560000804440089844c000a003100060343005b
:1005700087834b000001530081815b00f8ff33004b
:100580000203be000800a0000804440089844c0057
:10059000f6ff3900c639dd00830173000100320027
:1005a000130020008904d1000884d3000998a30017
:1005b000050032000800a7000300a0008904d10054
:1005c0000884d3008b05e8008904d1000884d30097
:1005d0000001eb000281d2003200070001f0a1000f
:1005e0000cf0a70001f0a0007a0037006420e100c1
:1005f0007c0032000801be000200be00f7ff370099
:100600006120e100770032006000b800f3ff37009e
:100610000000200001f82700f0ff3700f4ff2f0052
:10062000ba0037000001be00440007000470a700b4
:1006300003f0a10003f8a30013003a006509b1001c
:1006400010003200090035006928e1000200350081
:1006500001002800000005000000400081804800e3
:100660008502e900fcff3a0000000600f88f420016
:10067000050035008100d1000080d3008502e8002c
:10068000fcff3a00000006008000eb0000000500bf
:100690004f89de0082017800b70037006011b80092
:1006a000c500370081002000618055000b003d002f
:1006b0000b00200061fe2f000100e1001d0034004e
:1006c00082817100610164008904d1000884d30033
:1006d0000000e800faff3a007100200061006400a9
:1006e0000300700002006000090032006104440051
:1006f000e0844c000988a500050032008b05e80065
:100700006808e10002003a008904d1000884d3009f
:10071000f20f20000258e10005003d00c75ddd003a
:10072000f907b20089807500080078000000060013
:100730000bf827008b00780000000500c70ade00d8
:10074000f107b200f50fb20008003200e1cf42001d
:10075000020032000170a00024000500810f70002b
:10076000010032000408050044000500810f7000fc
:1007700002003a00140005008502e9000000400074
:1007800081c04800fcff3b000170a0002400050070
:100790000004be00e9ff07000003be000405be0020
:1007a0000200be00e5ff0700844f75000000060050
:1007b0000200be006450e100050036006420e10044
:1007c000020036000968a30001003a000800be00dc
:1007d0000160a0004f0678004f05be004f04be0028
:1007e00000000600f0ff2f00f1ff2700f9ff37009f
:1007f000889fbe008a9fbe008c1f7800e4ff070020
:10080000ebff330003866c006450e10024003200eb
:100810006420e100270032006150e1002200320034
:100820006120e100210032008b854200eb07b1001e
:100830000134b800003ab8000804420089844a0034
:10084000013ab8000030b8008880400009014a0031
:10085000040033000000400081804800020149008c
:100860008b05e900c909dd00830170000100320039
:1008700013002000c814de004814dd004709de0024
:100880001200b200c808de000884700085ff07006f
:1008900001f0a1000cf0a70001f0a000cdff37008f
:1008a0006120e100cfff32000801be000200be005f
:1008b000f7ff37006150e100fcff3a00c9ff370045
:1008c0006022b800060220000000d0008180d20023
:1008d0000482d2008582d2000000a00002025200f1
:1008e00083825a00030031000202420083824a00e0
:1008f0000000a1000603e900f3ff3a000000060033
:10090000efff07000400be0000000600889fbe0045
:100910008a9fbe00841f78009dff07004f0078006b
:1009200011003300f0ff2f00838f6c0006003b00a6
:10093000040565000a00a7000800370009f0a600ba
:100940001000200008003700820f5400838f5c00e5
:10095000030039001000200001003e0000002000cc
:1009600009f0a7000000ea004f05be004f04be00da
:100970000000e00000000600881f780003047800f3
:100980000300e00007003d0060001000e080180058
:1009900060011900e081190002003b0001f02d0008
:1009a000030037000400070008f0a70001f0a000d2
:1009b0004f04780000000600889fbe008a9fbe009a
:1009c000008270000402710004827100260032006f
:1009d0000004be000200be006011b8006b092000d8
:1009e000950220000182cf000a0039000541b100c4
:1009f0000082cf00070039000541b1000982cf0015
:100a0000040039000541b1000882cf00010039001f
:100a10000541b10005425200120032000a003b00bd
:100a200082817100610164008100d1000080d300e7
:100a30008984d3000884d3008b05e8000442e800d1
:100a4000f7ff3a00070037000804440089844c008f
:100a500000004800818048008b05e9000442e9005d
:100a6000f9ff3a000fff07004f05be004f04be001c
:040a7000000006007c
:020000040000fa
:100a74001e0400000000000003fc00000000000051
:100a84001ffc0000000000007c00000000010000ca
:100a9400e00000000007000080000000000e0000dd
:100aa40000000000001800000000000000300000fa
:100ab4000000000000e000000000000001ff000052
:100ac400fffc000001ff0000fffc000003800000a9
:100ad4000000000007000000000000000e000000fd
:100ae400000000000c0000000000000018000000de
:100af40000000000180000000000000030000000aa
:100b04000000000030000000000000006000000051
:100b14000000000060000000000000006000000011
:100b240000000000c000000000000000c000000041
:100b340000000000c000000000000000c000000031
:100b440000000000c000000000000000c000000021
:100b540000000000c000000000000000c000000011
:100b6400000000001e040000c0000000000000009f
:100b7400c000000000000000c000000000000000f1
:100b8400c000000000000000c000000000000000e1
:100b9400c000000000000000e000000000000000b1
:100ba4006000000000000000600000000000000081
:100bb40060000000000000003000000000000000a1
:100bc40030000000000000003000000000000000c1
:100bd40018000000000000001800000000000000e1
:100be4000c000000000000000400000000000000f1
:100bf40006000000000000000300000000000000e8
:100c0400018000000000000000c00000000000009f
:100c14000060000000000000003000000000000040
:100c24000018000000000000000e0000000000009a
:100c3400000300000000000000010000c0000000ec
:100c4400000000007c000000000000000ffc000019
:100c54000000000001fc0000250600000000000068
:100c6400fff000000000000000070000fffe00008d
:100c740000000000001f0000000f000080000000c2
:100c84000038000000010000e000000000e0000067
:100c9400000000007000000001c00000000000001f
:100ca4001800000003000000000000000c00000019
:100cb400060000007fe00000060000000c010000b8
:100cc400fff80000030000000c070000801e000075
:100cd40003000000180c0000000300000180000065
:100ce400301800000001000080c000003030000017
:100cf40000000000c0c000006060000000000000b0
:100d040060600000604000000000000020600000ff
:100d140060c000000000000030600000e0c000007f
:100d24000000000030700000c180000000000000de
:100d340018300000c18000000000000018300000de
:100d4400c18000000000000018300000c1800000d5
:100d54000000000018300000c18000000000000006
:100d6400183000000180000000000000180000009e
:100d74000180000000000000180000000180000055
:100d840000000000180000000180000000000000c6
:100d9400180000000180000000000000180000009e
:100da40000c00000000000003000000000c000008f
:100db40000000000300000000040000000000000bf
:100dc400200000000060000000000000600000003f
:100dd4000030000000000000c00000000018000007
:100de4000001000080000000000c0000000300006f
:100df4000000000000070000801e0000000000004a
:100e040000010000fff800000000000000000000e6
:100e14007fe00000000000001e040000000000004d
:100e2400000c000000000000000c000000000000a6
:100e3400000c000000000000000c00000000000096
:100e4400000c000000000000000c00000000000086
:100e5400000c000000000000001c00000000000066
:100e6400001800000000000000180000000000004e
:100e74000018000000000000003000000000000026
:100e840000300000000000000060000000000000ce
:100e9400006000000000000000c00000000000002e
:100ea40001c00000000000000180000000000000fc
:100eb4000300000000000000060000000000000025
:100ec4000c000000000000001c00000000000000f6
:100ed4003000000000000000e000000000010000fd
:100ee400c00000000007000080000000003e000079
:100ef4000000000001f8000000000000ffe0000016
:100f040000000000ff000000000000002f060000a9
:100f1400fc0000000000000000000000ff80000052
:100f2400000000000000000003c0000000000000fa
:100f34000000000000f000000000000000000000bd
:100f4400003800000000000000000000000c000059
:100f54000000000000000000000600000000000087
:100f6400000000000003000000000000000000007a
:100f7400000100008000000000000000ffff0000ee
:100f8400ff00000000000000ffff0000ffc00000a1
:100f9400000000000000000060f0000000000000fd
:100fa40000000000303c00000000000000000000d1
:100fb400180e0000000000000000000008070000f8
:100fc40000000000000000000c030000800000008e
:100fd4000000000006010000c00000000000000046
:100fe40003000000e0000000000000000100000019
:100ff40070000000000000000180000030000000cc
:101004000000000000c000003800000000000000e4
:101014000040000018000000000000000060000014
:101024000c00000000000000003000000c00000074
:101034000000000000100000060000000000000096
:10104400001800000600000000000000000c000072
:101054000600000000000000000600000000000080
:10106400000000000002000000000000000000007a
:101074000003000000000000000000000001000068
:10108400800000000000000000000000800000005c
:101094000000000000000000c0000000000000008c
:1010a40000000000600000000000000000000000dc
:1010b40030000000000000000000000010000000ec
:1010c4000000000000000000180000000000000004
:1010d400000000000c000000000000000000000000
:1010e40004000000000000000000000006000000f2
:1010f40000000000000000000300000000000000e9
:10110400000000000180000000000000000000005a
:1011140001800000000000000000000000c000008a
:10112400000000000000000000600000000000005b
:10113400000000000060000000000000000000004b
:10114400003000001d0300008000000000c000000b
:1011540000000000c000000000600000000000006b
:1011640030000000003800000000000018000000fb
:10117400000c000000000000060000000006000053
:1011840000000000030000000001000080000000d7
:1011940000c0000000000000c0000000006000006b
:1011a40000000000300000000018000000000000f3
:1011b40018000000000c0000000000000600000001
:1011c4000006000000000000030000000001000011
:1011d4008000000000c0000000000000c00000000b
:1011e400006000000000000030000000003000003b
:1011f40000000000180c0000063000000000000091
:1012040000000000003f000000000000000000009b
:10121400000f0000f00000000000000000000000cb
:10122400ff00000000000000000000000ff00000bc
:10123400000000000000000000ff000000000000ab
:1012440000000000000f0000f0000000000000009b
:1012540000000000ff00000000000000000000008b
:101264000ff00000000000000000000000ff00007c
:101274000000000000000000000f0000fc0000005f
:101284000000000000000000fc0a000005f000005f
:101294000000000000000000ff000000000000004b
:1012a400000f0000f00000000000000000ff00003c
:1012b40000000000000000000ff00000000000002b
:1012c40000000000ff00000000000000000f00000c
:1012d400f00000000000000000ff0000000000001b
:1012e400000000000ff000000000000000000000fb
:1012f400ff1c0000030000000001000000000000cb
:101304000300000000070000000000000e000000c1
:10131400000c00000000000018000000003800006d
:10132400000000007000000000e000000001000068
:10133400c000000003800000000300000000000063
:1013440006000000000e0000000000001c00000069
:101354000038000000000000700000000060000081
:1013640000000000c0000000018000000003000035
:101374008000000007000000000e000000000000d4
:101384001c000000001800000000000030000000f5
:101394000070000000000000e000000000000000f9
:1013a40020000000120000002100000013000000d3
:1013b40022000000140000002300000015000000bb
:1013c40024000000160000002500000017000000a3
:1013d400260000001800000027000000290000007b
:1013e4001100000019000000280000001a0000008d
:1013f4000100000009000000020000000a000000d3
:10140400030000000b000000040000000c000000ba
:10141400050000000d000000060000000e000000a2
:10142400070000002a00000008000000110000006e
:10143400100000001f000000000000000000000079
:101444002000000012000000210000001300000032
:10145400220000001400000023000000150000001a
:101464002400000016000000250000001700000002
:1014740026000000180000002700000029000000da
:101484001100000019000000280000001a000000ec
:101494000100000009000000020000000a00000032
:1014a400030000000b000000040000000c0000001a
:1014b400050000000d000000060000000e00000002
:1014c400070000002a0000000800000011000000ce
:1014d400100000001f0000000000000000000000d9
:1014e4002000000012000000210000001300000092
:1014f400220000001400000023000000150000007a
:101504002400000016000000250000001700000061
:101514002600000018000000270000002900000039
:101524001100000019000000280000001a0000004b
:101534000100000009000000020000000a00000091
:10154400030000000b000000040000000c00000079
:10155400050000000d000000060000000e00000061
:10156400070000002a00000008000000110000002d
:10157400100000001f000000000000000000000038
:101584000807000006050000040300000201000033
:101594000f0a0000090e00000d000000000000000a
:1015a40011000000120000001300000014000000ed
:1015b4001c0000001b0000001a00000019000000bd
:1015c400200000001f0000001e0000001d0000009d
:1015d40001000000020000000300000004000000fd
:1015e400050000000a000000140000000d000000c7
:1015f400a000000088000000b0000000b00000005f
:10160400a0000000820000008200000082000000b0
:1016140000000000000000000000000000000000c6
:10162400000000007c020000000000000000000038
:1016340000000000440200003902000030020000f3
:10164400040000000300000002000000010000008c
:10165400050000000600000007000000080000006c
:10166400090000000a0000000b0000000c0000004c
:101674000d0000000e0000000f000000100000002c
:1016840015000000160000001700000018000000fc
:101694009a00000000000000000000008800000024
:1016a4009a00000078000000880000008800000014
:1016b4008800000088000000000000000000000016
:1016c4000000000044020000440200004402000044
:1016d4001c020000000000001c02000026020000a2
:1016e4004d5500004943000000480000464d0000ed
:1016f4005a4b00004a0000005365000070200000af
:101704003237000020320000303100003700000082
:10171400313400003a300000343a00003234000022
:1017240000500000696e00006773000068650000e7
:101734006e670000204d0000616f0000005600003d
:10174400312e0000302e0000300000006d700000cb
:10175400737a00006d40000031320000362e000024
:08176400636f00006d0000003e
:020000040000fa
:10176c001800fa00889fbe008a9fbe008c1f78006c
:10177c006007980071079800020f9800130f9800eb
:10178c0044579800555798006657980010c0b300fe
:10179c00104798000040eb00204798000040eb00f9
:1017ac00204798001a0037004e5090008080fb00b4
:1017bc002e4090000080fb00008050000006e900e5
:1017cc000e0890009e089000a2002000030020004c
:1017dc008004020000000000804078000c004700ec
:1017ec00314098000e0890009e089000a200200046
:1017fc00030020006004020000000000000f9800ad
:10180c00110f98002e4090000040e80020479800ef
:10181c00ae4090004e50900080cf5000e2ff390057
:10182c000040eb0020479800120037004e5090000b
:10183c008080fb002e4090000080fb000080500058
:10184c00ce5090008180fb000101e900ae40900079
:10185c008180fb008100510081004700b140900065
:10186c0000004700314098002e4090000040e800f6
:10187c0020479800ae4090005e50900080cf500002
:10188c00eaff39004e5090008080fb005e509000c3
:10189c000080fb00008050000000470001c1b30035
:1018ac00314098005e5090000004e000400032008f
:1018bc000040eb0020479800380037001e40900095
:1018cc000004e000150032002e4090000080fb0068
:1018dc0000004700304090000004e0000f003a0088
:1018ec002e4090008080fb004e5090000080fb004a
:1018fc000001e9005e5090000080fb0000005100e8
:10190c00808f500005003d0010c0b30010479800b8
:10191c000040eb00004f7800040037000040eb0063
:10192c0010479800ee509000014f7800eaa52f0068
:10193c000b0020000a01be002e4090000080fb002e
:10194c0000004700304090000080fb004400dd00a8
:10195c008000eb0000004100818049002e41900086
:10196c000281fb004311dd00820178006e019000c2
:10197c00028341008042eb001e4278000001be0051
:10198c00fe00900006007800a2da020000000000c1
:10199c002e4090000040e80020479800ae40900098
:1019ac004e50900080cf5000c4ff36003c003700f2
:1019bc000040eb0020479800350037001e40900097
:1019cc000004e000120032002e4090000080fb006a
:1019dc0000004700304090000004e0000c003a008a
:1019ec002e4090008080fb004e5090000080fb0049
:1019fc000000e900808f500005003d0010c0b300ce
:101a0c00104798000040eb00004f780004003700ae
:101a1c000040eb0010479800ee509000014f78000a
:101a2c00e8a52f00090020000801be002e40900000
:101a3c000080fb0000004700304090000080fb005d
:101a4c004400dd008000eb00000041008180490073
:101a5c002e4190000281fb004311dd0082017800d1
:101a6c006e019000028341008042eb001e42780020
:101a7c000001be00fe00900006007800a2da020011
:101a8c00000000002e4090000040e8002047980025
:101a9c00ae4090004e50900080cf5000c7ff3900f0
:101aac004f0678004f05be004f04be000080fa00c0
:101abc00000006001800fa00889fbe008a9fbe0036
:101acc008c1f78006007980071079800020f98002f
:101adc00130f980044579800555798006657980074
:101aec0010c0b300104798000040eb00204798004e
:101afc000040eb00204798001a0037004e50900031
:101b0c008080fb002e4090000080fb000080500085
:101b1c000006e9000e0890009e089000a20020002c
:101b2c0003002000800402000000000080407800c8
:101b3c000c004700314098000e0890009e08900061
:101b4c00a20020000300200060040200000000003e
:101b5c00000f9800110f98002e4090000040e800f4
:101b6c0020479800ae4090004e50900080cf50001f
:101b7c00e2ff39000040eb002047980012003700cc
:101b8c004e5090008080fb002e4090000080fb00a7
:101b9c0000805000ce5090008180fb000101e900d4
:101bac00ae4090008180fb00810051008100470015
:101bbc00b140900000004700314098002e4090004a
:101bcc000040e80020479800ae4090005e50900026
:101bdc0080cf5000eaff39004e5090008080fb000f
:101bec005e5090000080fb00008050000000470019
:101bfc0001c1b300314098005e5090000004e00039
:101c0c00420032000040eb00204798003a003700b9
:101c1c001e4090000004e000150032002e409000a1
:101c2c000080fb0000004700304090000004e00002
:101c3c000f003a002e4090008080fb004e50900028
:101c4c000080fb000001e9005e5090000080fb006a
:101c5c0000005100808f500005003d0010c0b30003
:101c6c00104798000040eb00004f7800040037004c
:101c7c000040eb0010479800ee509000014f7800a8
:101c8c008a332e000b0020000a01be002e4090006b
:101c9c000080fb0000004700304090008080fb007b
:101cac00400420000088b900000078008000eb00a0
:101cbc0000004100818049002e4190000281fb0010
:101ccc004411dd00820178006e0190000283410016
:101cdc008042eb001e4278000001be00fe00900026
:101cec0006007800a2da0200000000002e409000ee
:101cfc000040e80020479800ae4090004e50900005
:101d0c0080cf5000c2ff36003e0037000040eb0091
:101d1c0020479800370037001e4090000004e00078
:101d2c00120032002e4090000080fb0000004700a3
:101d3c00304090000004e0000c003a002e4090006f
:101d4c008080fb004e5090000080fb000000e900fa
:101d5c00808f500005003d0010c0b3001047980064
:101d6c000040eb00004f7800040037000040eb000f
:101d7c0010479800ee509000014f780088332e00e9
:101d8c00090020000801be002e4090000080fb00de
:101d9c0000004700304090008080fb004004200091
:101dac000088b900000078008000eb0000004100c2
:101dbc00818049002e4190000281fb004411dd001e
:101dcc00820178006e019000028341008042eb009a
:101ddc001e4278000001be00fe0090000600780054
:101dec00a2da0200000000002e4090000040e80043
:101dfc0020479800ae4090004e50900080cf50008d
:101e0c00c5ff39004f0678004f05be004f04be00d9
:101e1c000080fa00000006001800fa00889fbe003f
:101e2c008a9fbe008c1f780060079800710798008d
:101e3c00020f9800130f98004457980055579800bc
:101e4c006657980010c0b300104798000040eb0094
:101e5c00204798000040eb00204798001a003700fc
:101e6c004e5090008080fb002e4090000080fb00c4
:101e7c00008050000006e9000e0890009e089000bb
:101e8c00a2002000030020008004020000000000db
:101e9c00804078000c004700314098000e089000fc
:101eac009e089000a20020000300200060040200a5
:101ebc0000000000000f9800110f98002e409000b9
:101ecc000040e80020479800ae4090004e50900033
:101edc0080cf5000e2ff39000040eb002047980013
:101eec00120037004e5090008080fb002e40900076
:101efc000080fb0000805000ce5090008180fb00e1
:101f0c000101e900ae4090008180fb00810051008e
:101f1c0081004700b140900000004700314098001c
:101f2c002e4090000040e80020479800ae40900002
:101f3c005e50900080cf5000eaff39004e50900068
:101f4c008080fb005e5090000080fb000080500001
:101f5c0000004700a1c0b300314098005e509000d3
:101f6c000004e000420032000040eb0020479800e3
:101f7c003a0037001e4090000004e00015003200cb
:101f8c002e4090000080fb00000047003040900085
:101f9c000004e0000f003a002e4090008080fb000f
:101fac004e5090000080fb000001e9005e50900054
:101fbc000080fb0000005100808f500005003d00a8
:101fcc0010c0b300104798000040eb00004f7800a1
:101fdc00040037000040eb0010479800ee509000d2
:101fec00014f78000af22e000b0020000a01be00ff
:101ffc002e4090000080fb00000047003040900015
:10200c008080fb00600220000088b900000078008e
:10201c008000eb0000004100818049002e419000bf
:10202c000281fb004411dd00820178006e019000fa
:10203c00028341008042eb001e4278000001be008a
:10204c00fe00900006007800a2da020000000000fa
:10205c002e4090000040e80020479800ae409000d1
:10206c004e50900080cf5000c2ff36003e0037002b
:10207c000040eb0020479800370037001e409000ce
:10208c000004e000120032002e4090000080fb00a3
:10209c0000004700304090000004e0000c003a00c3
:1020ac002e4090008080fb004e5090000080fb0082
:1020bc000000e900808f500005003d0010c0b30007
:1020cc00104798000040eb00004f780004003700e8
:1020dc000040eb0010479800ee509000014f780044
:1020ec0008f22e00090020000801be002e409000ce
:1020fc000080fb0000004700304090008080fb0017
:10210c00600220000088b900000078008000eb001d
:10211c0000004100818049002e4190000281fb00ab
:10212c004411dd00820178006e01900002834100b1
:10213c008042eb001e4278000001be00fe009000c1
:10214c0006007800a2da0200000000002e40900089
:10215c000040e80020479800ae4090004e509000a0
:10216c0080cf5000c5ff39004f0678004f05be00e8
:10217c004f04be000080fa00000006000c00fa00bc
:10218c00000f780011079800220798003307980079
:10219c0044079800254f98002e0090004300dd0066
:1021ac002e4a9000ce019000000178009e00900015
:1021bc001e007800dcdd0200000000002e00900004
:1021cc00c300dd001e0190003e00900000004100a5
:1021dc002e4a9000ce01900001017800800078001a
:1021ec001e007800dcdd0200000000002e4a90008a
:1021fc00be0190004e0190009e0090001e007800e1
:10220c00dcdd0200000000002e0090004300dd0029
:10221c001e0040000080e9002e4a9000be01900094
:10222c004e0190009e009000dcdd020000000000da
:10223c000080fa00000006001800fa00889fbe001b
:10224c00500798006107980072079800030f9800d8
:10225c00140f9800455798000040eb00004f780091
:10226c000040eb0010479800640047000200090092
:10227c000018eb000000eb00100798000000eb00ca
:10228c0010079800150037001e0090006500100024
:10229c00300f98007e019000a10020008101780091
:1022ac00110009000381d800814078003e0990009c
:1022bc000200470041409800fe009000a000200062
:1022cc0080017800110009008380d8007007980005
:1022dc001e0090000000e800100798009e0090007f
:1022ec000e089000808f5000e7ff39000040eb0093
:1022fc00004f78000e089000660010001007980040
:10230c000a003700e40047001e00900000804000e7
:10231c00104078000004e00008003a001e4fe8006e
:10232c001e0090000000e800100798001e009000ae
:10233c00e40f5000f3ff36000100370000000000ee
:10234c009e80fb000e089000808f500004003a0025
:10235c001e08900000407800004f980008003700dd
:10236c009e80fb000e08900000805000650040002d
:10237c009e08900081407800000047004140980082
:10238c000000eb00100798002d0037009e00900015
:10239c000e08900000805000e50040001e81fb00fc
:1023ac000e0890000000510065004000808f500026
:1023bc00030031000040eb0010479800020037008a
:1023cc004e5090001047980008f22e000900200093
:1023dc000801be009e0090000e0890000080500086
:1023ec006500400000004700404090008080fb00ea
:1023fc00600220000088b900000078008000eb002b
:10240c0000004100818049001e019000c411dd00d4
:10241c005e019000028341008042eb001e4290005e
:10242c000001be00ee00900006007800a2da020067
:10243c00000000001e0090000000e800100798004b
:10244c000e0890008000e8001e009000808f500065
:10245c00ceff3e004f04be000080fa0000000600d4
:10246c000800fa00100798002107980062479800ae
:10247c00734798000040eb00004f78006e409000ce
:10248c00e14f400002003a000040eb00704798001a
:10249c00ee40900070c2b30080cf500007003600b1
:1024ac00ee40900080cdb30000c040006047980023
:1024bc00c0c0b300004f78000600370081c2b300e3
:1024cc006e40900000c0500060479800b0c0b30050
:1024dc00004f78009e80fb006e4090000080fb0057
:1024ec00fe429000010278003300200000017800c9
:1024fc00ae0090001e0090004fff07000080fa0015
:10250c00000006000800fa00100798002107980048
:10251c0062479800734798000040eb00004f78002a
:10252c006e409000e14f400002003a000040eb008a
:10253c00704798006e409000fd4f5000060036002a
:10254c006e4090007e40500060479800c0c0b300c1
:10255c00004f780006003700e1c1b3006e409000d8
:10256c0000c0500060479800b0c0b300004f780026
:10257c009e80fb006e4090000080fb00fe429000ad
:10258c00010278003300200000017800ae009000ba
:10259c001e00900028ff07000080fa0000000600d3
:1025ac000c00fa00100798002107980032079800d9
:1025bc0043079800244f98000040eb00004f780030
:1025cc003e009000e10f400002003a000040eb009a
:1025dc00204f9800be0090004e009000808f50005d
:1025ec0007003900be0090004e00900000805000a3
:1025fc0030079800c0c0b300004f780006003700c9
:10260c00ce0090003e0090000080500030079800f3
:10261c00b0c0b300004f78001e80fb00ae4a9000a3
:10262c0000027800330020003e019000ae009000c4
:10263c001e00900000ff07000080fa00000006005a
:10264c000c00fa0020079800310798004207980008
:10265c00234f9800344f98000040eb00104798002f
:10266c000040eb00204798000040eb00004f780042
:10267c00250037001e80fb004200dd00ce009000dc
:10268c00008040001000be001e4190008281fb00c3
:10269c002e01900002834100be4a90002e4a900009
:1026ac000001be00be00900006007800a2da020015
:1026bc00000000001e80fb004200dd00ce009000f8
:1026cc00008040001000be0061004000e080480027
:1026dc00a201800000f0a4008180d200a10188003a
:1026ec0090407800a2018800300020000008dd0036
:1026fc00204798009e4090002e40900000c0400063
:10270c00104798001e4fe8001e80fb004200dd00c1
:10271c00ce009000008040001001be000200780046
:10272c00008071000000e000d2ff3a000080fa0047
:10273c00000006006200fa00889fbe008a9fbe005f
:10274c008c9fbe0010079800210798003207980054
:10275c004307980054079800650798000040eb0069
:10276c00004f780040c9bf000004e0003200320086
:10277c0023c9bf000004e0002f003a0024c9bf00a9
:10278c000004e0001500320080f0210010407800b9
:10279c00f040400080f021000148780080f02100da
:1027ac00104078000080fb004400de000040780000
:1027bc00e24f50000500360080f0210010407800f8
:1027cc00ef40600080f021000148780060f02100ab
:1027dc0020030200010000002469ef0048842e0051
:1027ec00090020000801be000e4890000080fb008c
:1027fc004400de00004078000080fb00ef00600029
:10280c00300520000088b900000078008000eb0043
:10281c00000041008180490095c4b30000c2eb0068
:10282c000001be00ae0090001e009000a2da020073
:10283c00000000001600370046842e000700200020
:10284c000601be000e4890000080fb004400de0034
:10285c00004078000080fb00ef0060003005200095
:10286c000088b900000078008000eb0000004100f7
:10287c00818049008042eb0000c2eb000001be00e9
:10288c00ae0090001e009000a2da020000000000d2
:10289c0040c9bf000004e0002f00320023c9bf0074
:1028ac00e14f50002c003a0024c9bf000004e000a6
:1028bc001500320080f02100104078008040e800c4
:1028cc0080f021000148780080f021001040780051
:1028dc000080fb006f006000e90f50000600340020
:1028ec0080f021009040780000cfb30080c06000e1
:1028fc0080f021000148780060f0210020030200e4
:10290c00010000002469ef004c842e000d00200013
:10291c000c01be000e4890000080fb00ef00600030
:10292c00300520000088b900000078008000eb0022
:10293c0000014100818149001e0090007c00400094
:10294c0095c4b30000c2eb00ae009000a2da020006
:10295c0000000000130037004a842e000b002000fa
:10296c000a01be000e4890000080fb00ef006000e2
:10297c00300520000088b900000078008000eb00d2
:10298c0000014100818149001e0090007c00400044
:10299c008042eb0000c2eb00ae009000a2da020015
:1029ac000000000040c9bf000004e0003500320008
:1029bc0023c9bf00e24f500032003a0024c9bf00c7
:1029cc000004e0001500320070f021001040780087
:1029dc00f040400070f021000148780070f02100b8
:1029ec00104078000080fb004400de0000407800be
:1029fc00e54f50000500360070f0210010407800c3
:102a0c00ef40600070f021000148780060f0210078
:102a1c0020030200010000002469ef0041842e0015
:102a2c007107980004002000040f98007e019000ac
:102a3c008e0990007e4090000080fb004400de0078
:102a4c00004078000080fb00ef00600030052000a3
:102a5c000088b900000078008000eb000001410004
:102a6c00818149001e0090004005b00095c4b30060
:102a7c0000c2eb00ae009000a2da020000000000e1
:102a8c001900370045842e00150f98000100200016
:102a9c00210f98001e099000ae0990007e40900016
:102aac000080fb004400de00004078000080fb004a
:102abc00ef006000300520000088b90000007800ad
:102acc008000eb0000014100818149001e00900054
:102adc004005b0008042eb0000c2eb00ae0090005d
:102aec00a2da02000000000040c9bf000004e000b0
:102afc003200320023c9bf00e34f50002f003a00d0
:102b0c0024c9bf000004e0001500320070f0210061
:102b1c00104078008040e80070f0210001487800f7
:102b2c0070f02100104078000080fb006f00600006
:102b3c00e90f50000600340070f02100904078003e
:102b4c0000cfb30080c0600070f021000148780015
:102b5c0060f0210020030200010000002469ef0056
:102b6c0044842e00340f980005002000450f980077
:102b7c003e099000ce0990007e4090000080fb0042
:102b8c00ef006000300520000088b90000007800dc
:102b9c008000eb0000014100818149001e00900083
:102bac000007b00095c4b30000c2eb00ae0090006b
:102bbc00a2da0200000000001600370041842e004b
:102bcc00510f980004002000640f98005e099000db
:102bdc00ee0990007e4090000080fb00ef0060004a
:102bec00300520000088b900000078008000eb0060
:102bfc0000014100818149001e0090000007b000d7
:102c0c008042eb0000c2eb00ae009000a2da0200a2
:102c1c000000000041db800000022000008060000a
:102c2c000000e0000300320000c0eb00004f780011
:102c3c00020037000040eb00004f780045842e0066
:102c4c00750f980001002000011798007e08900075
:102c5c008e109000e4332000050020000401400099
:102c6c00858148002e009000e30040001e0090007b
:102c7c008003b0008042eb001e427800a2da020012
:102c8c000000000060db8000700060000000e000cd
:102c9c000500320050db80004300de006140600024
:102cac0040e9b700020037004069ef002369ef00ec
:102cbc0085332e001517980001002000211798006d
:102ccc001e109000ae10900084082000050020001b
:102cdc0004014000858148002e0090008080e900ae
:102cec001e0090004010b0008042eb0000c2eb00d0
:102cfc00a2da02000000000085332e003517980080
:102d0c0001002000411798003e119000ce11900058
:102d1c002e0090008080e9001e0090004011b00051
:102d2c008042eb0000c2eb00a2da020000000000bf
:102d3c0040c9bf000004e0003600320023c9bf00c8
:102d4c00e44f500033003a0024c9bf000004e000f7
:102d5c0015003200c0f0210010407800f040400017
:102d6c00c0f0210001487800c0f02100104078002c
:102d7c000080fb004400de0000407800e94f50006a
:102d8c0005003600c0f0210010407800ef406000d4
:102d9c00c0f021000148780060f0210020030200ff
:102dac00010000002469ef0084332e0054179800b2
:102dbc0005002000651798005e119000ee11900040
:102dcc004e4890000080fb004400de00004078007c
:102ddc000080fb00ef006000400420000088b90078
:102dec00000078008000eb00000141008181490067
:102dfc002e0090008080e9001e0090004012b00070
:102e0c0095c4b30000c2eb00a2da0200000000007f
:102e1c001a00370081332e0071179800040020002f
:102e2c00041f98007e1190008e1990004e4890005f
:102e3c000080fb004400de00004078000080fb00b6
:102e4c00ef006000400420000088b900000078000a
:102e5c008000eb0000014100818149002e009000b0
:102e6c008080e9001e0090004012b0008042eb0010
:102e7c0000c2eb00a2da02000000000040c9bf0053
:102e8c000004e0003300320023c9bf00e54f5000be
:102e9c0030003a0024c9bf000004e00015003200e5
:102eac00c0f02100104078008040e800c0f0210004
:102ebc0001487800c0f02100104078000080fb0031
:102ecc006f006000e90f500006003400c0f02100d4
:102edc009040780000cfb30080c06000c0f02100ab
:102eec000148780060f0210020030200010000007e
:102efc002469ef0085332e00151f98000100200077
:102f0c00211f98001e199000ae1990004e48900099
:102f1c000080fb00ef006000400420000088b90036
:102f2c00000078008000eb00000141008181490025
:102f3c002e0090008080e9001e0090004013b0002d
:102f4c0095c4b30000c2eb00a2da0200000000003e
:102f5c001700370084332e00341f98000500200022
:102f6c00451f98003e199000ce1990004e489000d5
:102f7c000080fb00ef006000400420000088b900d6
:102f8c00000078008000eb000001410081814900c5
:102f9c002e0090008080e9001e0090004013b000cd
:102fac008042eb0000c2eb00a2da0200000000003d
:102fbc0081332e00511f980004002000641f9800dc
:102fcc005e199000ee19900040482000010020008e
:102fdc0000014100818149002e0090008080e900b1
:102fec001e0090004014b0008042eb0000c2eb00c9
:102ffc00a2da02000000000040c9bf000004e0009b
:10300c003600320023c9bf00e64f500033003a00af
:10301c0024c9bf000004e00015003200b0f021000c
:10302c0010407800f0404000b0f0210001487800da
:10303c00b0f02100104078000080fb004400de005e
:10304c0000407800e14f500005003600b0f0210040
:10305c0010407800ef406000b0f02100014878008b
:10306c0060f0210020030200010000002469ef0041
:10307c0085332e00751f9800010020000127980051
:10308c007e1990008e2190003e4890000080fb003d
:10309c004400de00004078000080fb00ef00600080
:1030ac00400420000088b900000078008000eb008c
:1030bc0000014100818149002e0090008080e900d0
:1030cc001e0090004015b00095c4b30000c2eb0088
:1030dc00a2da0200000000001a00370084332e0030
:1030ec001427980005002000252798001e21900029
:1030fc00ae2190003e4890000080fb004400de00b2
:10310c00004078000080fb00ef00600040042000cd
:10311c000088b900000078008000eb00000141003d
:10312c00818149002e0090008080e9001e009000f3
:10313c004015b0008042eb0000c2eb00a2da0200a6
:10314c000000000040c9bf000004e0003300320062
:10315c0023c9bf00e74f500030003a0024c9bf001c
:10316c000004e00015003200b0f02100104078009f
:10317c008040e800b0f0210001487800b0f0210058
:10318c00104078000080fb006f006000e90f5000d9
:10319c0006003400b0f021009040780000cfb3005e
:1031ac0080c06000b0f021000148780060f0210080
:1031bc0020030200010000002469ef0081332e007f
:1031cc003127980004002000442798003e219000ed
:1031dc00ce2190003e4890000080fb00ef00600084
:1031ec00400420000088b900000078008000eb004b
:1031fc0000014100818149002e0090008080e9008f
:10320c001e0090004016b00095c4b30000c2eb0045
:10321c00a2da0200000000001700370085332e00f0
:10322c005527980001002000612798005e2190002e
:10323c00ee2190003e4890000080fb00ef00600003
:10324c00400420000088b900000078008000eb00ea
:10325c0000014100818149002e0090008080e9002e
:10326c001e0090004016b0008042eb0000c2eb0044
:10327c00a2da02000000000084332e0074279800ac
:10328c0005002000052f98007e2190008e299000cb
:10329c0040482000010020000000410081804900ce
:1032ac002e0190008283e9001e0190004617200039
:1032bc00020343008042eb0000c2eb000001be00a1
:1032cc008700780006007800a2da020000000000f7
:1032dc0040c9bf000004e0003a00320023c9bf001f
:1032ec00e84f500037003a0024c9bf000004e0004a
:1032fc0015003200a0f0210010407800f040400092
:10330c00a0f0210001487800a0f0210010407800c6
:10331c000080fb004400de0000407800e34f5000ca
:10332c0005003600a0f0210010407800ef4060004e
:10333c00a0f021000148780060f021002003020079
:10334c00010000002469ef0081332e00112f98003a
:10335c0004002000242f98001e299000ae29900014
:10336c002e4890000080fb004400de0000407800f6
:10337c000080fb00ef006000400420000088b900d2
:10338c00000078008000eb000000410081804900c3
:10339c002e0190008283e9001e0190004618200047
:1033ac000203430095c4b30000c2eb000001be0051
:1033bc008700780006007800a2da02000000000006
:1033cc001e00370085332e00352f98000100200099
:1033dc00412f98003e299000ce2990002e48900055
:1033ec000080fb004400de00004078000080fb0001
:1033fc00ef006000400420000088b9000000780055
:10340c008000eb0000004100818049002e019000fb
:10341c008283e9001e01900046182000020343003d
:10342c008042eb0000c2eb000001be008700780078
:10343c0006007800a2da02000000000040c9bf00bc
:10344c000004e0003700320023c9bf00e94f5000f0
:10345c0034003a0024c9bf000004e000150032001b
:10346c00a0f02100104078008040e800a0f021007e
:10347c0001487800a0f02100104078000080fb008b
:10348c006f006000e90f500006003400a0f021002e
:10349c009040780000cfb30080c06000a0f0210005
:1034ac000148780060f021002003020001000000b8
:1034bc002469ef0084332e00542f9800050020005f
:1034cc00652f98005e299000ee2990002e48900000
:1034dc000080fb00ef006000400420000088b90071
:1034ec00000078008000eb00000041008180490062
:1034fc002e0190008283e9001e01900046192000e5
:10350c000203430095c4b30000c2eb000001be00ef
:10351c008700780006007800a2da020000000000a4
:10352c001b00370081332e00712f980004002000ff
:10353c00043798007e2990008e3190002e48900020
:10354c000080fb00ef006000400420000088b90000
:10355c00000078008000eb000000410081804900f1
:10356c002e0190008283e9001e0190004619200074
:10357c00020343008042eb0000c2eb000001be00de
:10358c008700780006007800a2da02000000000034
:10359c004f06be004f05be004f04be000080fa006f
:1035ac00000006000000fa00889fbe0026c9bf007c
:1035bc000004e00018003a0010c0b30026e9b70080
:1035cc0060db80000040a00060db88000ed90200a8
:1035dc000000000094c4b30023002000023220003d
:1035ec00810320000000eb00dcdd02000000000085
:1035fc008042eb00c4c1b3004880200019002000b9
:10360c000801be00e101200080162000a2da0200b1
:10361c00000000002c00370026c9bf00e14f50000d
:10362c0028003a0010c0b30026e9b70060f0210072
:10363c001080fb0071f021009180fb00c808dd00b8
:10364c00010070008000eb008000780080f0210009
:10365c001080fb0092f021001281fb004811dd006c
:10366c00020070008001eb0080017800a0f02100c6
:10367c001080fb00b2f021001281fb004811dd002c
:10368c00020070000002eb0000027800c0f0210084
:10369c009082fb000000eb00f20f20000281620020
:1036ac0005f02f000500600000007100010178009a
:1036bc0080027800010f2000200d20001dfc070067
:1036cc00010037002669ef0030db800068006000e5
:1036dc000000e0000c00320030db80000030a10064
:1036ec0030db880023c9bf00e84f500004003e00c7
:1036fc0023c9bf000040e80023e9b70002003700ef
:10370c0090c0b30023e9b70031db80000004200037
:10371c00008060000000e0000b00320030db800015
:10372c000060a10030db880023c9bf000004e0006a
:10373c000400320023c9bf000040e90023e9b700b0
:10374c00010037002369ef0030db8000610060006e
:10375c000000e0000b00320030db80000000a10014
:10376c0030db880060db8000700060000000e0004f
:10377c000300320010c0b30024e9b7000100370089
:10378c002469ef0050db8000610060000000e00065
:10379c000a00320050db80000000a10050db8800e2
:1037ac002569ef002669ef0060db80000040a10076
:1037bc0060db8800a0c0b30023e9b7004f04be0053
:1037cc000080fa00000006000600fa00881f78004e
:1037dc00100798002107980020032000000f7800a4
:1037ec00d04480008000eb004e030200000000007b
:1037fc00d2cc2c00c3dc2300f80302000000000034
:10380c001203020000000000000f7800f0312000cd
:10381c009e007800808f500002003600003220009d
:10382c00000f78001e0078008000eb0000c3eb0056
:10383c008042eb0034c0b3000001be00ae0090002b
:10384c001e0090009bf807001e0078000000e000ae
:10385c001900320025c9bf000004e00016003a0030
:10386c001e0078008000eb004e03020000000000f8
:10387c00a2702d0033052400f803020000000000a4
:10388c000200200003e02300f80302000000000007
:10389c00120302000000000000007800c4c1b30055
:1038ac00c30120000001780081072000300e2000a9
:1038bc00dcdd020000000000f03120009e007800ea
:1038cc00808f500030003e0025c9bf000004e0008e
:1038dc002d003a001e0078008000eb004e03020021
:1038ec0000000000a2702d0033052400f803020034
:1038fc00000000000200200003e02300f803020097
:10390c00000000000001be0000002800513a240015
:10391c00ce010200000000001203020000000000b3
:10392c00000478001e0078008000eb004e030200bb
:10393c0000000000a2702d0033052400f8030200e3
:10394c00000000000200200003e02300f803020046
:10395c00000000000200200033362400d0010200d9
:10396c0000000000120302000000000000007800bc
:10397c000042eb00c3012000080178008107200001
:10398c00dcdd0200000000004f0478000080fa002b
:10399c00000006000600fa00889fbe008a9fbe0049
:1039ac00100798002107980040062000000f7800af
:1039bc00404880008000eb004e0302000000000035
:1039cc00d2cc2c00c3dc2300f80302000000000062
:1039dc001203020000000000000f7800f0c7200066
:1039ec009e007800808f500079003e0000c82000b7
:1039fc001e0f5000401f20009e007800808f50004a
:103a0c0002003600401f2000000f78001e007800d6
:103a1c008000eb0000c3eb008042eb0034c0b3002d
:103a2c000001be00ae0090001e00900021f80700bf
:103a3c002e009000e40040001e0090007400500026
:103a4c008042eb0000c2eb002a9225001b002000f4
:103a5c000a01be0074dc0200000000001e007800a9
:103a6c000000e0003000320025c9bf000004e00077
:103a7c002d003a001e0078008000eb004e0302007f
:103a8c000000000052b82e0013fd2300f8030200c2
:103a9c0000000000d2cc2c00c3e42300f803020089
:103aac00000000000200200003f82300d0010200f7
:103abc000000000012030200000000000004780067
:103acc001e0078008000eb004e0302000000000096
:103adc0052b82e0013fd2300f80302000000000072
:103aec00d2cc2c00c3e42300f80302000000000039
:103afc000001be0000002800313c2400ce01020071
:103b0c00000000001203020000000000000078001a
:103b1c00c4c1b300c301200008017800f10a2000e1
:103b2c00dcdd020000000000301f20009e00780049
:103b3c00808f500099003e0025c9bf000004e000b2
:103b4c0096003a001e0078008000eb004e03020045
:103b5c000000000052b82e0013fd2300f8030200f1
:103b6c0000000000d2cc2c00c3e42300f8030200b8
:103b7c00000000000001be000000200041322400c3
:103b8c00ce01020000000000120302000000000041
:103b9c00000078000042eb00c30120000001780017
:103bac00f10a2000300e2000dcdd020000000000d5
:103bbc000042eb00c3012000520a2000f10a200051
:103bcc0090182000dcdd02000000000073003700bc
:103bdc0000382f001e0f4000401f20009e00780070
:103bec00808f500002003600401f2000000f78002c
:103bfc002e009000e40040001e0090007400500065
:103c0c008042eb0000c2eb00089325001900200055
:103c1c000801be0074dc0200000000001e007800e9
:103c2c008000eb0000c3eb008042eb0034c0b3001b
:103c3c000001be00ae0090001e0090009df7070032
:103c4c001e007800e30f50001900360025c9bf0094
:103c5c000004e00016003a001e0078008000eb0023
:103c6c004e030200000000003233230033fd23001a
:103c7c00f803020000000000d2cc2c00c3e42300a7
:103c8c00f803020000000000120302000000000014
:103c9c0000007800c4c1b300c3012000000178000b
:103cac00f10a200090182000dcdd0200000000006a
:103cbc00301f20009e007800808f500037003e009f
:103ccc0025c9bf000004e00034003a001e00780053
:103cdc008000eb004e030200000000003233230092
:103cec0033fd2300f803020000000000d2cc2c00ae
:103cfc00c3e42300f8030200000000000001be0032
:103d0c000000200051322400ce010200000000000f
:103d1c001203020000000000000478001e0078006e
:103d2c008000eb004e030200000000003233230041
:103d3c0033fd2300f803020000000000d2cc2c005d
:103d4c00c3e42300f8030200000000000200280076
:103d5c00433c2400d00102000000000012030200ca
:103d6c0000000000000078000042eb00c3012000be
:103d7c0008017800f10a2000dcdd020000000000e0
:103d8c000042eb00c3012000420a2000f10a20008f
:103d9c00300e2000dcdd0200000000004f05be00ec
:103dac004f04be000080fa00000006000200fa007a
:103dbc00881f780000c0eb00004f780040c6b300ad
:103dcc00104798009cc8bf000080fb00cf80de002d
:103ddc004803020000000000d2cc2c00c3ec2300ee
:103dec00f8030200000000001203020000000000b3
:103dfc00104798009e40900030c6b30080cf500012
:103e0c000200360040c6b300104798001e409000d8
:103e1c000004e00013003200b0dd210010407800f7
:103e2c008080fb0000042000008060000000e000a7
:103e3c0006003a00b0dd2100104078000080fb0045
:103e4c00680060000000e0000300320000ceb30008
:103e5c00004f780005003700c0c1b300004f780058
:103e6c00020037000040eb00004f78001e4090002d
:103e7c000080fb008000eb0000c3eb008042eb00f5
:103e8c0034c0b3000001be00410e2000902420007d
:103e9c0008f707001e4090000080fb00cf80de007a
:103eac004803020000000000a2702d00330524001e
:103ebc00f8030200000000001203020000000000e2
:103ecc00000078001e427800c30120000001780039
:103edc00610e2000300e2000dcdd0200000000002e
:103eec009e40900030c6b30080cf500027003e00ab
:103efc001e4090000080fb00cf80de0048030200d3
:103f0c0000000000a2702d0033052400f80302000d
:103f1c00000000000001be0000002800513a2400ff
:103f2c00ce0102000000000012030200000000009d
:103f3c00000478001e4090000080fb00cf80de0063
:103f4c004803020000000000a2702d00330524007d
:103f5c00f8030200000000000200200033362400a9
:103f6c00d00102000000000012030200000000005b
:103f7c00000078000042eb00c3012000080178002b
:103f8c00610e2000dcdd0200000000004f04780010
:103f9c000080fa00000006003800fa00889fbe007e
:103fac008a9fbe008c9fbe008042eb0000c2eb00db
:103fbc0000a72200110020000001be00b107200064
:103fcc00a00a2000a2da02000000000000c2eb00f0
:103fdc0023002000f214200061072000100e2000a6
:103fec00dcdd02000000000000c2eb00230020001a
:103ffc00f214200041092000100e2000dcdd02002c
:10400c000000000000c2eb00030220002200200090
:10401c0061072000100e2000dcdd02000000000013
:10402c0000c2eb00a300200022002000c1062000eb
:10403c0040132000dcdd02000000000000c2eb0099
:10404c00a300200022002000c106200070182000d0
:10405c00dcdd02000000000000c2eb00a300200029
:10406c0022002000c1062000a01d2000dcdd020083
:10407c000000000000c2eb00030220002200200020
:10408c0061072000e0222000dcdd020000000000bf
:10409c00e8a52f00090020000800be008042eb00bc
:1040ac0000c2eb000001be0081062000d00d2000f4
:1040bc00a2da020000000000eaa52f000b0020008d
:1040cc000a00be000208200003002000020040008d
:1040dc00838048008042eb0000c2eb000001be0070
:1040ec008106200020222000a2da0200000000003d
:1040fc00eca52f000d0020000c00be008042eb0050
:10410c0000c2eb000001be0081062000a0222000ae
:10411c00a2da020000000000e3a52f00030f7800d4
:10412c0001002000110798001e00be008042eb0029
:10413c0000c2eb000001be008106200020232000fd
:10414c00a2da0200000000008042eb0000c2eb008b
:10415c00627925002207980013002000330798008d
:10416c002e019000be019000e107200000282000e5
:10417c00a2da0200000000008042eb0000c2eb005b
:10418c00c1ac220041079800120020005207980091
:10419c004e019000de019000210b2000a00a2000af
:1041ac00a2da02000000000000c2eb002300200095
:1041bc00f2142000d10a2000100e2000dcdd0200d9
:1041cc000000000000c2eb0023002000f2142000cd
:1041dc00b10c2000100e2000dcdd020000000000fd
:1041ec0000c2eb000302200022002000d10a2000b4
:1041fc00100e2000dcdd02000000000000c2eb000d
:10420c00a300200022002000310a200040132000cf
:10421c00dcdd02000000000000c2eb00a300200067
:10422c0022002000310a2000a01d2000dcdd02004d
:10423c000000000000c2eb0003022000220020005e
:10424c00d10a2000e0222000dcdd0200000000008a
:10425c0000c2eb002300200082002000610a200035
:10426c00500d2000dcdd020000000000e3a52f0053
:10427c006307980001002000710798006e00900001
:10428c00fe00900002052000030020000200400008
:10429c00838048008042eb0000c2eb000001be00ae
:1042ac00f1092000d00d2000a2da0200000000006d
:1042bc00e3a52f00030f980001002000110f9800b8
:1042cc000e0890009e0890008042eb0000c2eb00ac
:1042dc000001be00f1092000500e2000a2da0200fd
:1042ec0000000000e2a52f00220f98000300200020
:1042fc00330f98002e089000be0890008042eb000f
:10430c0000c2eb000001be00f1092000d00e20001d
:10431c00a2da020000000000e1a52f00410f980076
:10432c0002002000520f98004e089000de0890000a
:10433c008042eb0000c2eb000001be00f10920003e
:10434c0030182000a2da02000000000000c2eb00ce
:10435c000302200022002000d10a20007018200047
:10436c00dcdd020000000000e3a52f00630f9800c5
:10437c0001002000710f98006e089000fe0890005c
:10438c00020520000300200002004000838048004a
:10439c008042eb0000c2eb000001be00f1092000de
:1043ac0020222000a2da020000000000e3a52f006a
:1043bc000317980001002000111798000e109000b0
:1043cc009e1090008042eb0000c2eb000001be008a
:1043dc00f1092000a0222000a2da02000000000057
:1043ec00e2a52f0022179800030020003317980035
:1043fc002e109000be1090008042eb0000c2eb002b
:10440c000001be00f109200020232000a2da0200e6
:10441c00000000008042eb0000c2eb00817b250015
:10442c004117980012002000521798004e1190006e
:10443c00de119000510b200000282000a2da0200af
:10444c00000000008042eb0000c2eb00e37524008a
:10445c006317980011002000711798006e119000de
:10446c00fe119000910e2000d00a2000a2da02006a
:10447c000000000000c2eb0023002000f21420001a
:10448c00410e2000100e2000dcdd020000000000b8
:10449c0000c2eb0023002000f214200021102000a9
:1044ac00100e2000dcdd02000000000000c2eb005a
:1044bc000302200022002000410e2000100e2000dc
:1044cc00dcdd02000000000000c2eb000302200053
:1044dc0022002000410e2000e0222000dcdd020042
:1044ec00000000008042eb0000c2eb00e2932500cc
:1044fc00021f980013002000131f98000e19900043
:10450c009e199000e10e200000232000a2da020088
:10451c00000000008042eb0000c2eb00018425008b
:10452c00211f980012002000321f98002e199000b5
:10453c00be199000c10e200000282000a2da020053
:10454c00000000004f06be004f05be004f04be0029
:10455c000080fa00000006000200fa00889fbe00ee
:10456c008a9fbe000ed902000000000094c4b30064
:10457c002300200002322000e11a20000000eb0092
:10458c00dcdd02000000000094c4b3001300200026
:10459c00023220008000eb000000eb00dcdd0200aa
:1045ac000000000094c4b30013002000023220006d
:1045bc00210320000000eb00dcdd02000000000005
:1045cc0094c4b30013002000622220004106200096
:1045dc00a0072000dcdd020000000000100020001d
:1045ec00000f78000b0037009e007800d0032000ed
:1045fc000088b9000000780094c4b30023032000a5
:10460c00120020008000eb00dcdd02000000000046
:10461c001e0fe8001e007800ec0f5000f2ff360071
:10462c0020002000000f78000b0037009e0078005f
:10463c00d00320000088b9000000780094c4b300b7
:10464c00230320001200200021032000dcdd0200e7
:10465c00000000001e0fe8001e007800eb0f500059
:10466c00f2ff36000000eb00000f78000500370069
:10467c0020ec21001e00400011c0b300014878005e
:10468c001e0fe8001e007800f70f5000f8ff3600f0
:10469c0041fe0700100a20005049880090102000ad
:1046ac00604988000000eb00000f78000c00370018
:1046bc001e0078007e00b900800078006049800000
:1046cc00808040005049800094c4b3001300200047
:1046dc00e21d2000dcdd0200000000001e0fe800df
:1046ec001e007800e40f5000f1ff3600100a200085
:1046fc0050498800614980005049800094c4b3003f
:10470c008307200012002000dcdd02000000000006
:10471c0000192000504988006149800050498000f0
:10472c0094c4b3008307200012002000dcdd0200db
:10473c0000000000f02720005049880061498000eb
:10474c005049800094c4b30083072000120020005d
:10475c00dcdd020000000000300a20005049880017
:10476c00f0102000604988000000eb00000f78007a
:10477c001c003700e1c720001e0078004400dd005b
:10478c00008140001e0078007e00b9008000780097
:10479c006049800080804000504980000042eb005e
:1047ac0080c1eb00a6f7070061d020001e00780046
:1047bc004300dd00008140001e0078007e00b9003f
:1047cc008000780060498000808040005049800063
:1047dc00000db0000042eb0080c1eb0098f7070021
:1047ec001e0fe8001e007800e20f5000e1ff3600bb
:1047fc002019200050498800f010200060498800e2
:10480c000000eb00000f78001a003700e1ca20000e
:10481c001e0078004400dd00008140001e0078007e
:10482c007e00b900800078006049800080804000e4
:10483c00504980000042eb0080c1eb0080f707007c
:10484c0060d02000780140001e0078007e00b90086
:10485c0080007800604980008080400050498000d2
:10486c00900db0000042eb0080c1eb0074f7070024
:10487c001e0fe8001e007800e30f5000e3ff360027
:10488c00300a200050498800e01820006049880058
:10489c00e2ce200061498000504980000042eb00cc
:1048ac0080c1eb0066f70700001920005049880012
:1048bc00e0ce20006c01400061498000504980002e
:1048cc000042eb0080c1eb005df7070050162000a2
:1048dc005049880061498000504980008042eb00bb
:1048ec0000c2eb006aca24001b0020000a01be00b3
:1048fc00a2da020000000000d025200050498800f8
:10490c0061498000504980008042eb0000c2eb00fe
:10491c0068ca2400190020000801be00a2da0200b7
:10492c00000000004f05be004f04be000080fa00de
:10493c00000006000600fa000040eb00004f780073
:10494c000040eb0010479800d01120001007980091
:10495c00f010200020079800504880008000eb00e9
:10496c0000c3eb0035c0b30044c0b3000001be006f
:10497c00ae0090001e00900027f5070070488000e4
:10498c008000eb002e019000fe03410000c3eb0001
:10499c0035c0b30044c0b3000001be0087007800ee
:1049ac001e0090001cf50700204580008000eb00e5
:1049bc002e019000c70320008283430000c3eb004c
:1049cc0015c0b30044c0b3000001be0087007800de
:1049dc001e00900010f507005022200010079800d0
:1049ec00f0102000200798000cc9bf0080c1eb001c
:1049fc0000417800ae0090001e00900098f6070071
:104a0c0041912000914078002e0090007e004000e3
:104a1c0080c1eb0001417800800078001e009000fe
:104a2c008ff60700f18e2000914078002e00900048
:104a3c00c003b00080c1eb00014178008000780019
:104a4c001e00900086f60700e18e20009140780051
:104a5c002e009000a005b00080c1eb000141780051
:104a6c00800078001e0090007df607000080fa00a0
:104a7c00000006000c00fa00889fbe008a9fbe0052
:104a8c008c9fbe0092c4b300124798000041eb000b
:104a9c002247980032e22100124178000281fb008b
:104aac0061016100024178000204e0000300320061
:104abc0002ceb300124798000200370092c4b30034
:104acc00124798008042eb001e42900040fa2000f2
:104adc00110020000001be00c1032000400820008e
:104aec00a2da02000000000080e1210010407800f2
:104afc000080fb00620060000000e0000300320058
:104b0c00c0cfb300104798000200370090c4b30028
:104b1c00104798008042eb001e42900021b9200003
:104b2c002107980011002000310798002e019000f9
:104b3c00be01900091032000200c2000a2da02009c
:104b4c000000000000dc8000640060000000e00059
:104b5c0003003200c0c1b3001047980002003700b8
:104b6c0090c4b300104798008042eb001e429000a6
:104b7c002c5d20001d0020000c01be0071032000e4
:104b8c00e00f2000a2da020000000000c0e12100ca
:104b9c00104078000080fb00640060000000e00022
:104bac0003003200c0c1b300104798000200370068
:104bbc0090c4b300104798008042eb001e42900056
:104bcc004adb20001b0020000a01be00f10320007c
:104bdc0040132000a2da02000000000090e1210046
:104bec00104078008080fb000007200000806000ef
:104bfc0001022000810f50000f0032000104200040
:104c0c00810f500007003200f00f50000f003a00e7
:104c1c00c0c1b300104798000040eb00004f780073
:104c2c000f00370000ceb3001047980010c0b3003f
:104c3c00004f78000a003700c0c1b300104798003d
:104c4c0020c0b300004f78000500370090c4b300bb
:104c5c00104798000040eb00004f78000000000067
:104c6c00a1db2f004107980001002000510798009c
:104c7c004e019000de0190009e80fb00900520000c
:104c8c000088b900000078008000eb0000004100b3
:104c9c00818049008042eb001e4290000001be0062
:104cac00e103200000182000a2da0200000000003e
:104cbc00d0e32100104078000080fb00630060000e
:104ccc00e10f5000fc003200d0e3210010407800ce
:104cdc000080fb006c006000e40f5000f600320016
:104cec00a0e82100104078008080fb00000e20001e
:104cfc00008060000000e000ef003200a0e821001e
:104d0c00104078008080fb00000e20008080600046
:104d1c0000022000808f5000e7003200a0e8210044
:104d2c00104078008080fb00000e20008080600026
:104d3c0000062000808f5000df003200a0e8210028
:104d4c00104078008080fb00000e20008080600006
:104d5c0000082000808f5000d7003200e0e32100d3
:104d6c00104078000080fb0063006000e10f5000f1
:104d7c00d1003200e0e32100104078000080fb00fd
:104d8c006c006000e40f5000cb003200b0e8210052
:104d9c00104078008080fb00000e20000080600036
:104dac000000e000c4003200b0e8210010407800a0
:104dbc008080fb00000e200080806000000220003c
:104dcc00808f5000bc003200b0e821001040780009
:104ddc008080fb00000e2000808060000006200018
:104dec00808f5000b4003200b0e8210010407800f1
:104dfc008080fb00000e20008080600000082000f6
:104e0c00808f5000ac003200f0e32100104078009d
:104e1c000080fb0063006000e10f5000a600320030
:104e2c00f0e32100104078000080fb006c00600073
:104e3c00e40f5000a0003200c0e8210010407800c0
:104e4c008080fb00000e2000008060000000e0006d
:104e5c0099003200c0e82100104078008080fb00ef
:104e6c00000e20008080600000022000808f500027
:104e7c0091003200c0e82100104078008080fb00d7
:104e8c00000e20008080600000062000808f500003
:104e9c0089003200c0e82100104078008080fb00bf
:104eac00000e20008080600000082000808f5000e1
:104ebc008100320000e42100104078000080fb00eb
:104ecc0063006000e10f50007b00320000e4210021
:104edc00104078000080fb006c006000e40f500074
:104eec0075003200d0e82100104078008080fb0073
:104efc00000e2000008060000000e0006e00320018
:104f0c00d0e82100104078008080fb00000e2000cb
:104f1c008080600000022000808f5000660032000c
:104f2c00d0e82100104078008080fb00000e2000ab
:104f3c008080600000062000808f50005e003200f0
:104f4c00d0e82100104078008080fb00000e20008b
:104f5c008080600000082000808f500056003200d6
:104f6c0010e42100104078000080fb00630060001a
:104f7c00e10f50005000320010e421001040780086
:104f8c000080fb006c006000e40f50004a0032000f
:104f9c00e0e82100104078008080fb00000e20002b
:104fac00008060000000e00043003200e0e82100d7
:104fbc00104078008080fb00000e20008080600094
:104fcc0000022000808f50003b003200e0e82100fe
:104fdc00104078008080fb00000e20008080600074
:104fec0000062000808f500033003200e0e82100e2
:104ffc00104078008080fb00000e20008080600054
:10500c0000082000808f50002b00320020e421008b
:10501c00104078000080fb0063006000e10f50003e
:10502c002500320020e42100104078000080fb00b5
:10503c006c006000e40f50001f003200f0e821000b
:10504c00104078008080fb00000e20000080600083
:10505c000000e00018003200f0e821001040780059
:10506c008080fb00000e2000808060000002200089
:10507c00808f500010003200f0e8210010407800c2
:10508c008080fb00000e2000808060000006200065
:10509c00808f500008003200f0e8210010407800aa
:1050ac008080fb00000e2000808060000008200043
:1050bc00808f500006003a0000ceb30010479800d5
:1050cc0070db80000070a10070db880005003700e9
:1050dc0090c4b3001047980070db80000070a100f2
:1050ec0070db880080e12100104078000004e000b3
:1050fc0003003d00c0c1b300104798000200370008
:10510c0090c4b300104798008042eb001e42900000
:10511c00c8192000190020000801be0091032000ce
:10512c0080262000a2da0200000000004f06be001c
:10513c004f05be004f04be000080fa0000000600c0
:10514c001400fa00889fbe008a9fbe008c9fbe0090
:10515c0090c4b300004f780021dc800000082000d0
:10516c00008060000000e0000300320000ceb300bd
:10517c00004f78000200370090c4b300004f780055
:10518c008042eb001e427800c25020001300200029
:10519c0051002000a0002000a2da02000000000054
:1051ac0000dc8000680060000000e00004003200b9
:1051bc0000dc8000700060000000e00003003a009a
:1051cc0000ceb300004f78000200370090c4b3004b
:1051dc00004f780020ec2100104078009e4f5000ca
:1051ec000b00320020ec21001e4878008042eb00be
:1051fc001e427800c80b2000190020000801be00d8
:10520c007100200030042000a2da0200000000002f
:10521c0001dc800000082000008060000000e0003d
:10522c0003003a0000ceb300004f780002003700b4
:10523c0090c4b300004f780030ec2100104078008f
:10524c009e4f50000200320030ec21001e487800c6
:10525c0041dc800000002400008060000000e000c1
:10526c000300320000ceb300004f7800020037007c
:10527c0090c4b300004f78008042eb001e427800cf
:10528c008a7d2f000b0020000a01be0011002000b7
:10529c00c00b2000a2da02000000000041dc8000fc
:1052ac0000042000008060000000e00003003200d9
:1052bc0000ceb300004f78000200370090c4b3005a
:1052cc00004f78008042eb001e427800c1ad2000f8
:1052dc002107980011002000310798002e01900042
:1052ec00be0190007100200010102000a2da020014
:1052fc000000000093c8bf008080fb00000320006a
:10530c00008060004480de00100798001e009000b2
:10531c00e10f500003003a0000ceb300004f7800bc
:10532c00080037001e009000e20f500003003a0006
:10533c0000c0eb00004f78000200370090c4b300af
:10534c00004f7800c0e12100104078000080fb0085
:10535c00620060000000e0000300320000ceb300e9
:10536c00004f78000200370090c4b300004f780063
:10537c008042eb001e427800a10d210041079800ed
:10538c0011002000510798004e019000de019000a2
:10539c00a1002000201f2000a2da02000000000063
:1053ac00b0e12100104078000004e0000f0035004f
:1053bc00c0cfb300004f78008042eb001e42780053
:1053cc002117210061079800110020007107980037
:1053dc006e019000fe019000b1002000002320001f
:1053ec00a2da0200000000000e003700c0c1b300ba
:1053fc00004f78008042eb001e4278000120210013
:10540c00010f980011002000110f98000e09900058
:10541c009e099000b100200000232000a2da0200b7
:10542c000000000000dc8000700060000000e00064
:10543c0003003a0000ceb300004f780002003700a2
:10544c0090c4b300004f780040ec2100104078006d
:10545c009e4f50000200320040ec21001e487800a4
:10546c0001dc800000102000008060000000e000e3
:10547c0003003a0000ceb300004f78000200370062
:10548c0090c4b300004f780050ec2100104078001d
:10549c009e4f50000200320050ec21001e48780054
:1054ac0020f88000620060000000e0000300320081
:1054bc0000ceb300004f78000200370090c4b30058
:1054cc00004f78008042eb001e427800cc50200048
:1054dc001d0020000c01be0051002000602e200099
:1054ec00a2da0200000000004f06be004f05be000d
:1054fc004f04be000080fa00000006000000fa0015
:10550c00881f7800d010200050498800e018200037
:10551c0060498800204080008000eb0068498000d2
:10552c005749800000c3eb0015c0b30044c0b30062
:10553c000001be00880078000700780036f20700f2
:10554c00701e20005049880030408000414080008f
:10555c00a2002000030020006004020000000000f4
:10556c00684980005749800000c3eb008042eb0083
:10557c0074c0b3000001be008800780007007800fa
:10558c0025f207004f0478000080fa0000000600a6
:10559c000000fa0026c9bf000004e00004003a0035
:1055ac0010c0b30026e9b700ebfb0700360037004c
:1055bc0026c9bf00e14f500004003a0020c0b300e0
:1055cc0026e9b700dbfc07002f00370026c9bf0017
:1055dc00e24f500004003a0030c0b30026e9b70097
:1055ec00d7fe07002800370026c9bf00e34f500044
:1055fc0005003a0040c0b30026e9b700bfff070022
:10560c001cfd07002000370026c9bf00e44f5000e6
:10561c0006003a0050c0b30026e9b700d10a2000ba
:10562c0090242000dbf807001700370026c9bf00c4
:10563c00e54f500004003a0060c0b30026e9b70003
:10564c00daf907001000370026c9bf00e64f5000fa
:10565c0006003a0070c0b30026e9b70061072000cd
:10566c009024200058f807000700370026c9bf0017
:10567c00e74f500003003a0010c0b30026e9b70012
:10568c00010037002669ef0028c9bf000004e000c4
:10569c0054003a0030db8000680060000000e0003d
:1056ac001900320030db80000030a10030db8800b4
:1056bc00e0952000a0009000000420000080600015
:1056cc000000e0001000320060db80007000600021
:1056dc000000e0000c003a00714b8000703e20008e
:1056ec00808f50000300360040062000704b88006d
:1056fc0003003700704b80004006b000704b8800f0
:10570c00d6eb02000000000030db8000610060007e
:10571c000000e0001200320030db80000000a1002d
:10572c0030db880050db80000000a10050db8800db
:10573c0030db80000030a10030db880030db8000e3
