:020000040000fa
:08000000007e04000100000075
:020000040000fa
:04000800a80100004b
:020000040000fa
:04000c00a801000047
:020000040000fa
:04001000a801000043
:020000040000fa
:04001400a80100003f
:020000040000fa
:04001800a80100003b
:020000040000fa
:04001c00a801000037
:020000040000fa
:04002000a801000033
:020000040000fa
:04002400a80100002f
:020000040000fa
:04002800a80100002b
:020000040000fa
:04002c00a801000027
:020000040000fa
:04003000a801000023
:020000040000fa
:0400340022cf0000d7
:020000040000fa
:04003800a80100001b
:020000040000fa
:04003c00a801000017
:020000040000fa
:04004000a801000013
:020000040000fa
:04004400401901005e
:020000040000fa
:04004800a80100000b
:020000040000fa
:04004c00a801000007
:020000040000fa
:04005000a801000003
:020000040000fa
:04005400a8010000ff
:020000040000fa
:04005800a8010000fb
:020000040000fa
:04005c00a8010000f7
:020000040000fa
:04006000a8010000f3
:020000040000fa
:04006400a8010000ef
:020000040000fa
:04006800b4190100c6
:020000040000fa
:04006c00a8010000e7
:020000040000fa
:04007000a8010000e3
:020000040000fa
:04007400a8010000df
:020000040000fa
:04007800a8010000db
:020000040000fa
:04007c00bee50000dd
:020000040000fa
:04008000c0d40000e8
:020000040000fa
:04008400ce19010090
:020000040000fa
:04008800a8010000cb
:020000040000fa
:04008c00a8010000c7
:020000040000fa
:04009000a8010000c3
:020000040000fa
:040094002ec2000078
:020000040000fa
:04009800a8010000bb
:020000040000fa
:04009c00a8010000b7
:020000040000fa
:0400a000a8010000b3
:020000040000fa
:0400a400a8010000af
:020000040000fa
:0400a800a8010000ab
:020000040000fa
:0400ac00a8010000a7
:020000040000fa
:0400b000a8010000a3
:020000040000fa
:0400b400a80100009f
:020000040000fa
:0400b800a80100009b
:020000040000fa
:0400bc00a801000097
:020000040000fa
:0400c0001cca000056
:020000040000fa
:0400c400a80100008f
:020000040000fa
:0400c800a80100008b
:020000040000fa
:0400cc00a801000087
:020000040000fa
:0400d000a801000083
:020000040000fa
:0400d400a80100007f
:020000040000fa
:0400d800a80100007b
:020000040000fa
:04010800a80100004a
:020000040000fa
:04010c00a801000046
:020000040000fa
:04011000a801000042
:020000040000fa
:04011400a80100003e
:020000040000fa
:04011800a80100003a
:020000040000fa
:04011c00a801000036
:020000040000fa
:04012000a801000032
:020000040000fa
:04012400a80100002e
:020000040000fa
:04012800a80100002a
:020000040000fa
:04012c00a801000026
:020000040000fa
:04013000a801000022
:020000040000fa
:04013400a80100001e
:020000040000fa
:04013800a80100001a
:020000040000fa
:04013c00a801000016
:020000040000fa
:04014000a801000012
:020000040000fa
:04014400a80100000e
:020000040000fa
:04014800a80100000a
:020000040000fa
:04014c00a801000006
:020000040000fa
:04015000a801000002
:020000040000fa
:04015400a8010000fe
:020000040000fa
:04015800a8010000fa
:020000040000fa
:04015c00a8010000f6
:020000040000fa
:04016000a8010000f2
:020000040000fa
:04016400a8010000ee
:020000040000fa
:04016800a8010000ea
:020000040000fa
:04016c00a8010000e6
:020000040000fa
:04017000a8010000e2
:020000040000fa
:04017400a8010000de
:020000040000fa
:04017800a8010000da
:020000040000fa
:04017c00a8010000d6
:020000040000fa
:04018000a8010000d2
:020000040000fa
:04018400a8010000ce
:020000040000fa
:04018800a8010000ca
:020000040000fa
:04018c00a8010000c6
:020000040000fa
:04019000a8010000c2
:020000040000fa
:04019400a8010000be
:020000040000fa
:04019800a8010000ba
:020000040000fa
:04019c00a8010000b6
:020000040000fa
:0401a000a8010000b2
:020000040000fa
:0401a400a8010000ae
:020000040000fa
:0401a800a8010000aa
:020000040000fa
:0401ac00a8010000a6
:020000040000fa
:0401b000a8010000a2
:020000040000fa
:0401b400a80100009e
:020000040000fa
:0401b800a80100009a
:020000040000fa
:0401bc00a801000096
:020000040000fa
:0401c000a801000092
:020000040000fa
:0401c400a80100008e
:020000040000fa
:0401c800a80100008a
:020000040000fa
:0401cc00a801000086
:020000040000fa
:0401d000a801000082
:020000040000fa
:0401d400a80100007e
:020000040000fa
:0401d800a80100007a
:020000040000fa
:100200000fd120000e7f22000e01880000000000a8
:10021000000020000000e000020032000001200089
:10022000200288000c00070060c32100110020009c
:1002300011000700000020000000e0000200320072
:1002400000000200000000006af20200000000004e
:100250000040da000000fe004440a900401e2000db
:100260000000e0000300320000002000a001880030
:100270004440a8000000060091018800800078003a
:100280000000eb0015003700e280400032a0b4000f
:100290009101ba00e280400032a0b4009102ba009d
:1002a000e280400032a0b4000002eb00472bde00e9
:1002b000f507b200602ce10004003a000059eb00a1
:1002c0008301e900fdff3e00040037006128e100e2
:1002d000010032000082eb000b00070011c3ba00de
:1002e0001101ba000604e00003003a000200e00039
:1002f000e5ff3a0000000600f607b200960188000c
:1003000082007800f5ff37003159ba008301e90017
:100310000c0032002159ba008301e90008003200c4
:100320000400e00003003a00e280400032a0b40084
:10033000f5ff370011d9ba008301e900faff3a004e
:100340008100e800e180400032a0b4000000060017
:100350000040da000000fe0003f0a200889fbe000b
:100360008a9fbe008c1f7800f8000700ff00330052
:100370006450e1004f0032006420e100520032007e
:1003800003826c0007003b000905d0000306d00083
:10039000820f54000c065d0002003900020032009a
:1003a00089017800030678008582550004003d002d
:1003b0000003fd008103fd008502ea008b854200f9
:1003c000840f720002003b0060001000e080180003
:1003d0006011b8000005eb007a28e1000a0039003e
:1003e00006007800c75ddd00f707b2008780750062
:1003f0002d003700828171000a01780061056000dc
:100400008180d1000080d3008502e900f9ff3b0024
:10041000060440008784480002003b00600414008a
:10042000e0841c000988a300070032008a81710063
:1004300082817100610164008904d1000884d300c5
:100440008b05e800170037000978a30013003a0075
:100450000b00e000130034008b05e90008044400a1
:1004600089844c000a4474000978a3000d003a0006
:100470000b00e000070034008b05e900080444008d
:1004800089844c0001003a000b0020000978a30089
:10049000f7ff32000001eb0002003700828171009b
:1004a0000a0178006e0007000cf0a70001f0a00020
:1004b000b70037006420e10002003a00838f6c002f
:1004c000b70033000801be000200be00b0003700d4
:1004d000889fbe008a9fbe008c1f78009b0007008b
:1004e000a200330003866c006450e1002e0032004d
:1004f0006420e100330032006150e1002f0032003f
:100500006120e1003100320085855500eb07b00025
:1005100009002000080420000500370008044400fa
:1005200089844c000a0031000603430087834b0096
:100530000001530081815b00f8ff33000203be001d
:100540000800a0000804440089844c00f6ff39002c
:10055000c639dd0083017300010032001300200062
:100560008904d1000884d3000998a3000500320053
:100570000800a7000300a0008904d1000884d3006c
:100580008b05e8008904d1000884d3000001eb004a
:100590000281d2003200070001f0a1000cf0a70098
:1005a00001f0a0007a0037006420e1007c003200f6
:1005b0000801be000200be00f7ff37006120e10025
:1005c000770032006000b800f3ff37000000200021
:1005d00001f82700f0ff3700f4ff2f00ba003700c2
:1005e0000001be00440007000470a70003f0a10052
:1005f00003f8a30013003a006509b10010003200af
:10060000090035006928e1000200350001002800da
:100610000000050000004000818048008502e900dc
:10062000fcff3a0000000600f88f4200050035008c
:100630008100d1000080d3008502e800fcff3a0071
:10064000000006008000eb00000005004f89de007e
:1006500082017800b70037006011b800c50037008c
:1006600081002000618055000b003d000b00200040
:1006700061fe2f000100e1001d0034008281710045
:10068000610164008904d1000884d3000000e800ff
:10069000faff3a007100200061006400030070005e
:1006a000020060000900320061044400e0844c0054
:1006b0000988a500050032008b05e8006808e10004
:1006c00002003a008904d1000884d300f20f200010
:1006d0000258e10005003d00c75ddd00f907b200ea
:1006e0008980750008007800000006000bf82700dc
:1006f0008b00780000000500c70ade00f107b20099
:10070000f50fb20008003200e1cf420002003200d3
:100710000170a00024000500810f7000010032006c
:100720000408050044000500810f700002003a0033
:10073000140005008502e9000000400081c0480067
:10074000fcff3b000170a000240005000004be0077
:10075000e9ff07000003be000405be000200be0062
:10076000e5ff0700844f7500000006000200be0090
:100770006450e100050036006420e100020036000c
:100780000968a30001003a000800be000160a00053
:100790004f0678004f05be004f04be000000060063
:1007a000f0ff2f00f1ff2700f9ff3700889fbe0000
:1007b0008a9fbe008c1f7800e4ff0700ebff330028
:1007c00003866c006450e100240032006420e100e4
:1007d000270032006150e100220032006120e10078
:1007e000210032008b854200eb07b1000134b800d4
:1007f000003ab8000804420089844a00013ab8006f
:100800000030b8008880400009014a00040033002d
:100810000000400081804800020149008b05e9008a
:10082000c909dd00830170000100320013002000bf
:10083000c814de004814dd004709de001200b200d3
:10084000c808de000884700085ff070001f0a100e1
:100850000cf0a70001f0a000cdff37006120e100ff
:10086000cfff32000801be000200be00f7ff3700d4
:100870006150e100fcff3a00c9ff37006022b80078
:10088000060220000000d0008180d2000482d20045
:100890008582d2000000a0000202520083825a002a
:1008a000030031000202420083824a000000a100de
:1008b0000603e900f3ff3a0000000600efff07001f
:1008c0000400be0000000600889fbe008a9fbe0094
:1008d000841f78009dff07004f007800110033004f
:1008e000f0ff2f00838f6c0006003b0004056500bd
:1008f0000a00a7000800370009f0a6001000200039
:1009000008003700820f5400838f5c000300390019
:100910001000200001003e000000200009f0a700a8
:100920000000ea004f05be004f04be000000e000da
:1009300000000600881f7800030478000300e00030
:1009400007003d0060001000e08018006001190001
:10095000e081190002003b0001f02d000300370088
:100960000400070008f0a70001f0a0004f04780081
:1009700000000600889fbe008a9fbe0000827000b3
:100980000402710004827100260032000004be00df
:100990000200be006011b8006b0920009502200023
:1009a0000182cf000a0039000541b1000082cf006a
:1009b000070039000541b1000982cf000400390069
:1009c0000541b1000882cf00010039000541b100a6
:1009d00005425200120032000a003b008281710081
:1009e000610164008100d1000080d3008984d300bc
:1009f0000884d3008b05e8000442e800f7ff3a00c2
:100a0000070037000804440089844c0000004800b7
:100a1000818048008b05e9000442e900f9ff3a00b3
:100a20000fff07004f05be004f04be000000060088
:020000040000fa
:100a30002000000012000000210000001300000050
:100a40002200000014000000230000001500000038
:100a50002400000016000000250000001700000020
:100a600026000000180000002700000029000000f8
:100a70001100000019000000280000001a0000000a
:100a8000780000000000000088000000d80000008e
:100a900088000000d800000078000000000000007e
:100aa000b400000000000000000000000000000092
:100ab0000000000000000000000000000000000036
:100ac00064020000000000000000000000000000c0
:100ad0000100000009000000020000000a00000000
:100ae000030000000b000000040000000c000000e8
:100af000050000000d000000060000000e000000d0
:100b0000070000002a00000008000000110000009b
:100b1000100000001f0000000000000000000000a6
:100b2000200000001200000021000000130000005f
:100b30002200000014000000230000001500000047
:100b4000240000001600000025000000170000002f
:100b50002600000018000000270000002900000007
:100b60001100000019000000280000001a00000019
:100b7000a0000000000000009c000000d600000063
:100b8000d6000000000000009c00000000000000f3
:100b90000000000000000000000000000000000055
:100ba00000000000000000000000000044020000ff
:100bb0000000000000000000000000000000000035
:100bc0000100000009000000020000000a0000000f
:100bd000030000000b000000040000000c000000f7
:100be000050000000d000000060000000e000000df
:100bf000070000002a0000000800000011000000ab
:100c0000100000001f0000000000000000000000b5
:100c100008070000060500000403000002010000b0
:100c20000f0a0000090e00000d0000000000000087
:100c3000110000001200000013000000140000006a
:100c40001c0000001b0000001a000000190000003a
:100c5000200000001f0000001e0000001d0000001a
:100c6000010000000200000003000000040000007a
:100c7000050000000a000000140000000d00000044
:100c8000a00000008800000088000000780000003c
:100c90000000000000000000000000000000000054
:100ca0000000000000000000000000000000000044
:100cb0000000000000000000000000000000000034
:100cc0000000000044020000420200002c0200006c
:100cd000040000000300000002000000010000000a
:100ce00005000000060000000700000008000000ea
:100cf000090000000a0000000b0000000c000000ca
:100d00000d0000000e0000000f00000010000000a9
:100d10001500000016000000170000001800000079
:100d200088000000b0000000b0000000c200000019
:100d300000000000000000000000000000000000b3
:100d40009e0000009e0000001c0200002c0200001b
:100d50002c02000044020000440200004402000093
:100d60000000000000000000000000000000000083
:100d70004d5500004943000000480000464d00006a
:100d80005a4b00004a0000004a7500006c20000029
:100d90003231000020320000303100003700000006
:100da000313500003a330000373a0000303400009b
:100db00000500000696e0000677300006865000065
:100dc0006e670000204d0000616f000000560000bb
:100dd000312e0000302e0000300000006d70000049
:100de000737a00006d40000031320000362e0000a2
:080df000636f00006d000000bc
:020000040000fa
:100df8001800fa00889fbe008a9fbe008c1f7800ea
:100e08006007980071079800020f9800130f980068
:100e180044579800555798006657980010c0b3007b
:100e2800104798000040eb00204798000040eb0076
:100e3800204798001a0037004e5090008080fb0031
:100e48002e4090000080fb00008050000006e90062
:100e58000e0890009e089000a200200003002000c9
:100e68005e04020000000000804078000c0047008b
:100e7800314098000e0890009e089000a2002000c3
:100e8800030020003e04020000000000000f98004c
:100e9800110f98002e4090000040e800204798006d
:100ea800ae4090004e50900080cf5000e2ff3900d5
:100eb8000040eb0020479800120037004e50900089
:100ec8008080fb002e4090000080fb0000805000d6
:100ed800ce5090008180fb000101e900ae409000f7
:100ee8008180fb008100510081004700b1409000e3
:100ef80000004700314098002e4090000040e80074
:100f080020479800ae4090005e50900080cf50007f
:100f1800eaff39004e5090008080fb005e50900040
:100f28000080fb00008050000000470001c1b300b2
:100f3800314098005e5090000004e000400032000c
:100f48000040eb0020479800380037001e40900012
:100f58000004e000150032002e4090000080fb00e5
:100f680000004700304090000004e0000f003a0005
:100f78002e4090008080fb004e5090000080fb00c7
:100f88000001e9005e5090000080fb000000510065
:100f9800808f500005003d0010c0b3001047980036
:100fa8000040eb00004f7800040037000040eb00e1
:100fb80010479800ee509000014f7800aabc20001e
:100fc8001b0020000a01be002e4090000080fb009c
:100fd80000004700304090000080fb004400dd0026
:100fe8008000eb0000004100818049002e41900004
:100ff8000281fb004311dd00820178006e01900040
:10100800028341008042eb001e4278000001be00ce
:10101800fe00900006007800eee9020000000000e3
:101028002e4090000040e80020479800ae40900015
:101038004e50900080cf5000c4ff36003c0037006f
:101048000040eb0020479800350037001e40900014
:101058000004e000120032002e4090000080fb00e7
:1010680000004700304090000004e0000c003a0007
:101078002e4090008080fb004e5090000080fb00c6
:101088000000e900808f500005003d0010c0b3004b
:10109800104798000040eb00004f7800040037002c
:1010a8000040eb0010479800ee509000014f780088
:1010b800a8bc2000190020000801be002e409000a6
:1010c8000080fb0000004700304090000080fb00db
:1010d8004400dd008000eb000000410081804900f1
:1010e8002e4190000281fb004311dd00820178004f
:1010f8006e019000028341008042eb001e4278009e
:101108000001be00fe00900006007800eee9020033
:10111800000000002e4090000040e80020479800a2
:10112800ae4090004e50900080cf5000c7ff39006d
:101138004f0678004f05be004f04be000080fa003d
:10114800000006001800fa00889fbe008a9fbe00b3
:101158008c1f78006007980071079800020f9800ac
:10116800130f9800445798005557980066579800f1
:1011780010c0b300104798000040eb0020479800cb
:101188000040eb00204798001a0037004e509000ae
:101198008080fb002e4090000080fb000080500003
:1011a8000006e9000e0890009e089000a2002000aa
:1011b800030020005e040200000000008040780068
:1011c8000c004700314098000e0890009e089000df
:1011d800a2002000030020003e04020000000000de
:1011e800000f9800110f98002e4090000040e80072
:1011f80020479800ae4090004e50900080cf50009d
:10120800e2ff39000040eb00204798001200370049
:101218004e5090008080fb002e4090000080fb0024
:1012280000805000ce5090008180fb000101e90051
:10123800ae4090008180fb00810051008100470092
:10124800b140900000004700314098002e409000c7
:101258000040e80020479800ae4090005e509000a3
:1012680080cf5000eaff39004e5090008080fb008c
:101278005e5090000080fb00008050000000470096
:1012880001c1b300314098005e5090000004e000b6
:10129800420032000040eb00204798003a00370037
:1012a8001e4090000004e000150032002e4090001f
:1012b8000080fb0000004700304090000004e00080
:1012c8000f003a002e4090008080fb004e509000a6
:1012d8000080fb000001e9005e5090000080fb00e8
:1012e80000005100808f500005003d0010c0b30081
:1012f800104798000040eb00004f780004003700ca
:101308000040eb0010479800ee509000014f780025
:10131800ead52e000b0020000a01be002e409000e6
:101328000080fb0000004700304090008080fb00f8
:10133800400420000088b900000078008000eb001d
:1013480000004100818049002e4190000281fb008d
:101358004411dd00820178006e0190000283410093
:101368008042eb001e4278000001be00fe009000a3
:1013780006007800eee90200000000002e40900010
:101388000040e80020479800ae4090004e50900082
:1013980080cf5000c2ff36003e0037000040eb000f
:1013a80020479800370037001e4090000004e000f6
:1013b800120032002e4090000080fb000000470021
:1013c800304090000004e0000c003a002e409000ed
:1013d8008080fb004e5090000080fb000000e90078
:1013e800808f500005003d0010c0b30010479800e2
:1013f8000040eb00004f7800040037000040eb008d
:1014080010479800ee509000014f7800e8d52e0064
:10141800090020000801be002e4090000080fb005b
:1014280000004700304090008080fb00400420000e
:101438000088b900000078008000eb00000041003f
:10144800818049002e4190000281fb004411dd009b
:10145800820178006e019000028341008042eb0017
:101468001e4278000001be00fe00900006007800d1
:10147800eee90200000000002e4090000040e80065
:1014880020479800ae4090004e50900080cf50000a
:10149800c5ff39004f0678004f05be004f04be0057
:1014a8000080fa00000006001800fa00889fbe00bd
:1014b8008a9fbe008c1f780060079800710798000b
:1014c800020f9800130f980044579800555798003a
:1014d8006657980010c0b300104798000040eb0012
:1014e800204798000040eb00204798001a0037007a
:1014f8004e5090008080fb002e4090000080fb0042
:10150800008050000006e9000e0890009e08900038
:10151800a2002000030020005e040200000000007a
:10152800804078000c004700314098000e08900079
:101538009e089000a2002000030020003e04020044
:1015480000000000000f9800110f98002e40900036
:101558000040e80020479800ae4090004e509000b0
:1015680080cf5000e2ff39000040eb002047980090
:10157800120037004e5090008080fb002e409000f3
:101588000080fb0000805000ce5090008180fb005e
:101598000101e900ae4090008180fb00810051000c
:1015a80081004700b140900000004700314098009a
:1015b8002e4090000040e80020479800ae40900080
:1015c8005e50900080cf5000eaff39004e509000e6
:1015d8008080fb005e5090000080fb00008050007f
:1015e80000004700a1c0b300314098005e50900051
:1015f8000004e000420032000040eb002047980061
:101608003a0037001e4090000004e0001500320048
:101618002e4090000080fb00000047003040900002
:101628000004e0000f003a002e4090008080fb008c
:101638004e5090000080fb000001e9005e509000d1
:101648000080fb0000005100808f500005003d0025
:1016580010c0b300104798000040eb00004f78001e
:10166800040037000040eb0010479800ee5090004f
:10167800014f78002a2120001b0020000a01be002b
:101688002e4090000080fb00000047003040900092
:101698008080fb00600220000088b900000078000c
:1016a8008000eb0000004100818049002e4190003d
:1016b8000281fb004411dd00820178006e01900078
:1016c800028341008042eb001e4278000001be0008
:1016d800fe00900006007800eee90200000000001d
:1016e8002e4090000040e80020479800ae4090004f
:1016f8004e50900080cf5000c2ff36003e003700a9
:101708000040eb0020479800370037001e4090004b
:101718000004e000120032002e4090000080fb0020
:1017280000004700304090000004e0000c003a0040
:101738002e4090008080fb004e5090000080fb00ff
:101748000000e900808f500005003d0010c0b30084
:10175800104798000040eb00004f78000400370065
:101768000040eb0010479800ee509000014f7800c1
:1017780028212000190020000801be002e409000fa
:101788000080fb0000004700304090008080fb0094
:10179800600220000088b900000078008000eb009b
:1017a80000004100818049002e4190000281fb0029
:1017b8004411dd00820178006e019000028341002f
:1017c8008042eb001e4278000001be00fe0090003f
:1017d80006007800eee90200000000002e409000ac
:1017e8000040e80020479800ae4090004e5090001e
:1017f80080cf5000c5ff39004f0678004f05be0066
:101808004f04be000080fa00000006000c00fa0039
:10181800000f7800110798002207980033079800f6
:1018280044079800254f98002e0090004300dd00e3
:101838002e4a9000ce019000000178009e00900092
:101848001e00780028ed0200000000002e00900025
:10185800c300dd001e0190003e0090000000410022
:101868002e4a9000ce019000010178008000780097
:101878001e00780028ed0200000000002e4a9000ab
:10188800be0190004e0190009e0090001e0078005e
:1018980028ed0200000000002e0090004300dd004b
:1018a8001e0040000080e9002e4a9000be01900012
:1018b8004e0190009e00900028ed020000000000fc
:1018c8000080fa00000006001800fa00889fbe0099
:1018d800500798006107980072079800030f980056
:1018e800140f9800455798000040eb00004f78000f
:1018f8000040eb0010479800640047000200090010
:101908000018eb000000eb00100798000000eb0047
:1019180010079800150037001e00900065001000a1
:10192800300f98007e019000a1002000810178000e
:10193800110009000381d800814078003e09900019
:101948000200470041409800fe009000a0002000df
:1019580080017800110009008380d8007007980082
:101968001e0090000000e800100798009e009000fc
:101978000e089000808f5000e7ff39000040eb0010
:10198800004f78000e0890006600100010079800bd
:101998000a003700e40047001e0090000080400065
:1019a800104078000004e00008003a001e4fe800ec
:1019b8001e0090000000e800100798001e0090002c
:1019c800e40f5000f3ff360001003700000000006c
:1019d8009e80fb000e089000808f500004003a00a3
:1019e8001e08900000407800004f9800080037005b
:1019f8009e80fb000e0890000080500065004000ab
:101a08009e089000814078000000470041409800ff
:101a18000000eb00100798002d0037009e00900092
:101a28000e08900000805000e50040001e81fb0079
:101a38000e0890000000510065004000808f5000a3
:101a4800030031000040eb00104798000200370007
:101a58004e509000104798002821200019002000bf
:101a68000801be009e0090000e0890000080500003
:101a78006500400000004700404090008080fb0067
:101a8800600220000088b900000078008000eb00a8
:101a980000004100818049001e019000c411dd0052
:101aa8005e019000028341008042eb001e429000dc
:101ab8000001be00ee00900006007800eee902008a
:101ac800000000001e0090000000e80010079800c9
:101ad8000e0890008000e8001e009000808f5000e3
:101ae800ceff3e004f04be000080fa000000060052
:101af8000800fa001007980021079800624798002c
:101b0800734798000040eb00004f78006e4090004b
:101b1800e14f400002003a000040eb007047980097
:101b2800ee40900070c2b30080cf5000070036002e
:101b3800ee40900080cdb30000c0400060479800a0
:101b4800c0c0b300004f78000600370081c2b30060
:101b58006e40900000c0500060479800b0c0b300cd
:101b6800004f78009e80fb006e4090000080fb00d4
:101b7800fe42900001027800330020000001780046
:101b8800ae0090001e0090004fff07000080fa0092
:101b9800000006000800fa001007980021079800c6
:101ba80062479800734798000040eb00004f7800a8
:101bb8006e409000e14f400002003a000040eb0008
:101bc800704798006e409000fd4f500006003600a8
:101bd8006e4090007e40500060479800c0c0b3003f
:101be800004f780006003700e1c1b3006e40900056
:101bf80000c0500060479800b0c0b300004f7800a4
:101c08009e80fb006e4090000080fb00fe4290002a
:101c1800010278003300200000017800ae00900037
:101c28001e00900028ff07000080fa000000060050
:101c38006200fa00889fbe008a9fbe008c9fbe008b
:101c4800100798002107980032079800430798006a
:101c580054079800650798000040eb00004f780093
:101c68006cc9bf000004e000320032004fc9bf0059
:101c78000004e0002f003a0050c9bf000004e00053
:101c880015003200a0d0200010407800f04040003d
:101c9800a0d0200001487800a0d020001040780093
:101ca8000080fb004400de0000407800e24f500056
:101cb80005003600a0d0200010407800ef406000fa
:101cc800a0d020000148780080d0200044160200ef
:101cd800010000005069ef0068b32f0009002000e0
:101ce8000801be000e4890000080fb004400de00a2
:101cf800004078000080fb00ef0060003005200005
:101d08000088b900000078008000eb000000410066
:101d18008180490095c4b30000c2eb000001be00f9
:101d2800ae0090001e009000eee9020000000000e6
:101d38001600370066b32f00070020000601be001a
:101d48000e4890000080fb004400de000040780050
:101d58000080fb00ef006000300520000088b9001b
:101d6800000078008000eb000000410081804900fd
:101d78008042eb0000c2eb000001be00ae00900004
:101d88001e009000eee90200000000006cc9bf00d0
:101d98000004e0002f0032004fc9bf00e14f50009f
:101da8002c003a0050c9bf000004e00015003200c2
:101db800a0d02000104078008040e800a0d020008b
:101dc80001487800a0d02000104078000080fb0077
:101dd8006f006000e90f500006003400a0d020001a
:101de8009040780000cfb30080c06000a0d02000f1
:101df8000148780080d0200044160200010000004d
:101e08005069ef006cb32f000d0020000c01be00dc
:101e18000e4890000080fb00ef00600030052000b5
:101e28000088b900000078008000eb000001410044
:101e3800818149001e0090007c00400095c4b300d9
:101e480000c2eb00ae009000eee9020000000000c6
:101e5800130037006ab32f000b0020000a01be00f0
:101e68000e4890000080fb00ef0060003005200065
:101e78000088b900000078008000eb0000014100f4
:101e8800818149001e0090007c0040008042eb00e8
:101e980000c2eb00ae009000eee902000000000076
:101ea8006cc9bf000004e000350032004fc9bf0014
:101eb800e24f500032003a0050c9bf000004e00071
:101ec8001500320090d0200010407800f04040000b
:101ed80090d020000148780090d020001040780071
:101ee8000080fb004400de0000407800e54f500011
:101ef8000500360090d0200010407800ef406000c8
:101f080090d020000148780080d0200044160200bc
:101f1800010000005069ef0061b32f0071079800bd
:101f280004002000040f98007e0190008e099000a4
:101f38007e4090000080fb004400de0000407800f6
:101f48000080fb00ef006000300520000088b90029
:101f5800000078008000eb00000141008181490009
:101f68001e0090004005b00095c4b30000c2eb000d
:101f7800ae009000eee902000000000019003700f2
:101f880065b32f00150f980001002000210f98005d
:101f98001e099000ae0990007e4090000080fb0072
:101fa8004400de00004078000080fb00ef00600085
:101fb800300520000088b900000078008000eb00a0
:101fc80000014100818149001e0090004005b000d9
:101fd8008042eb0000c2eb00ae009000eee9020088
:101fe800000000006cc9bf000004e00032003200ad
:101ff8004fc9bf00e34f50002f003a0050c9bf003f
:102008000004e0001500320090d020001040780055
:102018008040e80090d020000148780090d020004f
:10202800104078000080fb006f006000e90f50004e
:102038000600340090d020009040780000cfb30014
:1020480080c0600090d020000148780080d0200037
:1020580044160200010000005069ef0064b32f002d
:10206800340f980005002000450f98003e099000a5
:10207800ce0990007e4090000080fb00ef006000d9
:10208800300520000088b900000078008000eb00cf
:1020980000014100818149001e0090000007b00046
:1020a80095c4b30000c2eb00ae009000eee9020058
:1020b800000000001600370061b32f00510f980090
:1020c80004002000640f98005e099000ee0990005b
:1020d8007e4090000080fb00ef006000300520008b
:1020e8000088b900000078008000eb000001410082
:1020f800818149001e0090000007b0008042eb007b
:1021080000c2eb00ae009000eee902000000000003
:10211800a14c800000022000008060000000e00068
:102128000300320000c0eb00004f780002003700c7
:102138000040eb00004f780065b32f00750f980042
:1021480001002000011798007e0890008e10900072
:10215800e433200005002000040140008581480088
:102168002e009000e30040001e0090008003b000a5
:102178008042eb001e427800eee9020000000000f9
:10218800c04c8000700060000000e00005003200d4
:10219800b04c80004300de00614060006ce9b7008d
:1021a800020037006c69ef004f69ef00e5d52e009b
:1021b8001517980001002000211798001e109000a4
:1021c800ae109000840820000500200004014000a3
:1021d800858148002e0090008080e9001e00900054
:1021e8004010b0008042eb0000c2eb00eee90200b4
:1021f80000000000e5d52e003517980001002000ea
:10220800411798003e119000ce1190002e009000ca
:102218008080e9001e0090004011b0008042eb0071
:1022280000c2eb00eee90200000000006cc9bf002c
:102238000004e000360032004fc9bf00e44f5000f0
:1022480033003a0050c9bf000004e0001500320016
:10225800e0d0200010407800f0404000e0d020009e
:1022680001487800e0d02000104078000080fb0092
:102278004400de0000407800e94f500005003600b9
:10228800e0d0200010407800ef406000e0d020004f
:102298000148780080d020004416020001000000a8
:1022a8005069ef00e4d52e0054179800050020006f
:1022b800651798005e119000ee1190004e4890004e
:1022c8000080fb004400de00004078000080fb0036
:1022d800ef006000400420000088b900000078008a
:1022e8008000eb0000014100818149002e00900030
:1022f8008080e9001e0090004012b00095c4b30031
:1023080000c2eb00eee90200000000001a003700ee
:10231800e1d52e007117980004002000041f9800d2
:102328007e1190008e1990004e4890000080fb00ae
:102338004400de00004078000080fb00ef006000f1
:10234800400420000088b900000078008000eb00fd
:1023580000014100818149002e0090008080e90041
:102368001e0090004012b0008042eb0000c2eb005b
:10237800eee90200000000006cc9bf000004e000a4
:10238800330032004fc9bf00e54f500030003a001b
:1023980050c9bf000004e00015003200e0d0200062
:1023a800104078008040e800e0d020000148780024
:1023b800e0d02000104078000080fb006f00600033
:1023c800e90f500006003400e0d02000904078006b
:1023d80000cfb30080c06000e0d020000148780042
:1023e80080d0200044160200010000005069ef0070
:1023f800e5d52e00151f980001002000211f980028
:102408001e199000ae1990004e4890000080fb0005
:10241800ef006000400420000088b9000000780048
:102428008000eb0000014100818149002e009000ee
:102438008080e9001e0090004013b00095c4b300ee
:1024480000c2eb00eee902000000000017003700b0
:10245800e4d52e00341f980005002000451f980081
:102468003e199000ce1990004e4890000080fb0065
:10247800ef006000400420000088b90000007800e8
:102488008000eb0000014100818149002e0090008e
:102498008080e9001e0090004013b0008042eb00ed
:1024a80000c2eb00eee9020000000000e1d52e00ba
:1024b800511f980004002000641f98005e199000c6
:1024c800ee19900040482000010020000001410062
:1024d800818149002e0090008080e9001e00900054
:1024e8004014b0008042eb0000c2eb00eee90200ad
:1024f800000000006cc9bf000004e0003600320094
:102508004fc9bf00e64f500033003a0050c9bf0022
:102518000004e00015003200d0d020001040780000
:10252800f0404000d0d0200001487800d0d02000f2
:10253800104078000080fb004400de000040780076
:10254800e14f500005003600d0d020001040780040
:10255800ef406000d0d020000148780080d02000f3
:1025680044160200010000005069ef00e5d52e0076
:10257800751f980001002000012798007e1990001f
:102588008e2190003e4890000080fb004400de0051
:10259800004078000080fb00ef006000400420004d
:1025a8000088b900000078008000eb0000014100bd
:1025b800818149002e0090008080e9001e00900073
:1025c8004015b00095c4b30000c2eb00eee902006c
:1025d800000000001a003700e4d52e0014279800e8
:1025e80005002000252798001e219000ae219000ac
:1025f8003e4890000080fb004400de000040780068
:102608000080fb00ef006000400420000088b90053
:10261800000078008000eb00000141008181490042
:102628002e0090008080e9001e0090004015b00048
:102638008042eb0000c2eb00eee90200000000005f
:102648006cc9bf000004e000330032004fc9bf006e
:10265800e74f500030003a0050c9bf000004e000c6
:1026680015003200d0d02000104078008040e800eb
:10267800d0d0200001487800d0d020001040780049
:102688000080fb006f006000e90f50000600340076
:10269800d0d020009040780000cfb30080c0600008
:1026a800d0d020000148780080d0200044160200d5
:1026b800010000005069ef00e1d52e003127980095
:1026c80004002000442798003e219000ce2190006d
:1026d8003e4890000080fb00ef00600040042000ae
:1026e8000088b900000078008000eb00000141007c
:1026f800818149002e0090008080e9001e00900032
:102708004016b00095c4b30000c2eb00eee9020029
:102718000000000017003700e5d52e005527980067
:1027280001002000612798005e219000ee219000b2
:102738003e4890000080fb00ef006000400420004d
:102748000088b900000078008000eb00000141001b
:10275800818149002e0090008080e9001e009000d1
:102768004016b0008042eb0000c2eb00eee9020028
:1027780000000000e4d52e00742798000500200012
:10278800052f98007e2190008e2990004048200057
:102798000100200000004100818049002e019000c6
:1027a8008283e9001e0190004617200002034300bf
:1027b8008042eb0000c2eb000001be0087007800f9
:1027c80006007800eee90200000000006cc9bf00b6
:1027d8000004e0003a0032004fc9bf00e84f500043
:1027e80037003a0050c9bf000004e000150032006d
:1027f800c0d0200010407800f0404000c0d0200039
:1028080001487800c0d02000104078000080fb000c
:102818004400de0000407800e34f50000500360019
:10282800c0d0200010407800ef406000c0d02000e9
:102838000148780080d02000441602000100000002
:102848005069ef00e1d52e00112f980004002000f8
:10285800242f98001e299000ae2990002e48900041
:102868000080fb004400de00004078000080fb0090
:10287800ef006000400420000088b90000007800e4
:102888008000eb0000004100818049002e0190008b
:102898008283e9001e0190004618200002034300cd
:1028a80095c4b30000c2eb000001be0087007800a9
:1028b80006007800eee90200000000001e00370064
:1028c800e5d52e00352f980001002000412f9800f3
:1028d8003e299000ce2990002e4890000080fb00f1
:1028e8004400de00004078000080fb00ef0060003c
:1028f800400420000088b900000078008000eb0048
:1029080000004100818049002e0190008283e90087
:102918001e01900046182000020343008042eb008d
:1029280000c2eb000001be008700780006007800b6
:10293800eee90200000000006cc9bf000004e000de
:10294800370032004fc9bf00e94f500034003a0049
:1029580050c9bf000004e00015003200c0d02000bc
:10296800104078008040e800c0d02000014878007e
:10297800c0d02000104078000080fb006f0060008d
:10298800e90f500006003400c0d0200090407800c5
:1029980000cfb30080c06000c0d02000014878009c
:1029a80080d0200044160200010000005069ef00aa
:1029b800e4d52e00542f980005002000652f9800bc
:1029c8005e299000ee2990002e4890000080fb00c0
:1029d800ef006000400420000088b9000000780083
:1029e8008000eb0000004100818049002e0190002a
:1029f8008283e9001e01900046192000020343006b
:102a080095c4b30000c2eb000001be008700780047
:102a180006007800eee90200000000001b00370005
:102a2800e1d52e00712f980004002000043798008b
:102a38007e2990008e3190002e4890000080fb0087
:102a4800ef006000400420000088b9000000780012
:102a58008000eb0000004100818049002e019000b9
:102a68008283e9001e0190004619200002034300fa
:102a78008042eb0000c2eb000001be008700780036
:102a880006007800eee90200000000004f06be00d4
:102a98004f05be004f04be000080fa00000006008b
:102aa8000000fa00889fbe0052c9bf000004e00081
:102ab80018003a0010c0b30052e9b700c04c8000bb
:102ac8000040a000c04c88005ae802000000000046
:102ad80094c4b300230020000232200081032000a8
:102ae8000000eb0028ed0200000000008042eb002f
:102af800c4c1b300c8e52100190020000801be00c8
:102b0800e101200080162000eee90200000000002c
:102b18002c00370052c9bf00e14f500028003a008e
:102b280010c0b30052e9b70080d020001080fb002d
:102b380091d020009180fb00c808dd0001007000e2
:102b48008000eb0080007800a0d020001080fb00ff
:102b5800b2d020001281fb004811dd000200700095
:102b68008001eb0080017800c0d020001080fb00bd
:102b7800d2d020001281fb004811dd000200700055
:102b88000002eb0000027800e0d020009082fb00f9
:102b98000000eb00f20f20000281620005f02f0018
:102ba80005006000000071000101780080027800d3
:102bb800010f2000200d20001dfc07000100370038
:102bc8005269ef00904c8000680060000000e0004f
:102bd8000c003200904c80000030a100904c88001e
:102be8004fc9bf00e84f500004003e004fc9bf0066
:102bf8000040e8004fe9b7000200370090c0b3007a
:102c08004fe9b700914c800000042000008060006c
:102c18000000e0000b003200904c80000060a10032
:102c2800904c88004fc9bf000004e0000400320047
:102c38004fc9bf000040e9004fe9b7000100370065
:102c48004f69ef00904c8000610060000000e000d8
:102c58000b003200904c80000000a100904c8800ce
:102c6800c04c8000700060000000e00003003200eb
:102c780010c0b30050e9b700010037005069ef00f9
:102c8800b04c8000610060000000e0000a003200e3
:102c9800b04c80000000a100b04c88005169ef00e2
:102ca8005269ef00c04c80000040a100c04c880071
:102cb800a0c0b3004fe9b7004f04be000080fa007f
:102cc800000006000600fa00881f78001007980028
:102cd8002107980020032000000f7800904480000e
:102ce800e30f4000010036009228ef009044800076
:102cf8008000eb002c03020000000000d2cc2c0066
:102d0800c3dc2300d603020000000000f00202002a
:102d180000000000000f7800f03120009e007800cd
:102d2800808f50000200360000322000000f78002b
:102d38001e0078008000eb0000c3eb008042eb002f
:102d480034c0b3000001be00ae0090001e00900029
:102d5800fcf807001e0078000000e00019003200af
:102d680051c9bf000004e00016003a001e007800b8
:102d78008000eb002c03020000000000a2702d0070
:102d880033052400d60302000000000002002000e2
:102d980003e02300d603020000000000f002020056
:102da8000000000000007800c4c1b300c301200087
:102db8000001780081072000300e200028ed020075
:102dc80000000000f03120009e007800808f500045
:102dd80030003e0051c9bf000004e0002d003a0059
:102de8001e0078008000eb002c03020000000000a9
:102df800a2702d0033052400d60302000000000055
:102e08000200200003e02300d603020000000000b7
:102e18000001be0000002800513a2400ac01020065
:102e280000000000f002020000000000000478002a
:102e38001e0078008000eb002c0302000000000058
:102e4800a2702d0033052400d60302000000000004
:102e58000200200003e02300d60302000000000067
:102e68000200200033362400ae01020000000000fa
:102e7800f002020000000000000078000042eb00b1
:102e8800c3012000080178008107200028ed020016
:102e9800000000004f0478000080fa0000000600df
:102ea8000600fa00889fbe001007980021079800c6
:102eb80040062000000f780060498000e30f4000c2
:102ec80003003600803e2000000f7800060037001f
:102ed80061498000a000200000027800110009006c
:102ee8008480d800000f7800703e20009e00780093
:102ef800808f500079003e00803e20001e0f500059
:102f0800401f20009e007800808f5000020036008d
:102f1800401f2000000f78001e0078008000eb00a2
:102f280000c3eb008042eb0034c0b3000001be00d8
:102f3800ae0090001e00900082f807002e0090005e
:102f4800e40040001e009000740050008042eb0036
:102f580000c2eb0028602700190020000801be000d
:102f6800c0eb0200000000001e0078000000e00036
:102f78003000320051c9bf000004e0002d003a00c3
:102f88001e0078008000eb002c0302000000000007
:102f980052b82e0013fd2300d603020000000000e3
:102fa800d2cc2c00c3e42300d603020000000000aa
:102fb8000200200003f82300ae0102000000000018
:102fc800f002020000000000000478001e007800f3
:102fd8008000eb002c0302000000000052b82e0015
:102fe80013fd2300d603020000000000d2cc2c0001
:102ff800c3e42300d6030200000000000001be0065
:1030080000002800313c2400ac0102000000000050
:10301800f00202000000000000007800c4c1b30004
:10302800c301200008017800f10a200028ed020001
:1030380000000000301f20009e007800808f5000a4
:1030480098003e0051c9bf000004e00095003a0016
:103058001e0078008000eb002c0302000000000036
:1030680052b82e0013fd2300d60302000000000012
:10307800d2cc2c00c3e42300d603020000000000d9
:103088000001be000000200041322400ac01020013
:1030980000000000f00202000000000000007800bc
:1030a8000042eb00c301200000017800f10a200073
:1030b800300e200028ed0200000000000042eb0066
:1030c800c3012000520a2000f10a200090182000b5
:1030d80028ed0200000000007200370081c12f00b7
:1030e8001e8f4000401f20009e007800808f5000f7
:1030f80002003600401f2000000f78002e009000cc
:10310800e40040001e009000740050008042eb0074
:1031180000c2eb000261270013002000c0eb020090
:10312800000000001e0078008000eb0000c3eb00e8
:103138008042eb0034c0b3000001be00ae00900036
:103148001e009000fff707001e007800e30f5000f4
:103158001900360051c9bf000004e00016003a000b
:103168001e0078008000eb002c0302000000000025
:103178003233230033fd2300d60302000000000091
:10318800d2cc2c00c3e42300d603020000000000c8
:10319800f00202000000000000007800c4c1b30083
:1031a800c301200000017800f10a200090182000d7
:1031b80028ed020000000000301f20009e0078006b
:1031c800808f500037003e0051c9bf000004e00066
:1031d80034003a001e0078008000eb002c03020047
:1031e800000000003233230033fd2300d603020021
:1031f80000000000d2cc2c00c3e42300d603020058
:10320800000000000001be00000020005132240030
:10321800ac01020000000000f00202000000000003
:10322800000478001e0078008000eb002c030200e8
:10323800000000003233230033fd2300d6030200d0
:1032480000000000d2cc2c00c3e42300d603020007
:103258000000000002002800433c2400ae010200e8
:1032680000000000f00202000000000000007800ea
:103278000042eb00c301200008017800f10a200099
:1032880028ed0200000000000042eb00c30120000e
:10329800420a2000f10a2000300e200028ed02002a
:1032a800000000004f04be000080fa000000060085
:1032b8000200fa00881f780000c0eb00004f780079
:1032c80040c6b3001047980094c8bf00e34f4000c1
:1032d800010036009468ef00418920009140780091
:1032e800114798009e40900030c6b30080cf500030
:1032f8000200360040c6b300104798001e409000f8
:103308000004e0000d00320040c0200010407800aa
:103318008080fb00000c2000008060000000e000be
:103328000300320000ceb300004f780005003700dc
:10333800c0c1b300004f7800020037000040eb0026
:10334800004f78001e4090000080fb008000eb00da
:1033580000c3eb008042eb0034c0b3000001be00a4
:10336800410e20009024200076f707001e409000b0
:103378000080fb00cf80de00260302000000000072
:10338800a2702d0033052400d603020000000000bf
:10339800f002020000000000000078001e427800e1
:1033a800c301200000017800610e2000300e2000cb
:1033b80028ed0200000000009e40900030c6b300d7
:1033c80080cf500027003e001e4090000080fb0088
:1033d800cf80de002603020000000000a2702d004e
:1033e80033052400d6030200000000000001be00df
:1033f80000002800513a2400ac010200000000003f
:10340800f002020000000000000478001e40900056
:103418000080fb00cf80de002603020000000000d1
:10342800a2702d0033052400d6030200000000001e
:103438000200200033362400ae0102000000000024
:10344800f002020000000000000078000042eb00db
:10345800c301200008017800610e200028ed020059
:10346800000000004f0478000080fa000000060009
:10347800b600fa00889fbe008a9fbe008c9fbe00df
:103488005ae802000000000094c4b30023002000a2
:1034980002322000e11a20000000eb0028ed0200b3
:1034a8000000000094c4b300130020000232200082
:1034b8008000eb000000eb0028ed02000000000097
:1034c80094c4b3001300200002322000210320001e
:1034d8000000eb0028ed02000000000094c4b300d7
:1034e800130020006222200041062000a0072000cf
:1034f80028ed02000000000010002000000f7800f6
:103508000b0037009e007800d00320000088b90027
:103518000000780094c4b3002303200012002000a8
:103528008000eb0028ed0200000000001e0fe800fc
:103538001e007800ec0f5000f2ff3600200020003b
:10354800000f78000b0037009e007800d0032000a1
:103558000088b9000000780094c4b3002303200059
:10356800120020002103200028ed020000000000c6
:103578001e0fe8001e007800eb0f5000f2ff360027
:10358800100a2000b04a880090102000c04a880025
:103598000000eb00000f78000c0037001e007800d8
:1035a8007e00b90080007800c04a8000808040001a
:1035b800b04a800094c4b30013002000e21d20002c
:1035c80028ed0200000000001e0fe8001e00780031
:1035d800e40f5000f1ff3600100a2000b04a8800be
:1035e800c14a8000b04a800094c4b3008307200019
:1035f8001200200028ed02000000000070182000d2
:10360800b04a8800c14a8000b04a800094c4b30020
:10361800830720001200200028ed020000000000af
:10362800f0272000b04a8800c14a8000b04a8000d4
:1036380094c4b300830720001200200028ed020084
:10364800000000000000eb00000f780005003700c4
:1036580040cc20009e00400010c0b3008048780095
:103668001e0fe8001e007800f70f5000f8ff360024
:103678008042eb0000c2eb008845240019002000be
:103688000801be00b1072000a00a2000eee90200f0
:103698000000000000c2eb0023002000f21420000c
:1036a80061072000100e200028ed02000000000035
:1036b80000c2eb0023002000f21420004109200082
:1036c800100e200028ed02000000000000c2eb00f0
:1036d800030220002200200061072000100e2000b5
:1036e80028ed02000000000000c2eb00a30020004b
:1036f80022002000c10620004013200028ed02000f
:103708000000000000c2eb00a300200022002000ff
:10371800c10620007018200028ed020000000000fb
:1037280000c2eb00a300200022002000c1062000f8
:10373800a01d200028ed02000000000000c2eb00e0
:10374800030220002200200061072000e022200060
:1037580028ed020000000000aabc20001b00200089
:103768000a00be008042eb0000c2eb000001be0070
:1037780081062000d00d2000eee9020000000000c4
:10378800acbc20001d0020000c00be000208200078
:103798000300200002004000838048008042eb00c4
:1037a80000c2eb000001be0081062000202220009c
:1037b800eee9020000000000a3bc200013079800f7
:1037c80011002000210798001e009000ae00900014
:1037d8008042eb0000c2eb000001be008106200021
:1037e800a0222000eee9020000000000a2bc200098
:1037f8003207980013002000430798003e0090000d
:10380800ce0090008042eb0000c2eb000001be0039
:103818008106200020232000eee9020000000000bd
:103828008042eb0000c2eb00c14727005107980017
:1038380012002000620798005e019000ee019000df
:10384800e107200000282000eee902000000000047
:103858008042eb0000c2eb00434b24007307980042
:1038680011002000010f98007e0190008e09900041
:10387800210b2000a00a2000eee902000000000051
:1038880000c2eb0023002000f2142000d10a20001f
:10389800100e200028ed02000000000000c2eb001e
:1038a80023002000f2142000b10c2000100e20008c
:1038b80028ed02000000000000c2eb000302200017
:1038c80022002000d10a2000100e200028ed02005e
:1038d8000000000000c2eb00a3002000220020002e
:1038e800310a20004013200028ed020000000000eb
:1038f80000c2eb00a300200022002000310a2000b3
:10390800a01d200028ed02000000000000c2eb000e
:103918000302200022002000d10a2000e02220001b
:1039280028ed02000000000000c2eb002300200088
:1039380082002000610a2000500d200028ed0200be
:1039480000000000a2bc2000120f98001300200005
:10395800230f98001e089000ae0890000205200072
:103968000300200002004000838048008042eb00f2
:1039780000c2eb000001be00f1092000d00d2000bc
:10398800eee9020000000000a3bc2000330f9800fd
:1039980011002000410f98003e089000ce089000ca
:1039a8008042eb0000c2eb000001be00f1092000dc
:1039b800500e2000eee9020000000000a2bc20002a
:1039c800520f980013002000630f98005e089000c3
:1039d800ee0890008042eb0000c2eb000001be0040
:1039e800f1092000d00e2000eee9020000000000de
:1039f800a1bc2000710f9800120020000217980047
:103a08007e0890008e1090008042eb0000c2eb0010
:103a18000001be00f109200030182000eee9020084
:103a28000000000000c2eb0003022000220020007a
:103a3800d10a20007018200028ed020000000000c4
:103a4800a3bc20001317980011002000211798002c
:103a58001e109000ae109000020520000300200008
:103a680002004000838048008042eb0000c2eb0067
:103a78000001be00f109200020222000eee902002a
:103a880000000000a3bc200033179800110020009c
:103a9800411798003e109000ce1090008042eb0035
:103aa80000c2eb000001be00f1092000a0222000a6
:103ab800eee9020000000000a2bc200052179800a6
:103ac80013002000631798005e109000ee1090001d
:103ad8008042eb0000c2eb000001be00f1092000ab
:103ae80020232000eee90200000000008042eb00e5
:103af80000c2eb00e149270071179800120020006e
:103b0800021f98007e1190008e199000510b200022
:103b180000282000eee90200000000008042eb00cf
:103b280000c2eb00a39d2600131f9800110020007f
:103b3800211f98001e199000ae199000910e2000c8
:103b4800d00a2000eee902000000000000c2eb00ed
:103b580023002000f2142000410e2000100e200047
:103b680028ed02000000000000c2eb002300200046
:103b7800f214200021102000100e200028ed020071
:103b88000000000000c2eb00030220002200200019
:103b9800410e2000100e200028ed02000000000059
:103ba80000c2eb00a300200022002000a10d20008d
:103bb8004013200028ed02000000000000c2eb00c6
:103bc800a300200022002000a10d20007018200072
:103bd80028ed02000000000000c2eb00a300200056
:103be80022002000a10d2000a01d200028ed0200c9
:103bf8000000000000c2eb000302200022002000a9
:103c0800410e2000e022200028ed02000000000004
:103c1800a2bc2000321f980013002000431f980008
:103c28003e189000ce1890008042eb0000c2eb00d6
:103c38000001be00610d2000d00d2000eee9020059
:103c480000000000a1bc2000511f980012002000b5
:103c5800621f98005e189000ee18900070004000f7
:103c6800e08048008042eb0000c2eb000001be008b
:103c7800610d200020222000eee902000000000073
:103c8800a3bc2000731f9800110020000127980092
:103c98007e1890008e2090008042eb0000c2eb005e
:103ca8000001be00610d2000a0222000eee9020004
:103cb80000000000a2bc200012279800130020007a
:103cc800232798001e209000ae2090008042eb0031
:103cd80000c2eb000001be00610d2000202320007f
:103ce800eee90200000000008042eb0000c2eb0099
:103cf80061522700312798001200200042279800bf
:103d08003e219000ce219000c10e20000028200006
:103d1800eee9020000000000a00a2000b04a880076
:103d2800e0182000c04a8800c14a8000b04a8000dc
:103d38008042eb0000c2eb0003f5230053279800f4
:103d480012002000622798005e219000ee2190006a
:103d5800eee9020000000000c14a8000b04a80007d
:103d68008002b0008042eb0000c2eb008300240018
:103d78007327980012002000022f98007e219000df
:103d88008e299000eee902000000000000192000d2
:103d9800b04a8800c14a8000b04a80008042eb00e7
:103da80000c2eb00c3fa2300132f98001200200072
:103db800222f98001e299000ae299000eee90200fb
:103dc80000000000c14a8000b04a80008002b000b4
:103dd8008042eb0000c2eb0083002400332f9800e0
:103de80012002000422f98003e299000ce29900012
:103df800eee902000000000050162000b04a8800da
:103e0800c14a8000b04a80008042eb0000c2eb004b
:103e1800a3c82600532f980012002000622f980094
:103e28005e299000ee299000eee9020000000000f3
:103e3800d0252000b04a8800c14a8000b04a8000de
:103e48008042eb0000c2eb00a3c82600732f980045
:103e580012002000023798007e2990008e319000d1
:103e6800eee902000000000090182000b04a880027
:103e7800f0102000c04a8800c14a8000b04a800083
:103e88008042eb0000c2eb00033a2400133798008d
:103e980012002000223798001e319000ae319000a9
:103ea800eee9020000000000c14a8000b04a80002c
:103eb8008002b0008042eb0000c2eb0063b7220032
:103ec8003337980012002000423798003e319000a6
:103ed800ce319000eee9020000000000c14a8000e7
:103ee800b04a80000006b0008042eb0000c2eb0040
:103ef80083fd240053379800120020006237980091
:103f08005e319000ee319000eee902000000000002
:103f1800c14a8000b04a8000200eb0008042eb0009
:103f280000c2eb00435027007337980012002000ae
:103f3800023f98007e3190008e399000eee9020031
:103f480000000000c04a8000fe004000b04a800027
:103f58008042eb0000c2eb00033a2400133f9800b4
:103f680012002000223f98001e399000ae399000c0
:103f7800eee9020000000000c04a8000fe00400098
:103f8800b04a80008002b0008042eb0000c2eb0023
:103f980083fd2400333f980012002000423f980020
:103fa8003e399000ce399000eee902000000000092
:103fb800c04a8000fe004000b04a8000200eb000d9
:103fc8008042eb0000c2eb0043502700533f9800ab
:103fd80012002000623f98005e399000ee39900090
:103fe800eee9020000000000c04a8000c103200082
:103ff80080804000b04a80000080e8008042eb00ea
:1040080000c2eb00c33f2400733f98001200200059
:10401800028798007e3990008e819000eee90200b8
:1040280000000000c04a8000c103200080804000da
:10403800b04a80008002b0008042eb0000c2eb0072
:10404800c3252500138798001200200022879800b6
:104058001e819000ae819000eee902000000000091
:10406800c04a8000c103200080804000b04a800020
:104078000005b0008042eb0000c2eb0083fd240085
:104088003387980012002000428798003e819000f4
:10409800ce819000eee9020000000000c04a8000d6
:1040a800c103200080804000b04a8000200eb0008c
:1040b8008042eb0000c2eb00435027005387980072
:1040c80012002000628798005e819000ee819000c7
:1040d800eee9020000000000c04a8000a1052000af
:1040e80080804000b04a80000080e8008042eb00f9
:1040f80000c2eb00c33f2400738798001200200021
:10410800028f98007e8190008e899000eee902006f
:1041180000000000c04a8000a10520008080400007
:10412800b04a80008002b0008042eb0000c2eb0081
:10413800832b2500138f980012002000228f9800ef
:104148001e899000ae899000eee902000000000090
:10415800c04a8000a105200080804000b04a80004d
:104168000005b0008042eb0000c2eb0083fd240094
:10417800338f980012002000428f98003e899000eb
:10418800ce899000eee9020000000000c04a8000dd
:10419800a105200080804000b04a8000200eb000b9
:1041a8008042eb0000c2eb0043502700538f980079
:1041b80012002000628f98005e899000ee899000be
:1041c800eee9020000000000300a2000b04a880032
:1041d800f0102000c04a8800c04a8000b64a80001b
:1041e8008042eb0000c2eb00c33f2400738f9800ad
:1041f80011002000019798007e8990008e91900010
:104208008000780006007800eee902000000000057
:1042180022e12000129798001300200023979800ad
:104228001e909000ae909000c74a8000b24a80006d
:1042380086022000020343008042eb0000c2eb002c
:104248000001be008700780006007800eee9020051
:1042580000000000c14a8000b04a80000005b0009c
:104268008042eb0000c2eb0082e6240032979800ff
:1042780013002000439798003e919000ce91900043
:10428800eee9020000000000c04a8000fe00400085
:10429800b04a80008042eb0000c2eb0002682400b4
:1042a8005297980013002000639798005e91900041
:1042b800ee919000eee902000000000021e12000ec
:1042c8007197980012002000029f98007e9090003d
:1042d8008e989000c24a8000fe034100b24a8000d6
:1042e80086022000020343008042eb0000c2eb007c
:1042f8000001be008700780006007800eee90200a1
:1043080000000000c04a8000fe004000b04a800063
:104318000005b0008042eb0000c2eb0083e62400f9
:10432800139f980012002000229f98001e99900069
:10433800ae999000eee90200000000004f06be00b2
:104348004f05be004f04be000080fa0000000600c2
:104358000400fa00881f78000040eb00004f780046
:104368000000eb001007980050222000b04a880097
:10437800f0102000c04a880013c9bf00e34f400076
:104388000200360080c2b30013e9b7003291200062
:1043980012417800c14a8000b04a800080c1eb0019
:1043a800d3f5070012c9bf00e34f400002003600f2
:1043b80080c2b30012e9b7002291200012417800b0
:1043c800c04a8000fe004000b04a800080c1eb0077
:1043d800c7f5070030c9bf00e34f400002003600b0
:1043e80080c2b30030e9b700029320001241780080
:1043f800c04a8000c103200080804000b04a80008d
:1044080080c1eb00baf5070036c9bf00e34f400092
:104418000200360080c2b30036e9b700629320007c
:1044280012417800c04a8000a10520008080400029
:10443800b04a800080c1eb00adf50700d012200023
:10444800b04a8800f0102000c04a8800d0c8bf00d9
:104458000004e0000300320000ceb300004f7800f3
:104468000200370000c0eb00004f7800d0c8bf0042
:104478000080fb008000eb00c84a8000b74a80003b
:104488001e4378008042eb0044c0b3000001be0028
:10449800880078000700780003f4070090c820001f
:1044a80010407800e34f40000300360090c8200019
:1044b8008040eb000148780090c820001040780048
:1044c8000004e0000300320000ceb300004f780083
:1044d8000200370000c0eb00004f780090c82000b1
:1044e800104078000080fb008000eb00c24a80008a
:1044f8007e044100b74a80001e4378008042eb00ea
:1045080044c0b3000001be008800780007007800ae
:10451800e5f307004f0478000080fa000000060069
:104528001800fa00889fbe008a9fbe008c9fbe00bc
:1045380090c4b300104798000040eb002047980053
:10454800e0c32000104078000080fb00610060009c
:10455800004078000004e00006003a00e0c32000b4
:10456800104078000080fb00620060000000e0005e
:104578000300320000ceb300104798000200370055
:1045880090c4b300104798008042eb001e42900090
:10459800228b220013002000c103200040082000c5
:1045a800eee9020000000000814d800000102000ac
:1045b800008060000000e0000300320000ceb3007d
:1045c800104798000200370090c4b30010479800c5
:1045d8008042eb001e42900048b7210019002000dd
:1045e8000801be00b1032000d00b2000eee9020054
:1045f8000000000060c02000104078000080fb0030
:10460800680060000000e00003003a0000ceb3003c
:10461800104798000200370090c4b3001047980074
:1046280040c82000104078008080fb0080032000f4
:10463800008060004380de00e10f50000f00320070
:10464800e10f500003003c000000e00006003200cb
:1046580019003700e20f50000d003200e30f500040
:104668001000320014003700c0c1b3001047980092
:104678000040eb00004f78001400370000ceb30074
:104688001047980010c0b300004f78000f003700a3
:10469800c0c1b3001047980020c0b300004f780095
:1046a8000a003700c0c1b3001047980030c0b300fb
:1046b800004f78000500370090c4b30010479800f9
:1046c8000040eb00004f7800000000002a762f0021
:1046d8000b0020000a01be009e80fb009005200010
:1046e8000088b900000078008000eb00000041005d
:1046f800818049008042eb001e4290000001be000c
:10470800e103200030142000eee902000000000060
:1047180070c82000104078000080fb006f00600027
:10472800cf80de00f200200003002000820f50003e
:10473800838f580043003e00006001000f003700df
:1047480022003700260037002a0037002e003700e5
:1047580032003700360037003a003700390037009a
:10476800380037003700370036003700350037008b
:10477800070037000b0037000f003700c0c1b30037
:10478800104798000040eb00004f780032003700d7
:1047980000ceb3001047980010c0b300004f780057
:1047a8002d003700c0c1b3001047980020c0b300e7
:1047b800004f780028003700c0c1b30010479800a8
:1047c80040c0b300004f780023003700c0c1b300d9
:1047d8001047980050c0b300004f78001e00370003
:1047e800c0c1b3001047980060c0b300004f780004
:1047f80019003700c0c1b3001047980070c0b3005b
:10480800004f780014003700c0c1b300104798006b
:1048180080c0b300004f78000f003700c0c1b3005c
:104828001047980090c0b300004f78000a00370086
:10483800c0c1b30010479800a0c0b300004f780073
:104848000500370090c4b300104798000040eb0003
:10485800004f78000000000021762f002107980003
:1048680002002000320798002e019000be0190003f
:104878009e80fb00900520000088b90000007800a9
:104888008000eb0000004100818049008042eb007d
:104898001e4290000001be00e10320000018200025
:1048a800eee902000000000000c9200090407800f6
:1048b80050c5b30080cf500003003a00c0c1b30018
:1048c800104798000200370090c4b30010479800c2
:1048d8008042eb001e429000437326004307980075
:1048e80011002000510798004e019000de01900051
:1048f80001042000a01b2000eee9020000000000d7
:1049080016c9bf000080fb00700060000000e000d6
:1049180003003200c0cfb3001047980002003700f0
:1049280090c4b30010479800f067800068006000ea
:104938000000e00003003a0000ceb30010479800e2
:104948000200370090c4b300104798008042eb0083
:104958001e429000024c21006207980013002000bc
:10496800730798006e019000fe01900091032000eb
:10497800e01e2000eee902000000000060c82000f0
:1049880010407800e14f500003003a000040eb006f
:10499800004f78001000370060c8200010407800f1
:1049a800e24f500003003a0010c0b300004f7800f7
:1049b8000900370060c8200010407800e34f50001d
:1049c80003003a0020c0b300004f7800020037000f
:1049d8000040eb00004f780041772000010f98005d
:1049e80012002000120f98000e0990009e099000f6
:1049f8009e80fb00100620000088b90000007800a7
:104a08008000eb0000004100818049008042eb00fb
:104a1800c4c1b3000001be0091032000f0222000b1
:104a2800eee902000000000043772000230f980001
:104a380011002000310f98002e089000be08900049
:104a4800321220000300200002004000838048004a
:104a58008042eb00c4c1b3000001be00d1042000b5
:104a6800f0222000eee9020000000000604d800006
:104a7800610060000000e0000300320000ceb300d7
:104a8800104798000200370090c4b3001047980000
:104a98008042eb001e429000cc4022001d00200006
:104aa8000c01be0091032000a0262000eee90200c0
:104ab800000000004f06be004f05be004f04be00b8
:104ac8000080fa00000006002e00fa00889fbe0051
:104ad8008a9fbe008c9fbe0090c4b300004f780030
:104ae800804d8000680060000000e0000300320094
:104af80000ceb300004f78000200370090c4b30026
:104b0800004f78008042eb001e427800829e210010
:104b18001300200051002000a0002000eee9020050
:104b280000000000604d8000680060000000e000a8
:104b380003003a0000ceb300004f780002003700af
:104b480090c4b300004f780040cc2000104078009b
:104b58009e4f50001400320040cc20001e487800c0
:104b68008042eb001e427800081421001900200042
:104b78000801be007100200030042000eee90200a8
:104b8800000000008042eb001e427800ea5a27002d
:104b98001b0020000a01be00310120006005200032
:104ba800eee9020000000000604d80006400600033
:104bb8000000e00003003200c0cfb300004f7800cf
:104bc8000200370090c4b300004f780050cc20009a
:104bd800104078009e4f50001700320050cc200043
:104be8001e4878008042eb001e4278000c3e2100ef
:104bf8001d0020000c01be007100200000082000ec
:104c0800eee90200000000008042eb001e4278003e
:104c180081452700110798001100200021079800fe
:104c28001e019000ae01900041012000c008200044
:104c3800eee9020000000000804d80007000600076
:104c48000000e0000300320000ceb300004f7800ff
:104c58000200370090c4b300004f78008042eb0098
:104c68001e42780081a7200031079800110020001b
:104c7800410798003e019000ce01900011002000ed
:104c8800c00b2000eee9020000000000814d80000a
:104c980000042000008060000000e00003003200f3
:104ca80000ceb300004f78000200370090c4b30074
:104cb800004f78008042eb001e42780061352200e8
:104cc8005107980011002000610798005e019000cc
:104cd800ee0190007100200010102000eee90200a3
:104ce8000000000040c82000104078000080fb0051
:104cf80063006000e10f50000600320040c8200049
:104d0800104078000080fb0063006000e20f500054
:104d180003003a00c0c1b300004f7800020037001a
:104d280090c4b300004f78008042eb001e42780028
:104d3800416222007107980011002000010f9800bd
:104d48007e0190008e099000d100200040132000c1
:104d5800eee902000000000060c520001040780065
:104d68000080fb00630060000000e00006003c00db
:104d780060c52000104078000080fb006c006000d7
:104d88000000e0000300340000ceb300004f7800bc
:104d98000200370090c4b300004f78008042eb0057
:104da8001e42780021772200110f98001100200080
:104db800210f98001e099000ae09900051002000b4
:104dc800b01b2000eee902000000000090c820009f
:104dd80010407800e24f50000400320090c82000d4
:104de80010407800e34f500003003a0000ceb300b3
:104df800004f78000200370090c4b300004f7800dd
:104e08008042eb001e42780001952200310f980085
:104e180011002000410f98003e099000ce09900033
:104e2800a1002000201f2000eee902000000000081
:104e380050c02000104078000080fb006200600035
:104e48000000e00003003a00c0cfb300004f780034
:104e58000200370090c4b300004f7800614d800015
:104e680000042000008060000000e0000300320021
:104e7800c0cfb300004f78000200370090c4b300e1
:104e8800004f780060cc2000104078009e4f500002
:104e98001a00320060cc20001e4878008042eb00e7
:104ea8001e427800013e2100510f98001100200099
:104eb800610f98005e099000ee09900071002000d3
:104ec80080262000eee90200000000008042eb008e
:104ed8001e42780041432700710f980011002000fe
:104ee800011798007e0990008e1190004101200062
:104ef80040272000eee9020000000000604d80001d
:104f0800700060000000e00003003a0000ceb3002b
:104f1800004f78000200370090c4b300004f7800bb
:104f280070cc2000104078009e4f50001a003200cc
:104f380070cc20001e4878008042eb001e427800aa
:104f48000114210011179800110020002117980062
:104f58001e119000ae11900071002000602a200000
:104f6800eee90200000000008042eb001e427800db
:104f7800a15c270031179800110020004117980004
:104f88003e119000ce11900031012000902b20009e
:104f9800eee9020000000000814d800000022000c0
:104fa800008060000000e0000300320000ceb30083
:104fb800004f78000200370090c4b300004f78001b
:104fc8008042eb001e427800819e21005117980014
:104fd80011002000611798005e119000ee119000fa
:104fe80051002000602e2000eee9020000000000c1
:104ff8004f06be004f05be004f04be000080fa00f9
:10500800000006000000fa00881f7800d010200079
:10501800b04a8800e0182000c04a8800204080007c
:105028008000eb00c84a8000b74a800000c3eb004c
:1050380015c0b30044c0b3000001be00880078006a
:105048000700780018f10700701e2000b04a880099
:105058003040800041408000a20020000300200072
:105068003e04020000000000c84a8000b74a8000e1
:1050780000c3eb008042eb0074c0b3000001be0027
:10508800880078000700780007f107004f047800cf
:105098000080fa00000006000200fa0052c9bf00b2
:1050a8000004e00004003a0010c0b30052e9b70061
:1050b800eff807003600370052c9bf00e14f500033
:1050c80004003a0020c0b30052e9b700a0fc070072
:1050d8002f00370052c9bf00e24f500004003a00c9
:1050e80030c0b30052e9b70077fe07002800370048
:1050f80052c9bf00e34f500005003a0040c0b3005a
:1051080052e9b700bfff070005fd07002000370080
:1051180052c9bf00e44f500006003a0050c0b30027
:1051280052e9b700d10a2000902420005cf707005c
:105138001700370052c9bf00e54f500004003a007d
:1051480060c0b30052e9b70059f8070010003700f3
:1051580052c9bf00e64f500006003a0070c0b300c5
:1051680052e9b7006107200090242000d5f6070017
:105178000700370052c9bf00e74f500003003a004c
:1051880010c0b30052e9b700010037005269ef00c0
:1051980054c9bf000004e00043003a00904c80006e
:1051a800680060000000e00019003200904c8000a8
:1051b8000030a100904c8800a0972000a00090002b
:1051c80000042000008060000000e00010003200b1
:1051d800c04c8000700060000000e0000c003a0045
:1051e800514c8000703e2000808f50000300360034
:1051f80040062000504c880003003700504c8000c7
:105208004006b000504c8800c8fe020000000000b4
:10521800904c8000610060000000e0001200320045
:10522800904c80000000a100904c8800b04c800099
:105238000000a100b04c8800904c80000030a10014
:10524800904c8800904c80000060a100904c880031
:10525800a04c80000010a100a04c88005269ef000b
:1052680010c0b30051e9b700b04c80006100600085
:105278000000e0000c003200b04c80000000a100eb
:10528800b04c8800904c80000000a100904c880031
:10529800904c80000030a100904c8800904c800019
:1052a8000060a100904c8800914c80000004200010
:1052b800008060000000e00078003200904c800020
:1052c8000060a100904c8800b04c80000000a10054
:1052d800b04c8800904c80000030a100904c8800b1
:1052e800904c80000000a100904c880010c0b300d2
:1052f800004f780054c9bf000004e00004003a00e1
:1053080054c9bf000040e80054e9b7000100370065
:105318005469ef0054c9bf000080fb00e20f500041
:105328001a003200e20f500005003c000000e000c7
:1053380008003200e10f50000d0032004c00370029
:10534800e30f500024003200e40f50003500320013
:1053580047003700a1972000110078000050a100f5
:105368008008780010c0b300004f7800480037006c
:10537800a1972000110078000050a1008008780053
:1053880020c0b300004f780041003700a1972000eb
:10539800110078000050a00080087800a197200034
:1053a800110078000040a00080087800a197200034
:1053b800110078000030a00080087800a197200034
:1053c800110078000020a0008008780060c0b300b9
:1053d800004f78002e003700a197200011007800b8
:1053e8000050a00080087800a197200011007800e4
:1053f8000040a10080087800a197200011007800e3
:105408000030a00080087800a197200011007800e3
:105418000020a0008008780060c0b300004f78002a
:105428001b003700a1972000110078000050a00051
:1054380080087800a1972000110078000040a000a3
:1054480080087800a1972000110078000030a100a2
:1054580080087800a1972000110078000020a000a3
:105468008008780060c0b300004f7800080037005b
:10547800a1972000110078000050a1008008780052
:1054880010c0b300004f78005469ef00000000001e
:105498001e4078002ce802000000000040c82000f0
:1054a800104078008080fb008003200000806000ae
:1054b800e80f50000c003a00b14c800000042000b6
:1054c800008060000000e00007003a00904c800077
:1054d8000060a000904c88005469ef00b04c800038
:1054e8000060a000b04c880040c820001040780040
:1054f8008080fb008003200000806000e80f5000df
:1055080010003200b14c80000004200000806000d0
:105518000000e0000b003200904c80000060a0000a
:10552800904c880040c0b30054e9b700b04c8000ec
:105538000060a100b04c8800d04c80000050a10051
:10554800d04c880040c82000104078008080fb00c4
:105558008003200000806000e80f50002700320020
:10556800a097200010009000620060000000e0009a
:105578000d003200d14c8000000220000080600045
:105588000000e00008003a00904c80000060a00095
:10559800904c880010c0b30054e9b700d04c80008c
:1055a8000050a000d04c8800a09720001000900068
:1055b800620060000000e00010003a00d14c80005a
:1055c80000022000008060000000e0000b003200b4
:1055d800904c80000060a000904c880040c0b30050
:1055e80054e9b700d04c80000050a100d04c88008e
:1055f800b04c80000060a100b04c88000080fa0028
:10560800000006000800fa00889fbe008a9fbe00be
:105618008c1f780040479800310798000000eb0085
:10562800000f78000000eb00100798000000eb0066
:10563800000f7800450037009e007800401a2000cf
:105648000088b90000007800740040008042eb0038
:1056580000c2eb0008b02300190020000801be00ba
:1056680011042000eee90200000000004e40900006
:105678000004e0000d0032009e007800401a20006f
:105688000088b90000007800c012b0008042eb002a
:1056980000c2eb00cab523001b0020000a01be00af
:1056a80011042000eee90200000000000000eb00f9
:1056b800100798001f0037003e0090001000780087
:1056c8000000e0001f0032003e009000100078004b
:1056d8008000eb003e0190000281e800320798004c
:1056e8009e019000220220000299b9000201780070
:1056f800dc052000020646009e017800421a2000c0
:105708000299b90002017800f603410000c3eb00da
:105718008042eb0024c0b3000001be008c0078007a
:105728000700780060ef07001e0090000000e80006
:10573800100798001e009000e90f5000deff3600a9
:1057480001003700000000001e0fe8001e0078006e
